:03000000020149B1
:0C014900787FE4F6D8FD75810702013CC8
:0D013C007D5A7C007F5A7E001200A080FEDC
:1000A000AB05AA0475BA8090FFF2E4F090FFF074FB
:1000B00006F0A3E4F0FC7D6412001590FFF0E0FC74
:1000C000A3E0FD12000390FF20EEF0A3EFF090FFFD
:1000D00020E0FEA3E0FF90FFF0E0FCA3E0C39FFF61
:1000E000EC9E90FF40F0A3EFF0AE02AF037C007DEA
:1000F0006412001590FFF0E0FCA3E0FD12000390F5
:10010000FF30EEF0A3EFF090FF30E0FEA3E0FF90B1
:10011000FFF0E0FCA3E0C39FFFEC9E90FF60F0A324
:10012000EFF090FF247480F090FF34F090FF44F0E3
:0C01300090FF64F0E4F5BA75FE8080FEDC
:10000300EF8DF0A4A8F0CF8CF0A428CE8DF0A42E11
:02001300FE22CB
:10001500C2D5EC30E709B2D5E4C39DFDE49CFCEE06
:1000250030E715B2D5E4C39FFFE49EFE12004BC333
:10003500E49DFDE49CFC800312004B30D507C3E42E
:060045009FFFE49EFE2275
:10004B00BC000BBE0029EF8DF084FFADF022E4CC99
:10005B00F875F008EF2FFFEE33FEEC33FCEE9DEC62
:10006B00984005FCEE9DFE0FD5F0E9E4CEFD22EDA8
:10007B00F8F5F0EE8420D21CFEADF075F008EF2FF2
:10008B00FFED33FD4007985006D5F0F222C398FDE3
:05009B000FD5F0EA2280
:00000001FF
