:10000000021A49C2B21219C0D2B21219C030B308D2
:10001000C2B2E47E007F0022C2B21219C07E007F0D
:10002000012232020022F920E73624F95003790731
:10003000E4F42402FBE582158270021583DBF6E00E
:1000400024FB501BE96014E4F0E582158270021570
:1000500083E004F0B40A08E4F0D9EE7401F00A2257
:10006000C2D522ED33EC3392D5FA602AB4FF33EDDA
:10007000C2E77BFF60067A007988E4227A007991F2
:1000800020D5047A00798C224E614E002B494E46D1
:10009000002D494E4600E47A08F0A3DAFC7B007498
:1000A0000722C083C082ECC0E0EDC0E0EEC0E0EF0C
:1000B000C0E0EA75F010A4CAABF075F04DA42BFBBC
:1000C000E435F0FCEA2410FAEB34C5FBEC34D9FC3F
:1000D000EDC2E7FF75F056A4F42411C5F0F434C561
:1000E0008FF0A42AE5F03BE43CF020E7141204363C
:1000F000D0E0FFD0E0FED0E0FDD0E0FC120369804C
:1001000014F404120436D0E0FFD0E0FED0E0FDD0BD
:10011000E0FC120260D082D083E0FAEDD2E7CD336A
:10012000EC332482FBE4C3CF33CFCE33CECD33CDFB
:1001300033DBF37B0775F00A846004F0A31B0AE548
:10014000F0F0A38FF0740AA4FFACF08EF0740AA450
:100150002CFEACF050010C8DF0740AA42CFDE4359B
:10016000F0F0A3DBDE7407220204ABE86480F8E958
:1001700033E83360110460F0ED33EC337009E8FCD0
:10018000E9FDEAFEEBFF220460DED3EB9FEA9EE985
:100190009DE8C2E78CF0C2F795F0400CE8CCF8E996
:1001A000CDF9EACEFAEBCFFB12047685D0F05804F5
:1001B000700320D5B3E80470075002B2D50204B52D
:1001C00092D5EC0460F7E4CCC0E0C398F8603B94AF
:1001D000186008400DD0E0FB02048DE4FBFAC9FC76
:1001E0008028E830E406E4C9FBE4CAFCE830E30513
:1001F000E4C9CACBFCE854076010F8C3E913F9EA74
:1002000013FAEB13FBEC13FCD8F130F52FC3E49C8D
:10021000FCEF9BFFEE9AFEED99FDD0E0FBEF4E4D1B
:100220004C701222DB030204B2EC2CFCEF33FFEE25
:1002300033FEED33FDED30E7EB02048DEF2BFFEEE7
:100240003AFEED39FDD0E0FB50130BBB0003020476
:10025000B5ED13FDEE13FEEF13FFEC13FC02048D5E
:10026000EC4D6011E8497017ED33EC3304600DE498
:10027000FCFFFEFD22E933E8330470F80204AB1200
:10028000047658046009E4CC248150062850090201
:1002900004B52840030204B2C0E0EB4A7044B980C0
:1002A00006D0E0FB0204A1EF4E701CBD8008EBFFFE
:1002B000EAFEE9FD80EBE98DF0A4FEE5F0020349DA
:1002C000E9CDF9EAFEEBFFEF89F0A4FCE5F0CE8979
:1002D000F0A42EFFE435F0CD89F0A42DFEE435F036
:1002E0008067EF4E7005BD80D780C3EF8BF0A4AC64
:1002F000F0EE8BF0A42CFCE435F0F8EF8AF0A42C9F
:10030000E5F038FCE433CB8DF0A42CFCE5F03BF8B1
:10031000EE8AF0A42CFCE5F038F8E433CF89F0A4A1
:100320002CFCE5F038CF3400CE89F0A42FFFE5F0A7
:100330003EFEE433C98DF0A42EFEE5F039CD8AF0FF
:10034000A42FFFE5F03EFEE43DFD33D0E0FB500777
:100350000BBB000F0204B5EC2CFCEF33FFEE33FEB9
:10036000ED33FD02048D0204B5EC5D046005E8592F
:100370000470030204AB120476580460F6EC486083
:10038000F2EC7004FDFEFF22C860DB2481C8500936
:10039000C398600250060204B29850CAF582E92957
:1003A0004B4A7005AB820204A175F0007C1A78807C
:1003B000C3EF9BEE9AED99400DC3EF9BFFEE9AFEC3
:1003C000ED99FDE842F0DC23ACF0D0E0FFD0E0FE98
:1003D000D0E0FDAB8220E7101BEB60BAEC2CFCEF09
:1003E00033FFEE33FEED33FD02048DE803F830E712
:1003F00005C0F075F000EF2FFFEE33FEED33FD404A
:10040000B830E7C280AA3F8000004120000042C807
:100410000000447A0000461C400047C35000497465
:1004200024004B1896804CBEBC205A0E1BCA675342
:10043000C21C749DC5AEFB60065407601C232312CA
:100440000464EB5438600912045012045F12026015
:10045000ECF8EDF9EEFAEFCB22EB12045F80F154E9
:100460003803241C900406FE93FC0EEE93FD0EEE62
:10047000930ECE93FF22E9D2E7C933E833F892D541
:10048000EDD2E7CD33EC33FC5002B2D522EC30E7AD
:10049000100FBF000C0EBE00080DBD00040BEB607A
:1004A00014A2D5EB13FCED92E7FD2274FFFCFDFED8
:1004B000FF22E480F8A2D574FF13FC7D80E480EF76
:1004C000BB010689828A83E0225002E722BBFE023A
:1004D000E32289828A83E49322BB010CE58229F519
:1004E00082E5833AF583E0225006E92582F8E62288
:1004F000BBFE06E92582F8E222E58229F582E58342
:100500003AF583E49322BB010689828A83F0225064
:1005100002F722BBFE01F322C5F0F8A3E028F0C5E4
:10052000F0F8E582158270021583E038F022A3F816
:10053000E0C5F025F0F0E582158270021583E0C871
:1005400038F0E822BB010A89828A83F0E5F0A3F043
:10055000225006F709A7F01922BBFE06F3E5F009C1
:10056000F31922E88FF0A4CC8BF0A42CFCE98EF0D8
:10057000A42CFC8AF0EDA42CFCEA8EF0A4CDA8F00B
:100580008BF0A42DCC3825F0FDE98FF0A42CCD35CF
:10059000F0FCEB8EF0A4FEA9F0EB8FF0A4CFC5F039
:1005A0002ECD39FEE43CFCEAA42DCE35F0FDE43C32
:1005B000FC2275F008758200EF2FFFEE33FECD337D
:1005C000CDCC33CCC58233C5829BED9AEC99E582C4
:1005D00098400CF582EE9BFEED9AFDEC99FC0FD550
:1005E000F0D6E4CEFBE4CDFAE4CCF9A88222B80040
:1005F000C1B90059BA002DEC8BF084CFCECDFCE50B
:10060000F0CBF97818EF2FFFEE33FEED33FDEC332E
:10061000FCEB33FB10D703994004EB99FB0FD8E5B3
:10062000E4F9FA227818EF2FFFEE33FEED33FDECFC
:1006300033FCC933C910D7059BE99A4007EC9BFCF2
:10064000E99AF90FD8E0E4C9FAE4CCFB2275F0107E
:10065000EF2FFFEE33FEED33FDCC33CCC833C810A3
:10066000D7079BEC9AE899400AED9BFDEC9AFCE8D1
:1006700099F80FD5F0DAE4CDFBE4CCFAE4C8F9221E
:10068000ECF0A3EDF0A3EEF0A3EFF022A8828583B7
:10069000F0D083D0821206A31206A31206A312067C
:1006A000A3E473E493A3C583C5F0C583C8C582C81A
:1006B000F0A3C583C5F0C583C8C582C822F8E0FB96
:1006C000A3A3E0F925F0F0E582158270021583E01E
:1006D000FA38F022EBF0A3EAF0A3E9F022D083D0BD
:1006E00082F8E4937012740193700DA3A393F874CD
:1006F0000193F5828883E4737402936860EFA3A387
:10070000A380DFE5082436F582E43400F583E005B4
:100710000822900033300703900036E475F0011290
:1007200006BD0204C02000E97F2ED2008018EF54DD
:100730000F2490D43440D4FF30040BEF24BFB41AFC
:100740000050032461FFE50960021509050CE50C62
:100750007002050B30070E900033E475F0011206AD
:10076000BDEF02050602195A7403D2078003E4C2E2
:1007700007F5089000331206D4E4F509F50BF50CE3
:10078000E50960077F2012074680F5750AFFC20160
:10079000C200C202C203C205C206C208120712FF8B
:1007A000700D3007057F00120757AF0CAE0B22B457
:1007B000255FC2D5C204120712FF24D0B40A00502C
:1007C0001A75F00A780930D50508B6FF0106C6A4E7
:1007D00026F620D5047002D20380D924CFB41A00A3
:1007E000EF5004C2E5D204020A49D20180C6D20009
:1007F00080C0D20280BCD2D580BAD20580B47F201E
:100800001207462002077401B5090040F1120703E0
:10081000FF120746020780D208D20680951207030E
:10082000FB120703FA120703F94A4B700679477A5D
:100830000B7BFF20022EE509602A7E008E827583E5
:10084000001204D960060EEE650A70F0C2D5EBC046
:10085000E0EAC0E0E9C0E0EE120AAAD0E0F9D0E098
:10086000FAD0E0FB1204C0FF60AAEBC0E0EAC0E0EF
:10087000E9C0E0120746D0E02401F9D0E03400FAE4
:10088000D0E0FBE50A0460DCD50AD98087D202807B
:10089000A2120A8C60F7E50A700104120026A90A68
:1008A000600DE50A600914F50A120B34EF60F3EAF3
:1008B00030E702F404C3995079EAF4250A0430E7DA
:1008C00001E404F50A800D120A8C60C1EA050A25CC
:1008D0000A120026EA900062F030E701E4250A04DB
:1008E000D50A0420050114120AAAE4C0E0120B3450
:1008F000900062E0601320E70714F012072E8022B8
:1009000004F0D0E014C0E07F0012072EE50A600773
:10091000120725150A800B300503120725D0E002C7
:100920000780D0E00480C4120A8C609EE50A04129D
:100930000026900062EAF0E50A2005026001042426
:1009400004120AAA74FF04C0E0120B3412072EE549
:100950000A2005026003120725D0E0B50AE87F45AA
:10096000120738900062E07F2B30E7047F2DF404FB
:10097000C0E0120746D0E075F00A84C0F012072FDD
:10098000D0E012072F020780791080027908C20692
:10099000C2088008D2D5790A8004790AC2D5E50A4E
:1009A000047002F50AE4FAFDFEFF120703FC7B085F
:1009B000200113120703FD7B1030000A120703FE0B
:1009C000120703FF7B20EC3382D592D55013C3E48A
:1009D0003000069FFFE49EFEE42001039DFDE49CA1
:1009E000FCE4CBF8C201EC700CCFCECDCCE824F8FF
:1009F000F870F38017C3EF33FFEE33FEED33FDECF9
:100A000033FCEB33FB994002FB0FD8E9EB300105D7
:100A1000F8D0E0C448B201C0E00AEC4D4E4F782057
:100A20007B0070C2EAB50A0040BCC0E0120AACD03C
:100A3000F0D0E0200104C4C0E0C4B201C0F012074D
:100A40002FD0F0D5F0EB0207801206DD081D530908
:100A5000885807EE4C07EA42098C4F0994440994E0
:100A600049080343099A5508C7460927450891478D
:100A70000B675007F22D07F62E08192B07FA2308EB
:100A800017200B502A07B24800000811E50AB4FFEE
:100A900003750A06120703FC120703FD120703FE83
:100AA000120703FF90005B020063790AA2D52003BE
:100AB00014300509B910020404B9080104A2D520B4
:100AC00006025001042002689202B509005034C0A9
:100AD000E07F203003197F30A20272067205500FAA
:100AE000120B03C202C206C205C2087F30800F305B
:100AF0000503E9C0E0120746300503D0E0F9D0E075
:100B0000B509CC3005177F30B9100C1207467F5855
:100B10003004077F788003B90803120746300205C6
:100B20007F2D0207467F202008F87F2B2006F32226
:100B3000920280CF7F00B40700500B245BF582E463
:100B40003400F583E0FF22286E756C6C2900D20119
:100B50001207033001F8C201780930D50108F60206
:100B600007B22D504349581207032403B40500402F
:100B700001E4900B6293120737743A120737D203DD
:100B800075090402098825670000000000000000C4
:100B900000002F000000000700070000147F147FF2
:100BA0001400242A7F2A12006264081323003649A5
:100BB00055225000000503000000001C22410000E7
:100BC0000041221C000014083E08140008083E08DA
:100BD00008000000A0600000080808080800006085
:100BE000600000002010080402003E5149453E000C
:100BF00000427F4000004261514946002141454B7F
:100C000031001814127F10002745454539003C4A31
:100C10004949300001710905030036494949360048
:100C2000064949291E0000363600000000563600ED
:100C30000000081422410000141414141400004190
:100C400022140800020151090600324959513E00A0
:100C50007C1211127C007F49494936003E414141D6
:100C600022007F4141221C007F49494941007F0900
:100C7000090901003E4149497A007F0808087F00C0
:100C800000417F4100002040413F01007F081422C5
:100C900041007F40404040007F020C027F007F0403
:100CA00008107F003E4141413E007F0909090600CE
:100CB0003E4151215E007F091929460046494949B4
:100CC000310001017F0101003F4040403F001F20F3
:100CD00040201F003F4038403F0063140814630069
:100CE000070870080700615149454300007F4141F2
:100CF0000000552A552A55000041417F000004029A
:100D00000102040040404040400000010204000095
:100D10002054545478007F484444380038444444B4
:100D20002000384444487F00385454541800087E4A
:100D30000901020018A4A4A47C007F080404780020
:100D400000447D4000004080847D00007F102844E6
:100D5000000000417F4000007C04180478007C08FB
:100D600004047800384444443800FC242424180047
:100D700018242418FC007C08040408004854545427
:100D80002000043F444020003C4040207C001C20C8
:100D900040201C003C4030403C00442810284400C7
:100DA0001CA0A0A07C004464544C441414141414DB
:100DB000147B017A00792490002AEBF0A3EAF0A3D7
:100DC000E9F07B017A00792690002DEBF0A3EAF0A0
:100DD000A3E9F07B017A007928900030EBF0A3EAD8
:100DE000F0A3E9F0121107121A3C12176A12193314
:100DF000759850758900758E40758B8E758DFDD2F6
:100E00008ED2ACD2AF900069E0FEA3E0FFEE339546
:100E1000E0FDFC9000351206809000397405F07DED
:100E2000007F0012123490006BE0FEA3E0FFEE336F
:100E300095E0FDFC9000351206809000397405F0B5
:100E40007D017F0012123490006DE0FEA3E0FFEE02
:100E50003395E0FDFC900035120680900039740552
:100E6000F07D027F0012123490002AE0FBA3E0FA2A
:100E7000A3E0F9C003C002C00190002DE0FBA3E095
:100E8000FAA3E0F9900036EBF0A3EAF0A3E9F090C2
:100E90000030E0FBA3E0FAA3E0F9900039EBF0A307
:100EA000EAF0A3E9F090003CE4F0A37405F0D0016F
:100EB000D002D003120F7B7B017A007904C003C0FB
:100EC00002C0017BFF7A1A791C900036EBF0A3EA8E
:100ED000F0A3E9F09000397403F090003A74FCF04C
:100EE000900024E0FEA3E0FF90003BEFF090002490
:100EF000E0FEA3E0FFEF7804CEA2E713CE13D8F80C
:100F0000FF90003CEFF0900024E0FEA3E0FFEEFF36
:100F10003395E0FE90003DEFF0900024E0FEA3E06A
:100F2000FFEF780CCEA2E713CE13D8F8FF90003E67
:100F3000EFF090003F74FCF09000407403F0D0019B
:100F4000D002D003120768900023E4F0900023E061
:100F5000FFEFC394084003020E05900023E0FF74E6
:100F6000042FF582E43400F583E0FF8F993099FD7A
:100F7000C299900023E004F080D222900033EBF07D
:100F8000A3EAF0A3E9F090003E12068C00000000F6
:100F900090004212068C0000000090004612068C61
:100FA0000000000090004AE4F0A3E4F090003CE070
:100FB000FEA3E0FF90004AE0FCA3E0FDC3ED9FEE3E
:100FC0006480F8EC648098400302106A1214369032
:100FD000003EE0F8A3E0F9A3E0FAA3E0FB9000698B
:100FE000E0FEA3E0FFEE3395E0FDFCEB2FFFEA3ED1
:100FF000FEE93DFDE83CFC90003E12068090004278
:10100000E0F8A3E0F9A3E0FAA3E0FB90006BE0FEB8
:10101000A3E0FFEE3395E0FDFCEB2FFFEA3EFEE997
:101020003DFDE83CFC900042120680900046E0F84E
:10103000A3E0F9A3E0FAA3E0FB90006DE0FEA3E0DB
:10104000FFEE3395E0FDFCEB2FFFEA3EFEE93DFDB0
:10105000E83CFC90004612068090004BE004F070E3
:101060000690004AE004F0020FAC90003CE0FEA3C2
:10107000E0FFAB07AA06EA3395E0F9F890003EE0FE
:10108000FCA3E0FDA3E0FEA3E0FF1217F9900033FC
:10109000E0FBA3E0FAA3E0F9EE8FF0120544900024
:1010A0003CE0FEA3E0FFAB07AA06EA3395E0F9F8BF
:1010B000900042E0FCA3E0FDA3E0FEA3E0FF1217D6
:1010C000F9900036E0FBA3E0FAA3E0F9EE8FF0120E
:1010D000054490003CE0FEA3E0FFAB07AA06EA331C
:1010E00095E0F9F8900046E0FCA3E0FDA3E0FEA344
:1010F000E0FF1217F9900039E0FBA3E0FAA3E0F952
:10110000EE8FF0120544227D007C007FAE7E00123F
:10111000187F7D007C007F007E0012187F7D007CA0
:10112000007F107E0012187F7D007C007F407E00D3
:1011300012187F7D007C007FB07E0012187F7D003A
:101140007C007F817E0012187F7D007C007FFF7E07
:101150000012187F7D007C007FA17E0012187F7D29
:10116000007C007FA67E0012187F7D007C007FA897
:101170007E0012187F7D007C007F3F7E0012187F6A
:101180007D007C007FC87E0012187F7D007C007F80
:10119000D37E0012187F7D007C007F007E00121835
:1011A0007F7D007C007FD57E0012187F7D007C0053
:1011B0007F807E0012187F7D007C007FD87E001229
:1011C000187F7D007C007F057E0012187F7D007CEB
:1011D000007FD97E0012187F7D007C007FF17E00A9
:1011E00012187F7D007C007FDA7E0012187F7D0060
:1011F0007C007F127E0012187F7D007C007FDB7EEA
:101200000012187F7D007C007F307E0012187F7DE9
:10121000007C007F8D7E0012187F7D007C007F1493
:101220007E0012187F7D007C007FAF7E0012187F49
:101230001214AF22900033EFF0900034EDF09000E4
:101240003CE4F090003AE4F0900039E0FF90003A7E
:10125000E0FEEEC39F400302131590003AE0FF90BA
:101260000039E0FEC3EE9FFFEF14FD7F0A1216CD9A
:10127000A804A905AA06AB07900035E0FCA3E0FD91
:10128000A3E0FEA3E0FF1205EE7B0A7A0079007866
:10129000001205EEAC00AD01AE02AF0390003BEFD3
:1012A000F090003CE0FFEF703F900039E0FFEF145A
:1012B000FF90003AE0FEEEC39F502D90003BE0FF10
:1012C000EF701F90003AE0FFEF75F006A4FF90006A
:1012D00033E0FEEF2EFF900034E0FD7B201213166A
:1012E000802A90003C7401F090003AE0FFEF75F026
:1012F00006A4FF900033E0FEEF2EFF900034E0FDE7
:1013000090003BE0FEEE2430FB12131690003AE012
:1013100004F00212482290003DEFF090003EEDF004
:1013200090003FEBF0900040E4F0900041E4F0903A
:10133000003FE0FFEF24E0FF900040EFF090003D21
:10134000E0FFEFD3947F400C90003DE4F090003E2E
:10135000E02402F090003DE0FF90003EE0FD121717
:101360001C900041E4F0900041E0FFEFC394065070
:1013700037900041E0FF900040E0FE75F006EEA4DB
:101380002489F582E5F0340BF583E5822FF582E4BC
:101390003583F583E493FF7E007D017C0012187F86
:1013A000900041E004F080BE22900052EFF09000E7
:1013B00053EDF0900054EBF0A3EAF0A3E9F0121A19
:1013C0002D900052E0FFEF25E0FF12183D900053F2
:1013D000E0FF12183D900058E0FFEFB40103121A2D
:1013E0000A121A2D900052E0FFEF25E0FFEF4401B2
:1013F000FF12183D900057E014FFF0EF60207F01CE
:10140000121517900054E0FBA3E0FAA3E0F9EF12E5
:101410000506900055E475F00112051880D67F008E
:10142000121517900054E0FBA3E0FAA3E0F9EF12C5
:101430000506121A0A227B017A00794C9000577433
:1014400006F0900058E4F07D437F681213A99000E5
:101450004CE0FF7E00EF7F00FE90004DE0FD7C0041
:10146000EE4CFEEF4DFF900069EEF0A3EFF0900020
:101470004EE0FF7E00EF7F00FE90004FE0FD7C001D
:10148000EE4CFEEF4DFF90006BEEF0A3EFF09000FE
:1014900050E0FF7E00EF7F00FE900051E0FD7C00F9
:1014A000EE4CFEEF4DFF90006DEEF0A3EFF02290BA
:1014B0000033E4F0900033E0FFEFC39408505790FE
:1014C0000033E0FF7E00EF24B0FFEE3400FE7D002D
:1014D0007C0012187F7D007C007F007E0012187F48
:1014E0007D007C007F107E0012187F900034E4F0B5
:1014F000900034E0FFEFC3948050137D017C007FA7
:10150000007E0012187F900034E004F080E290002A
:1015100033E004F0809E22900059EFF090005BE4ED
:10152000F0C2B21219C0D2B390005AE4F090005A3F
:10153000E0FFEFC39408502C1219C0C2B21219C0B8
:10154000D2B21219C090005BE0FFEF25E0FF9000DF
:101550005BEFF030B30690005BE004F090005AE0DF
:1015600004F080C9C2B21219C0900059E0FF1219EC
:101570008190005BE0FF22900033EEF0A3EFF0904B
:101580000035E4F0A3E4F0900033E0FEA3E0FF9028
:101590000035E0FCA3E0FDC3ED9FEC9E50309000D1
:1015A00037741FF09000387428F0900038E014FF72
:1015B000F0EF70F6900037E014FFF0EF70EC900061
:1015C00036E004F07006900035E004F080B9229017
:1015D0000033EFF0900034EDF0900035EBF0121A8C
:1015E0002D900033E0FFEF25E0FF12183D9000340E
:1015F000E0FF12183D900035E0FFEFB40103121A2E
:101600000A121A2D900033E0FFEF25E0FFEF4401AE
:10161000FF12183D7F00121517900036EFF0121AD6
:101620000A900036E0FF22900049EFF090004AE473
:10163000F090004AE0FFEFC39408504090004AE069
:10164000FF900049E0FEEEA807088002C333D8FCF3
:10165000FFEF30E704D2948002C2947F017E001233
:10166000167DD2957F017E0012167DC2957F017E88
:101670000012167D90004AE004F080B52290004BE5
:10168000EEF0A3EFF090004DE4F0A3E4F090004BF7
:10169000E0FEA3E0FF90004DE0FCA3E0FDC3ED9F62
:1016A000EC9E502890004FE4F090004FE0FFEFC315
:1016B0009405500890004FE004F080ED90004EE05B
:1016C00004F0700690004DE004F080C12290003DCF
:1016D000EFF090003EEDF090003F12068C0000000D
:1016E0000190003EE0FF14F0EF602290003FE0F830
:1016F000A3E0F9A3E0FAA3E0FB90003DE0FFE4FCE7
:10170000FDFE12056390003F12068080D490003FDA
:10171000E0FCA3E0FDA3E0FEA3E0FF22900042EF87
:10172000F0900043EDF0900043E0FF7E00EF24B026
:10173000FFEE3400FE7D007C0012187F900042E036
:10174000FFEF54F0FFEFC4540FFF7E00EF4410FF93
:101750007D007C0012187F900042E0FFEF540FFFE5
:101760007E007D007C0012187F227F647E001215AF
:10177000771219337B007D6B7F681218B37B077D6E
:10178000197F681218B37B047D1A7F681218B37B27
:10179000187D1B7F681218B37B107D1C7F681218A0
:1017A000B37B007D6A7F681218B37B027D377F6848
:1017B0001218B322900049E4F07F011219A4D294C8
:1017C0007F017E0012167DD2957F017E0012167D6C
:1017D00030941C900049E004F0900049E0FFEFD302
:1017E00094FA40EC1219F37F001219A47F0122C26F
:1017F000957F001219A47F0022C2D5E830E70FB20E
:10180000D5E4C39BFBE49AFAE499F9E498F8EC3048
:10181000E717B2D512182F1205EEE4C39BFBE49A2A
:10182000FAE499F9E498F880031205EE30D50DE456
:10183000C39FFFE49EFEE49DFDE49CFC22900059C2
:10184000EFF090005A7408F090005AE0FF14F0EFA7
:101850006029900059E0FFEF30E704D2B38002C264
:10186000B3900059E0FFEF25E0FF900059EFF01230
:1018700019C0D2B21219C0C2B280CD120003229098
:101880000044EEF0A3EFF0900046ECF0A3EDF090F2
:101890000046E0FEA3E0FFEF4E600C900044E0FE47
:1018A000A3E0FF12190C22900044E0FEA3E0FF1217
:1018B00018E522900033EFF0900034EDF090003501
:1018C000EBF0121A2D900033E0FFEF25E0FF121825
:1018D0003D900034E0FF12183D900035E0FF1218F3
:1018E0003D121A0A22900048EFF01219DC7F78129C
:1018F00016271217B47F001216271217B49000484B
:10190000E0FF1216271217B41219F322900048EFC5
:10191000F01219DC7F781216271217B47F401216C6
:10192000271217B4900048E0FF1216271217B412BE
:1019300019F3227B007D6B7F681218B37B077D193A
:101940007F681218B37B007D197F681215CFEF6492
:10195000076004D2A180EED2A122EFB40A07740D71
:10196000121965740A309811A899B8130CC29830EE
:1019700098FDA899C298B811F63099FDC299F599C9
:101980002290005CEFF0C2B21219C090005CE0FF40
:10199000EF6004C2B38002D2B3D2B21219C0C2B295
:1019A0001219C02290004AEFF090004AE0FFEFB415
:1019B0000107759140759200227591007592002281
:1019C00090005DE4F0A37414F090005D74FF75F076
:1019D000FF12052EAFF0FEEF4E70EE22D294D2959C
:1019E0007F027E0012167DC2947F027E0012167D59
:1019F000C29522C295C2947F027E0012167DD295B6
:101A0000D2947F027E0012167D22C2B3C2B2121996
:101A1000C0D2B21219C0D2B31219C02225632563F5
:101A200025632563256325632563256300D2B3D22F
:101A3000B21219C0C2B31219C0C2B22243B10443D8
:101A4000B20443B10843B20822787FE4F6D8FD75AA
:051A50008121020DB12F
:00000001FF
