:1000000002170A02035CE86480F8E933E833601100
:100010000460F0ED33EC337009E8FCE9FDEAFEEB37
:10002000FF220460DED3EB9FEA9EE99DE8C2E78CE5
:10003000F0C2F795F0400CE8CCF8E9CDF9EACEFA39
:10004000EBCFFB12032785D0F05804700320D5B303
:10005000E80470075002B2D502036692D5EC046042
:10006000F7E4CCC0E0C398F8603B94186008400DFA
:10007000D0E0FB02033EE4FBFAC9FC8028E830E450
:1000800006E4C9FBE4CAFCE830E305E4C9CACBFCDA
:10009000E854076010F8C3E913F9EA13FAEB13FB0D
:1000A000EC13FCD8F130F52FC3E49CFCEF9BFFEE82
:1000B0009AFEED99FDD0E0FBEF4E4D4C701222DB25
:1000C00003020363EC2CFCEF33FFEE33FEED33FD54
:1000D000ED30E7EB02033EEF2BFFEE3AFEED39FD8C
:1000E000D0E0FB50130BBB0003020366ED13FDEEE3
:1000F00013FEEF13FFEC13FC02033EEC4D6011E81E
:10010000497017ED33EC3304600DE4FCFFFEFD2273
:10011000E933E8330470F802035C120327580460E3
:1001200009E4CC24815006285009020366284003C4
:10013000020363C0E0EB4A7044B98006D0E0FB02E2
:100140000352EF4E701CBD8008EBFFEAFEE9FD8014
:10015000EBE98DF0A4FEE5F00201E4E9CDF9EAFE59
:10016000EBFFEF89F0A4FCE5F0CE89F0A42EFFE4CC
:1001700035F0CD89F0A42DFEE435F08067EF4E70A8
:1001800005BD80D780C3EF8BF0A4ACF0EE8BF0A45C
:100190002CFCE435F0F8EF8AF0A42CE5F038FCE410
:1001A00033CB8DF0A42CFCE5F03BF8EE8AF0A42CC8
:1001B000FCE5F038F8E433CF89F0A42CFCE5F03806
:1001C000CF3400CE89F0A42FFFE5F03EFEE433C922
:1001D0008DF0A42EFEE5F039CD8AF0A42FFFE5F0D6
:1001E0003EFEE43DFD33D0E0FB50070BBB000F02A9
:1001F0000366EC2CFCEF33FFEE33FEED33FD020320
:100200003E020366EC5D046005E8590470030203D6
:100210005C120327580460F6EC4860F2EC7004FDB1
:10022000FEFF22C860DB2481C85009C398600250D9
:10023000060203639850CAF582E9294B4A7005AB60
:100240008202035275F0007C1A7880C3EF9BEE9A0D
:10025000ED99400DC3EF9BFFEE9AFEED99FDE8424C
:10026000F0DC23ACF0D0E0FFD0E0FED0E0FDAB82CC
:1002700020E7101BEB60BAEC2CFCEF33FFEE33FEF3
:10028000ED33FD02033EE803F830E705C0F075F0FA
:1002900000EF2FFFEE33FEED33FD40B830E7C280B4
:1002A000AAED33EC33600A047003BD8004ECB2E7BE
:1002B000FC2275F020800E75F010800575F0087D29
:1002C000007E007F003392D530D5031207A9EC33AE
:1002D0004010EF33FFEE33FEED33FDEC33FCD5F091
:1002E000ED22E5F0247EA2D513CC92E7CDCEFF22FD
:1002F000EDD2E7CD33EC3392D524814006E4FFFE06
:10030000FDFC22FCE4CFCECDCC24E0501174FF8064
:10031000EDC3CC13CCCD13CDCE13CECF13CF047001
:10032000F030D5DE0207A9E9D2E7C933E833F89205
:10033000D5EDD2E7CD33EC33FC5002B2D522EC3010
:10034000E7100FBF000C0EBE00080DBD00040BEB44
:100350006014A2D5EB13FCED92E7FD2274FFFCFDC7
:10036000FEFF22E480F8A2D574FF13FC7D80E480B8
:10037000EF74F8CC6480CCC86480C8F58204604F08
:10038000C3EB9FF5F0EA9E42F0E99D42F0E89C4500
:10039000F0603C501DE5825FFFE582D313CB5BCB61
:1003A000F42B5582FB50280ABA002409B900200812
:1003B000801DE5825BFBE582D313CF5FCFF4C313CF
:1003C0002F5582FF50090EBE00050DBD00010CC364
:1003D000EB9FF5F0EA9E42F0E99D42F0E89C45F083
:1003E0006007CC4820E701B3EC22F920E73624F976
:1003F00050037907E4F42402FBE5821582700215AC
:1004000083DBF6E024FB501BE96014E4F0E5821581
:100410008270021583E004F0B40A08E4F0D9EE74A7
:1004200001F00A22C2D522ED33EC3392D5FA602ACC
:10043000B4FF33EDC2E77BFF60067A04794CE42217
:100440007A04795520D5047A047950224E614E0001
:100450002B494E46002D494E4600E47A08F0A3DAB7
:10046000FC7B00740722C083C082ECC0E0EDC0E0DA
:10047000EEC0E0EFC0E0EA75F010A4CAABF075F092
:100480004DA42BFBE435F0FCEA2410FAEB34C5FB59
:10049000EC34D9FCEDC2E7FF75F056A4F42411C585
:1004A000F0F434C58FF0A42AE5F03BE43CF020E7FB
:1004B0001412055CD0E0FFD0E0FED0E0FDD0E0FCFF
:1004C0001202048014F40412055CD0E0FFD0E0FEB8
:1004D000D0E0FDD0E0FC1200FBD082D083E0FAED4A
:1004E000D2E7CD33EC332482FBE4C3CF33CFCE331A
:1004F000CECD33CD33DBF37B0775F00A846004F097
:10050000A31B0AE5F0F0A38FF0740AA4FFACF08EF1
:10051000F0740AA42CFEACF050010C8DF0740AA407
:100520002CFDE435F0F0A3DBDE7407223F800000F1
:100530004120000042C80000447A0000461C4000F0
:1005400047C35000497424004B1896804CBEBC2011
:100550005A0E1BCA6753C21C749DC5AEFB6006547D
:1005600007601C232312058AEB54386009120576B4
:100570001205851200FBECF8EDF9EEFAEFCB22EB59
:1005800012058580F1543803241C90052CFE93FC41
:100590000EEE93FD0EEE930ECE93FF22C0E0EFFB26
:1005A000EEFAEDF9ECF81200FBD0E0F5F0EFFBEE1F
:1005B000FAEDF9ECF81207B7A3A3A3A3E8C0E0E9AA
:1005C000C0E0EAC0E0EBC0E0C0F01200FB1207D3CD
:1005D000A3A3A3A312000AD0F0D0E0FBD0E0FAD08E
:1005E000E0F9D0E0F8D5F0D422BB010689828A83F5
:1005F000E0225002E722BBFE02E32289828A83E4E2
:100600009322BB010CE58229F582E5833AF583E06C
:10061000225006E92582F8E622BBFE06E92582F88B
:10062000E222E58229F582E5833AF583E49322BB51
:10063000010689828A83F0225002F722BBFE01F371
:1006400022C5F0F8A3E028F0C5F0F8E58215827025
:10065000021583E038F022A3F8E0C5F025F0F0E5BC
:1006600082158270021583E0C838F0E822BB010AC7
:1006700089828A83F0E5F0A3F0225006F709A7F0FB
:100680001922BBFE06F3E5F009F31922E88FF0A466
:10069000CC8BF0A42CFCE98EF0A42CFC8AF0EDA409
:1006A0002CFCEA8EF0A4CDA8F08BF0A42DCC38253C
:1006B000F0FDE98FF0A42CCD35F0FCEB8EF0A4FE1C
:1006C000A9F0EB8FF0A4CFC5F02ECD39FEE43CFCB1
:1006D000EAA42DCE35F0FDE43CFC2275F0087582CD
:1006E00000EF2FFFEE33FECD33CDCC33CCC58233BC
:1006F000C5829BED9AEC99E58298400CF582EE9BC1
:10070000FEED9AFDEC99FC0FD5F0D6E4CEFBE4CDDE
:10071000FAE4CCF9A88222B800C1B90059BA002D78
:10072000EC8BF084CFCECDFCE5F0CBF97818EF2F31
:10073000FFEE33FEED33FDEC33FCEB33FB10D70360
:10074000994004EB99FB0FD8E5E4F9FA227818EF09
:100750002FFFEE33FEED33FDEC33FCC933C910D768
:10076000059BE99A4007EC9BFCE99AF90FD8E0E475
:10077000C9FAE4CCFB2275F010EF2FFFEE33FEED4B
:1007800033FDCC33CCC833C810D7079BEC9AE8991B
:10079000400AED9BFDEC9AFCE899F80FD5F0DAE4FD
:1007A000CDFBE4CCFAE4C8F922C3E49FFFE49EFE4B
:1007B000E49DFDE49CFC22E493FC740193FD74022F
:1007C00093FE740393FF22E0F8A3E0F9A3E0FAA3F9
:1007D000E0FB22E493F8740193F9740293FA740332
:1007E00093FB22ECF0A3EDF0A3EEF0A3EFF022A830
:1007F000828583F0D083D082120806120806120880
:1008000006120806E473E493A3C583C5F0C583C844
:10081000C582C8F0A3C583C5F0C583C8C582C822F8
:10082000F8E0FBA3A3E0F925F0F0E5821582700261
:100830001583E0FA38F022EBF0A3EAF0A3E9F02206
:10084000D083D082F8E4937012740193700DA3A347
:1008500093F8740193F5828883E47374029368605B
:10086000EFA3A3A380DF9000321207E39000B3E070
:10087000FCA3E0FDA3E0FEA3E0FFC004C005C006AA
:10088000C0079000A2E0F8A3E0F9A3E0FAA3E0FB20
:10089000900036E0FCA3E0FDA3E0FEA3E0FF120021
:1008A000069000A7E0F8A3E0F9A3E0FAA3E0FB12AA
:1008B00000FBA804A905AA06AB07D007D006D005FF
:1008C000D00412000A9000B31207E390008AE0F807
:1008D000A3E0F9A3E0FAA3E0FB900096E0FCA3E01C
:1008E000FDA3E0FEA3E0FF12000690008EE0F8A357
:1008F000E0F9A3E0FAA3E0FB1200069000721207F1
:10090000E3900092E0FCA3E0FDA3E0FEA3E0FF1271
:1009100002A19000761207E3900092E0FCA3E0FDB4
:10092000A3E0FEA3E0FF1202A190007A1207E39079
:1009300000B7E0FCA3E0FDA3E0FEA3E0FF90007E93
:100940001207E3900086E0FCA3E0FDA3E0FEA3E035
:10095000FFC004C005C006C0079000A7E0FCA3E0EC
:10096000FDA3E0FEA3E0FF900072E0F8A3E0F9A38E
:10097000E0FAA3E0FB1200FBA804A905AA06AB0756
:10098000D007D006D005D00412000A9000861207C6
:10099000E390008AE0FCA3E0FDA3E0FEA3E0FFC03B
:1009A00004C005C006C0079000A7E0FCA3E0FDA3BB
:1009B000E0FEA3E0FF900076E0F8A3E0F9A3E0FA00
:1009C000A3E0FB1200FBA804A905AA06AB07D00709
:1009D000D006D005D00412000A90008A1207E390D6
:1009E000008EE0FCA3E0FDA3E0FEA3E0FFC004C096
:1009F00005C006C0079000A7E0FCA3E0FDA3E0FE51
:100A0000A3E0FF90007AE0F8A3E0F9A3E0FAA3E006
:100A1000FB1200FBA804A905AA06AB07D007D00665
:100A2000D005D00412000A90008E1207E3900092C5
:100A3000E0FCA3E0FDA3E0FEA3E0FFC004C005C00E
:100A400006C0079000A7E0FCA3E0FDA3E0FEA3E042
:100A5000FF90007EE0F8A3E0F9A3E0FAA3E0FB1228
:100A600000FBA804A905AA06AB07D007D006D0054D
:100A7000D00412000A9000921207E39000B3E0F84D
:100A8000A3E0F9A3E0FAA3E0FB900032E0FCA3E0CE
:100A9000FDA3E0FEA3E0FF12000690006A1207E348
:100AA0009000A6E0FCEC1202BC900086E0F8A3E007
:100AB000F9A3E0FAA3E0FB1200FB90006E1207E33B
:100AC0009000A6E0FCEC1202BC90008EE0F8A3E0DF
:100AD000F9A3E0FAA3E0FB1200FB9000821207E307
:100AE0009000A6E0FCEC1202BC90006EE0F8A3E0DF
:100AF000F9A3E0FAA3E0FB1200FB90009AE0F8A350
:100B0000E0F9A3E0FAA3E0FB12000A90009E1207AE
:100B1000E390009EE0F8A3E0F9A3E0FAA3E0FB90E5
:100B2000006EE0FCA3E0FDA3E0FEA3E0FF120204E0
:100B30009000AB1207E390009EE0F8A3E0F9A3E079
:100B4000FAA3E0FB900082E0FCA3E0FDA3E0FEA39B
:100B5000E0FF1202049000AF1207E390006EE0FC89
:100B6000A3E0FDA3E0FEA3E0FF9000621207E39084
:100B700000A6E0FCEC1202BC90008AE0F8A3E0F9C9
:100B8000A3E0FAA3E0FB1200FB9000661207E390DB
:100B90000086E0FCA3E0FDA3E0FEA3E0FFC004C0EC
:100BA00005C006C007900062E0FCA3E0FDA3E0FEE4
:100BB000A3E0FF9000ABE0F8A3E0F9A3E0FAA3E024
:100BC000FB1200FBA804A905AA06AB07D007D006B4
:100BD000D005D0041200069000861207E390008A28
:100BE000E0FCA3E0FDA3E0FEA3E0FFC004C005C05D
:100BF00006C007900066E0FCA3E0FDA3E0FEA3E0D2
:100C0000FF9000ABE0F8A3E0F9A3E0FAA3E0FB1249
:100C100000FBA804A905AA06AB07D007D006D0059B
:100C2000D00412000690008A1207E390008EE0FCC8
:100C3000A3E0FDA3E0FEA3E0FFC004C005C006C022
:100C400007900062E0FCA3E0FDA3E0FEA3E0FF90BC
:100C500000AFE0F8A3E0F9A3E0FAA3E0FB1200FB89
:100C6000A804A905AA06AB07D007D006D005D00472
:100C700012000690008E1207E3900092E0FCA3E0C1
:100C8000FDA3E0FEA3E0FFC004C005C006C00790BE
:100C90000066E0FCA3E0FDA3E0FEA3E0FF9000AF50
:100CA000E0F8A3E0F9A3E0FAA3E0FB1200FBA8043C
:100CB000A905AA06AB07D007D006D005D0041200BC
:100CC000069000921207E39000B3E0FCA3E0FDA3BE
:100CD000E0FEA3E0FFC004C005C006C00790006AA4
:100CE000E0FCA3E0FDA3E0FEA3E0FF9000ABE0F892
:100CF000A3E0F9A3E0FAA3E0FB1200FBA804A90516
:100D0000AA06AB07D007D006D005D00412000A907F
:100D100000B31207E39000A2E0FCA3E0FDA3E0FE15
:100D2000A3E0FFC004C005C006C00790006AE0FC55
:100D3000A3E0FDA3E0FEA3E0FF9000AFE0F8A3E096
:100D4000F9A3E0FAA3E0FB1200FBA804A905AA0698
:100D5000AB07D007D006D005D00412000A9000A23D
:100D60001207E39000A2E0F8A3E0F9A3E0FAA3E001
:100D7000FB900036E0FCA3E0FDA3E0FEA3E0FF1241
:100D800000069000BB1207E39000B3E0FCA3E0FD77
:100D9000A3E0FEA3E0FF22E5082435F582E4340059
:100DA000F583E0050822900032300703900035E417
:100DB00075F0011208200205E92000E97F2ED2001B
:100DC0008018EF540F2490D43440D4FF30040BEF3C
:100DD00024BFB41A0050032461FFE509600215091D
:100DE000050CE50C7002050B30070E900032E4751F
:100DF000F001120820EF02062F021CF27403D20742
:100E00008003E4C207F508900032120837E4F509C0
:100E1000F50BF50CE50960077F20120DDA80F575FA
:100E20000AFFC201C200C202C203C205C206C20852
:100E3000120DA6FF700D3007057F00120DEBAF0CF1
:100E4000AE0B22B4255FC2D5C204120DA6FF24D07A
:100E5000B40A00501A75F00A780930D50508B6FFB3
:100E60000106C6A426F620D5047002D20380D92438
:100E7000CFB41A00EF5004C2E5D2040210DDD20153
:100E800080C6D20080C0D20280BCD2D580BAD20542
:100E900080B47F20120DDA2002077401B5090040EA
:100EA000F1120D97FF120DDA020E14D208D206804D
:100EB00095120D97FB120D97FA120D97F94A4B7088
:100EC0000679DB7A117BFF20022EE509602A7E007D
:100ED0008E8275830012060260060EEE650A70F0BF
:100EE000C2D5EBC0E0EAC0E0E9C0E0EE12113ED0AE
:100EF000E0F9D0E0FAD0E0FB1205E9FF60AAEBC010
:100F0000E0EAC0E0E9C0E0120DDAD0E02401F9D057
:100F1000E03400FAD0E0FBE50A0460DCD50AD980B1
:100F200087D20280A212112060F7E50A7001041234
:100F300003EAA90A600DE50A600914F50A1211C84E
:100F4000EF60F3EA30E702F404C3995079EAF4253C
:100F50000A0430E701E404F50A800D12112060C193
:100F6000EA050A250A1203EAEA900061F030E70177
:100F7000E4250A04D50A042005011412113EE4C038
:100F8000E01211C8900061E0601320E70714F0122E
:100F90000DC2802204F0D0E014C0E07F00120DC228
:100FA000E50A6007120DB9150A800B300503120D12
:100FB000B9D0E0020E14D0E00480C4121120609E6B
:100FC000E50A041203EA900061EAF0E50A2005024E
:100FD000600104240412113E74FF04C0E01211C821
:100FE000120DC2E50A2005026003120DB9D0E0B56A
:100FF0000AE87F45120DCC900061E07F2B30E704BA
:101000007F2DF404C0E0120DDAD0E075F00A84C040
:10101000F0120DC3D0E0120DC3020E14791080023D
:101020007908C206C2088008D2D5790A8004790AF4
:10103000C2D5E50A047002F50AE4FAFDFEFF120DBE
:1010400097FC7B08200113120D97FD7B1030000ADE
:10105000120D97FE120D97FF7B20EC3382D592D5AF
:101060005013C3E43000069FFFE49EFEE42001031A
:101070009DFDE49CFCE4CBF8C201EC700CCFCECD1E
:10108000CCE824F8F870F38017C3EF33FFEE33FE9B
:10109000ED33FDEC33FCEB33FB994002FB0FD8E959
:1010A000EB300105F8D0E0C448B201C0E00AEC4DD5
:1010B0004E4F78207B0070C2EAB50A0040BCC0E009
:1010C000121140D0F0D0E0200104C4C0E0C4B2014D
:1010D000C0F0120DC3D0F0D5F0EB020E1412084090
:1010E0000EB153101C580E824C0E7E4210204F1031
:1010F00028441028490E9743102E550F5B460FBB0E
:10110000450F254711FB500E862D0E8A2E0EAD2B56
:101110000E8E230EAB2011E42A0E464800000EA5C9
:10112000E50AB4FF03750A06120D97FC120D97FD30
:10113000120D97FE120D97FF90005A020427790AAC
:10114000A2D5200314300509B910020404B908011E
:1011500004A2D52006025001042002689202B509BB
:10116000005034C0E07F203003197F30A2027206A5
:101170007205500F121197C202C206C205C2087F43
:1011800030800F300503E9C0E0120DDA300503D0DE
:10119000E0F9D0E0B509CC3005177F30B9100C125A
:1011A0000DDA7F583004077F788003B90803120DE9
:1011B000DA3002057F2D020DDA7F202008F87F2B20
:1011C0002006F322920280CF7F00B40700500B2448
:1011D0005AF582E43400F583E0FF22286E756C6CCA
:1011E0002900D201120D973001F8C201780930D5DB
:1011F0000108F6020E462D50434958120D9724035C
:10120000B405004001E49011F693120DCB743A122C
:101210000DCBD20375090402101C121391121DE2AA
:10122000121B02121CCB759850758900758E407583
:101230008BC7758DFED28ED2ACD2AF121796121814
:101240000F9000BFE0FCA3E0FDEC1202B7C004C0A9
:1012500005C006C0079000C3E0FCA3E0FDEC12024D
:10126000B79000361207E3D007D006D005D004129D
:1012700015E07B007A00793478431200FB7BC37A57
:10128000F5794878401202049000241207E3900098
:10129000C7E0FEA3E0FFC3E49FFDE49EFCEC120266
:1012A000B77B337A33798378411202049000281295
:1012B00007E3900024E0FCA3E0FDA3E0FEA3E0FF31
:1012C000C004C005C006C007900028E0FCA3E0FDF4
:1012D000A3E0FEA3E0FF9000361207E3D007D0069C
:1012E000D005D00412086690002C1207E390002C61
:1012F000E0FCA3E0FDA3E0FEA3E0FF1202F09000FB
:1013000030EEF0A3EFF07B017A007904C003C00255
:10131000C0017BFF7A1D79EF900035EBF0A3EAF076
:10132000A3E9F090002CE0FCA3E0FDA3E0FEA3E025
:10133000FF9000381207E3900024E0FCA3E0FDA337
:10134000E0FEA3E0FF90003C1207E3D001D002D002
:1013500003120DFC900023E4F0900023E0FF7404DE
:101360002FF582E43400F583E0FFEF700302123BB7
:10137000900023E0FF74042FF582E43400F583E04D
:10138000FF8F993099FDC299900023E004F080C945
:10139000227D007C007FAE7E00121C177D007C0049
:1013A0007F007E00121C177D007C007F107E0012E3
:1013B0001C177D007C007F407E00121C177D007C86
:1013C000007FB07E00121C177D007C007F817E00B4
:1013D000121C177D007C007FFF7E00121C177D0011
:1013E0007C007FA17E00121C177D007C007FA67E02
:1013F00000121C177D007C007FA87E00121C177D48
:10140000007C007F3F7E00121C177D007C007FC89F
:101410007E00121C177D007C007FD37E00121C17FB
:101420007D007C007F007E00121C177D007C007F09
:10143000D57E00121C177D007C007F807E00121C70
:10144000177D007C007FD87E00121C177D007C0079
:101450007F057E00121C177D007C007FD97E001264
:101460001C177D007C007FF17E00121C177D007C24
:10147000007FDA7E00121C177D007C007F127E0048
:10148000121C177D007C007FDB7E00121C177D0084
:101490007C007F307E00121C177D007C007F8D7EDB
:1014A00000121C177D007C007F147E00121C177D2B
:1014B000007C007FAF7E00121C1712188822BE121B
:1014C00049253E4CCCCDBEAAAAAB3F8000003E7A57
:1014D000DBB03EED63383F24BC7D3F490FDBED338D
:1014E000ECC2E7CC339200B4FF13ED547F600302EB
:1014F000035C7FDB7E0F7DC97C3F0215D3C201C335
:10150000947F401E7007EDD2E794904015EFFBEEFC
:10151000FAEDF9ECF87F007E007D807C3F1202043A
:10152000D201ED33EC33248430E705E4C0E0806B76
:1015300004FAEDD2E754F0C333DAFD540734002344
:1015400023C0E0CCC0E0F8EDC0E0F9EEC0E0FAEF77
:10155000C0E0FBE41202BCEC24FEFC90003A12074F
:10156000E31200FB7B007A007980783F12000A903A
:10157000003AE0B2E7CCF0A3E0CDF0A3E0CEF0A3D8
:10158000E0CFF0D0E0FBD0E0FAD0E0F9D0E0F81204
:10159000000A90003A1207C712020490003A12079C
:1015A000E39014BE740312059C90003A1207C71210
:1015B00000FBD0E0600F24CAF582E43414F58312F6
:1015C00007D312000A30010B7BDB7A0F79C978BF91
:1015D00012000AED33EC336006ECA20092E7FC2225
:1015E0009000321207E3900036E0F8A3E0F9A3E0A0
:1015F000FAA3E0FB900032E0FCA3E0FDA3E0FEA331
:10160000E0FF1202041214DE9000321207E3900091
:1016100036E030E759900032E0FCA3E0FDA3E0FEA5
:10162000A3E0FFECC0E0EDC0E0EEC0E0EFC0E0E41E
:10163000FFFEFDFC900032E0F8A3E0F9A3E0FAA37E
:10164000E0FB1203717BDB600250087A0F79497866
:101650004080067A0F794978C0D0E0FFD0E0FED014
:10166000E0FDD0E0FC12000A9000321207E3900087
:1016700032E0FCA3E0FDA3E0FEA3E0FF22900038EF
:10168000EFF0900039EDF090003AEBF0A3EAF0A310
:10169000E9F0121DD3900038E0FFEF25E0FF121BA8
:1016A000D5900039E0FF121BD590003EE0FFEFB46B
:1016B0000103121DC1121DD3900038E0FFEF25E099
:1016C000FFEF4401FF121BD590003DE014FFF0EF47
:1016D00060207F011218F090003AE0FBA3E0FAA32B
:1016E000E0F9EF12062F90003BE475F0011206417D
:1016F00080D67F001218F090003AE0FBA3E0FAA336
:10170000E0F9EF12062F121DC122787FE4F6D8FD12
:1017100075812102175102121AE493A3F8E493A3EE
:101720004003F68001F208DFF48029E493A3F85423
:1017300007240CC8C333C4540F4420C8834004F4A6
:1017400056800146F6DFE4800B01020408102040B9
:1017500080901950E47E019360BCA3FF543F30E5B4
:1017600009541FFEE493A360010ECF54C025E0602E
:10177000A840B8E493A3FAE493A3F8E493A3C8C5FC
:1017800082C8CAC583CAF0A3C8C582C8CAC583CAED
:10179000DFE9DEE780BE7B017A00793290003D749C
:1017A00006F090003EE4F07D3B7F6812167D9000CD
:1017B00032E0FF7E00EF7F00FE900033E0FD7C0012
:1017C000EE4CFEEF4DFF9000BFEEF0A3EFF0900067
:1017D00034E0FF7E00EF7F00FE900035E0FD7C00EE
:1017E000EE4CFEEF4DFF9000C1EEF0A3EFF0900045
:1017F00036E0FF7E00EF7F00FE900037E0FD7C00CA
:10180000EE4CFEEF4DFF9000C3EEF0A3EFF0227B15
:10181000017A00793290003D7406F090003EE4F0C9
:101820007D437F6812167D900032E0FF7E00EF7FDF
:1018300000FE900033E0FD7C00EE4CFEEF4DFF908B
:1018400000C5EEF0A3EFF0900034E0FF7E00EF7FE4
:1018500000FE900035E0FD7C00EE4CFEEF4DFF9069
:1018600000C7EEF0A3EFF0900036E0FF7E00EF7FC0
:1018700000FE900037E0FD7C00EE4CFEEF4DFF9047
:1018800000C9EEF0A3EFF022900032E4F0900032B5
:10189000E0FFEFC394085057900032E0FF7E00EF66
:1018A00024B0FFEE3400FE7D007C00121C177D008A
:1018B0007C007F007E00121C177D007C007F107E64
:1018C00000121C17900033E4F0900033E0FFEFC3E8
:1018D000948050137D017C007F007E00121C1790C5
:1018E0000033E004F080E2900032E004F0809E22B9
:1018F00090003FEFF0900041E4F0C2B2121D77D2A9
:10190000B3900040E4F0900040E0FFEFC394085033
:101910002C121D77C2B2121D77D2B2121D77900021
:1019200041E0FFEF25E0FF900041EFF030B306907B
:101930000041E004F0900040E004F080C9C2B2121F
:101940001D7790003FE0FF121D19900041E0FF223B
:101950004400B3000000004400BB0000000044004D
:10196000963C23D70A4400B73A83126F44009A3D4D
:101970000F5C294400A73CE560424100A6014400F9
:10198000A2000000005000720000000000000000F3
:1019900000000000000000005000863F80000000B2
:1019A000000000000000003F80000000900032EEC8
:1019B000F0A3EFF0900034E4F0A3E4F0900032E004
:1019C000FEA3E0FF900034E0FCA3E0FDC3ED9FEC3C
:1019D0009E5030900036741FF09000377428F090BD
:1019E0000037E014FFF0EF70F6900036E014FFF0DF
:1019F000EF70EC900035E004F07006900034E004E5
:101A0000F080B922900032EFF0900033EDF09000BA
:101A100034EBF0121DD3900032E0FFEF25E0FF120F
:101A20001BD5900033E0FF121BD5900034E0FFEF90
:101A3000B40103121DC1121DD3900032E0FFEF2547
:101A4000E0FFEF4401FF121BD57F001218F0900059
:101A500035EFF0121DC1900035E0FF22900039EF04
:101A6000F090003AE4F090003AE0FFEFC3940850A1
:101A70004090003AE0FF900039E0FEEEA8070880B1
:101A800002C333D8FCFFEF30E704D2948002C29443
:101A90007F017E00121AB2D2957F017E00121AB227
:101AA000C2957F017E00121AB290003AE004F080E5
:101AB000B52290003BEEF0A3EFF090003DE4F0A3E0
:101AC000E4F090003BE0FEA3E0FF90003DE0FCA3CB
:101AD000E0FDC3ED9FEC9E502890003FE4F09000A5
:101AE0003FE0FFEFC39405500890003FE004F08012
:101AF000ED90003EE004F0700690003DE004F080C0
:101B0000C1227F647E001219AC121CCB7B007D6B5E
:101B10007F68121C4B7B077D197F68121C4B7B046E
:101B20007D1A7F68121C4B7B187D1B7F68121C4B33
:101B30007B107D1C7F68121C4B7B007D6A7F6812C6
:101B40001C4B7B027D377F68121C4B22900039E4CE
:101B5000F07F01121D5BD2947F017E00121AB2D277
:101B6000957F017E00121AB230941C900039E00477
:101B7000F0900039E0FFEFD394FA40EC121DAA7FF9
:101B800000121D5B7F0122C2957F00121D5B7F004A
:101B900022C2D5E830E70FB2D5E4C39BFBE49AFA42
:101BA000E499F9E498F8EC30E717B2D5121BC712A4
:101BB0000717E4C39BFBE49AFAE499F9E498F880E8
:101BC0000312071730D50DE4C39FFFE49EFEE49D8A
:101BD000FDE49CFC2290003FEFF09000407408F080
:101BE000900040E0FF14F0EF602990003FE0FFEF2D
:101BF00030E704D2B38002C2B390003FE0FFEF258C
:101C0000E0FF90003FEFF0121D77D2B2121D77C2B5
:101C1000B280CD121D3C22900034EEF0A3EFF09084
:101C20000036ECF0A3EDF0900036E0FEA3E0FFEF0D
:101C30004E600C900034E0FEA3E0FF121CA4229042
:101C40000034E0FEA3E0FF121C7D22900032EFF092
:101C5000900033EDF0900034EBF0121DD390003281
:101C6000E0FFEF25E0FF121BD5900033E0FF121BD1
:101C7000D5900034E0FF121BD5121DC12290003810
:101C8000EFF0121D937F78121A5C121B4C7F00122A
:101C90001A5C121B4C900038E0FF121A5C121B4CAD
:101CA000121DAA22900038EFF0121D937F78121AAD
:101CB0005C121B4C7F40121A5C121B4C900038E0E7
:101CC000FF121A5C121B4C121DAA227B007D6B7F37
:101CD00068121C4B7B077D197F68121C4B7B007DB3
:101CE000197F68121A04EF64076004C2A180EED263
:101CF000A122EFB40A07740D121CFD740A3098116A
:101D0000A899B8130CC2983098FDA899C298B81138
:101D1000F63099FDC299F59922900042EFF0C2B2D7
:101D2000121D77900042E0FFEF6004C2B38002D240
:101D3000B3D2B2121D77C2B2121D7722C2B2121DE7
:101D400077D2B2121D7730B308C2B2E47E007F00B2
:101D500022C2B2121D777E007F012290003AEFF07E
:101D600090003AE0FFEFB4010775914075920022B0
:101D700075910075920022900043E4F0A37414F072
:101D800090004374FF75F0FF120657AFF0FEEF4E60
:101D900070EE22D294D2957F027E00121AB2C294C3
:101DA0007F027E00121AB2C29522C295C2947F02AF
:101DB0007E00121AB2D295D2947F027E00121AB21D
:101DC00022C2B3C2B2121D77D2B2121D77D2B312A1
:101DD0001D7722D2B3D2B2121D77C2B3121D77C2C1
:101DE000B22243B10443B20443B10843B2082225EE
:071DF000662025660D0A00C4
:00000001FF
