:10000000021258F920E73624F950037907E4F42462
:1000100002FBE582158270021583DBF6E024FB50BB
:100020001BE96014E4F0E582158270021583E00498
:10003000F0B40A08E4F0D9EE7401F00A22C2D52225
:10004000ED33EC3392D5FA602AB4FF33EDC2E77B8F
:10005000FF60067A007965E4227A00796E20D50483
:100060007A007969224E614E002B494E46002D4997
:100070004E4600E47A08F0A3DAFC7B00740722C045
:1000800083C082ECC0E0EDC0E0EEC0E0EFC0E0EA8B
:1000900075F010A4CAABF075F04DA42BFBE435F05D
:1000A000FCEA2410FAEB34C5FBEC34D9FCEDC2E7D2
:1000B000FF75F056A4F42411C5F0F434C58FF0A4F4
:1000C0002AE5F03BE43CF020E714120413D0E0FFF3
:1000D000D0E0FED0E0FDD0E0FC1203468014F40432
:1000E000120413D0E0FFD0E0FED0E0FDD0E0FC121F
:1000F000023DD082D083E0FAEDD2E7CD33EC332459
:1001000082FBE4C3CF33CFCE33CECD33CD33DBF35D
:100110007B0775F00A846004F0A31B0AE5F0F0A3E6
:100120008FF0740AA4FFACF08EF0740AA42CFEAC1D
:10013000F050010C8DF0740AA42CFDE435F0F0A30E
:10014000DBDE740722020488E86480F8E933E833D0
:1001500060110460F0ED33EC337009E8FCE9FDEA6E
:10016000FEEBFF220460DED3EB9FEA9EE99DE8C22E
:10017000E78CF0C2F795F0400CE8CCF8E9CDF9EA4D
:10018000CEFAEBCFFB12045385D0F0580470032055
:10019000D5B3E80470075002B2D502049292D5ECB0
:1001A0000460F7E4CCC0E0C398F8603B94186008A2
:1001B000400DD0E0FB02046AE4FBFAC9FC8028E8A9
:1001C00030E406E4C9FBE4CAFCE830E305E4C9CA4C
:1001D000CBFCE854076010F8C3E913F9EA13FAEB13
:1001E00013FBEC13FCD8F130F52FC3E49CFCEF9B20
:1001F000FFEE9AFEED99FDD0E0FBEF4E4D4C7012F4
:1002000022DB0302048FEC2CFCEF33FFEE33FEED18
:1002100033FDED30E7EB02046AEF2BFFEE3AFEED23
:1002200039FDD0E0FB50130BBB0003020492ED1329
:10023000FDEE13FEEF13FFEC13FC02046AEC4D60BD
:1002400011E8497017ED33EC3304600DE4FCFFFE58
:10025000FD22E933E8330470F8020488120453588D
:10026000046009E4CC248150062850090204922835
:10027000400302048FC0E0EB4A7044B98006D0E02E
:10028000FB02047EEF4E701CBD8008EBFFEAFEE926
:10029000FD80EBE98DF0A4FEE5F0020326E9CDF93F
:1002A000EAFEEBFFEF89F0A4FCE5F0CE89F0A42E86
:1002B000FFE435F0CD89F0A42DFEE435F08067EF42
:1002C0004E7005BD80D780C3EF8BF0A4ACF0EE8BF1
:1002D000F0A42CFCE435F0F8EF8AF0A42CE5F0381B
:1002E000FCE433CB8DF0A42CFCE5F03BF8EE8AF077
:1002F000A42CFCE5F038F8E433CF89F0A42CFCE51D
:10030000F038CF3400CE89F0A42FFFE5F03EFEE4B4
:1003100033C98DF0A42EFEE5F039CD8AF0A42FFF6D
:10032000E5F03EFEE43DFD33D0E0FB50070BBB00A3
:100330000F020492EC2CFCEF33FFEE33FEED33FDA5
:1003400002046A020492EC5D046005E8590470033B
:10035000020488120453580460F6EC4860F2EC7012
:1003600004FDFEFF22C860DB2481C85009C39860E9
:1003700002500602048F9850CAF582E9294B4A7050
:1003800005AB8202047E75F0007C1A7880C3EF9B77
:10039000EE9AED99400DC3EF9BFFEE9AFEED99FDAD
:1003A000E842F0DC23ACF0D0E0FFD0E0FED0E0FD8E
:1003B000AB8220E7101BEB60BAEC2CFCEF33FFEEB6
:1003C00033FEED33FD02046AE803F830E705C0F0C0
:1003D00075F000EF2FFFEE33FEED33FD40B830E750
:1003E000C280AA3F8000004120000042C8000044B3
:1003F0007A0000461C400047C35000497424004B5B
:100400001896804CBEBC205A0E1BCA6753C21C747F
:100410009DC5AEFB60065407601C2323120441EB0C
:100420005438600912042D12043C12023DECF8ED20
:10043000F9EEFAEFCB22EB12043C80F1543803249E
:100440001C9003E3FE93FC0EEE93FD0EEE930ECE96
:1004500093FF22E9D2E7C933E833F892D5EDD2E72A
:10046000CD33EC33FC5002B2D522EC30E7100FBF95
:10047000000C0EBE00080DBD00040BEB6014A2D5ED
:10048000EB13FCED92E7FD2274FFFCFDFEFF22E47E
:1004900080F8A2D574FF13FC7D80E480EFBB0106D9
:1004A00089828A83E0225002E722BBFE02E322898E
:1004B000828A83E49322BB010CE58229F582E583DD
:1004C0003AF583E0225006E92582F8E622BBFE06D3
:1004D000E92582F8E222E58229F582E5833AF5836F
:1004E000E49322BB010689828A83F0225002F7221C
:1004F000BBFE01F322C5F0F8A3E028F0C5F0F8E553
:1005000082158270021583E038F022A3F8E0C5F06E
:1005100025F0F0E582158270021583E0C838F0E816
:1005200022E88FF0A4CC8BF0A42CFCE98EF0A42C54
:10053000FC8AF0EDA42CFCEA8EF0A4CDA8F08BF0A0
:10054000A42DCC3825F0FDE98FF0A42CCD35F0FC9E
:10055000EB8EF0A4FEA9F0EB8FF0A4CFC5F02ECD6A
:1005600039FEE43CFCEAA42DCE35F0FDE43CFC224F
:1005700075F008758200EF2FFFEE33FECD33CDCC42
:1005800033CCC58233C5829BED9AEC99E5829840C5
:100590000CF582EE9BFEED9AFDEC99FC0FD5F0D6A2
:1005A000E4CEFBE4CDFAE4CCF9A88222B800C1B9CC
:1005B0000059BA002DEC8BF084CFCECDFCE5F0CB0A
:1005C000F97818EF2FFFEE33FEED33FDEC33FCEB43
:1005D00033FB10D703994004EB99FB0FD8E5E4F9FE
:1005E000FA227818EF2FFFEE33FEED33FDEC33FCEB
:1005F000C933C910D7059BE99A4007EC9BFCE99ADF
:10060000F90FD8E0E4C9FAE4CCFB2275F010EF2F23
:10061000FFEE33FEED33FDCC33CCC833C810D70723
:100620009BEC9AE899400AED9BFDEC9AFCE899F85E
:100630000FD5F0DAE4CDFBE4CCFAE4C8F922ECF013
:10064000A3EDF0A3EEF0A3EFF022A8828583F0D013
:1006500083D082120661120661120661120661E4FD
:1006600073E493A3C583C5F0C583C8C582C8F0A34E
:10067000C583C5F0C583C8C582C822F8E0FBA3A323
:10068000E0F925F0F0E582158270021583E0FA3872
:10069000F022EBF0A3EAF0A3E9F022D083D082F8B5
:1006A000E4937012740193700DA3A393F8740193F3
:1006B000F5828883E4737402936860EFA3A3A38038
:1006C000DF2567000000000000000000002F000090
:1006D00000000700070000147F147F1400242A7F05
:1006E0002A12006264081323003649552250000084
:1006F0000503000000001C224100000041221C00F4
:100700000014083E08140008083E0808000000A075
:100710006000000808080808000060600000002071
:1007200010080402003E5149453E0000427F40004F
:10073000004261514946002141454B3100181412D5
:100740007F10002745454539003C4A4949300001A2
:100750007109050300364949493600064949291EF1
:100760000000363600000000563600000008142253
:100770004100001414141414000041221408000253
:100780000151090600324959513E007C1211127C78
:10079000007F49494936003E41414122007F4141A5
:1007A000221C007F49494941007F09090901003E97
:1007B0004149497A007F0808087F0000417F4100D5
:1007C000002040413F01007F08142241007F40404B
:1007D0004040007F020C027F007F0408107F003E33
:1007E0004141413E007F09090906003E4151215E19
:1007F000007F091929460046494949310001017F16
:100800000101003F4040403F001F2040201F003FAB
:100810004038403F0063140814630007087008075D
:1008200000615149454300007F41410000552A5570
:100830002A55000041417F000004020102040040EB
:10084000404040400000010204000020545454780D
:10085000007F48444438003844444420003844442D
:10086000487F00385454541800087E0901020018CB
:10087000A4A4A47C007F080404780000447D400008
:10088000004080847D00007F102844000000417FEC
:100890004000007C04180478007C080404780038C8
:1008A0004444443800FC242424180018242418FC50
:1008B000007C0804040800485454542000043F44B9
:1008C0004020003C4040207C001C2040201C003C7C
:1008D0004030403C004428102844001CA0A0A07CCC
:1008E000004464544C441414141414147D007C000B
:1008F0007FAE7E001210A77D007C007F007E00127C
:1009000010A77D007C007F107E001210A77D007C68
:10091000007F407E001210A77D007C007FB07E002B
:100920001210A77D007C007F817E001210A77D0041
:100930007C007FFF7E001210A77D007C007FA17EDF
:10094000001210A77D007C007FA67E001210A77DFC
:10095000007C007FA87E001210A77D007C007F3FF6
:100960007E001210A77D007C007FC87E001210A7B9
:100970007D007C007FD37E001210A77D007C007F6D
:10098000007E001210A77D007C007FD57E00121033
:10099000A77D007C007F807E001210A77D007C0078
:1009A0007FD87E001210A77D007C007F057E00129C
:1009B00010A77D007C007FD97E001210A77D007CEF
:1009C000007FF17E001210A77D007C007FDA7E00A0
:1009D0001210A77D007C007F127E001210A77D0000
:1009E0007C007FDB7E001210A77D007C007F307EC4
:1009F000001210A77D007C007F8D7E001210A77D65
:100A0000007C007F147E001210A77D007C007FAF69
:100A10007E001210A7120D1B2290000EEFF0900026
:100A20000FEDF0900017E4F0900015E4F090001442
:100A3000E0FF900015E0FEEEC39F4003020AFA902B
:100A40000015E0FF900014E0FEC3EE9FFFEF14FDE1
:100A50007F0A120F39A804A905AA06AB0790001057
:100A6000E0FCA3E0FDA3E0FEA3E0FF1205AC7B0ADF
:100A70007A00790078001205ACAC00AD01AE02AF8F
:100A800003900016EFF0900017E0FFEF703F90002A
:100A900014E0FFEF14FF900015E0FEEEC39F502D11
:100AA000900016E0FFEF701F900015E0FFEF75F06B
:100AB00006A4FF90000EE0FEEF2EFF90000FE0FD79
:100AC0007B20120AFB802A9000177401F090001519
:100AD000E0FFEF75F006A4FF90000EE0FEEF2EFFA2
:100AE00090000FE0FD900016E0FEEE2430FB120AAD
:100AF000FB900015E004F0020A2D22900018EFF0A0
:100B0000900019EDF090001AEBF090001BE4F090CB
:100B1000001CE4F090001AE0FFEF24E0FF90001BBF
:100B2000EFF0900018E0FFEFD3947F400C90001896
:100B3000E4F0900019E02402F0900018E0FF90002B
:100B400019E0FD120F8890001CE4F090001CE0FFFB
:100B5000EFC39406503790001CE0FF90001BE0FEAE
:100B600075F006EEA424C4F582E5F03406F583E5BD
:100B7000822FF582E43583F583E493FF7E007D01C7
:100B80007C001210A790001CE004F080BE229000B0
:100B900014EFF0900015EDF0900016EBF0A3EAF0E2
:100BA000A3E9F012123C900014E0FFEF25E0FF12E1
:100BB0001065900015E0FF12106590001AE0FFEF3D
:100BC000B4010312122A12123C900014E0FFEF2528
:100BD000E0FFEF4401FF121065900019E014FFF0F0
:100BE000EF60207F01120D83900016E0FBA3E0FA76
:100BF000A3E0F9EF1204E3900017E475F00112048A
:100C0000F580D67F00120D83900016E0FBA3E0FA7A
:100C1000A3E0F9EF1204E312122A221208EC1212D6
:100C20004B120FD612115B120CA2900031E0FEA302
:100C3000E0FFEE3395E0FDFC90001012063E9000C0
:100C4000147405F07D007F00120A19900033E0FE55
:100C5000A3E0FFEE3395E0FDFC90001012063E90FD
:100C600000147405F07D017F00120A19900035E030
:100C7000FEA3E0FFEE3395E0FDFC90001012063E6F
:100C80009000147405F07D027F00120A19C2A17F42
:100C9000647E00120DE3D2A17F647E00120DE3801A
:100CA00086227B017A00790E9000197406F090007C
:100CB0001AE4F07D437F68120B8E90000EE0FF7EF9
:100CC00000EF7F00FE90000FE0FD7C00EE4CFEEF99
:100CD0004DFF900031EEF0A3EFF0900010E0FF7EAA
:100CE00000EF7F00FE900011E0FD7C00EE4CFEEF77
:100CF0004DFF900033EEF0A3EFF0900012E0FF7E86
:100D000000EF7F00FE900013E0FD7C00EE4CFEEF54
:100D10004DFF900035EEF0A3EFF02290000EE4F0CE
:100D200090000EE0FFEFC39408505790000EE0FFD4
:100D30007E00EF24B0FFEE3400FE7D007C00121038
:100D4000A77D007C007F007E001210A77D007C0044
:100D50007F107E001210A790000FE4F090000FE0CB
:100D6000FFEFC3948050137D017C007F007E001252
:100D700010A790000FE004F080E290000EE004F075
:100D8000809E2290001BEFF090001DE4F0C2B21292
:100D900011E0D2B390001CE4F090001CE0FFEFC320
:100DA0009408502C1211E0C2B21211E0D2B212110A
:100DB000E090001DE0FFEF25E0FF90001DEFF03018
:100DC000B30690001DE004F090001CE004F080C920
:100DD000C2B21211E090001BE0FF12118290001DC0
:100DE000E0FF2290000EEEF0A3EFF0900010E4F090
:100DF000A3E4F090000EE0FEA3E0FF900010E0FC02
:100E0000A3E0FDC3ED9FEC9E5030900012741FF0E4
:100E10009000137428F0900013E014FFF0EF70F6C8
:100E2000900012E014FFF0EF70EC900011E004F07D
:100E30007006900010E004F080B92290000EEFF0F0
:100E400090000FEDF0900010EBF012123C90000EAD
:100E5000E0FFEF25E0FF12106590000FE0FF121099
:100E600065900010E0FFEFB4010312122A12123C49
:100E700090000EE0FFEF25E0FFEF4401FF12106548
:100E80007F00120D83900011EFF012122A900011D2
:100E9000E0FF22900024EFF0900025E4F090002580
:100EA000E0FFEFC394085040900025E0FF9000243D
:100EB000E0FEEEA807088002C333D8FCFFEF30E75E
:100EC00004D2948002C2947F017E00120EE9D29572
:100ED0007F017E00120EE9C2957F017E00120EE9AD
:100EE000900025E004F080B522900026EEF0A3EFFC
:100EF000F0900028E4F0A3E4F0900026E0FEA3E0E8
:100F0000FF900028E0FCA3E0FDC3ED9FEC9E50287D
:100F100090002AE4F090002AE0FFEFC39405500807
:100F200090002AE004F080ED900029E004F07006C3
:100F3000900028E004F080C122900018EFF09000AB
:100F400019EDF090001A12064A00000001900019F5
:100F5000E0FF14F0EF602290001AE0F8A3E0F9A39C
:100F6000E0FAA3E0FB900018E0FFE4FCFDFE1205B0
:100F70002190001A12063E80D490001AE0FCA3E0F3
:100F8000FDA3E0FEA3E0FF2290001DEFF090001E05
:100F9000EDF090001EE0FF7E00EF24B0FFEE340085
:100FA000FE7D007C001210A790001DE0FFEF54F0C2
:100FB000FFEFC4540FFF7E00EF4410FF7D007C0064
:100FC0001210A790001DE0FFEF540FFF7E007D0080
:100FD0007C001210A7227F647E00120DE312115BC9
:100FE0007B007D6B7F681210DB7B077D197F6812A9
:100FF00010DB7B047D1A7F681210DB7B187D1B7F62
:10100000681210DB7B107D1C7F681210DB7B007D7B
:101010006A7F681210DB7B027D377F681210DB224B
:10102000900024E4F07F011211C4D2947F017E006D
:10103000120EE9D2957F017E00120EE930941C90C9
:101040000024E004F0900024E0FFEFD394FA40EC99
:101050001212137F001211C47F0122C2957F001269
:1010600011C47F002290001BEFF090001C7408F068
:1010700090001CE0FF14F0EF602990001BE0FFEFF0
:1010800030E704D2B38002C2B390001BE0FFEF252B
:10109000E0FF90001BEFF01211E0D2B21211E0C29B
:1010A000B280CD1211A52290001FEEF0A3EFF090B8
:1010B0000021ECF0A3EDF0900021E0FEA3E0FFEFB3
:1010C0004E600C90001FE0FEA3E0FF12113422904E
:1010D000001FE0FEA3E0FF12110D2290000EEFF0C2
:1010E00090000FEDF0900010EBF012123C90000E0B
:1010F000E0FFEF25E0FF12106590000FE0FF1210F7
:1011000065900010E0FF12106512122A2290002351
:10111000EFF01211FC7F78120E931210207F001254
:101120000E93121020900023E0FF120E9312102055
:1011300012121322900023EFF01211FC7F78120E8E
:10114000931210207F40120E93121020900023E083
:10115000FF120E93121020121213227B007D6B7F60
:10116000681210DB7B077D197F681210DB7B007D26
:10117000197F68120E3BEF64076004D2A180EED2A3
:10118000A12290001EEFF0C2B21211E090001EE00A
:10119000FFEF6004C2B38002D2B3D2B21211E0C238
:1011A000B21211E022C2B21211E0D2B21211E0303A
:1011B000B308C2B2E47E007F0022C2B21211E07E08
:1011C000007F0122900025EFF0900025E0FFEFB4B2
:1011D0000107759140759200227591007592002269
:1011E00090001FE4F0A37414F090001F74FF75F0DA
:1011F000FF12050BAFF0FEEF4E70EE22D294D295A7
:101200007F027E00120EE9C2947F027E00120EE978
:10121000C29522C295C2947F027E00120EE9D29539
:10122000D2947F027E00120EE922C2B3C2B2121122
:10123000E0D2B21211E0D2B31211E022D2B3D2B294
:101240001211E0C2B31211E0C2B22243B10443B2A0
:101250000443B10843B20822787FE4F6D8FD7581D3
:0412600007020C1B5A
:00000001FF
