:100000000216DE020325E86480F8E933E833601164
:100010000460F0ED33EC337009E8FCE9FDEAFEEB37
:10002000FF220460DED3EB9FEA9EE99DE8C2E78CE5
:10003000F0C2F795F0400CE8CCF8E9CDF9EACEFA39
:10004000EBCFFB1202F085D0F05804700320D5B33B
:10005000E80470075002B2D502032F92D5EC046079
:10006000F7E4CCC0E0C398F8603B94186008400DFA
:10007000D0E0FB020307E4FBFAC9FC8028E830E487
:1000800006E4C9FBE4CAFCE830E305E4C9CACBFCDA
:10009000E854076010F8C3E913F9EA13FAEB13FB0D
:1000A000EC13FCD8F130F52FC3E49CFCEF9BFFEE82
:1000B0009AFEED99FDD0E0FBEF4E4D4C701222DB25
:1000C0000302032CEC2CFCEF33FFEE33FEED33FD8B
:1000D000ED30E7EB020307EF2BFFEE3AFEED39FDC3
:1000E000D0E0FB50130BBB000302032FED13FDEE1A
:1000F00013FEEF13FFEC13FC020307EC4D6011E855
:10010000497017ED33EC3304600DE4FCFFFEFD2273
:10011000E933E8330470F80203251202F058046052
:1001200009E4CC2481500628500902032F284003FB
:1001300002032CC0E0EB4A7044B98006D0E0FB0219
:10014000031BEF4E701CBD8008EBFFEAFEE9FD804B
:10015000EBE98DF0A4FEE5F00201E4E9CDF9EAFE59
:10016000EBFFEF89F0A4FCE5F0CE89F0A42EFFE4CC
:1001700035F0CD89F0A42DFEE435F08067EF4E70A8
:1001800005BD80D780C3EF8BF0A4ACF0EE8BF0A45C
:100190002CFCE435F0F8EF8AF0A42CE5F038FCE410
:1001A00033CB8DF0A42CFCE5F03BF8EE8AF0A42CC8
:1001B000FCE5F038F8E433CF89F0A42CFCE5F03806
:1001C000CF3400CE89F0A42FFFE5F03EFEE433C922
:1001D0008DF0A42EFEE5F039CD8AF0A42FFFE5F0D6
:1001E0003EFEE43DFD33D0E0FB50070BBB000F02A9
:1001F000032FEC2CFCEF33FFEE33FEED33FD020357
:100200000702032FEC5D046005E859047003020344
:10021000251202F0580460F6EC4860F2EC7004FD20
:10022000FEFF22C860DB2481C85009C398600250D9
:100230000602032C9850CAF582E9294B4A7005AB97
:100240008202031B75F0007C1A7880C3EF9BEE9A44
:10025000ED99400DC3EF9BFFEE9AFEED99FDE8424C
:10026000F0DC23ACF0D0E0FFD0E0FED0E0FDAB82CC
:1002700020E7101BEB60BAEC2CFCEF33FFEE33FEF3
:10028000ED33FD020307E803F830E705C0F075F031
:1002900000EF2FFFEE33FEED33FD40B830E7C280B4
:1002A000AAED33EC33600A047003BD8004ECB2E7BE
:1002B000FC2275F020800E75F010800575F0087D29
:1002C000007E007F003392D530D503120772EC33E5
:1002D0004010EF33FFEE33FEED33FDEC33FCD5F091
:1002E000ED22E5F0247EA2D513CC92E7CDCEFF22FD
:1002F000E9D2E7C933E833F892D5EDD2E7CD33EC54
:1003000033FC5002B2D522EC30E7100FBF000C0EC8
:10031000BE00080DBD00040BEB6014A2D5EB13FC6E
:10032000ED92E7FD2274FFFCFDFEFF22E480F8A2BF
:10033000D574FF13FC7D80E480EF74F8CC6480CC2E
:10034000C86480C8F58204604FC3EB9FF5F0EA9E55
:1003500042F0E99D42F0E89C45F0603C501DE5828A
:100360005FFFE582D313CB5BCBF42B5582FB502888
:100370000ABA002409B9002008801DE5825BFBE56C
:1003800082D313CF5FCFF4C3132F5582FF50090ED2
:10039000BE00050DBD00010CC3EB9FF5F0EA9E42C7
:1003A000F0E99D42F0E89C45F06007CC4820E70169
:1003B000B3EC22F920E73624F950037907E4F4245A
:1003C00002FBE582158270021583DBF6E024FB5008
:1003D0001BE96014E4F0E582158270021583E004E5
:1003E000F0B40A08E4F0D9EE7401F00A22C2D52272
:1003F000ED33EC3392D5FA602AB4FF33EDC2E77BDC
:10040000FF60067A047915E4227A04791E20D50467
:100410007A047919224E614E002B494E46002D492F
:100420004E4600E47A08F0A3DAFC7B00740722C091
:1004300083C082ECC0E0EDC0E0EEC0E0EFC0E0EAD7
:1004400075F010A4CAABF075F04DA42BFBE435F0A9
:10045000FCEA2410FAEB34C5FBEC34D9FCEDC2E71E
:10046000FF75F056A4F42411C5F0F434C58FF0A440
:100470002AE5F03BE43CF020E714120525D0E0FF2C
:10048000D0E0FED0E0FDD0E0FC1202048014F404C1
:10049000120525D0E0FFD0E0FED0E0FDD0E0FC1258
:1004A00000FBD082D083E0FAEDD2E7CD33EC3324E9
:1004B00082FBE4C3CF33CFCE33CECD33CD33DBF3AA
:1004C0007B0775F00A846004F0A31B0AE5F0F0A333
:1004D0008FF0740AA4FFACF08EF0740AA42CFEAC6A
:1004E000F050010C8DF0740AA42CFDE435F0F0A35B
:1004F000DBDE7407223F8000004120000042C8007C
:1005000000447A0000461C400047C3500049742450
:10051000004B1896804CBEBC205A0E1BCA6753C2B3
:100520001C749DC5AEFB60065407601C2323120596
:1005300053EB5438600912053F12054E1200FBECD4
:10054000F8EDF9EEFAEFCB22EB12054E80F15438BC
:1005500003241C9004F5FE93FC0EEE93FD0EEE9327
:100560000ECE93FF22C0E0EFFBEEFAEDF9ECF812AD
:1005700000FBD0E0F5F0EFFBEEFAEDF9ECF8120736
:1005800080A3A3A3A3E8C0E0E9C0E0EAC0E0EBC019
:10059000E0C0F01200FB12079CA3A3A3A312000A61
:1005A000D0F0D0E0FBD0E0FAD0E0F9D0E0F8D5F020
:1005B000D422BB010689828A83E0225002E722BB53
:1005C000FE02E32289828A83E49322BB010CE58246
:1005D00029F582E5833AF583E0225006E92582F881
:1005E000E622BBFE06E92582F8E222E58229F582B1
:1005F000E5833AF583E49322BB010689828A83F07E
:10060000225002F722BBFE01F322C5F0F8A3E02836
:10061000F0C5F0F8E582158270021583E038F0220B
:10062000A3F8E0C5F025F0F0E5821582700215838D
:10063000E0C838F0E822BB010A89828A83F0E5F03D
:10064000A3F0225006F709A7F01922BBFE06F3E536
:10065000F009F31922E88FF0A4CC8BF0A42CFCE96C
:100660008EF0A42CFC8AF0EDA42CFCEA8EF0A4CD34
:10067000A8F08BF0A42DCC3825F0FDE98FF0A42C48
:10068000CD35F0FCEB8EF0A4FEA9F0EB8FF0A4CFFB
:10069000C5F02ECD39FEE43CFCEAA42DCE35F0FDAC
:1006A000E43CFC2275F008758200EF2FFFEE33FE6C
:1006B000CD33CDCC33CCC58233C5829BED9AEC993A
:1006C000E58298400CF582EE9BFEED9AFDEC99FCDC
:1006D0000FD5F0D6E4CEFBE4CDFAE4CCF9A8822223
:1006E000B800C1B90059BA002DEC8BF084CFCECD43
:1006F000FCE5F0CBF97818EF2FFFEE33FEED33FD7C
:10070000EC33FCEB33FB10D703994004EB99FB0F60
:10071000D8E5E4F9FA227818EF2FFFEE33FEED3337
:10072000FDEC33FCC933C910D7059BE99A4007ECAF
:100730009BFCE99AF90FD8E0E4C9FAE4CCFB2275F6
:10074000F010EF2FFFEE33FEED33FDCC33CCC8338A
:10075000C810D7079BEC9AE899400AED9BFDEC9AEC
:10076000FCE899F80FD5F0DAE4CDFBE4CCFAE4C864
:10077000F922C3E49FFFE49EFEE49DFDE49CFC227D
:10078000E493FC740193FD740293FE740393FF22BF
:10079000E0F8A3E0F9A3E0FAA3E0FB22E493F87405
:1007A0000193F9740293FA740393FB22ECF0A3ED26
:1007B000F0A3EEF0A3EFF022A8828583F0D083D0DF
:1007C000821207CF1207CF1207CF1207CFE473E4CC
:1007D00093A3C583C5F0C583C8C582C8F0A3C583EC
:1007E000C5F0C583C8C582C822F8E0FBA3A3E0F921
:1007F00025F0F0E582158270021583E0FA38F022C8
:10080000EBF0A3EAF0A3E9F022D083D082F8E493DE
:100810007012740193700DA3A393F8740193F58281
:100820008883E4737402936860EFA3A3A380DF90CE
:1008300000321207AC90006AE0FCA3E0FDA3E0FEEA
:10084000A3E0FFC004C005C006C0079000BAE0F8EE
:10085000A3E0F9A3E0FAA3E0FB900036E0FCA3E0FC
:10086000FDA3E0FEA3E0FF1200069000AEE0F8A3B7
:10087000E0F9A3E0FAA3E0FB1200FBA804A905AA93
:1008800006AB07D007D006D005D00412000A9000AE
:100890006A1207AC90006AE0F8A3E0F9A3E0FAA3BB
:1008A000E0FB900032E0FCA3E0FDA3E0FEA3E0FF4C
:1008B00012000690009A1207AC90008AE0F8A3E0BC
:1008C000F9A3E0FAA3E0FB90009EE0FCA3E0FDA307
:1008D000E0FEA3E0FF12000690008EE0F8A3E0F92E
:1008E000A3E0FAA3E0FB1200069000761207AC909A
:1008F0000092E0FCA3E0FDA3E0FEA3E0FF1202A152
:1009000090007A1207AC900092E0FCA3E0FDA3E017
:10091000FEA3E0FF1202A190007E1207AC9000BE81
:10092000E0FCA3E0FDA3E0FEA3E0FF90008212073D
:10093000AC900086E0FCA3E0FDA3E0FEA3E0FFC0D6
:1009400004C005C006C0079000AEE0FCA3E0FDA314
:10095000E0FEA3E0FF900076E0F8A3E0F9A3E0FA60
:10096000A3E0FB1200FBA804A905AA06AB07D00769
:10097000D006D005D00412000A9000861207AC9071
:10098000008AE0FCA3E0FDA3E0FEA3E0FFC004C0FA
:1009900005C006C0079000AEE0FCA3E0FDA3E0FEAA
:1009A000A3E0FF90007AE0F8A3E0F9A3E0FAA3E067
:1009B000FB1200FBA804A905AA06AB07D007D006C6
:1009C000D005D00412000A90008A1207AC90008E65
:1009D000E0FCA3E0FDA3E0FEA3E0FFC004C005C06F
:1009E00006C0079000AEE0FCA3E0FDA3E0FEA3E09C
:1009F000FF90007EE0F8A3E0F9A3E0FAA3E0FB1289
:100A000000FBA804A905AA06AB07D007D006D005AD
:100A1000D00412000A90008E1207AC900092E0FC05
:100A2000A3E0FDA3E0FEA3E0FFC004C005C006C034
:100A3000079000AEE0FCA3E0FDA3E0FEA3E0FF9082
:100A40000082E0F8A3E0F9A3E0FAA3E0FB1200FBC8
:100A5000A804A905AA06AB07D007D006D005D00484
:100A600012000A9000921207AC900086E0FCA3E00E
:100A7000FDA3E0FEA3E0FF9000AAE0F8A3E0F9A345
:100A8000E0FAA3E0FB1200FB90006E1207AC9000AE
:100A90008EE0FCA3E0FDA3E0FEA3E0FF9000AAE04F
:100AA000F8A3E0F9A3E0FAA3E0FB1200FB900072C8
:100AB0001207AC90006EE0FCA3E0FDA3E0FEA3E013
:100AC000FF9000AAE0F8A3E0F9A3E0FAA3E0FB128C
:100AD00000FB9000A2E0F8A3E0F9A3E0FAA3E0FB9A
:100AE00012000A9000A61207AC9000A6E0F8A3E05E
:100AF000F9A3E0FAA3E0FB90006EE0FCA3E0FDA305
:100B0000E0FEA3E0FF1202049000B21207AC9000D6
:100B1000A6E0F8A3E0F9A3E0FAA3E0FB900072E0FE
:100B2000FCA3E0FDA3E0FEA3E0FF1202049000B6E8
:100B30001207AC90006EE0FCA3E0FDA3E0FEA3E092
:100B4000FF9000621207AC90008AE0FCA3E0FDA3D6
:100B5000E0FEA3E0FF9000AAE0F8A3E0F9A3E0FA2A
:100B6000A3E0FB1200FB9000661207AC900086E049
:100B7000FCA3E0FDA3E0FEA3E0FFC004C005C006A7
:100B8000C007900062E0FCA3E0FDA3E0FEA3E0FF4D
:100B90009000B2E0F8A3E0F9A3E0FAA3E0FB1200B2
:100BA000FBA804A905AA06AB07D007D006D005D03C
:100BB000041200069000861207AC90008AE0FCA3A5
:100BC000E0FDA3E0FEA3E0FFC004C005C006C0072F
:100BD000900066E0FCA3E0FDA3E0FEA3E0FF900030
:100BE000B2E0F8A3E0F9A3E0FAA3E0FB1200FBA84F
:100BF00004A905AA06AB07D007D006D005D0041279
:100C0000000690008A1207AC90008EE0FCA3E0FD85
:100C1000A3E0FEA3E0FFC004C005C006C00790002B
:100C200062E0FCA3E0FDA3E0FEA3E0FF9000B6E0DD
:100C3000F8A3E0F9A3E0FAA3E0FB1200FBA804A9E3
:100C400005AA06AB07D007D006D005D004120006CF
:100C500090008E1207AC900092E0FCA3E0FDA3E0B0
:100C6000FEA3E0FFC004C005C006C007900066E018
:100C7000FCA3E0FDA3E0FEA3E0FF9000B6E0F8A334
:100C8000E0F9A3E0FAA3E0FB1200FBA804A905AA7F
:100C900006AB07D007D006D005D00412000690009E
:100CA000921207AC90006AE0FCA3E0FDA3E0FEA373
:100CB000E0FFC004C005C006C00790009AE0FCA396
:100CC000E0FDA3E0FEA3E0FF9000B2E0F8A3E0F9AE
:100CD000A3E0FAA3E0FB1200FBA804A905AA06AB57
:100CE00007D007D006D005D00412000A90006A127F
:100CF00007AC9000BAE0FCA3E0FDA3E0FEA3E0FF98
:100D0000C004C005C006C00790009AE0FCA3E0FD47
:100D1000A3E0FEA3E0FF9000B6E0F8A3E0F9A3E0B3
:100D2000FAA3E0FB1200FBA804A905AA06AB07D0B2
:100D300007D006D005D00412000A9000BA1207AC02
:100D40009000BAE0F8A3E0F9A3E0FAA3E0FB90007A
:100D500036E0FCA3E0FDA3E0FEA3E0FF1200069056
:100D600000961207AC90006AE0FCA3E0FDA3E0FE51
:100D7000A3E0FF22E5082435F582E43400F583E0A2
:100D8000050822900032300703900035E475F00129
:100D90001207E90205B22000E97F2ED2008018EF89
:100DA000540F2490D43440D4FF30040BEF24BFB44C
:100DB0001A0050032461FFE50960021509050CE5DE
:100DC0000C7002050B30070E900032E475F0011232
:100DD00007E9EF0205F8021CB47403D2078003E4AC
:100DE000C207F508900032120800E4F509F50BF58A
:100DF0000CE50960077F20120DB780F5750AFFC268
:100E000001C200C202C203C205C206C208120D839B
:100E1000FF700D3007057F00120DC8AF0CAE0B221E
:100E2000B4255FC2D5C204120D83FF24D0B40A00DA
:100E3000501A75F00A780930D50508B6FF0106C6C4
:100E4000A426F620D5047002D20380D924CFB41A88
:100E500000EF5004C2E5D2040210BAD20180C6D21B
:100E60000080C0D20280BCD2D580BAD20580B47FC7
:100E700020120DB72002077401B5090040F1120DD0
:100E800074FF120DB7020DF1D208D2068095120D33
:100E900074FB120D74FA120D74F94A4B700679B88E
:100EA0007A117BFF20022EE509602A7E008E827572
:100EB00083001205CB60060EEE650A70F0C2D5EB1A
:100EC000C0E0EAC0E0E9C0E0EE12111BD0E0F9D0CA
:100ED000E0FAD0E0FB1205B2FF60AAEBC0E0EAC086
:100EE000E0E9C0E0120DB7D0E02401F9D0E0340011
:100EF000FAD0E0FBE50A0460DCD50AD98087D2028B
:100F000080A21210FD60F7E50A7001041203B3A974
:100F10000A600DE50A600914F50A1211A5EF60F3E5
:100F2000EA30E702F404C3995079EAF4250A043060
:100F3000E701E404F50A800D1210FD60C1EA050A1C
:100F4000250A1203B3EA900061F030E701E4250AB4
:100F500004D50A042005011412111BE4C0E012118B
:100F6000A5900061E0601320E70714F0120D9F8048
:100F70002204F0D0E014C0E07F00120D9FE50A606B
:100F800007120D96150A800B300503120D96D0E05E
:100F9000020DF1D0E00480C41210FD609EE50A0449
:100FA0001203B3900061EAF0E50A20050260010433
:100FB000240412111B74FF04C0E01211A5120D9F2E
:100FC000E50A2005026003120D96D0E0B50AE87F1D
:100FD00045120DA9900061E07F2B30E7047F2DF4CE
:100FE00004C0E0120DB7D0E075F00A84C0F0120D15
:100FF000A0D0E0120DA0020DF1791080027908C294
:1010000006C2088008D2D5790A8004790AC2D5E5DB
:101010000A047002F50AE4FAFDFEFF120D74FC7B6F
:1010200008200113120D74FD7B1030000A120D749C
:10103000FE120D74FF7B20EC3382D592D55013C382
:10104000E43000069FFFE49EFEE42001039DFDE4E2
:101050009CFCE4CBF8C201EC700CCFCECDCCE824E4
:10106000F8F870F38017C3EF33FFEE33FEED33FD76
:10107000EC33FCEB33FB994002FB0FD8E9EB30017A
:1010800005F8D0E0C448B201C0E00AEC4D4E4F78FC
:10109000207B0070C2EAB50A0040BCC0E012111DFE
:1010A000D0F0D0E0200104C4C0E0C4B201C0F0120E
:1010B0000DA0D0F0D5F0EB020DF11208090E8E5301
:1010C0000FF9580E5F4C0E5B420FFD4F1005441098
:1010D00005490E7443100B550F38460F98450F0203
:1010E0004711D8500E632D0E672E0E8A2B0E6B23E0
:1010F0000E882011C12A0E234800000E82E50AB492
:10110000FF03750A06120D74FC120D74FD120D74A6
:10111000FE120D74FF90005A0203F0790AA2D52046
:101120000314300509B910020404B9080104A2D55A
:101130002006025001042002689202B509005034D2
:10114000C0E07F203003197F30A202720672055082
:101150000F121174C202C206C205C2087F30800F8E
:10116000300503E9C0E0120DB7300503D0E0F9D037
:10117000E0B509CC3005177F30B9100C120DB77FE0
:10118000583004077F788003B90803120DB7300286
:10119000057F2D020DB77F202008F87F2B2006F356
:1011A00022920280CF7F00B40700500B245AF582B0
:1011B000E43400F583E0FF22286E756C6C2900D2C0
:1011C00001120D743001F8C201780930D50108F61A
:1011D000020E232D50434958120D742403B4050008
:1011E0004001E49011D393120DA8743A120DA8D2C5
:1011F00003750904020FF9121365121DB1121A7A50
:10120000121C8D759850758900758E40758BC77549
:101210008DFED28ED2ACD2AF12176A1217E39000B5
:10122000C2E0FCA3E0FDEC1202B7C004C005C0069A
:10123000C0079000C6E0FCA3E0FDEC1202B79000EE
:10124000361207ACD007D006D005D0041215B47BF7
:10125000007A00793478431200FB7BC37AF5794831
:1012600078401202049000241207AC9000CAE0FEFD
:10127000A3E0FFC3E49FFDE49EFCEC1202B77B33C6
:101280007A33798378411202049000281207AC90D7
:101290000024E0FCA3E0FDA3E0FEA3E0FFC004C047
:1012A00005C006C007900028E0FCA3E0FDA3E0FE17
:1012B000A3E0FF9000361207ACD007D006D005D0CF
:1012C0000412082F90002C1207AC7B017A007904DD
:1012D000C003C002C0017BFF7A1D79A4900035EBEA
:1012E000F0A3EAF0A3E9F090002CE0FCA3E0FDA35A
:1012F000E0FEA3E0FF9000381207AC900024E0FC71
:10130000A3E0FDA3E0FEA3E0FF90003C1207AC9039
:1013100000C8E0FEA3E0FF900040EEF0A3EFF0D0A5
:1013200001D002D003120DD9900023E4F0900023E5
:10133000E0FF74042FF582E43400F583E0FFEF70E2
:1013400003021218900023E0FF74042FF582E434A6
:1013500000F583E0FF8F993099FDC299900023E05A
:1013600004F080C9227D007C007FAE7E00121BD974
:101370007D007C007F007E00121BD97D007C007FF9
:10138000107E00121BD97D007C007F407E00121B66
:10139000D97D007C007FB07E00121BD97D007C00CF
:1013A0007F817E00121BD97D007C007FFF7E0012B2
:1013B0001BD97D007C007FA17E00121BD97D007CA3
:1013C000007FA67E00121BD97D007C007FA87E00D6
:1013D000121BD97D007C007F3F7E00121BD97D004F
:1013E0007C007FC87E00121BD97D007C007FD37EED
:1013F00000121BD97D007C007F007E00121BD97D6E
:10140000007C007FD57E00121BD97D007C007F8090
:101410007E00121BD97D007C007FD87E00121BD974
:101420007D007C007F057E00121BD97D007C007F43
:10143000D97E00121BD97D007C007FF17E00121B3B
:10144000D97D007C007FDA7E00121BD97D007C00F4
:101450007F127E00121BD97D007C007FDB7E001294
:101460001BD97D007C007F307E00121BD97D007C63
:10147000007F8D7E00121BD97D007C007F147E00D2
:10148000121BD97D007C007FAF7E00121BD9121881
:101490005C22BE1249253E4CCCCDBEAAAAAB3F80F1
:1014A00000003E7ADBB03EED63383F24BC7D3F490F
:1014B0000FDBED33ECC2E7CC339200B4FF13ED54F5
:1014C0007F60030203257FDB7E0F7DC97C3F021511
:1014D000A7C201C3947F401E7007EDD2E7949040ED
:1014E00015EFFBEEFAEDF9ECF87F007E007D807CD5
:1014F0003F120204D201ED33EC33248430E705E4DB
:10150000C0E0806B04FAEDD2E754F0C333DAFD5447
:101510000734002323C0E0CCC0E0F8EDC0E0F9EED2
:10152000C0E0FAEFC0E0FBE41202BCEC24FEFC9049
:10153000003A1207AC1200FB7B007A007980783FFA
:1015400012000A90003AE0B2E7CCF0A3E0CDF0A39D
:10155000E0CEF0A3E0CFF0D0E0FBD0E0FAD0E0F9AD
:10156000D0E0F812000A90003A120790120204909C
:10157000003A1207AC901492740312056590003A79
:101580001207901200FBD0E0600F249EF582E43435
:1015900014F58312079C12000A30010B7BDB7A0FD3
:1015A00079C978BF12000AED33EC336006ECA20073
:1015B00092E7FC229000321207AC900036E0F8A3CC
:1015C000E0F9A3E0FAA3E0FB900032E0FCA3E0FD29
:1015D000A3E0FEA3E0FF1202041214B29000321244
:1015E00007AC900036E030E759900032E0FCA3E011
:1015F000FDA3E0FEA3E0FFECC0E0EDC0E0EEC0E044
:10160000EFC0E0E4FFFEFDFC900032E0F8A3E0F95B
:10161000A3E0FAA3E0FB12033A7BDB600250087AF6
:101620000F7949784080067A0F794978C0D0E0FF79
:10163000D0E0FED0E0FDD0E0FC12000A90003212B3
:1016400007AC900032E0FCA3E0FDA3E0FEA3E0FFC6
:1016500022900038EFF0900039EDF090003AEBF076
:10166000A3EAF0A3E9F0121D95900038E0FFEF2502
:10167000E0FF121B97900039E0FF121B9790003E8D
:10168000E0FFEFB40103121D83121D95900038E0B6
:10169000FFEF25E0FFEF4401FF121B9790003DE0B4
:1016A00014FFF0EF60207F011218C490003AE0FBB5
:1016B000A3E0FAA3E0F9EF1205F890003BE475F01F
:1016C0000112060A80D67F001218C490003AE0FB8F
:1016D000A3E0FAA3E0F9EF1205F8121D8322787F48
:1016E000E4F6D8FD7581210217250211F7E493A3D2
:1016F000F8E493A34003F68001F208DFF48029E4C4
:1017000093A3F85407240CC8C333C4540F4420C80F
:10171000834004F456800146F6DFE4800B010204A6
:101720000810204080901AC4E47E019360BCA3FF9F
:10173000543F30E509541FFEE493A360010ECF54DB
:10174000C025E060A840B8E493A3FAE493A3F8E4CA
:1017500093A3C8C582C8CAC583CAF0A3C8C582C836
:10176000CAC583CADFE9DEE780BE7B017A00793231
:1017700090003D7406F090003EE4F07D3B7F6812DF
:101780001651900032E0FF7E00EF7F00FE900033A4
:10179000E0FD7C00EE4CFEEF4DFF9000C2EEF0A3AA
:1017A000EFF0900034E0FF7E00EF7F00FE90003508
:1017B000E0FD7C00EE4CFEEF4DFF9000C4EEF0A388
:1017C000EFF0900036E0FF7E00EF7F00FE900037E4
:1017D000E0FD7C00EE4CFEEF4DFF9000C6EEF0A366
:1017E000EFF0227B017A00793290003D7406F09090
:1017F000003EE4F07D437F68121651900032E0FF16
:101800007E00EF7F00FE900033E0FD7C00EE4CFE9A
:10181000EF4DFF9000C8EEF0A3EFF0900034E0FF32
:101820007E00EF7F00FE900035E0FD7C00EE4CFE78
:10183000EF4DFF9000CAEEF0A3EFF0900036E0FF0E
:101840007E00EF7F00FE900037E0FD7C00EE4CFE56
:10185000EF4DFF9000CCEEF0A3EFF022900032E4C9
:10186000F0900032E0FFEFC394085057900032E050
:10187000FF7E00EF24B0FFEE3400FE7D007C0012FE
:101880001BD97D007C007F007E00121BD97D007C6F
:10189000007F107E00121BD9900033E4F0900033DB
:1018A000E0FFEFC3948050137D017C007F007E0039
:1018B000121BD9900033E004F080E2900032E00483
:1018C000F0809E2290003FEFF0900041E4F0C2B221
:1018D000121D39D2B3900040E4F0900040E0FFEFD9
:1018E000C39408502C121D39C2B2121D39D2B21243
:1018F0001D39900041E0FFEF25E0FF900041EFF03F
:1019000030B306900041E004F0900040E004F08025
:10191000C9C2B2121D3990003FE0FF121CDB9000DB
:1019200041E0FF22900032EEF0A3EFF0900034E4AB
:10193000F0A3E4F0900032E0FEA3E0FF900034E07A
:10194000FCA3E0FDC3ED9FEC9E5030900036741F69
:10195000F09000377428F0900037E014FFF0EF703B
:10196000F6900036E014FFF0EF70EC900035E004E4
:10197000F07006900034E004F080B922900032EF5D
:10198000F0900033EDF0900034EBF0121D959000D4
:1019900032E0FFEF25E0FF121B97900033E0FF12CB
:1019A0001B97900034E0FFEFB40103121D83121D5A
:1019B00095900032E0FFEF25E0FFEF4401FF121B9E
:1019C000977F001218C4900035EFF0121D8390002D
:1019D00035E0FF22900039EFF090003AE4F09000FB
:1019E0003AE0FFEFC39408504090003AE0FF9000C7
:1019F00039E0FEEEA807088002C333D8FCFFEF30C1
:101A0000E704D2948002C2947F017E00121A2AD287
:101A1000957F017E00121A2AC2957F017E00121A5C
:101A20002A90003AE004F080B52290003BEEF0A34B
:101A3000EFF090003DE4F0A3E4F090003BE0FEA363
:101A4000E0FF90003DE0FCA3E0FDC3ED9FEC9E5065
:101A50002890003FE4F090003FE0FFEFC394055072
:101A60000890003FE004F080ED90003EE004F0704C
:101A70000690003DE004F080C1227F647E001219D0
:101A800024121C8D7B007D6B7F68121C0D7B077DF3
:101A9000197F68121C0D7B047D1A7F68121C0D7B58
:101AA000187D1B7F68121C0D7B107D1C7F68121C2B
:101AB0000D7B007D6A7F68121C0D7B027D377F687D
:101AC000121C0D224400AE3A83126F5000860000B3
:101AD00000003F80000000000000000000005000F7
:101AE0007600000000000000000000000000000080
:101AF0000044009E3A83126F4400BE3BA3D70A44C1
:101B000000A23F0000004400AA3F800000009000B7
:101B100039E4F07F01121D1DD2947F017E00121A5C
:101B20002AD2957F017E00121A2A30941C90003927
:101B3000E004F0900039E0FFEFD394FA40EC121D7E
:101B40006C7F00121D1D7F0122C2957F00121D1D9A
:101B50007F0022C2D5E830E70FB2D5E4C39BFBE497
:101B60009AFAE499F9E498F8EC30E717B2D5121B29
:101B7000891206E0E4C39BFBE49AFAE499F9E4983D
:101B8000F880031206E030D50DE4C39FFFE49EFE0B
:101B9000E49DFDE49CFC2290003FEFF09000407437
:101BA00008F0900040E0FF14F0EF602990003FE063
:101BB000FFEF30E704D2B38002C2B390003FE0FFF2
:101BC000EF25E0FF90003FEFF0121D39D2B2121D59
:101BD00039C2B280CD121CFE22900034EEF0A3EF89
:101BE000F0900036ECF0A3EDF0900036E0FEA3E0BC
:101BF000FFEF4E600C900034E0FEA3E0FF121C6685
:101C000022900034E0FEA3E0FF121C3F229000323D
:101C1000EFF0900033EDF0900034EBF0121D959052
:101C20000032E0FFEF25E0FF121B97900033E0FF4A
:101C3000121B97900034E0FF121B97121D83229015
:101C40000038EFF0121D557F781219D4121B0E7F49
:101C5000001219D4121B0E900038E0FF1219D41292
:101C60001B0E121D6C22900038EFF0121D557F786C
:101C70001219D4121B0E7F401219D4121B0E9000A1
:101C800038E0FF1219D4121B0E121D6C227B007D4E
:101C90006B7F68121C0D7B077D197F68121C0D7B02
:101CA000007D197F6812197CEF64076004C2A1806F
:101CB000EED2A122EFB40A07740D121CBF740A30D1
:101CC0009811A899B8130CC2983098FDA899C29899
:101CD000B811F63099FDC299F59922900042EFF0C3
:101CE000C2B2121D39900042E0FFEF6004C2B3801F
:101CF00002D2B3D2B2121D39C2B2121D3922C2B2FF
:101D0000121D39D2B2121D3930B308C2B2E47E00BE
:101D10007F0022C2B2121D397E007F012290003A5C
:101D2000EFF090003AE0FFEFB40107759140759233
:101D3000002275910075920022900043E4F0A37494
:101D400014F090004374FF75F0FF120620AFF0FE10
:101D5000EF4E70EE22D294D2957F027E00121A2AA4
:101D6000C2947F027E00121A2AC29522C295C294A2
:101D70007F027E00121A2AD295D2947F027E001230
:101D80001A2A22C2B3C2B2121D39D2B2121D39D2DE
:101D9000B3121D3922D2B3D2B2121D39C2B3121DF1
:101DA00039C2B222252E3266092025640925640A2B
:0E1DB0000043B10443B20443B10843B2082219
:00000001FF
