:0300000002136F79
:0C136F00787FE4F6D8FD75815F020E82E5
:05137B00252E32660082
:100E8200120D1EE4FF121212AC06AD07E41201AEFF
:100E92008F298E288D278C26E4FFFE7DA07C40AB17
:100EA20029AA28A927A826120003E4FBFA79807848
:100EB2004512010C8F298E288D278C267537FF75D8
:100EC200381375397B8F3D8E3C8D3B8C3A7B007A93
:100ED20000792A1206E07B007A00792A7D027F01DE
:050EE200121043809E88
:100AF3002567000000000000000000002F00000038
:100B0300000700070000147F147F1400242A7F2AA3
:100B13001200626408132300364955225000000571
:100B230003000000001C224100000041221C0000C1
:100B330014083E08140008083E0808000000A060DE
:100B4300000008080808080000606000000020108A
:100B5300080402003E5149453E0000427F40000028
:100B63004261514946002141454B31001814127F1F
:100B730010002745454539003C4A49493000017179
:100B830009050300364949493600064949291E002B
:100B930000363600000000563600000008142241DB
:100BA300000014141414140000412214080002015C
:100BB30051090600324959513E007C1211127C0042
:100BC3007F49494936003E41414122007F4141224C
:100BD3001C007F49494941007F09090901003E4141
:100BE30049497A007F0808087F0000417F410000DF
:100BF3002040413F01007F08142241007F404040D4
:100C030040007F020C027F007F0408107F003E41FA
:100C130041413E007F09090906003E4151215E0022
:100C23007F091929460046494949310001017F01DD
:100C330001003F4040403F001F2040201F003F4035
:100C430038403F0063140814630007087008070066
:100C5300615149454300007F41410000552A552A0F
:100C630055000041417F000004020102040040409E
:100C73004040400000010204000020545454780016
:100C83007F484444380038444444200038444448AE
:100C93007F00385454541800087E0901020018A438
:100CA300A4A47C007F080404780000447D40000075
:100CB3004080847D00007F102844000000417F4075
:100CC30000007C04180478007C080404780038448D
:100CD30044443800FC242424180018242418FC005D
:100CE3007C0804040800485454542000043F444042
:100CF30020003C4040207C001C2040201C003C4045
:100D030030403C004428102844001CA0A0A07C00D4
:0B0D13004464544C44141414141414D1
:101233008F3F1212F17F78120FC81210F5E4FF12DC
:101243000FC81210F5AF3F120FC81210F502131E8C
:101253008F3F1212F17F78120FC81210F57F4012E0
:101263000FC81210F5AF3F120FC81210F502131E6C
:0612C3007F10E4FDFCFEBB
:1012C9008E3D8F3EED4C6003021253AF3E12123336
:0112D90022F2
:020F89008F5A7D
:100F8B00E4F55BE55B24B0FFE433FEE4FDFC1212F9
:100F9B00C9E4FDFCFFFE1212C91212C3E4F55CAFEB
:100FAB005A7E007D017C001212C9055CE55CC3947E
:0C0FBB008040EC055BE55BC3940840C778
:010FC7002207
:10127300D3EF9400EE940040147D657C18ED1D704F
:0D128300011CED4C70F7EF1F70E61E80E3BC
:01129000223B
:10130800EF1FAA0670011E4A600BE4FDEDC3947B33
:0513180050EE0D80F70E
:01131D0022AD
:101190008F3CED24B0FFE433FEE4FDFC1212C9E500
:1011A0003C54F0C4540F7E004410FFE4FDFC1212C6
:0E11B000C9E53C540FFF7E00E4FDFC0212C9AD
:1012DA007F8D1212C5E4FDFC7F14FE1212C9E4FDD3
:0712EA00FC7FAFFE0212C9F8
:10134A00E4FDFC7F8DFE1212C91212C3E4FDFC7F7C
:05135A00AEFE0212C905
:10108000E4F534E53424B0FFE433FEE4FDFC121251
:10109000C9E4FDFCFFFE1212C91212C3E4F5357D4E
:1010A000017C00E4FFFE1212C90535E535C39480CA
:0B10B00040ED0534E534C3940840C84F
:0110BB002212
:10100600E4F51EE51E24B0FFE433FEE4FDFC1212F7
:10101600C9E4FDFCFFFE1212C91212C3E4F51F7DDE
:10102600017C007F017E001212C9051FE51FC394D3
:0C1036008040EC051EE51EC3940840C776
:01104200228B
:100F3E00E4F53AF53BEB24E0F53AEFD3947F400429
:100F4E00E4FF0D0D121190E4F53B75F006E53AA4A1
:100F5E0024F6F582E5F0340AF583E582253BF58229
:100F6E00E43583F583E493FF7E007D017C0012124D
:0A0F7E00C9053BE53BC3940640D0D3
:010F88002246
:0410BC008F188D19E3
:1010C000E4751D01F51CF51BF51AAF191519EF6034
:1010D0001BAB1DAA1CA91BA81AAF18E4FCFDFE122D
:1010E00005238F1D8E1C8D1B8C1A80DEAF1DAE1C40
:0410F000AD1BAC1A6E
:0110F40022D9
:040E0C008F508D5125
:100E1000E4F559F557E557C395565065C3E5569522
:100E20005714FD7F0A1210BCA804A905AA06AB0737
:100E3000AF55AE54AD53AC521205AEE47B0AFAF98D
:100E4000F81205AEAF038F58E559701EE55614FF32
:100E5000E557C39F5014E558700DE55775F006A48B
:100E60002550FF7B208011755901E55775F006A4C8
:100E70002550FFE5582430FBAD51120F3E05578039
:010E800094DD
:010E8100224E
:041161008F088D095D
:101165007537FF75380A7539F3850D3D850C3C8556
:101175000B3B850A3A7B007A00790E1206E07B006C
:0B1185007A00790EAD09AF080210439C
:0A1043008F348D358B368A378938DB
:10104D00E4F539AB36AA37A9388539827583001294
:10105D0004E4FB601DAD35AF34120F3E740825342A
:10106D00F534D394784007E4F53405350535053965
:02107D0080D120
:01107F00224E
:100D1E00E4FDFC7FAEFE1212C9E4FDFCFFFE1212D2
:100D2E00C91212C3E4FDFC7F40FE1212C9E4FDFCA1
:100D3E007FB0FE1212C9E4FDFC7F81FE1212C9E4DF
:100D4E00FDFC7FFFFE1212C9E4FDFC7FA1FE121214
:100D5E00C9E4FDFC7FA6FE1212C9E4FDFC7FA8FECD
:100D6E001212C9E4FDFC7F3FFE1212C9E4FDFC7FA6
:100D7E00C8FE1212C9E4FDFC7FD3FE1212C9E4FDB7
:100D8E00FCFFFE1212C9E4FDFC7FD5FE1212C9E46F
:100D9E00FDFC7F80FE1212C9E4FDFC7FD8FE12120C
:100DAE00C9E4FDFC7F05FE1212C9E4FDFC7FD9FEED
:100DBE001212C9E4FDFC7FF1FE1212C9E4FDFC7FA4
:100DCE00DAFE1212C9E4FDFC7F12FE1212C9E4FD16
:100DDE00FC7FDBFE1212C9E4FDFC7F30FE1212C94D
:100DEE00E4FDFC7F8DFE1212C9E4FDFC7F14FE12A1
:0E0DFE0012C9E4FDFC7FAFFE1212C902108084
:10135F00BF0107759140E4F59222E4F591F59222D1
:1012F100D294D2957F027E001212ABC2947F027EFD
:07130100001212ABC295229D
:10131E00C295C2947F027E001212ABD295D2947FF8
:06132E00027E000212AB7A
:1010F500E4F5407F0112135FD2947E001212ABD249
:10110500957F017E001212AB3094130540E540D364
:1011150094FA40F412131EE4FF12135F0F22C295D6
:05112500E4FF12135F5E
:01112A0022A2
:020FC8008F4058
:100FCA00E4F541AF41E540A807088002C333D8FCE5
:100FDA0030E704D2948002C2947F017E001212ABE1
:100FEA00D2957F017E001212ABC2957F017E00125C
:0B0FFA0012AB0541E541C3940840C85C
:0110050022C8
:10112B00C2957F027E001212ABD2947F027E001218
:10113B0012ABC2947F027E001212ABD2957F027E5D
:10114B00001212ABC2957F027E001212ABD2947FBB
:06115B00027E000212AB4F
:1011BE00C2957F027E001212ABD2947F027E001285
:1011CE0012ABD2957F027E001212ABC2957F027EC9
:0D11DE00001212ABC2947F027E000212AB21
:020EE7008F5D1D
:100EE900E4F55E7F0112135FD2947F0F7E00121228
:100EF900ABE4F55FC2957F027E001212ABD2957FFB
:100F0900017E001212ABE55E25E0F55E3094020524
:100F19005E7F017E001212AB055FE55FC394084056
:100F2900D3E4FF12135FE55D70051211BE80031251
:040F3900112BAF5E6B
:010F3D002291
:10129100E4FDFCC3ED9FEC9E500F791F7B28DBFE24
:0912A100D9FC0DBD00010C80EA2E
:0112AA002221
:10133400E4FDFCC3ED9FEC9E500B7B06DBFE0DBD74
:0513440000010C80EE29
:011349002281
:1012AB00E4FDFCC3ED9FEC9E500DE4FB0BBB05FC7A
:0712BB000DBD00010C80ECE9
:0112C2002209
:10121200E4F592759101EF44C0F5BC0000E5BC30E5
:10122200E5FB53BCDF75DE20AFBDEFFEADBEEDFFCB
:011232002299
:10000300EC4D6011E8497017ED33EC3304600DE4F7
:10001300FCFFFEFD22E933E8330470F802021C12F0
:1000230001E758046009E4CC2481500628500902F2
:100033000226284003020223C0E0EB4A7044B98041
:1000430006D0E0FB020212EF4E701CBD8008EBFFEE
:10005300EAFEE9FD80EBE98DF0A4FEE5F00200EC99
:10006300E9CDF9EAFEEBFFEF89F0A4FCE5F0CE89D8
:10007300F0A42EFFE435F0CD89F0A42DFEE435F095
:100083008067EF4E7005BD80D780C3EF8BF0A4ACC3
:10009300F0EE8BF0A42CFCE435F0F8EF8AF0A42CFE
:1000A300E5F038FCE433CB8DF0A42CFCE5F03BF811
:1000B300EE8AF0A42CFCE5F038F8E433CF89F0A401
:1000C3002CFCE5F038CF3400CE89F0A42FFFE5F007
:1000D3003EFEE433C98DF0A42EFEE5F039CD8AF05F
:1000E300A42FFFE5F03EFEE43DFD33D0E0FB5007D7
:1000F3000BBB000F020226EC2CFCEF33FFEE33FEAA
:06010300ED33FD0201FED8
:10010900020226EC5D046005E85904700302021C32
:100119001201E7580460F6EC4860F2EC7004FDFE49
:10012900FF22C860DB2481C85009C39860025006C9
:100139000202239850CAF582E9294B4A7005AB821D
:1001490002021275F0007C1A7880C3EF9BEE9AEDDB
:1001590099400DC3EF9BFFEE9AFEED99FDE842F041
:10016900DC23ACF0D0E0FFD0E0FED0E0FDAB822094
:10017900E7101BEB60BAEC2CFCEF33FFEE33FEED1E
:1001890033FD0201FEE803F830E705C0F075F00021
:10019900EF2FFFEE33FEED33FD40B830E7C280AA02
:1001A90075F020800E75F010800575F0087D007ED1
:1001B900007F003392D530D503120640EC3340104E
:1001C900EF33FFEE33FEED33FDEC33FCD5F0ED22DA
:0E01D900E5F0247EA2D513CC92E7CDCEFF2216
:10068400E54B2437F8E6054B2278343007027837F7
:10069400E475F00112064E0204CB2000EB7F2ED24B
:1006A400008018EF540F2490D43440D4FF30040B4E
:1006B400EF24BFB41A0050032461FFE54C60021517
:1006C4004C054FE54F7002054E30070D7834E47544
:1006D400F00112064EEF0205110211EB7403D2076A
:1006E4008003E4C207F54B8B348A358936E4F54C34
:1006F400F54EF54FE54C60077F201206BF80F57577
:100704004DFFC201C200C202C203C205C206C20832
:1007140012068DFF700D3007057F001206D0AF4F13
:10072400AE4E22B4255FC2D5C20412068DFF24D07A
:10073400B40A00501A75F00A784C30D50508B6FF93
:100744000106C6A426F620D5047002D20380D9245B
:10075400CFB41A00EF5004C2E5D2040209BDD2019D
:1007640080C6D20080C0D20280BCD2D580BAD20565
:1007740080B47F201206BF2002077401B54C0040EC
:10078400F1120684FF1206BF0206F8D208D20680D0
:1007940095120684FB120684FA120684F94A4B70F9
:1007A4000679B47A0A7BFF20022EE54C602A7E008B
:1007B4008E827583001204E460060EEE654D70F0BF
:1007C400C2D5EBC0E0EAC0E0E9C0E0EE120A1DD0F9
:1007D400E0F9D0E0FAD0E0FB1204CBFF60AAEBC052
:1007E400E0EAC0E0E9C0E01206BFD0E02401F9D09D
:1007F400E03400FAD0E0FBE54D0460DCD54DD9804F
:1008040087D20280A2120A0060F7E54D700104123B
:100814000231A94D600DE54D600914F54D120AA78A
:10082400EF60F3EA30E702F404C3995077EAF42561
:100834004D0430E701E404F54D800D120A0060C157
:10084400EA054D254D120231EA784AF630E701E413
:10085400254D04D54D0420050114120A1DE4C0E001
:10086400120AA7784AE6601320E70714F61206A7CF
:10087400802204F6D0E014C0E07F001206A7E54D04
:10088400600712069E154D800B30050312069ED09C
:10089400E00206F8D0E00480C5120A0060A0E54D2D
:1008A40004120231784AEAF6E54D2005026001049B
:0508B4002404120A1DDE
:1008B90074FF04C0E0120AA71206A7E54D2005023D
:1008C900600312069ED0E0B54DE87F451206B17867
:1008D9004AE67F2B30E7047F2DF404C0E01206BFFF
:1008E900D0E075F00A84C0F01206A8D0E01206A87C
:1008F9000206F8791080027908C206C2088008D277
:10090900D5790A8004790AC2D5E54D047002F54DFE
:10091900E4FAFDFEFF120684FC7B0820011312068F
:1009290084FD7B1030000A120684FE120684FF7BC8
:1009390020EC3382D592D55013C3E43000069FFFD3
:10094900E49EFEE42001039DFDE49CFCE4CBF8C297
:1009590001EC700CCFCECDCCE824F8F870F38017F9
:10096900C3EF33FFEE33FEED33FDEC33FCEB33FB2A
:10097900994002FB0FD8E9EB300105F8D0E0C448F3
:10098900B201C0E00AEC4D4E4F78207B0070C2EAFC
:10099900B54D0040BCC0E0120A1FD0F0D0E02001E4
:1009A90004C4C0E0C4B201C0F01206A8D0F0D5F06A
:1009B900EB0206F812065E07955308FC5807664CC9
:1009C90007624209004F090844090849077B43099E
:1009D9000E55083F46089D450809470AD450076A3D
:1009E9002D076E2E07912B077223078F200ABD2A28
:1009F900072A4800000789E54DB4FF03754D061223
:100A09000684FC120684FD120684FE120684FF7811
:100A190043020260790AA2D5200314300509B910EE
:100A2900020404B9080104A2D520060250010420D9
:100A390002689202B54C005034C0E07F203003199F
:100A49007F30A20272067205500F120A76C202C2E4
:100A590006C205C2087F30800F300503E9C0E012E5
:100A690006BF300503D0E0F9D0E0B54CCC3005170E
:100A79007F30B9100C1206BF7F583004077F788089
:100A890003B908031206BF3002057F2D0206BF7F96
:100A9900202008F87F2B2006F322920280CF7F00C6
:100AA900B4070050052443F8E6FF22286E756C6CE4
:100AB9002900D2011206843001F8C201784C30D5E0
:100AC9000108F602072A2D504349581206842403C7
:100AD900B405004001E4900ACF931206B0743A12AB
:0A0AE90006B0D203754C040208FCAD
:1001E700E9D2E7C933E833F892D5EDD2E7CD33EC5E
:0701F70033FC5002B2D522D7
:1001FE00EC30E7100FBF000C0EBE00080DBD000462
:10020E000BEB6014A2D5EB13FCED92E7FD2274FF0D
:10021E00FCFDFEFF22E480F8A2D574FF13FC7D8066
:03022E00E480EF7A
:10023100F920E72824F950037907E4F42402FB1894
:10024100DBFDE624FB5014E9600DE4F618E604F644
:0F025100B40A08E4F6D9F57401F60A22C2D522E0
:10026000ED33EC3392D5FA602AB4FF33EDC2E77B6D
:10027000FF60067A027985E4227A02798E20D5041D
:100280007A027989224E614E002B494E46002D4953
:100290004E4600E47A08F608DAFC7B00740722E890
:1002A000C0E0ECC0E0EDC0E0EEC0E0EFC0E0EA7519
:1002B000F010A4CAABF075F04DA42BFBE435F0FCB4
:1002C000EA2410FAEB34C5FBEC34D9FCEDC2E7FFAD
:1002D00075F056A4F42411C5F0F434C58FF0A42AA7
:1002E000E5F03BE43CF620E71412048BD0E0FFD0AD
:1002F000E0FED0E0FDD0E0FC12010C8014F404120A
:10030000048BD0E0FFD0E0FED0E0FDD0E0FC120096
:1003100003D0E0F8E6FAEDD2E7CD33EC332482FBEC
:10032000E4C3CF33CFCE33CECD33CD33DBF37B0736
:1003300075F00A846004F6081B0AE5F0F6088FF0F1
:10034000740AA4FFACF08EF0740AA42CFEACF0503A
:10035000010C8DF0740AA42CFDE435F0F608DBDE08
:03036000740722FD
:1003630002021CE86480F8E933E83360110460F0AA
:10037300ED33EC337009E8FCE9FDEAFEEBFF220400
:1003830060DED3EB9FEA9EE99DE8C2E78CF0C2F7FB
:1003930095F0400CE8CCF8E9CDF9EACEFAEBCFFBC7
:1003A3001201E785D0F05804700320D5B3E8047038
:1003B300075002B2D502022692D5EC0460F7E4CCD2
:1003C300C0E0C398F8603B94186008400DD0E0FB90
:1003D3000201FEE4FBFAC9FC8028E830E406E4C924
:1003E300FBE4CAFCE830E305E4C9CACBFCE85407E4
:1003F3006010F8C3E913F9EA13FAEB13FBEC13FCEF
:10040300D8F130F52FC3E49CFCEF9BFFEE9AFEED91
:1004130099FDD0E0FBEF4E4D4C701222DB0302023C
:1004230023EC2CFCEF33FFEE33FEED33FDED30E731
:10043300EB0201FEEF2BFFEE3AFEED39FDD0E0FBC0
:1004430050130BBB0003020226ED13FDEE13FEEF68
:0804530013FFEC13FC0201FE93
:10045B003F8000004120000042C80000447A0000A9
:10046B00461C400047C35000497424004B1896802B
:10047B004CBEBC205A0E1BCA6753C21C749DC5AE22
:10048B00FB60065407601C23231204B9EB5438603D
:10049B00091204A51204B4120003ECF8EDF9EEFAFC
:1004AB00EFCB22EB1204B480F1543803241C9004DC
:1004BB005BFE93FC0EEE93FD0EEE930ECE93FF229E
:1004CB00BB010689828A83E0225002E722BBFE022F
:0904DB00E32289828A83E4932262
:1004E400BB010CE58229F582E5833AF583E02250CD
:1004F40006E92582F8E622BBFE06E92582F8E22217
:0D050400E58229F582E5833AF583E4932230
:10051100BB010689828A83F0225002F722BBFE01C9
:02052100F322C3
:10052300E88FF0A4CC8BF0A42CFCE98EF0A42CFC77
:100533008AF0EDA42CFCEA8EF0A4CDA8F08BF0A4F5
:100543002DCC3825F0FDE98FF0A42CCD35F0FCEB54
:100553008EF0A4FEA9F0EB8FF0A4CFC5F02ECD3919
:0F056300FEE43CFCEAA42DCE35F0FDE43CFC2286
:1005720075F008758200EF2FFFEE33FECD33CDCC40
:1005820033CCC58233C5829BED9AEC99E5829840C3
:100592000CF582EE9BFEED9AFDEC99FC0FD5F0D6A0
:1005A200E4CEFBE4CDFAE4CCF9A88222B800C1B9CA
:1005B2000059BA002DEC8BF084CFCECDFCE5F0CB08
:1005C200F97818EF2FFFEE33FEED33FDEC33FCEB41
:1005D20033FB10D703994004EB99FB0FD8E5E4F9FC
:1005E200FA227818EF2FFFEE33FEED33FDEC33FCE9
:1005F200C933C910D7059BE99A4007EC9BFCE99ADD
:10060200F90FD8E0E4C9FAE4CCFB2275F010EF2F21
:10061200FFEE33FEED33FDCC33CCC833C810D70721
:100622009BEC9AE899400AED9BFDEC9AFCE899F85C
:0E0632000FD5F0DAE4CDFBE4CCFAE4C8F922EF
:0E064000C3E49FFFE49EFEE49DFDE49CFC22CB
:10064E00FAE6FB0808E6F925F0F618E6CA3AF622AD
:10065E00D083D082F8E4937012740193700DA3A32B
:10066E0093F8740193F5828883E47374029368603F
:06067E00EFA3A3A380DF3F
:1011EB00EFB40A07740D1211F6740A309811A8990E
:1011FB00B8130CC2983098FDA899C298B811F63064
:07120B0099FDC299F599223B
:00000001FF
