:10000000021B8553EFFD3253EFFB3202180C75D5FE
:100010000075D40075D30075D20075AF6075D1CC72
:10002000D2AF220220D97D017F03121A397D0A7CCA
:07003000007F001210D8222E
:10003B00021D97900153EFF0900154E4F09001549E
:10004B00E0FF7E00C3EF9408EE64809480504090F4
:10005B000154E0FF900153E0FEA807EE088002C3B5
:10006B0033D8FCFFEF30E704D2948002C2947F01B7
:10007B007E00121F13D2957F017E00121F13C295B3
:10008B007F017E00121F13900154E004F080AE221A
:03009B000200035D
:1000A300020007020478E86480F8E933E83360115A
:1000B3000460F0ED33EC337009E8FCE9FDEAFEEB94
:1000C300FF220460DED3EB9FEA9EE99DE8C2E78C42
:1000D300F0C2F795F0400CE8CCF8E9CDF9EACEFA96
:1000E300EBCFFB12044385D0F05804700320D5B343
:1000F300E80470075002B2D502048292D5EC046082
:10010300F7E4CCC0E0C398F8603B94186008400D56
:10011300D0E0FB02045AE4FBFAC9FC8028E830E48F
:1001230006E4C9FBE4CAFCE830E305E4C9CACBFC36
:10013300E854076010F8C3E913F9EA13FAEB13FB69
:10014300EC13FCD8F130F52FC3E49CFCEF9BFFEEDE
:100153009AFEED99FDD0E0FBEF4E4D4C701222DB81
:100163000302047FEC2CFCEF33FFEE33FEED33FD93
:10017300ED30E7EB02045AEF2BFFEE3AFEED39FDCB
:10018300D0E0FB50130BBB0003020482ED13FDEE22
:1001930013FEEF13FFEC13FC02045AEC4D6011E85D
:1001A300497017ED33EC3304600DE4FCFFFEFD22D0
:1001B300E933E8330470F802047812044358046006
:1001C30009E4CC2481500628500902048228400304
:1001D30002047FC0E0EB4A7044B98006D0E0FB0222
:1001E300046EEF4E701CBD8008EBFFEAFEE9FD8054
:1001F300EBE98DF0A4FEE5F0020287E9CDF9EAFE12
:10020300EBFFEF89F0A4FCE5F0CE89F0A42EFFE428
:1002130035F0CD89F0A42DFEE435F08067EF4E7004
:1002230005BD80D780C3EF8BF0A4ACF0EE8BF0A4B8
:100233002CFCE435F0F8EF8AF0A42CE5F038FCE46C
:1002430033CB8DF0A42CFCE5F03BF8EE8AF0A42C24
:10025300FCE5F038F8E433CF89F0A42CFCE5F03862
:10026300CF3400CE89F0A42FFFE5F03EFEE433C97E
:100273008DF0A42EFEE5F039CD8AF0A42FFFE5F032
:100283003EFEE43DFD33D0E0FB50070BBB000F0205
:100293000482EC2CFCEF33FFEE33FEED33FD02045E
:1002A3005A020482EC5D046005E8590470030204F9
:1002B30078120443580460F6EC4860F2EC7004FDD5
:1002C300FEFF22C860DB2481C85009C39860025036
:1002D3000602047F9850CAF582E9294B4A7005ABA0
:1002E3008202046E75F0007C1A7880C3EF9BEE9A4D
:1002F300ED99400DC3EF9BFFEE9AFEED99FDE842A9
:10030300F0DC23ACF0D0E0FFD0E0FED0E0FDAB8228
:1003130020E7101BEB60BAEC2CFCEF33FFEE33FE4F
:10032300ED33FD02045AE803F830E705C0F075F039
:1003330000EF2FFFEE33FEED33FD40B830E7C28010
:10034300AA74F8CC6480CCC86480C8F58204604F7A
:10035300C3EB9FF5F0EA9E42F0E99D42F0E89C452D
:10036300F0603C501DE5825FFFE582D313CB5BCB8E
:10037300F42B5582FB50280ABA002409B90020083F
:10038300801DE5825BFBE582D313CF5FCFF4C313FC
:100393002F5582FF50090EBE00050DBD00010CC391
:1003A300EB9FF5F0EA9E42F0E99D42F0E89C45F0B0
:1003B3006007CC4820E701B3EC22ED33EC33600A4D
:1003C300047003BD8004ECB2E7FC2275F020800EBC
:1003D30075F010800575F0087D007E007F00339274
:1003E300D530D5031209C2EC334010EF33FFEE339F
:1003F300FEED33FDEC33FCD5F0ED22E5F0247EA2D7
:10040300D513CC92E7CDCEFF22EDD2E7CD33EC333B
:1004130092D524814006E4FFFEFDFC22FCE4CFCE0E
:10042300CDCC24E0501174FF80EDC3CC13CCCD139D
:10043300CDCE13CECF13CF0470F030D5DE0209C278
:10044300E9D2E7C933E833F892D5EDD2E7CD33ECFF
:1004530033FC5002B2D522EC30E7100FBF000C0E74
:10046300BE00080DBD00040BEB6014A2D5EB13FC1A
:10047300ED92E7FD2274FFFCFDFEFF22E480F8A26B
:10048300D574FF13FC7D80E480EFF920E73624F96F
:1004930050037907E4F42402FBE582158270021508
:1004A30083DBF6E024FB501BE96014E4F0E58215DE
:1004B3008270021583E004F0B40A08E4F0D9EE7404
:1004C30001F00A22C2D522ED33EC3392D5FA602A29
:1004D300B4FF33EDC2E77BFF60067A0479EFE422D1
:1004E3007A0479F820D5047A0479F3224E614E0018
:1004F3002B494E46002D494E4600E47A08F0A3DA14
:10050300FC7B00740722C083C082ECC0E0EDC0E036
:10051300EEC0E0EFC0E0EA75F010A4CAABF075F0EE
:100523004DA42BFBE435F0FCEA2410FAEB34C5FBB5
:10053300EC34D9FCEDC2E7FF75F056A4F42411C5E1
:10054300F0F434C58FF0A42AE5F03BE43CF020E757
:10055300141205FFD0E0FFD0E0FED0E0FDD0E0FCB8
:100563001202A78014F4041205FFD0E0FFD0E0FECE
:10057300D0E0FDD0E0FC12019ED082D083E0FAED02
:10058300D2E7CD33EC332482FBE4C3CF33CFCE3376
:10059300CECD33CD33DBF37B0775F00A846004F0F3
:1005A300A31B0AE5F0F0A38FF0740AA4FFACF08E4E
:1005B300F0740AA42CFEACF050010C8DF0740AA464
:1005C3002CFDE435F0F0A3DBDE7407223F8000004E
:1005D3004120000042C80000447A0000461C40004D
:1005E30047C35000497424004B1896804CBEBC206E
:1005F3005A0E1BCA6753C21C749DC5AEFB600654DA
:1006030007601C232312062DEB54386009120619C8
:1006130012062812019EECF8EDF9EEFAEFCB22EB6D
:1006230012062880F1543803241C9005CFFE93FC56
:100633000EEE93FD0EEE930ECE93FF22C0E0EFFB82
:10064300EEFAEDF9ECF812019ED0E0F5F0EFFBEED7
:10065300FAEDF9ECF81209D0A3A3A3A3E8C0E0E9EB
:10066300C0E0EAC0E0EBC0E0C0F012019E1209EC6A
:10067300A3A3A3A31200ADD0F0D0E0FBD0E0FAD047
:10068300E0F9D0E0F8D5F0D422E709F608DFFA80E4
:1006930046E709F208DFFA803E88828C83E709F097
:1006A300A3DFFA8032E309F608DFFA8078E309F280
:1006B30008DFFA807088828C83E309F0A3DFFA8075
:1006C3006489828A83E0A3F608DFFA805889828AE4
:1006D30083E0A3F208DFFA804C80D280FA80C680E0
:1006E300D4806980F28033801080A680EA809A806B
:1006F300A880DA80E280CA803389828A83ECFAE4B4
:1007030093A3C8C582C8CCC583CCF0A3C8C582C88F
:10071300CCC583CCDFE9DEE7800D89828A83E4934D
:10072300A3F608DFF9ECFAA9F0EDFB2289828A83AC
:10073300ECFAE0A3C8C582C8CCC583CCF0A3C8C576
:1007430082C8CCC583CCDFEADEE880DB89828A837A
:10075300E493A3F208DFF980CC88F0EF60010E4E3A
:1007630060C388F0ED2402B4040050B9F582EB2491
:1007730002B4040050AF23234582239006DC73BBED
:10078300010689828A83E0225002E722BBFE02E34C
:100793002289828A83E49322BB010CE58229F582B4
:1007A300E5833AF583E0225006E92582F8E622BB89
:1007B300FE06E92582F8E222E58229F582E5833AFD
:1007C300F583E49322BB010689828A83F0225002D7
:1007D300F722BBFE01F322EF8DF0A4A8F0CF8CF03B
:1007E300A428CE8DF0A42EFE22BC000BBE0029EF60
:1007F3008DF084FFADF022E4CCF875F008EF2FFF05
:10080300EE33FEEC33FCEE9DEC984005FCEE9DFED2
:100813000FD5F0E9E4CEFD22EDF8F5F0EE8420D219
:100823001CFEADF075F008EF2FFFED33FD40079888
:100833005006D5F0F222C398FD0FD5F0EA22C5F099
:10084300F8A3E028F0C5F0F8E5821582700215835D
:10085300E038F022A3F8E0C5F025F0F0E582158238
:1008630070021583E0C838F0E822BB0110E5822945
:10087300F582E5833AF583E0F5F0A3E0225009E938
:100883002582F886F008E622BBFE0AE92582F8E213
:10089300F5F008E222E5832AF583E993F5F0A3E96D
:1008A3009322E88FF0A4CC8BF0A42CFCE98EF0A467
:1008B3002CFC8AF0EDA42CFCEA8EF0A4CDA8F08BDE
:1008C300F0A42DCC3825F0FDE98FF0A42CCD35F024
:1008D300FCEB8EF0A4FEA9F0EB8FF0A4CFC5F02EB5
:1008E300CD39FEE43CFCEAA42DCE35F0FDE43CFC1E
:1008F3002275F008758200EF2FFFEE33FECD33CD66
:10090300CC33CCC58233C5829BED9AEC99E58298B2
:10091300400CF582EE9BFEED9AFDEC99FC0FD5F0B1
:10092300D6E4CEFBE4CDFAE4CCF9A88222B800C128
:10093300B90059BA002DEC8BF084CFCECDFCE5F095
:10094300CBF97818EF2FFFEE33FEED33FDEC33FCDC
:10095300EB33FB10D703994004EB99FB0FD8E5E485
:10096300F9FA227818EF2FFFEE33FEED33FDEC3367
:10097300FCC933C910D7059BE99A4007EC9BFCE9F6
:100983009AF90FD8E0E4C9FAE4CCFB2275F010EF32
:100993002FFFEE33FEED33FDCC33CCC833C810D775
:1009A300079BEC9AE899400AED9BFDEC9AFCE899C9
:1009B300F80FD5F0DAE4CDFBE4CCFAE4C8F922C3AE
:1009C300E49FFFE49EFEE49DFDE49CFC22E493FC93
:1009D300740193FD740293FE740393FF22E0F8A362
:1009E300E0F9A3E0FAA3E0FB22E493F8740193F99E
:1009F300740293FA740393FB22ECF0A3EDF0A3EEDD
:100A0300F0A3EFF022A8828583F0D083D082120A6C
:100A13001F120A1F120A1F120A1FE473E493A3C5CD
:100A230083C5F0C583C8C582C8F0A3C583C5F0C517
:100A330083C8C582C822F8E0FBA3A3E0F925F0F040
:100A4300E582158270021583E0FA38F022EBF0A3F9
:100A5300EAF0A3E9F022D083D082F8E49370127411
:100A63000193700DA3A393F8740193F5828883E433
:100A7300737402936860EFA3A3A380DFE5082444A3
:100A8300F582E43401F583E0050822900141300743
:100A930003900144E475F001120A39020782200031
:100AA300E97F2ED2008018EF540F2490D43440D421
:100AB300FF30040BEF24BFB41A0050032461FFE599
:100AC3000960021509050CE50C7002050B30070ED1
:100AD300900141E475F001120A39EF0207C80221BF
:100AE3004F7403D2078003E4C207F5089001411253
:100AF3000A50E4F509F50BF50CE50960077F2012B0
:100B03000AC280F5750AFFC201C200C202C203C253
:100B130005C206C208120A8EFF700D3007057F005A
:100B2300120AD3AF0CAE0B22B4255FC2D5C2041296
:100B33000A8EFF24D0B40A00501A75F00A780930DF
:100B4300D50508B6FF0106C6A426F620D504700213
:100B5300D20380D924CFB41A00EF5004C2E5D204E3
:100B6300020DC5D20180C6D20080C0D20280BCD2A1
:100B7300D580BAD20580B47F20120AC2200207743E
:100B830001B5090040F1120A7FFF120AC2020AFCF2
:100B9300D208D2068095120A7FFB120A7FFA120A44
:100BA3007FF94A4B700679C37A0E7BFF20022EE54C
:100BB30009602A7E008E8275830012079B60060EF1
:100BC300EE650A70F0C2D5EBC0E0EAC0E0E9C0E030
:100BD300EE120E26D0E0F9D0E0FAD0E0FB12078245
:100BE300FF60AAEBC0E0EAC0E0E9C0E0120AC2D0AD
:100BF300E02401F9D0E03400FAD0E0FBE50A046018
:100C0300DCD50AD98087D20280A2120E0860F7E5EC
:100C13000A70010412048DA90A600DE50A60091423
:100C2300F50A120EB0EF60F3EA30E702F404C39959
:100C33005079EAF4250A0430E701E404F50A800D4B
:100C4300120E0860C1EA050A250A12048DEA900112
:100C530070F030E701E4250A04D50A0420050114E5
:100C6300120E26E4C0E0120EB0900170E060132073
:100C7300E70714F0120AAA802204F0D0E014C0E0BF
:100C83007F00120AAAE50A6007120AA1150A800B5F
:100C9300300503120AA1D0E0020AFCD0E00480C4AC
:100CA300120E08609EE50A0412048D900170EAF0AA
:100CB300E50A2005026001042404120E2674FF04D1
:100CC300C0E0120EB0120AAAE50A20050260031260
:100CD3000AA1D0E0B50AE87F45120AB4900170E09A
:100CE3007F2B30E7047F2DF404C0E0120AC2D0E06A
:100CF30075F00A84C0F0120AABD0E0120AAB020A04
:100D0300FC791080027908C206C2088008D2D5791E
:100D13000A8004790AC2D5E50A047002F50AE4FAE6
:100D2300FDFEFF120A7FFC7B08200113120A7FFDE0
:100D33007B1030000A120A7FFE120A7FFF7B20EC31
:100D43003382D592D55013C3E43000069FFFE49E4F
:100D5300FEE42001039DFDE49CFCE4CBF8C201EC1E
:100D6300700CCFCECDCCE824F8F870F38017C3EF26
:100D730033FFEE33FEED33FDEC33FCEB33FB9940F5
:100D830002FB0FD8E9EB300105F8D0E0C448B2010B
:100D9300C0E00AEC4D4E4F78207B0070C2EAB50AE2
:100DA3000040BCC0E0120E28D0F0D0E0200104C403
:100DB300C0E0C4B201C0F0120AABD0F0D5F0EB0230
:100DC3000AFC120A590B99530D04580B6A4C0B6613
:100DD300420D084F0D10440D10490B7F430D16555E
:100DE3000C43460CA3450C0D470EE3500B6E2D0B25
:100DF300722E0B952B0B76230B93200ECC2A0B2EE6
:100E03004800000B8DE50AB4FF03750A06120A7F3A
:100E1300FC120A7FFD120A7FFE120A7FFF9001690E
:100E23000204CA790AA2D5200314300509B91002B5
:100E33000404B9080104A2D52006025001042002CB
:100E4300689202B509005034C0E07F203003197F57
:100E530030A20272067205500F120E7FC202C20642
:100E6300C205C2087F30800F300503E9C0E0120AD3
:100E7300C2300503D0E0F9D0E0B509CC3005177FC7
:100E830030B9100C120AC27F583004077F788003F0
:100E9300B90803120AC23002057F2D020AC27F205D
:100EA3002008F87F2B2006F322920280CF7F00B424
:100EB3000700500B2469F582E43401F583E0FF2237
:100EC300286E756C6C2900D201120A7F3001F8C2BA
:100ED30001780930D50108F6020B2E2D50434958ED
:100EE300120A7F2403B405004001E4900EDE93123E
:100EF3000AB3743A120AB3D203750904020D0490BB
:100F030001311209FC75BA8090FFF2E4F090FFF012
:100F13007406F0A3E4F07F007E007D007C00900166
:100F230031E0F8A3E0F9A3E0FAA3E0FB1203446085
:100F33005740557B007A0079C87842900131E0FC34
:100F4300A3E0FDA3E0FEA3E0FF1202A7C004C005D7
:100F5300C006C00790FFF0E0FCA3E0FDE41203D35A
:100F6300A804A905AA06AB07D007D006D005D0046C
:100F730012019E12040C90FF20EEF0A3EFF0C2A426
:100F830090FF247480F0806A900131E0FCA3E0FDBF
:100F9300A3E0FEA3E0FF1203BD9001311209FC7B25
:100FA300007A0079C87842900131E0FCA3E0FDA308
:100FB300E0FEA3E0FF1202A7C004C005C006C007FD
:100FC30090FFF0E0FCA3E0FDE41203D3A804A9051D
:100FD300AA06AB07D007D006D005D00412019E1293
:100FE300040C90FF40EEF0A3EFF0C2A290FF447414
:100FF30080F07F007E007D007C00900135E0F8A347
:10100300E0F9A3E0FAA3E0FB120344605740557BE9
:10101300007A0079C87842900135E0FCA3E0FDA393
:10102300E0FEA3E0FF1202A7C004C005C006C0078C
:1010330090FFF0E0FCA3E0FDE41203D3A804A905AC
:10104300AA06AB07D007D006D005D00412019E1222
:10105300040C90FF30EEF0A3EFF0C2A690FF3474BF
:1010630080F0806A900135E0FCA3E0FDA3E0FEA3DD
:10107300E0FF1203BD9001351209FC7B007A007971
:10108300C87842900135E0FCA3E0FDA3E0FEA3E0B5
:10109300FF1202A7C004C005C006C00790FFF0E01E
:1010A300FCA3E0FDE41203D3A804A905AA06AB0739
:1010B300D007D006D005D00412019E12040C90FF75
:1010C30060EEF0A3EFF0C2A390FF647480F075BAF2
:1010D3000075FE8022900131EFF0900132ECF0A315
:1010E300EDF0C2DEAFF97E00EF7F00FEADE97C00DC
:1010F300EE4CFEEF4DFF900134EEF0A3EFF09001C4
:1011030031E0FF7E00EF4E707B900132E0FCA3E004
:10111300FD7E037FE81207EC7C007D0C1207DAAB3F
:1011230007AA06E4F9F890020AE0FCA3E0FDA3E0B5
:10113300FEA3E0FF120930900132EEF0A3EFF0902E
:101143000132E0FEA3E0FF9001FAEEF0A3EFF075A9
:10115300DA4985E9EA85F9FA9001FAE0FEA3E0FFAE
:10116300900202E0FCA3E0FDED2FFFEC3EFE9001B8
:1011730034E0FCA3E0FDEF2DFFEE3CFE900202EE17
:10118300F0A3EFF0900131E0FF7E00EF64014E70B9
:101193007B900132E0FCA3E0FD7E037FE81207ECC5
:1011A3007C007D0C1207DAAB07AA06E4F9F890027B
:1011B3000AE0FCA3E0FDA3E0FEA3E0FF12093090E8
:1011C3000132EEF0A3EFF0900132E0FEA3E0FF90D6
:1011D30001FCEEF0A3EFF075DB4985E9EB85F9FB44
:1011E3009001FCE0FEA3E0FF900204E0FCA3E0FD1D
:1011F300ED2FFFEC3EFE900134E0FCA3E0FDEF2D6C
:10120300FFEE3CFE900204EEF0A3EFF0900131E01C
:10121300FF7E00EF64024E707B900132E0FCA3E09E
:10122300FD7E037FE81207EC7C007D0C1207DAAB2E
:1012330007AA06E4F9F890020AE0FCA3E0FDA3E0A4
:10124300FEA3E0FF120930900132EEF0A3EFF0901D
:101253000132E0FEA3E0FF9001FEEEF0A3EFF07594
:10126300DC4985E9EC85F9FC9001FEE0FEA3E0FF93
:10127300900206E0FCA3E0FDED2FFFEC3EFE9001A3
:1012830034E0FCA3E0FDEF2DFFEE3CFE900206EE02
:10129300F0A3EFF0D2DE2290010FE4F0A3E4F0908C
:1012A3000119120A083F8000007BFF7A24793FC0AE
:1012B30003C002C0017B017A01791DA801AC02AD14
:1012C30003D001D002D0037E007F1412075C1214F6
:1012D3000312000E1221B61221FF12002690000005
:1012E300E0FFEF60107B017A0079017F001219861D
:1012F300900000E4F0900135120A08C27000007FEC
:10130300007E007D487CC2120F02900119E0FCA30D
:10131300E0FDA3E0FEA3E0FF9001331209FC7D048E
:101323007F00121E63900229E0FEA3E0FFEE3395D7
:10133300E0FDFC9001331209FC9001377405F07D48
:10134300007F0012163C90022BE0FEA3E0FFEE3379
:1013530095E0FDFC9001331209FC9001377405F010
:101363007D017F0012163C7F03121E047E00EF6492
:10137300034E7021900119E0FCA3E0FDA3E0FEA35E
:10138300E0FF7BCD7ACC79CC783D1200AD9001198A
:101393001209FC802C7F04121E047E00EF64044EAD
:1013A300701F900119E0FCA3E0FDA3E0FEA3E0FFA2
:1013B3007BCD7ACC79CC783D1200A9900119120922
:1013C300FC900115E0FCA3E0FDA3E0FEA3E0FF9089
:1013D3000111E0F8A3E0F9A3E0FAA3E0FB1200ADEA
:1013E300A804A905AA06AB07900119E0FCA3E0FD38
:1013F300A3E0FEA3E0FF1200A91215300212E022BF
:101403007D007C007FAE7E001220A57D007C007FE6
:10141300007E001220A57D007C007F107E0012203C
:10142300A57D007C007F407E001220A57D007C000E
:101433007FB07E001220A57D007C007F817E00129C
:1014430020A57D007C007FFF7E001220A57D007C0F
:10145300007FA17E001220A57D007C007FA67E0078
:101463001220A57D007C007FA87E001220A57D00B0
:101473007C007F3F7E001220A57D007C007FC87E1C
:10148300001220A57D007C007FD37E001220A57D65
:10149300007C007F007E001220A57D007C007FD5AC
:1014A3007E001220A57D007C007F807E001220A597
:1014B3007D007C007FD87E001220A57D007C007F0C
:1014C300057E001220A57D007C007FD97E001220BE
:1014D300A57D007C007FF17E001220A57D007C00AD
:1014E3007FDA7E001220A57D007C007F127E001231
:1014F30020A57D007C007FDB7E001220A57D007C83
:10150300007F307E001220A57D007C007F8D7E0051
:101513001220A57D007C007F147E001220A57D0093
:101523007C007FAF7E001220A5121D212290013185
:101533001209FC900131E0FCA3E0FDA3E0FEA3E06F
:10154300FF90013D1209FC900155E0FCA3E0FDA3CF
:10155300E0FEA3E0FF90013DE0F8A3E0F9A3E0FA89
:10156300A3E0FB1200AD9001551209FC900155E078
:10157300FCA3E0FDA3E0FEA3E0FF900149E0F8A394
:10158300E0F9A3E0FAA3E0FB12019EC004C005C08A
:1015930006C00790013DE0FCA3E0FDA3E0FEA3E04D
:1015A300FF900145E0F8A3E0F9A3E0FAA3E0FB1202
:1015B300019EA804A905AA06AB07D007D006D0054B
:1015C300D0041200ADC004C005C006C0079001419D
:1015D300E0F8A3E0F9A3E0FAA3E0FB90013DE0FC0F
:1015E300A3E0FDA3E0FEA3E0FF1200A990014DE0FC
:1015F300F8A3E0F9A3E0FAA3E0FB12019EA804A973
:1016030005AA06AB07D007D006D005D0041200AD5B
:101613009001591209FC90013DE0FCA3E0FDA3E019
:10162300FEA3E0FF9001411209FC900159E0FCA3E5
:10163300E0FDA3E0FEA3E0FF22900131EFF0900173
:1016430032EDF090013AE4F0900138E4F090013784
:10165300E0FF900138E0FEEEC39F400302172390A2
:101663000138E0FF900137E0FEC3EE9FFFEF14FD6A
:101673007F0A121FBCA804A905AA06AB0790013371
:10168300E0FCA3E0FDA3E0FEA3E0FF1209307B0A28
:101693007A0079007800120930AC00AD01AE02AFD8
:1016A30003900139EFF090013AE0FF7E00EF4E70B6
:1016B30042900137E0FFEF14FF900138E0FEEEC3E4
:1016C3009F5030900139E0FF7E00EF4E701F900174
:1016D30038E0FFEF75F006A4FF900131E0FEEF2E36
:1016E300FF900132E0FD7B20121AE4802A90013A38
:1016F3007401F0900138E0FFEF75F006A4FF90014C
:1017030031E0FEEF2EFF900132E0FD900139E0FE63
:10171300EE2430FB121AE4900138E004F002165074
:1017230022900109EFF0900109E0FF7E00EF4E7077
:101733002C900202E0FEA3E0FF8FEA900202E0FE9B
:10174300A3E0FFEEFF7E008FFA9001FAE0FEA3E034
:10175300FF900203E02FF0900202E03EF0900109B7
:10176300E0FF7E00EF64014E702C900204E0FEA3C4
:10177300E0FF8FEB900204E0FEA3E0FFEEFF7E00AC
:101783008FFB9001FCE0FEA3E0FF900205E02FF049
:10179300900204E03EF0900109E0FF7E00EF640256
:1017A3004E702C900206E0FEA3E0FF8FEC90020641
:1017B300E0FEA3E0FFEEFF7E008FFC9001FEE0FE63
:1017C300A3E0FF900207E02FF0900206E03EF090C6
:1017D3000109E0FF7E00EF64034E702C900208E0E5
:1017E300FEA3E0FF8FED900208E0FEA3E0FFEEFF13
:1017F3007E008FFD900200E0FEA3E0FF900209E06F
:101803002FF0900208E03EF022C0E0C083C082C007
:10181300D075D000C004C005C006C00790021AE00E
:10182300FEA3E0FFC3EF9432EE64809480407FC256
:101833008C90021CE4F0A37401F090021AE4F0A36C
:10184300E4F0B2A1AFD47E00EF7F00FE900229EE58
:10185300F0A3EFF0AFD57E00900229E0FCA3E0FDFA
:10186300EE4CFEEF4DFF900229EEF0A3EFF0AFD266
:101873007E00EF7F00FE90022BEEF0A3EFF0AFD3DC
:101883007E0090022BE0FCA3E0FDEE4CFEEF4DFF4B
:1018930090022BEEF0A3EFF075D14475D40075D50B
:1018A3000075D20075D300D2AF75D1CCD28C900223
:1018B3001BE004F0700690021AE004F0D007D00693
:1018C300D005D004D0D0D082D083D0E0324401C23E
:1018D300000000004401CA000000004401A53C23AD
:1018E300D70A4401C63A83126F4401A93F0000009E
:1018F3004401B63E99999A4101B5014401B10000F2
:101903000000500181000000000000000000000002
:1019130000000000005001953F800000000000001F
:10192300000000003F800000602801CE000000009E
:1019330000000000000000000000000000000000A4
:101943000000000041F0000040A0000040A00000A3
:10195300000000004401F6000000004802020000FD
:101963000000000000004801FA0000000000000031
:101973000044020A0151800042021C000042021A84
:10198300000000900131EFF0900132EBF0A3EAF098
:10199300A3E9F0900135E4F0900131E0FF7D0012FE
:1019A3002196900131E0FF7DFF122196900131E0F5
:1019B300FF7D01122196900131E0FF7D00122196F7
:1019C300900135E4F0900135E0FF7E00C3EF948091
:1019D300EE64809480505E900132E0FBA3E0FAA3B2
:1019E300E0F9900135E0FF75F002EFA4F58285F090
:1019F3008312086DFFAEF07D00900131E0FF1221EC
:101A030096900132E0FBA3E0FAA3E0F9900135E000
:101A1300FF75F002EFA4F58285F08312086DFFAE27
:101A2300F0EF54FFFD900131E0FF12219690013554
:101A3300E004F0809022900131EFF0900132EDF05C
:101A430043BC80900131E0FFEF131313541FFF7E5B
:101A530000EF64014E7035900131E0FFEF5407FF52
:101A6300A8077401088002C333D8FCFFEFF4FFEF2B
:101A73005294900131E0FFEF5407FFA80774010867
:101A83008002C333D8FCFFEF42938045900131E0DD
:101A9300FFEF131313541FFF7E00EF4E70339001BB
:101AA30031E0FFEF5407FFA8077401088002C33336
:101AB300D8FCFFEFF4FFEF5292900131E0FFEF54B7
:101AC30007FFA8077401088002C333D8FCFFEF4265
:101AD30091900132E0FFEF540FFFEF42DE43DE202F
:101AE30022900147EFF0900148EDF0900149EBF0AF
:101AF30090014AE4F090014BE4F0900149E0FFEFDC
:101B030024E0FF90014AEFF0900147E0FF7E00D30D
:101B1300EF947FEE64809480400C900147E4F09052
:101B23000148E02402F0900147E0FF900148E0FD06
:101B330012200B90014BE4F090014BE0FF7E00C3B9
:101B4300EF9406EE64809480503790014BE0FF9051
:101B5300014AE0FE75F006EEA42417F582E5F034A1
:101B630022F583E5822FF582E43583F583E493FF41
:101B73007E007D017C001220A590014BE004F080E3
:101B8300B722787FE4F6D8FD758121021BCC0212BF
:101B93009AE493A3F8E493A34003F68001F208DFE9
:101BA300F48029E493A3F85407240CC8C333C45422
:101BB3000F4420C8834004F456800146F6DFE480D6
:101BC3000B01020408102040809018D0E47E01939A
:101BD30060BCA3FF543F30E509541FFEE493A360A8
:101BE300010ECF54C025E060A840B8E493A3FAE403
:101BF30093A3F8E493A3C8C582C8CAC583CAF0A354
:101C0300C8C582C8CAC583CADFE9DEE780BE9001C2
:101C130041EFF0900142EDF0900143EBF0A3EAF0C5
:101C2300A3E9F0900146E4F0900143E0FBA3E0FA5E
:101C3300A3E0F9900146E0FF8F8275830012079BB2
:101C4300FFEF6053900141E0FF900142E0FD9001FE
:101C530043E0FBA3E0FAA3E0F9900146E0FE8E82A5
:101C630075830012079BFB121AE4900141E02408DC
:101C7300F0900141E0FF7E00D3EF9478EE6480940E
:101C830080400C900141E4F0900142E02402F09086
:101C93000146E004F080912290010AEFF090010BDD
:101CA300EDF053BCF090010AE0FFEF42BC43BC40AF
:101CB300E5BC30E5FB53BCDFAFBD7E0090010CEE0D
:101CC300F0A3EFF090010CE0FEA3E0FFEF7F00FE36
:101CD30090010CEEF0A3EFF090010CE0FEA3E0FF07
:101CE300ADBE7C00EE4CFEEF4DFF90010CEEF0A379
:101CF300EFF090010CE0FEA3E0FF90010BE0FDEF9D
:101D0300A805088005CEC313CE13D8F9FF90010CA4
:101D1300EEF0A3EFF090010CE0FEA3E0FF229001B0
:101D230031E4F0900131E0FF7E00C3EF9408EE64EC
:101D3300809480505E900131E0FF7E00EF24B0FF7D
:101D4300EE3400FE7D007C001220A57D007C007F28
:101D5300007E001220A57D007C007F107E001220F3
:101D6300A5900132E4F0900132E0FF7E00C3EF94CE
:101D730080EE6480948050137D017C007F007E00A0
:101D83001220A5900132E004F080DB900131E004E1
:101D9300F0809022C0E0C0F0C083C082C0D075D074
:101DA30000C000C001C002C003C004C005C006C01B
:101DB3000730D81153D8FE7F00121724121F6A90E0
:101DC30000007401F030D90853D8FD7F01121724A5
:101DD30030DA0853D8FB7F0212172430DB0853D8BC
:101DE300F77F03121724D007D006D005D004D00301
:101DF300D002D001D000D0D0D082D083D0F0D0E0B8
:101E030032900131EFF0900131E0FF7E00EF640288
:101E13004E701020A0477F057E00121EBB20A03D00
:101E23007F0222900131E0FF7E00EF64034E7010C9
:101E330020CB2A7F057E00121EBB20CB207F0322EE
:101E4300900131E0FF7E00EF64044E701020CA0D54
:101E53007F057E00121EBB20CA037F04227F00225F
:101E6300900131EFF0900132EDF07B017A01793787
:101E7300C003C002C0017BFF7A22790F900144EBBB
:101E8300F0A3EAF0A3E9F0900133E0FCA3E0FDA3A3
:101E9300E0FEA3E0FF9001471209FCD001D002D07D
:101EA30003120AE4900131E0FF900132E0FD7B016F
:101EB3007A017937121C1122900132EEF0A3EFF070
:101EC300900134E4F0A3E4F0900132E0FEA3E0FFDC
:101ED300900134E0FCA3E0FDC3ED9FEC9E503090F5
:101EE3000136741FF09001377428F0900137E01425
:101EF300FFF0EF70F6900136E014FFF0EF70EC9016
:101F03000135E004F07006900134E004F080B9225A
:101F1300900155EEF0A3EFF0900157E4F0A3E4F045
:101F2300900155E0FEA3E0FF900157E0FCA3E0FD24
:101F3300C3ED9FEC9E502F900159E4F0900159E0BE
:101F4300FF7E00C3EF9405EE6480948050089001F7
:101F530059E004F080E6900158E004F07006900127
:101F630057E004F080BA22900109E4F0D2C8C2C954
:101F7300C2C8D2C9D2C8C2C9900109E4F09001090C
:101F8300E0FF7E00C3EF9480EE648094805029C20A
:101F9300C87D027F03121C9B900109E0FDED25E043
:101FA3002401F582E43400F583EEF0A3EFF0D2C808
:101FB300900109E004F080C52290013BEFF090010D
:101FC3003CEDF090013D120A080000000190013C35
:101FD300E0FF14F0EF602290013DE0F8A3E0F9A3E5
:101FE300E0FAA3E0FB90013BE0FFE4FCFDFE1208F6
:101FF300A590013D1209FC80D490013DE0FCA3E0D3
:10200300FDA3E0FEA3E0FF2290014CEFF090014D11
:10201300EDF090014DE0FF7E00EF24B0FFEE3400C1
:10202300FE7D007C001220A590014CE0FFEF54F0F0
:10203300FFEFC4540FFF7E00EF4410FF7D007C00D0
:102043001220A590014CE0FFEF540FFF7E007D00AE
:102053007C001220A522900153E4F07F0112217627
:10206300D2947F017E00121F13D2957F017E00124E
:102073001F13309423900153E004F0900153E0FFC9
:102083007E00D3EF94FAEE6480948040E51221E859
:102093007F001221767F0122C2957F001221767F75
:1020A300002290014EEEF0A3EFF0900150ECF0A36C
:1020B300EDF0900150E0FEA3E0FFEF4E600C9001C5
:1020C3004EE0FEA3E0FF1221282290014EE0FEA382
:1020D300E0FF12210122C0E0C083C082E59830E115
:1020E300085398FD90021FE4F0E59830E0095398F7
:1020F300FE90010EE599F0D082D083D0E0329001BA
:1021030052EFF01221D17F7812003E1220597F0046
:1021130012003E122059900152E0FF12003E12209D
:10212300591221E822900152EFF01221D17F781247
:10213300003E1220597F4012003E12205990015256
:10214300E0FF12003E1220591221E822EFB40A07E1
:10215300740D12215A740A309811A899B8130CC23D
:10216300983098FDA899C298B811F63099FDC29994
:10217300F59922900154EFF0900154E0FF7E00EFB7
:1021830064014E7007759140759200227591007538
:10219300920022900136EFF0900137EDF090021F8C
:1021A300E0FFEF70F890021F7401F0900137E0FF39
:1021B3008F9922439850438900758E40758BCF7554
:1021C3008DFFD28ED2ACD2AF90021FE4F022D29414
:1021D300D2957F027E00121F13C2947F027E0012EB
:1021E3001F13C29522C295C2947F027E00121F1351
:1021F300D295D2947F027E00121F13224389007569
:102203008A30758CF8D28CD2A9D2AF22252E3266B1
:10221300202020000000000000000000002F00002C
:1022230000000700070000147F147F1400242A7F96
:102233002A12006264081323003649552250000015
:102243000503000000001C224100000041221C0085
:102253000014083E08140008083E0808000000A007
:102263006000000808080808000060600000002003
:1022730010080402003E5149453E0000427F4000E1
:10228300004261514946002141454B310018141267
:102293007F10002745454539003C4A494930000134
:1022A3007109050300364949493600064949291E83
:1022B30000003636000000005636000000081422E5
:1022C30041000014141414140000412214080002E5
:1022D3000151090600324959513E007C1211127C0A
:1022E300007F49494936003E41414122007F414137
:1022F300221C007F49494941007F09090901003E29
:102303004149497A007F0808087F0000417F410066
:10231300002040413F01007F08142241007F4040DC
:102323004040007F020C027F007F0408107F003EC4
:102333004141413E007F09090906003E4151215EAA
:10234300007F091929460046494949310001017FA7
:102353000101003F4040403F001F2040201F003F3D
:102363004038403F006314081463000708700807EF
:1023730000615149454300007F41410000552A5502
:102383002A55000041417F0000040201020400407D
:10239300404040400000010204000020545454789F
:1023A300007F4844443800384444442000384444BF
:1023B300487F00385454541800087E09010200185D
:1023C300A4A4A47C007F080404780000447D40009A
:1023D300004080847D00007F102844000000417F7E
:1023E3004000007C04180478007C0804047800385A
:1023F3004444443800FC242424180018242418FCE2
:10240300007C0804040800485454542000043F444A
:102413004020003C4040207C001C2040201C003C0D
:102423004030403C004428102844001CA0A0A07C5D
:10243300004464544C44141414141414616263006F
:102443000000000000000000000000000000000089
:00000001FF
