:10000000021ECC53EFFD3253EFFB32021D86E4FF9C
:10001000FE120782600C0FEF70010E09E970F20A00
:1000200080EF22022400900027EEF0A3EFF0900072
:1000300027E0FCA3E0FDEC1203D390002912099302
:100040007B007A0079807841900029E0FCA3E0FDF4
:10005000A3E0FEA3E0FF1202A77B7A7A8D791D78D8
:100060003E12019E900029120993900029E0FCA302
:10007000E0FDA3E0FEA3E0FF7B007A00794878432F
:1000800012019E900029120993900029E0FCA3E040
:08009000FDA3E0FEA3E0FF2246
:07009B000200036164630031
:1000A300020007020478E86480F8E933E83360115A
:1000B3000460F0ED33EC337009E8FCE9FDEAFEEB94
:1000C300FF220460DED3EB9FEA9EE99DE8C2E78C42
:1000D300F0C2F795F0400CE8CCF8E9CDF9EACEFA96
:1000E300EBCFFB12044385D0F05804700320D5B343
:1000F300E80470075002B2D502048292D5EC046082
:10010300F7E4CCC0E0C398F8603B94186008400D56
:10011300D0E0FB02045AE4FBFAC9FC8028E830E48F
:1001230006E4C9FBE4CAFCE830E305E4C9CACBFC36
:10013300E854076010F8C3E913F9EA13FAEB13FB69
:10014300EC13FCD8F130F52FC3E49CFCEF9BFFEEDE
:100153009AFEED99FDD0E0FBEF4E4D4C701222DB81
:100163000302047FEC2CFCEF33FFEE33FEED33FD93
:10017300ED30E7EB02045AEF2BFFEE3AFEED39FDCB
:10018300D0E0FB50130BBB0003020482ED13FDEE22
:1001930013FEEF13FFEC13FC02045AEC4D6011E85D
:1001A300497017ED33EC3304600DE4FCFFFEFD22D0
:1001B300E933E8330470F802047812044358046006
:1001C30009E4CC2481500628500902048228400304
:1001D30002047FC0E0EB4A7044B98006D0E0FB0222
:1001E300046EEF4E701CBD8008EBFFEAFEE9FD8054
:1001F300EBE98DF0A4FEE5F0020287E9CDF9EAFE12
:10020300EBFFEF89F0A4FCE5F0CE89F0A42EFFE428
:1002130035F0CD89F0A42DFEE435F08067EF4E7004
:1002230005BD80D780C3EF8BF0A4ACF0EE8BF0A4B8
:100233002CFCE435F0F8EF8AF0A42CE5F038FCE46C
:1002430033CB8DF0A42CFCE5F03BF8EE8AF0A42C24
:10025300FCE5F038F8E433CF89F0A42CFCE5F03862
:10026300CF3400CE89F0A42FFFE5F03EFEE433C97E
:100273008DF0A42EFEE5F039CD8AF0A42FFFE5F032
:100283003EFEE43DFD33D0E0FB50070BBB000F0205
:100293000482EC2CFCEF33FFEE33FEED33FD02045E
:1002A3005A020482EC5D046005E8590470030204F9
:1002B30078120443580460F6EC4860F2EC7004FDD5
:1002C300FEFF22C860DB2481C85009C39860025036
:1002D3000602047F9850CAF582E9294B4A7005ABA0
:1002E3008202046E75F0007C1A7880C3EF9BEE9A4D
:1002F300ED99400DC3EF9BFFEE9AFEED99FDE842A9
:10030300F0DC23ACF0D0E0FFD0E0FED0E0FDAB8228
:1003130020E7101BEB60BAEC2CFCEF33FFEE33FE4F
:10032300ED33FD02045AE803F830E705C0F075F039
:1003330000EF2FFFEE33FEED33FD40B830E7C28010
:10034300AA74F8CC6480CCC86480C8F58204604F7A
:10035300C3EB9FF5F0EA9E42F0E99D42F0E89C452D
:10036300F0603C501DE5825FFFE582D313CB5BCB8E
:10037300F42B5582FB50280ABA002409B90020083F
:10038300801DE5825BFBE582D313CF5FCFF4C313FC
:100393002F5582FF50090EBE00050DBD00010CC391
:1003A300EB9FF5F0EA9E42F0E99D42F0E89C45F0B0
:1003B3006007CC4820E701B3EC22ED33EC33600A4D
:1003C300047003BD8004ECB2E7FC2275F020800EBC
:1003D30075F010800575F0087D007E007F00339274
:1003E300D530D503120959EC334010EF33FFEE3308
:1003F300FEED33FDEC33FCD5F0ED22E5F0247EA2D7
:10040300D513CC92E7CDCEFF22EDD2E7CD33EC333B
:1004130092D524814006E4FFFEFDFC22FCE4CFCE0E
:10042300CDCC24E0501174FF80EDC3CC13CCCD139D
:10043300CDCE13CECF13CF0470F030D5DE020959E1
:10044300E9D2E7C933E833F892D5EDD2E7CD33ECFF
:1004530033FC5002B2D522EC30E7100FBF000C0E74
:10046300BE00080DBD00040BEB6014A2D5EB13FC1A
:10047300ED92E7FD2274FFFCFDFEFF22E480F8A26B
:10048300D574FF13FC7D80E480EFF920E73624F96F
:1004930050037907E4F42402FBE582158270021508
:1004A30083DBF6E024FB501BE96014E4F0E58215DE
:1004B3008270021583E004F0B40A08E4F0D9EE7404
:1004C30001F00A22C2D522ED33EC3392D5FA602A29
:1004D300B4FF33EDC2E77BFF60067A0479EFE422D1
:1004E3007A0479F820D5047A0479F3224E614E0018
:1004F3002B494E46002D494E4600E47A08F0A3DA14
:10050300FC7B00740722C083C082ECC0E0EDC0E036
:10051300EEC0E0EFC0E0EA75F010A4CAABF075F0EE
:100523004DA42BFBE435F0FCEA2410FAEB34C5FBB5
:10053300EC34D9FCEDC2E7FF75F056A4F42411C5E1
:10054300F0F434C58FF0A42AE5F03BE43CF020E757
:10055300141205FFD0E0FFD0E0FED0E0FDD0E0FCB8
:100563001202A78014F4041205FFD0E0FFD0E0FECE
:10057300D0E0FDD0E0FC12019ED082D083E0FAED02
:10058300D2E7CD33EC332482FBE4C3CF33CFCE3376
:10059300CECD33CD33DBF37B0775F00A846004F0F3
:1005A300A31B0AE5F0F0A38FF0740AA4FFACF08E4E
:1005B300F0740AA42CFEACF050010C8DF0740AA464
:1005C3002CFDE435F0F0A3DBDE7407223F8000004E
:1005D3004120000042C80000447A0000461C40004D
:1005E30047C35000497424004B1896804CBEBC206E
:1005F3005A0E1BCA6753C21C749DC5AEFB600654DA
:1006030007601C232312062DEB54386009120619C8
:1006130012062812019EECF8EDF9EEFAEFCB22EB6D
:1006230012062880F1543803241C9005CFFE93FC56
:100633000EEE93FD0EEE930ECE93FF22C0E0EFFB82
:10064300EEFAEDF9ECF812019ED0E0F5F0EFFBEED7
:10065300FAEDF9ECF8120967A3A3A3A3E8C0E0E954
:10066300C0E0EAC0E0EBC0E0C0F012019E120983D3
:10067300A3A3A3A31200ADD0F0D0E0FBD0E0FAD047
:10068300E0F9D0E0F8D5F0D422E709F608DFFA80E4
:1006930046E709F208DFFA803E88828C83E709F097
:1006A300A3DFFA8032E309F608DFFA8078E309F280
:1006B30008DFFA807088828C83E309F0A3DFFA8075
:1006C3006489828A83E0A3F608DFFA805889828AE4
:1006D30083E0A3F208DFFA804C80D280FA80C680E0
:1006E300D4806980F28033801080A680EA809A806B
:1006F300A880DA80E280CA803389828A83ECFAE4B4
:1007030093A3C8C582C8CCC583CCF0A3C8C582C88F
:10071300CCC583CCDFE9DEE7800D89828A83E4934D
:10072300A3F608DFF9ECFAA9F0EDFB2289828A83AC
:10073300ECFAE0A3C8C582C8CCC583CCF0A3C8C576
:1007430082C8CCC583CCDFEADEE880DB89828A837A
:10075300E493A3F208DFF980CC88F0EF60010E4E3A
:1007630060C388F0ED2402B4040050B9F582EB2491
:1007730002B4040050AF23234582239006DC73BBED
:10078300010689828A83E0225002E722BBFE02E34C
:100793002289828A83E49322BB010CE58229F582B4
:1007A300E5833AF583E0225006E92582F8E622BB89
:1007B300FE06E92582F8E222E58229F582E5833AFD
:1007C300F583E49322BB010689828A83F0225002D7
:1007D300F722BBFE01F322C2D5EC30E709B2D5E420
:1007E300C39DFDE49CFCEE30E715B2D5E4C39FFF47
:1007F300E49EFE120A28C3E49DFDE49CFC800312E0
:100803000A2830D507C3E49FFFE49EFE22C5F0F813
:10081300A3E028F0C5F0F8E582158270021583E0A5
:1008230038F022A3F8E0C5F025F0F0E582158270D8
:10083300021583E0C838F0E822E88FF0A4CC8BF0EF
:10084300A42CFCE98EF0A42CFC8AF0EDA42CFCEA89
:100853008EF0A4CDA8F08BF0A42DCC3825F0FDE9C3
:100863008FF0A42CCD35F0FCEB8EF0A4FEA9F0EBB9
:100873008FF0A4CFC5F02ECD39FEE43CFCEAA42DC5
:10088300CE35F0FDE43CFC2275F008758200EF2FB5
:10089300FFEE33FECD33CDCC33CCC58233C5829B43
:1008A300ED9AEC99E58298400CF582EE9BFEED9A69
:1008B300FDEC99FC0FD5F0D6E4CEFBE4CDFAE4CC05
:1008C300F9A88222B800C1B90059BA002DEC8BF007
:1008D30084CFCECDFCE5F0CBF97818EF2FFFEE33C4
:1008E300FEED33FDEC33FCEB33FB10D703994004EF
:1008F300EB99FB0FD8E5E4F9FA227818EF2FFFEE16
:1009030033FEED33FDEC33FCC933C910D7059BE946
:100913009A4007EC9BFCE99AF90FD8E0E4C9FAE4A2
:10092300CCFB2275F010EF2FFFEE33FEED33FDCC41
:1009330033CCC833C810D7079BEC9AE899400AED2B
:100943009BFDEC9AFCE899F80FD5F0DAE4CDFBE4D3
:10095300CCFAE4C8F922C3E49FFFE49EFEE49DFDC4
:10096300E49CFC22E493FC740193FD740293FE74F3
:100973000393FF22E0F8A3E0F9A3E0FAA3E0FB224C
:10098300E493F8740193F9740293FA740393FB22CA
:10099300ECF0A3EDF0A3EEF0A3EFF022A8828583A1
:1009A300F0D083D0821209B61209B61209B6120921
:1009B300B6E473E493A3C583C5F0C583C8C582C8F1
:1009C300F0A3C583C5F0C583C8C582C822F8E0FB80
:1009D300A3A3E0F925F0F0E582158270021583E008
:1009E300FA38F022EBF0A3EAF0A3E9F022D083D0A7
:1009F30082F8E4937012740193700DA3A393F874B7
:100A03000193F5828883E4737402936860EFA3A370
:100A1300A380DFEF8DF0A4A8F0CF8CF0A428CE8DB7
:100A2300F0A42EFE22BC000BBE0029EF8DF084FF44
:100A3300ADF022E4CCF875F008EF2FFFEE33FEECB7
:100A430033FCEE9DEC984005FCEE9DFE0FD5F0E9DE
:100A5300E4CEFD22EDF8F5F0EE8420D21CFEADF0DD
:100A630075F008EF2FFFED33FD4007985006D5F0E2
:100A7300F222C398FD0FD5F0EA22E510243AF5825D
:100A8300E43400F583E0051022900037300703902B
:100A9300003AE475F0011209D00207822000E97FD1
:100AA3002ED2008018EF540F2490D43440D4FF305A
:100AB300040BEF24BFB41A0050032461FFE5116057
:100AC3000215110514E5147002051330070E90008A
:100AD30037E475F0011209D0EF0207C80223D97475
:100AE30003D2078003E4C207F5109000371209E729
:100AF300E4F511F513F514E51160077F20120AC020
:100B030080F57512FFC201C200C202C203C205C250
:100B130006C208120A8CFF700D3007057F00120A07
:100B2300D1AF14AE1322B4255FC2D5C204120A8C0E
:100B3300FF24D0B40A00501A75F00A781130D50595
:100B430008B6FF0106C6A426F620D5047002D20318
:100B530080D924CFB41A00EF5004C2E5D204020DA9
:100B6300C3D20180C6D20080C0D20280BCD2D5805D
:100B7300BAD20580B47F20120AC02002077401B5DF
:100B8300110040F1120A7DFF120AC0020AFAD208CC
:100B9300D2068095120A7DFB120A7DFA120A7DF9AC
:100BA3004A4B700679C17A0E7BFF20022EE5116055
:100BB3002A7E008E8275830012079B60060EEE6507
:100BC3001270F0C2D5EBC0E0EAC0E0E9C0E0EE127B
:100BD3000E24D0E0F9D0E0FAD0E0FB120782FF60E8
:100BE300AAEBC0E0EAC0E0E9C0E0120AC0D0E0240A
:100BF30001F9D0E03400FAD0E0FBE5120460DCD563
:100C030012D98087D20280A2120E0660F7E5127015
:100C1300010412048DA912600DE512600914F51286
:100C2300120EAEEF60F3EA30E702F404C399507991
:100C3300EAF425120430E701E404F512800D120EE4
:100C43000660C1EA0512251212048DEA900066F0CF
:100C530030E701E4251204D5120420050114120E15
:100C630024E4C0E0120EAE900066E0601320E707B4
:100C730014F0120AA8802204F0D0E014C0E07F0030
:100C8300120AA8E5126007120A9F1512800B30059D
:100C930003120A9FD0E0020AFAD0E00480C4120EC5
:100CA30006609EE5120412048D900066EAF0E512D8
:100CB3002005026001042404120E2474FF04C0E022
:100CC300120EAE120AA8E5122005026003120A9F53
:100CD300D0E0B512E87F45120AB2900066E07F2BA0
:100CE30030E7047F2DF404C0E0120AC0D0E075F0B1
:100CF3000A84C0F0120AA9D0E0120AA9020AFA79FA
:100D03001080027908C206C2088008D2D5790A8009
:100D130004790AC2D5E512047002F512E4FAFDFE65
:100D2300FF120A7DFC7B08200113120A7DFD7B1054
:100D330030000A120A7DFE120A7DFF7B20EC33820B
:100D4300D592D55013C3E43000069FFFE49EFEE422
:100D53002001039DFDE49CFCE4CBF8C201EC700C84
:100D6300CFCECDCCE824F8F870F38017C3EF33FF70
:100D7300EE33FEED33FDEC33FCEB33FB994002FB2A
:100D83000FD8E9EB300105F8D0E0C448B201C0E068
:100D93000AEC4D4E4F78207B0070C2EAB51200403A
:100DA300BCC0E0120E26D0F0D0E0200104C4C0E0A5
:100DB300C4B201C0F0120AA9D0F0D5F0EB020AFACE
:100DC3001209F00B97530D02580B684C0B64420D3C
:100DD300064F0D0E440D0E490B7D430D14550C416A
:100DE300460CA1450C0B470EE1500B6C2D0B702EDE
:100DF3000B932B0B74230B91200ECA2A0B2C480048
:100E0300000B8BE512B4FF03751206120A7DFC1268
:100E13000A7DFD120A7DFE120A7DFF90005F020427
:100E2300CA790AA2D5200314300509B910020404B3
:100E3300B9080104A2D520060250010420026892D9
:100E430002B511005034C0E07F203003197F30A277
:100E53000272067205500F120E7DC202C206C2054F
:100E6300C2087F30800F300503E9C0E0120AC030AA
:100E73000503D0E0F9D0E0B511CC3005177F30B9C8
:100E8300100C120AC07F583004077F788003B9081A
:100E930003120AC03002057F2D020AC07F202008FA
:100EA300F87F2B2006F322920280CF7F00B4070045
:100EB300500B245FF582E43400F583E0FF22286EB3
:100EC300756C6C2900D201120A7D3001F8C20178D9
:100ED3001130D50108F6020B2C2D50434958120A44
:100EE3007D2403B405004001E4900EDC93120AB1A3
:100EF300743A120AB1D203751104020D029000274D
:100F03001209937F007E007DC87C42900027E0F8A1
:100F1300A3E0F9A3E0FAA3E0FB120344400C900022
:100F23002712099F42C8000080277F007E007DC8EA
:100F33007CC2900027E0F8A3E0F9A3E0FAA3E0FB6A
:100F43001203446002500A90002712099FC2C8008E
:100F5300007F007E007DC87C4290002BE0F8A3E078
:100F6300F9A3E0FAA3E0FB120344400C90002B1218
:100F7300099F42C8000080277F007E007DC87CC295
:100F830090002BE0F8A3E0F9A3E0FAA3E0FB12033F
:100F9300446002500A90002B12099FC2C8000075DA
:100FA300BA8090FFF2E4F090FFF07406F0A3E4F04F
:100FB3007F007E007D007C00900027E0F8A3E0F92D
:100FC300A3E0FAA3E0FB120344605740557B007A89
:100FD3000079C87842900027E0FCA3E0FDA3E0FE7F
:100FE300A3E0FF1202A7C004C005C006C00790FF1C
:100FF300F0E0FCA3E0FDE41203D3A804A905AA06CC
:10100300AB07D007D006D005D00412019E12040C02
:1010130090FF20EEF0A3EFF090FF247480F0C2A4C1
:10102300806A900027E0FCA3E0FDA3E0FEA3E0FFBD
:101033001203BD9000271209937B007A0079C878C8
:1010430042900027E0FCA3E0FDA3E0FEA3E0FF1233
:1010530002A7C004C005C006C00790FFF0E0FCA3D0
:10106300E0FDE41203D3A804A905AA06AB07D00741
:10107300D006D005D00412019E12040C90FF40EE5E
:10108300F0A3EFF0C2A290FF447480F07F007E00D3
:101093007D007C0090002BE0F8A3E0F9A3E0FAA325
:1010A300E0FB120344605740557B007A0079C8780F
:1010B3004290002BE0FCA3E0FDA3E0FEA3E0FF12BF
:1010C30002A7C004C005C006C00790FFF0E0FCA360
:1010D300E0FDE41203D3A804A905AA06AB07D007D1
:1010E300D006D005D00412019E12040C90FF30EEFE
:1010F300F0A3EFF0C2A690FF347480F0806A9000F2
:101103002BE0FCA3E0FDA3E0FEA3E0FF1203BD90F0
:10111300002B1209937B007A0079C8784290002B48
:10112300E0FCA3E0FDA3E0FEA3E0FF1202A7C004DE
:10113300C005C006C00790FFF0E0FCA3E0FDE41289
:1011430003D3A804A905AA06AB07D007D006D00588
:10115300D00412019E12040C90FF60EEF0A3EFF096
:10116300C2A390FF647480F075BA0075FE8022906C
:101173000003E4F0A3E4F0900005E4F0A3E4F090AE
:10118300000F12099F424800007BFF7A2479EBC0CD
:1011930003C002C0017B017A007913A801AC02AD40
:1011A30003D001D002D0037E007F1412075C122407
:1011B300DE90002B12099FC24800007F007E007D55
:1011C300487CC2120F00900139E0FEA3E0FFEF64F8
:1011D300014E700B12178B900139E4F0A3E4F090E9
:1011E300013DE0FEA3E0FF120026900007120993E1
:1011F30090013FE0FEA3E0FF12002690000B1209CE
:1012030093900007E0FCA3E0FDA3E0FEA3E0FF90C2
:1012130000291209937D027F001220A490000BE0A5
:10122300FCA3E0FDA3E0FEA3E0FF900029120993D5
:101233007D037F001220A490013BE0FEA3E0FFEEBC
:101243003395E0FDFC90002912099390002D74055D
:10125300F07D047F00121B1390000FE0FCA3E0FD60
:10126300A3E0FEA3E0FF9000291209937D057F0010
:101273001220A490013DE0FEA3E0FFEE3395E0FDD4
:10128300FC90002912099390002D7405F07D007FD6
:1012930000121B1390013FE0FEA3E0FFEE3395E045
:1012A300FDFC90002912099390002D7405F07D0137
:1012B3007F00121B137F031221AAEFB403189001BE
:1012C3003CE004F0700690013BE004F0900005E47C
:1012D300F0A3E4F080337F041221AAEFB404189042
:1012E300013CE024FFF090013BE034FFF090000567
:1012F300E4F0A3E4F080127F021221AAEFB4020902
:10130300900005E4F0A37401F0900005E0FEA3E073
:10131300FFEF64014E60030211C990013FE0FEA399
:10132300E0FF90013DE0FCA3E0FDED2FFFEC3EFE6E
:101333007C007D021207DA90013BE0FCA3E0FDC3D1
:10134300ED9FFDEC9EFCEC1203D3C004C005C00668
:10135300C0077B017A0079FCC003C002C0017B0196
:101363007A00792BA801AC02AD03D001D002D003DF
:101373007E007F2812075CD007D006D005D0041268
:101383001A0790000F12099390000FE0FCA3E0FDF1
:10139300A3E0FEA3E0FFC004C005C006C0079000A1
:1013A3000FE0FCA3E0FDA3E0FEA3E0FF90002B12FF
:1013B3000993D007D006D005D004120F000211C93B
:1013C30022252E32662020200000000000000000AD
:1013D30000002F000000000700070000147F147FA7
:1013E3001400242A7F2A120062640813230036495A
:1013F30055225000000503000000001C224100009C
:101403000041221C000014083E08140008083E088E
:1014130008000000A0600000080808080800006039
:10142300600000002010080402003E5149453E00C0
:1014330000427F4000004261514946002141454B33
:1014430031001814127F10002745454539003C4AE6
:1014530049493000017109050300364949493600FD
:10146300064949291E0000363600000000563600A2
:101473000000081422410000141414141400004145
:1014830022140800020151090600324959513E0055
:101493007C1211127C007F49494936003E4141418B
:1014A30022007F4141221C007F49494941007F09B5
:1014B300090901003E4149497A007F0808087F0075
:1014C30000417F4100002040413F01007F0814227A
:1014D30041007F40404040007F020C027F007F04B8
:1014E30008107F003E4141413E007F090909060083
:1014F3003E4151215E007F09192946004649494969
:10150300310001017F0101003F4040403F001F20A7
:1015130040201F003F4038403F006314081463001D
:10152300070870080700615149454300007F4141A6
:101533000000552A552A55000041417F000004024E
:10154300010204004040404040000001020400004A
:101553002054545478007F48444438003844444469
:101563002000384444487F00385454541800087EFF
:101573000901020018A4A4A47C007F0804047800D5
:1015830000447D4000004080847D00007F1028449B
:10159300000000417F4000007C04180478007C08B0
:1015A30004047800384444443800FC2424241800FC
:1015B30018242418FC007C080404080048545454DC
:1015C3002000043F444020003C4040207C001C207D
:1015D30040201C003C4030403C004428102844007C
:1015E3001CA0A0A07C004464544C44141414141490
:1015F3001490002AEBF0A3EAF0A3E9F0900036E49C
:10160300F0A3E4F090002AE0FBA3E0FAA3E0F912D0
:10161300000E900030EEF0A3EFF090002DE0FBA35E
:10162300E0FAA3E0F912000E900032EEF0A3EFF01F
:10163300900034E4F0A3E4F090002AE0FBA3E0FA86
:10164300A3E0F9900034E0FEA3E0FF8F828E8312C3
:10165300079BFFEF700302172990002DE0FBA3E027
:10166300FAA3E0F9900034E0FEA3E0FF8F828E83BB
:1016730012079BFFEF700302172990002DE0FBA3D5
:10168300E0FAA3E0F9900034E0FEA3E0FF8F828E3E
:101693008312079BFF90002AE0FBA3E0FAA3E0F983
:1016A300900034E0FCA3E0FD8D828C8312079BFE47
:1016B300EED39F4012900036E4F0A37401F0900043
:1016C30036E0FEA3E0FF2290002DE0FBA3E0FAA3A7
:1016D300E0F9900034E0FEA3E0FF8F828E831207CF
:1016E3009BFF90002AE0FBA3E0FAA3E0F99000340B
:1016F300E0FCA3E0FD8D828C8312079BFEEEC39F6B
:10170300501390003674FFF0A374FFF0900036E09E
:10171300FEA3E0FF22900035E004F0700690003451
:10172300E004F002163B900036E0FEA3E0FFEF4E2C
:10173300704D900032E0FEA3E0FF900030E0FCA388
:10174300E0FDD3ED9FEE6480F8EC6480984009904F
:101753000036E4F0A37401F0900032E0FEA3E0FF52
:10176300900030E0FCA3E0FDC3ED9FEE6480F8EC55
:10177300648098500A90003674FFF0A374FFF090D1
:101783000036E0FEA3E0FF22900027E4F09000275C
:10179300E0FF74DE2FF582E43400F583E0FFEF60B1
:1017A30029900027E0FF74DE2FF582E43400F583EF
:1017B300E0FFEFB43A0C900027E0FF900028EFF031
:1017C3008008900027E004F080C3900029E4F090A3
:1017D3000028E0FF900029E0FEEEC39F502A90000E
:1017E30029E0FF74DE2FF582E43400F583E0FF90F7
:1017F3000029E0FE74CE2EF582E43400F583EFF089
:10180300900029E004F080C7900029E0FF74CE2FF8
:10181300F582E43400F583E4F0900028E0FFEF0460
:10182300FF900027EFF07B017A0079DE12000E9023
:101833000027E0FD7C00D3ED9FEC9E503E900027F7
:10184300E0FF74DE2FF582E43400F583E0FF9000BF
:1018530028E0FEEEFD7C00900027E0FEEEFB7A0020
:10186300C3EB9DFDEA9CFC74F12DF58274003CF5FD
:1018730083EFF0900027E004F080AB900028E0FFB6
:101883007E00900027E0FD7C00C3ED9FFFEC9EFEF1
:1018930074F12FF58274003EF583E4F07B017A0046
:1018A30079CEC003C002C0017BFF7A00799E90000D
:1018B3002DEBF0A3EAF0A3E9F0D001D002D003129C
:1018C30015F4EF60117B017A0079F2121BF5900198
:1018D3003BEEF0A3EFF0227D007C007FAE7E001292
:1018E300232F7D007C007F007E0012232F7D007C50
:1018F300007F107E0012232F7D007C007F407E003E
:1019030012232F7D007C007FB07E0012232F7D00E9
:101913007C007F817E0012232F7D007C007FFF7E71
:101923000012232F7D007C007FA17E0012232F7DD8
:10193300007C007FA67E0012232F7D007C007FA801
:101943007E0012232F7D007C007F3F7E0012232F19
:101953007D007C007FC87E0012232F7D007C007FEA
:10196300D37E0012232F7D007C007F007E00122394
:101973002F7D007C007FD57E0012232F7D007C000D
:101983007F807E0012232F7D007C007FD87E001293
:10199300232F7D007C007F057E0012232F7D007C9A
:1019A300007FD97E0012232F7D007C007FF17E0013
:1019B30012232F7D007C007FDA7E0012232F7D000F
:1019C3007C007F127E0012232F7D007C007FDB7E54
:1019D3000012232F7D007C007F307E0012232F7D99
:1019E300007C007F8D7E0012232F7D007C007F14FE
:1019F3007E0012232F7D007C007FAF7E0012232FF9
:101A0300121FDB22900027120993900027E0FCA30A
:101A1300E0FDA3E0FEA3E0FF9000331209939000E2
:101A23004BE0FCA3E0FDA3E0FEA3E0FF900033E066
:101A3300F8A3E0F9A3E0FAA3E0FB1200AD90004B9A
:101A430012099390004BE0FCA3E0FDA3E0FEA3E0AA
:101A5300FF90003FE0F8A3E0F9A3E0FAA3E0FB1254
:101A6300019EC004C005C006C007900033E0FCA37C
:101A7300E0FDA3E0FEA3E0FF90003BE0F8A3E0F964
:101A8300A3E0FAA3E0FB12019EA804A905AA06ABF2
:101A930007D007D006D005D0041200ADC004C0059E
:101AA300C006C007900037E0F8A3E0F9A3E0FAA36B
:101AB300E0FB900033E0FCA3E0FDA3E0FEA3E0FF26
:101AC3001200A9900043E0F8A3E0F9A3E0FAA3E031
:101AD300FB12019EA804A905AA06AB07D007D006EE
:101AE300D005D0041200AD90004F1209939000333B
:101AF300E0FCA3E0FDA3E0FEA3E0FF9000371209A2
:101B03009390004FE0FCA3E0FDA3E0FEA3E0FF22DF
:101B1300900027EFF0900028EDF0900030E4F09073
:101B2300002EE4F090002DE0FF90002EE0FEEEC3C7
:101B33009F4003021BF490002EE0FF90002DE0FE77
:101B4300C3EE9FFFEF14FD7F0A12224DA804A905DF
:101B5300AA06AB07900029E0FCA3E0FDA3E0FEA3E7
:101B6300E0FF1208C77B0A7A00790078001208C7E1
:101B7300AC00AD01AE02AF0390002FEFF090003048
:101B8300E0FFEF703F90002DE0FFEF14FF90002E79
:101B9300E0FEEEC39F502D90002FE0FFEF701F90EB
:101BA300002EE0FFEF75F006A4FF900027E0FEEFA4
:101BB3002EFF900028E0FD7B20121E39802A900022
:101BC300307401F090002EE0FFEF75F006A4FF9053
:101BD3000027E0FEEF2EFF900028E0FD90002FE0AD
:101BE300FEEE2430FB121E3990002EE004F0021B9F
:101BF300272290002AEBF0A3EAF0A3E9F090002A51
:101C0300E0FBA3E0FAA3E0F9120782FF1224895054
:101C13000C90002BE475F00112081080E0D20090C4
:101C2300002AE0FBA3E0FAA3E0F9120782FF642B8A
:101C33006004EFB42D1D90002AE0FBA3E475F001CE
:101C4300120826A9F0FA120782642D6003D38001DB
:101C5300C39200E490002DF0A3F090002AE0FBA3D0
:101C6300E0FAA3E0F9120782FF1224CF504290005A
:101C73002AE0FBA3E0FAA3E0F9120782FF3395E021
:101C8300FEEF24D0FBEE34FFFA90002DE0FEA3E03C
:101C9300FF7C007D0A120A16EF2BFFEE3A90002D0F
:101CA300F0A3EFF090002BE475F00112081080AA66
:101CB30030000A90002DE0FEA3E0FF800F90002D7E
:101CC300E0FEA3E0FFC3E49FFFE49EFE224201394E
:101CD300000042013B00014400B800000000440042
:101CE300C00000000044009B3C23D70A4400BC3AD8
:101CF30083126F44009F3D0F5C294400AC3CE560B8
:101D0300424100AB014400A70000000050007700EF
:101D13000000000000000000000000000000005070
:101D2300008B3F80000000000000000000003F80A7
:101D33000000602800FC000000000000000000001C
:101D4300000000000000000000000000000040A0B0
:101D5300000000000000000000000000000042013D
:101D630032000042013000004A00CE3132333400E9
:101D730000000000004A00C461646300000000002A
:101D8300000000C0E0C083C082C0D075D000C00492
:101D9300C005C006C007900130E0FEA3E0FFC3EF1B
:101DA3009405EE64809480406E900130E4F0A3E4E7
:101DB300F0AFD47E00EF7F00FE90013DEEF0A3EF85
:101DC300F0AFD57E0090013DE0FCA3E0FDEE4CFEBC
:101DD300EF4DFF90013DEEF0A3EFF0AFD27E00EFA9
:101DE3007F00FE90013FEEF0A3EFF0AFD37E0090B3
:101DF300013FE0FCA3E0FDEE4CFEEF4DFF90013F01
:101E0300EEF0A3EFF075D14475D40075D50075D20B
:101E13000075D30075D1CC900131E004F0700690C9
:101E23000130E004F0D007D006D005D004D0D0D0E4
:101E330082D083D0E03290003DEFF090003EEDF091
:101E430090003FEBF0900040E4F0900041E4F0900C
:101E5300003FE0FFEF24E0FF900040EFF090003DF3
:101E6300E0FFEFD3947F400C90003DE4F090003E00
:101E7300E02402F090003DE0FF90003EE0FD1222DE
:101E83009C900041E4F0900041E0FFEFC3940650C2
:101E930037900041E0FF900040E0FE75F006EEA4AD
:101EA30024CCF582E5F03413F583E5822FF582E443
:101EB3003583F583E493FF7E007D017C0012232F9D
:101EC300900041E004F080BE22787FE4F6D8FD75EF
:101ED3008121021F13021172E493A3F8E493A34038
:101EE30003F68001F208DFF48029E493A3F8540792
:101EF300240CC8C333C4540F4420C8834004F4568D
:101F0300800146F6DFE4800B0102040810204080C4
:101F1300901CD0E47E019360BCA3FF543F30E509DD
:101F2300541FFEE493A360010ECF54C025E060A8C4
:101F330040B8E493A3FAE493A3F8E493A3C8C58257
:101F4300C8CAC583CAF0A3C8C582C8CAC583CADFC5
:101F5300E9DEE780BE900037EFF0900038EDF090B7
:101F63000039EBF0A3EAF0A3E9F090003CE4F09031
:101F73000039E0FBA3E0FAA3E0F990003CE0FF8F17
:101F83008275830012079BFFEF604C900037E0FFE0
:101F9300900038E0FD900039E0FBA3E0FAA3E0F9FC
:101FA30090003CE0FE8E8275830012079BFB121E9D
:101FB30039900037E02408F0900037E0FFEFD39426
:101FC30078400C900037E4F0900038E02402F09061
:101FD300003CE004F0809822900027E4F090002772
:101FE300E0FFEFC394085057900027E0FF7E00EF17
:101FF30024B0FFEE3400FE7D007C0012232F7D0011
:102003007C007F007E0012232F7D007C007F107EEA
:102013000012232F900028E4F0900028E0FFEFC384
:10202300948050137D017C007F007E0012232F904B
:102033000028E004F080E2900027E004F0809E2274
:10204300900002EFF0900002E0FFEFB42B127B014F
:102053007A0079DE9000DBEBF0A3EAF0A3E9F0224B
:10206300900002E0FFEFB42A199000DBE0FBA3E04D
:10207300FAA3E0F9E41207C8900139E4F0A374016C
:10208300F022900002E0FF9000DBE0FBA3E0FAA364
:10209300E0F9EF1207C89000DCE475F001120810B4
:1020A30022900027EFF0900028EDF07B017A007971
:1020B3002DC003C002C0017BFF7A1379C490003A9C
:1020C300EBF0A3EAF0A3E9F0900029E0FCA3E0FD24
:1020D300A3E0FEA3E0FF90003D120993D001D002DC
:1020E300D003120AE2900027E0FF900028E0FD7B76
:1020F300017A00792D121F5822900028EEF0A3EFE9
:10210300F090002AE4F0A3E4F0900028E0FEA3E0BE
:10211300FF90002AE0FCA3E0FDC3ED9FEC9E50304E
:1021230090002C741FF090002D7428F090002DE087
:1021330014FFF0EF70F690002CE014FFF0EF70EC5A
:1021430090002BE004F0700690002AE004F080B9C0
:1021530022900049EFF090004AE4F090004AE0FF3B
:10216300EFC39408504090004AE0FF900049E0FE1E
:10217300EEA807088002C333D8FCFFEF30E704D290
:10218300948002C2947F017E001221FDD2957F01CB
:102193007E001221FDC2957F017E001221FD900079
:1021A3004AE004F080B522900027EFF0900027E08A
:1021B300FFEFB4021020A03F7F057E001220FC2019
:1021C300A0357F0222900027E0FFEFB4031020CB5D
:1021D300267F057E001220FC20CB1C7F032290006B
:1021E30027E0FFEFB4041020CA0D7F057E00122004
:1021F300FC20CA037F04227F002290004BEEF0A351
:10220300EFF090004DE4F0A3E4F090004BE0FEA368
:10221300E0FF90004DE0FCA3E0FDC3ED9FEC9E507A
:102223002890004FE4F090004FE0FFEFC394055077
:102233000890004FE004F080ED90004EE004F07051
:102243000690004DE004F080C122900031EFF09041
:102253000032EDF090003312099F0000000190005E
:1022630032E0FF14F0EF6022900033E0F8A3E0F9CE
:10227300A3E0FAA3E0FB900031E0FFE4FCFDFE12D3
:10228300083C90003312099380D4900033E0FCA300
:10229300E0FDA3E0FEA3E0FF22900042EFF09000F8
:1022A30043EDF0900043E0FF7E00EF24B0FFEE34F7
:1022B30000FE7D007C0012232F900042E0FFEF54CC
:1022C300F0FFEFC4540FFF7E00EF4410FF7D007C4E
:1022D3000012232F900042E0FFEF540FFF7E007D9A
:1022E300007C0012232F22900049E4F07F01122486
:1022F30024D2947F017E001221FDD2957F017E00BE
:102303001221FD30941C900049E004F0900049E054
:10231300FFEFD394FA40EC1224727F001224247F3F
:102323000122C2957F001224247F0022900044EEF4
:10233300F0A3EFF0900046ECF0A3EDF0900046E040
:10234300FEA3E0FFEF4E600C900044E0FEA3E0FF2D
:102353001223B222900044E0FEA3E0FF12238B225B
:10236300C0E0C083C082E59830E1085398FD900136
:1023730035E4F0E59830E0095398FE900000E599C4
:10238300F0D082D083D0E032900048EFF012245B8B
:102393007F781221541222EA7F001221541222EA7A
:1023A300900048E0FF1221541222EA122472229074
:1023B3000048EFF012245B7F781221541222EA7F47
:1023C300401221541222EA900048E0FF12215412D5
:1023D30022EA12247222EFB40A07740D1223E47462
:1023E3000A309811A899B8130CC2983098FDA8998F
:1023F300C298B811F63099FDC299F59922C0E0C090
:10240300F0C083C082C0D075D008309809C2AF1223
:1024130024C0D2AFC298D0D0D082D083D0F0D0E045
:102423003290004AEFF090004AE0FFEFB4010775E5
:102433009140759200227591007592002243985045
:10244300438900758E40758BCB758DFFD28ED2ACD0
:10245300D2AF900135E4F022D294D2957F027E0070
:102463001221FDC2947F027E001221FDC29522C279
:1024730095C2947F027E001221FDD295D2947F02F1
:102483007E001221FD22EFC394094005EF940E4014
:1024930004EFB42003D38001C32275D50075D400A3
:1024A30075D30075D20075AF6075D1CC2243890016
:1024B300758A30758CF8D28CD2A9D2AF22900001E4
:1024C300E599F0900001E0FF12204322EFC394301E
:1024D3004007EF943A50028001C3221218DA122403
:1024E3009D1224401224B0226162630000000000A8
:0C24F300000000000000000000000000DD
:00000001FF
