:10000000021DE853EFFD3253EFFB32021C0BE4FFFD
:10001000FE120782600C0FEF70010E09E970F20A00
:1000200080EF22022364900035EEF0A3EFF0900001
:1000300035E0FCA3E0FDEC1203D3900037120993E6
:100040007B007A0079807841900037E0FCA3E0FDE6
:10005000A3E0FEA3E0FF1202A77B7A7A8D791D78D8
:100060003E12019E900037120993900037E0FCA3E6
:10007000E0FDA3E0FEA3E0FF7B007A00794878432F
:1000800012019E900037120993900037E0FCA3E024
:08009000FDA3E0FEA3E0FF2246
:03009B000200035D
:1000A300020007020478E86480F8E933E83360115A
:1000B3000460F0ED33EC337009E8FCE9FDEAFEEB94
:1000C300FF220460DED3EB9FEA9EE99DE8C2E78C42
:1000D300F0C2F795F0400CE8CCF8E9CDF9EACEFA96
:1000E300EBCFFB12044385D0F05804700320D5B343
:1000F300E80470075002B2D502048292D5EC046082
:10010300F7E4CCC0E0C398F8603B94186008400D56
:10011300D0E0FB02045AE4FBFAC9FC8028E830E48F
:1001230006E4C9FBE4CAFCE830E305E4C9CACBFC36
:10013300E854076010F8C3E913F9EA13FAEB13FB69
:10014300EC13FCD8F130F52FC3E49CFCEF9BFFEEDE
:100153009AFEED99FDD0E0FBEF4E4D4C701222DB81
:100163000302047FEC2CFCEF33FFEE33FEED33FD93
:10017300ED30E7EB02045AEF2BFFEE3AFEED39FDCB
:10018300D0E0FB50130BBB0003020482ED13FDEE22
:1001930013FEEF13FFEC13FC02045AEC4D6011E85D
:1001A300497017ED33EC3304600DE4FCFFFEFD22D0
:1001B300E933E8330470F802047812044358046006
:1001C30009E4CC2481500628500902048228400304
:1001D30002047FC0E0EB4A7044B98006D0E0FB0222
:1001E300046EEF4E701CBD8008EBFFEAFEE9FD8054
:1001F300EBE98DF0A4FEE5F0020287E9CDF9EAFE12
:10020300EBFFEF89F0A4FCE5F0CE89F0A42EFFE428
:1002130035F0CD89F0A42DFEE435F08067EF4E7004
:1002230005BD80D780C3EF8BF0A4ACF0EE8BF0A4B8
:100233002CFCE435F0F8EF8AF0A42CE5F038FCE46C
:1002430033CB8DF0A42CFCE5F03BF8EE8AF0A42C24
:10025300FCE5F038F8E433CF89F0A42CFCE5F03862
:10026300CF3400CE89F0A42FFFE5F03EFEE433C97E
:100273008DF0A42EFEE5F039CD8AF0A42FFFE5F032
:100283003EFEE43DFD33D0E0FB50070BBB000F0205
:100293000482EC2CFCEF33FFEE33FEED33FD02045E
:1002A3005A020482EC5D046005E8590470030204F9
:1002B30078120443580460F6EC4860F2EC7004FDD5
:1002C300FEFF22C860DB2481C85009C39860025036
:1002D3000602047F9850CAF582E9294B4A7005ABA0
:1002E3008202046E75F0007C1A7880C3EF9BEE9A4D
:1002F300ED99400DC3EF9BFFEE9AFEED99FDE842A9
:10030300F0DC23ACF0D0E0FFD0E0FED0E0FDAB8228
:1003130020E7101BEB60BAEC2CFCEF33FFEE33FE4F
:10032300ED33FD02045AE803F830E705C0F075F039
:1003330000EF2FFFEE33FEED33FD40B830E7C28010
:10034300AA74F8CC6480CCC86480C8F58204604F7A
:10035300C3EB9FF5F0EA9E42F0E99D42F0E89C452D
:10036300F0603C501DE5825FFFE582D313CB5BCB8E
:10037300F42B5582FB50280ABA002409B90020083F
:10038300801DE5825BFBE582D313CF5FCFF4C313FC
:100393002F5582FF50090EBE00050DBD00010CC391
:1003A300EB9FF5F0EA9E42F0E99D42F0E89C45F0B0
:1003B3006007CC4820E701B3EC22ED33EC33600A4D
:1003C300047003BD8004ECB2E7FC2275F020800EBC
:1003D30075F010800575F0087D007E007F00339274
:1003E300D530D503120959EC334010EF33FFEE3308
:1003F300FEED33FDEC33FCD5F0ED22E5F0247EA2D7
:10040300D513CC92E7CDCEFF22EDD2E7CD33EC333B
:1004130092D524814006E4FFFEFDFC22FCE4CFCE0E
:10042300CDCC24E0501174FF80EDC3CC13CCCD139D
:10043300CDCE13CECF13CF0470F030D5DE020959E1
:10044300E9D2E7C933E833F892D5EDD2E7CD33ECFF
:1004530033FC5002B2D522EC30E7100FBF000C0E74
:10046300BE00080DBD00040BEB6014A2D5EB13FC1A
:10047300ED92E7FD2274FFFCFDFEFF22E480F8A26B
:10048300D574FF13FC7D80E480EFF920E73624F96F
:1004930050037907E4F42402FBE582158270021508
:1004A30083DBF6E024FB501BE96014E4F0E58215DE
:1004B3008270021583E004F0B40A08E4F0D9EE7404
:1004C30001F00A22C2D522ED33EC3392D5FA602A29
:1004D300B4FF33EDC2E77BFF60067A0479EFE422D1
:1004E3007A0479F820D5047A0479F3224E614E0018
:1004F3002B494E46002D494E4600E47A08F0A3DA14
:10050300FC7B00740722C083C082ECC0E0EDC0E036
:10051300EEC0E0EFC0E0EA75F010A4CAABF075F0EE
:100523004DA42BFBE435F0FCEA2410FAEB34C5FBB5
:10053300EC34D9FCEDC2E7FF75F056A4F42411C5E1
:10054300F0F434C58FF0A42AE5F03BE43CF020E757
:10055300141205FFD0E0FFD0E0FED0E0FDD0E0FCB8
:100563001202A78014F4041205FFD0E0FFD0E0FECE
:10057300D0E0FDD0E0FC12019ED082D083E0FAED02
:10058300D2E7CD33EC332482FBE4C3CF33CFCE3376
:10059300CECD33CD33DBF37B0775F00A846004F0F3
:1005A300A31B0AE5F0F0A38FF0740AA4FFACF08E4E
:1005B300F0740AA42CFEACF050010C8DF0740AA464
:1005C3002CFDE435F0F0A3DBDE7407223F8000004E
:1005D3004120000042C80000447A0000461C40004D
:1005E30047C35000497424004B1896804CBEBC206E
:1005F3005A0E1BCA6753C21C749DC5AEFB600654DA
:1006030007601C232312062DEB54386009120619C8
:1006130012062812019EECF8EDF9EEFAEFCB22EB6D
:1006230012062880F1543803241C9005CFFE93FC56
:100633000EEE93FD0EEE930ECE93FF22C0E0EFFB82
:10064300EEFAEDF9ECF812019ED0E0F5F0EFFBEED7
:10065300FAEDF9ECF8120967A3A3A3A3E8C0E0E954
:10066300C0E0EAC0E0EBC0E0C0F012019E120983D3
:10067300A3A3A3A31200ADD0F0D0E0FBD0E0FAD047
:10068300E0F9D0E0F8D5F0D422E709F608DFFA80E4
:1006930046E709F208DFFA803E88828C83E709F097
:1006A300A3DFFA8032E309F608DFFA8078E309F280
:1006B30008DFFA807088828C83E309F0A3DFFA8075
:1006C3006489828A83E0A3F608DFFA805889828AE4
:1006D30083E0A3F208DFFA804C80D280FA80C680E0
:1006E300D4806980F28033801080A680EA809A806B
:1006F300A880DA80E280CA803389828A83ECFAE4B4
:1007030093A3C8C582C8CCC583CCF0A3C8C582C88F
:10071300CCC583CCDFE9DEE7800D89828A83E4934D
:10072300A3F608DFF9ECFAA9F0EDFB2289828A83AC
:10073300ECFAE0A3C8C582C8CCC583CCF0A3C8C576
:1007430082C8CCC583CCDFEADEE880DB89828A837A
:10075300E493A3F208DFF980CC88F0EF60010E4E3A
:1007630060C388F0ED2402B4040050B9F582EB2491
:1007730002B4040050AF23234582239006DC73BBED
:10078300010689828A83E0225002E722BBFE02E34C
:100793002289828A83E49322BB010CE58229F582B4
:1007A300E5833AF583E0225006E92582F8E622BB89
:1007B300FE06E92582F8E222E58229F582E5833AFD
:1007C300F583E49322BB010689828A83F0225002D7
:1007D300F722BBFE01F322C2D5EC30E709B2D5E420
:1007E300C39DFDE49CFCEE30E715B2D5E4C39FFF47
:1007F300E49EFE120BB1C3E49DFDE49CFC80031256
:100803000BB130D507C3E49FFFE49EFE22C5F0F889
:10081300A3E028F0C5F0F8E582158270021583E0A5
:1008230038F022A3F8E0C5F025F0F0E582158270D8
:10083300021583E0C838F0E822E88FF0A4CC8BF0EF
:10084300A42CFCE98EF0A42CFC8AF0EDA42CFCEA89
:100853008EF0A4CDA8F08BF0A42DCC3825F0FDE9C3
:100863008FF0A42CCD35F0FCEB8EF0A4FEA9F0EBB9
:100873008FF0A4CFC5F02ECD39FEE43CFCEAA42DC5
:10088300CE35F0FDE43CFC2275F008758200EF2FB5
:10089300FFEE33FECD33CDCC33CCC58233C5829B43
:1008A300ED9AEC99E58298400CF582EE9BFEED9A69
:1008B300FDEC99FC0FD5F0D6E4CEFBE4CDFAE4CC05
:1008C300F9A88222B800C1B90059BA002DEC8BF007
:1008D30084CFCECDFCE5F0CBF97818EF2FFFEE33C4
:1008E300FEED33FDEC33FCEB33FB10D703994004EF
:1008F300EB99FB0FD8E5E4F9FA227818EF2FFFEE16
:1009030033FEED33FDEC33FCC933C910D7059BE946
:100913009A4007EC9BFCE99AF90FD8E0E4C9FAE4A2
:10092300CCFB2275F010EF2FFFEE33FEED33FDCC41
:1009330033CCC833C810D7079BEC9AE899400AED2B
:100943009BFDEC9AFCE899F80FD5F0DAE4CDFBE4D3
:10095300CCFAE4C8F922C3E49FFFE49EFEE49DFDC4
:10096300E49CFC22E493FC740193FD740293FE74F3
:100973000393FF22E0F8A3E0F9A3E0FAA3E0FB224C
:10098300E493F8740193F9740293FA740393FB22CA
:10099300ECF0A3EDF0A3EEF0A3EFF022A8828583A1
:1009A300F0D083D0821209B61209B61209B6120921
:1009B300B6E473E493A3C583C5F0C583C8C582C8F1
:1009C300F0A3C583C5F0C583C8C582C822F8E0FB80
:1009D300A3A3E0F925F0F0E582158270021583E008
:1009E300FA38F022EBF0A3EAF0A3E9F022D083D0A7
:1009F30082F8E4937012740193700DA3A393F874B7
:100A03000193F5828883E4737402936860EFA3A370
:100A1300A380DFE3F5F009E208B5F06D606B80F3C6
:100A2300E3F5F009E608B5F060605E80F387F0094E
:100A3300E608B5F054605280F487F009E208B5F097
:100A430048604680F488828C8387F009E0A3B5F080
:100A530038603680F488828C8387F009E493A3B5E9
:100A6300F027602580F388828C83E3F5F009E0A307
:100A7300B5F016601480F388828C83E3F5F009E403
:100A830093A3B5F004600280F2020B41808580E7F6
:100A9300808E80D2803C8015806C807E809B80B568
:100AA300808B80A1804F8070803A020B4D89828AAF
:100AB30083ECFAE493F5F0A3C8C582C8CCC583CC14
:100AC300E493A3C8C582C8CCC583CCB5F070606E6F
:100AD30080E189828A83E493F5F0A3E208B5F05EAE
:100AE300605C80F289828A83E0F5F0A3E608B5F0C2
:100AF3004D604B80F389828A83E0F5F0A3E208B569
:100B0300F03C603A80F389828A83E493F5F0A3E6AC
:100B130008B5F02A602880F2805389828A83ECFA30
:100B2300E493F5F0A3C8C582C8CCC583CCE0A3C8C1
:100B3300C582C8CCC583CCB5F004600280E27FFFD8
:100B4300B5F0020F2240027F012289828A83ECFAE8
:100B5300E0F5F0A3C8C582C8CCC583CCE0A3C8C563
:100B630082C8CCC583CCB5F0D560D380E389828AB3
:100B730083ECFAE0F5F0A3C8C582C8CCC583CCE406
:100B830093A3C8C582C8CCC583CCB5F0B160AF8090
:100B9300E288F0ED2402B4040050A3F582EB2402B2
:100BA300B4040050992323458223900A8F73BC0019
:100BB3000BBE0029EF8DF084FFADF022E4CCF87575
:100BC300F008EF2FFFEE33FEEC33FCEE9DEC984084
:100BD30005FCEE9DFE0FD5F0E9E4CEFD22EDF8F520
:100BE300F0EE8420D21CFEADF075F008EF2FFFED80
:100BF30033FD4007985006D5F0F222C398FD0FD578
:100C0300F0EA22E5102448F582E43400F583E00598
:100C13001022900045300703900048E475F001125C
:100C230009D00207822000E97F2ED2008018EF54FA
:100C33000F2490D43440D4FF30040BEF24BFB41AF4
:100C43000050032461FFE511600215110514E5143A
:100C53007002051330070E900045E475F001120988
:100C6300D0EF0207C802233D7403D2078003E4C216
:100C730007F5109000451209E7E4F511F513F51493
:100C8300E51160077F20120C4980F57512FFC20140
:100C9300C200C202C203C205C206C208120C15FF7B
:100CA300700D3007057F00120C5AAF14AE1322B437
:100CB300255FC2D5C204120C15FF24D0B40A00501C
:100CC3001A75F00A781130D50508B6FF0106C6A4D7
:100CD30026F620D5047002D20380D924CFB41A009B
:100CE300EF5004C2E5D204020F4CD20180C6D200F9
:100CF30080C0D20280BCD2D580BAD20580B47F2016
:100D0300120C492002077401B5110040F1120C06C0
:100D1300FF120C49020C83D208D2068095120C06EE
:100D2300FB120C06FA120C06F94A4B7006794A7A42
:100D3300107BFF20022EE511602A7E008E827583D0
:100D43000012079B60060EEE651270F0C2D5EBC071
:100D5300E0EAC0E0E9C0E0EE120FADD0E0F9D0E088
:100D6300FAD0E0FB120782FF60AAEBC0E0EAC0E022
:100D7300E9C0E0120C49D0E02401F9D0E03400FAD4
:100D8300D0E0FBE5120460DCD512D98087D2028063
:100D9300A2120F8F60F7E51270010412048DA912DD
:100DA300600DE512600914F512121037EF60F3EAD3
:100DB30030E702F404C3995079EAF425120430E7CA
:100DC30001E404F512800D120F8F60C1EA051225AC
:100DD3001212048DEA900074F030E701E425120446
:100DE300D5120420050114120FADE4C0E012103730
:100DF300900074E0601320E70714F0120C31802296
:100E030004F0D0E014C0E07F00120C31E51260075B
:100E1300120C281512800B300503120C28D0E002A7
:100E23000C83D0E00480C4120F8F609EE51204127D
:100E3300048D900074EAF0E5122005026001042499
:100E430004120FAD74FF04C0E0121037120C31E529
:100E5300122005026003120C28D0E0B512E87F458A
:100E6300120C3B900074E07F2B30E7047F2DF404D9
:100E7300C0E0120C49D0E075F00A84C0F0120C32C5
:100E8300D0E0120C32020C83791080027908C2067A
:100E9300C2088008D2D5790A8004790AC2D5E5123E
:100EA300047002F512E4FAFDFEFF120C06FC7B0847
:100EB300200113120C06FD7B1030000A120C06FEF3
:100EC300120C06FF7B20EC3382D592D55013C3E47A
:100ED3003000069FFFE49EFEE42001039DFDE49C99
:100EE300FCE4CBF8C201EC700CCFCECDCCE824F8F7
:100EF300F870F38017C3EF33FFEE33FEED33FDECF1
:100F030033FCEB33FB994002FB0FD8E9EB300105CF
:100F1300F8D0E0C448B201C0E00AEC4D4E4F78204F
:100F23007B0070C2EAB5120040BCC0E0120FAFD024
:100F3300F0D0E0200104C4C0E0C4B201C0F0120C40
:100F430032D0F0D5F0EB020C831209F00D20530ED2
:100F53008B580CF14C0CED420E8F4F0E97440E97AD
:100F6300490D06430E9D550DCA460E2A450D94475D
:100F7300106A500CF52D0CF92E0D1C2B0CFD230DB6
:100F83001A2010532A0CB54800000D14E512B4FFC3
:100F930003751206120C06FC120C06FD120C06FE5B
:100FA300120C06FF90006D0204CA790AA2D5200331
:100FB30014300509B910020404B9080104A2D520AC
:100FC30006025001042002689202B511005034C099
:100FD300E07F203003197F30A20272067205500FA2
:100FE300121006C202C206C205C2087F30800F304B
:100FF3000503E9C0E0120C49300503D0E0F9D0E065
:10100300B511CC3005177F30B9100C120C497F583D
:101013003004077F788003B90803120C49300205B6
:101023007F2D020C497F202008F87F2B2006F32216
:10103300920280CF7F00B40700500B246DF582E449
:101043003400F583E0FF22286E756C6C2900D20111
:10105300120C063001F8C201781130D50108F602EE
:101063000CB52D50434958120C062403B405004017
:1010730001E490106593120C3A743A120C3AD203BD
:10108300751104020E8B9000351209937F007E00C8
:101093007DC87C42900035E0F8A3E0F9A3E0FAA311
:1010A300E0FB120344400C90003512099F42C80034
:1010B3000080277F007E007DC87CC2900035E0F869
:1010C300A3E0F9A3E0FAA3E0FB1203446002500A91
:1010D30090003512099FC2C800007F007E007DC8C2
:1010E3007C42900039E0F8A3E0F9A3E0FAA3E0FB27
:1010F300120344400C90003912099F42C80000803B
:10110300277F007E007DC87CC2900039E0F8A3E011
:10111300F9A3E0FAA3E0FB1203446002500A900033
:101123003912099FC2C8000075BA8090FFF2E4F03B
:1011330090FFF07406F0A3E4F07F007E007D007C56
:1011430000900035E0F8A3E0F9A3E0FAA3E0FB1276
:101153000344605740557B007A0079C87842900079
:1011630035E0FCA3E0FDA3E0FEA3E0FF1202A7C06D
:1011730004C005C006C00790FFF0E0FCA3E0FDE457
:101183001203D3A804A905AA06AB07D007D006D03B
:1011930005D00412019E12040C90FF20EEF0A3EF81
:1011A300F090FF247480F0C2A4806A900035E0FCC4
:1011B300A3E0FDA3E0FEA3E0FF1203BD9000351200
:1011C30009937B007A0079C87842900035E0FCA34C
:1011D300E0FDA3E0FEA3E0FF1202A7C004C005C028
:1011E30006C00790FFF0E0FCA3E0FDE41203D3A8E0
:1011F30004A905AA06AB07D007D006D005D0041270
:10120300019E12040C90FF40EEF0A3EFF0C2A290F7
:10121300FF447480F07F007E007D007C00900039E5
:10122300E0F8A3E0F9A3E0FAA3E0FB12034460575C
:1012330040557B007A0079C87842900039E0FCA3DE
:10124300E0FDA3E0FEA3E0FF1202A7C004C005C0B7
:1012530006C00790FFF0E0FCA3E0FDE41203D3A86F
:1012630004A905AA06AB07D007D006D005D00412FF
:10127300019E12040C90FF30EEF0A3EFF0C2A69093
:10128300FF347480F0806A900039E0FCA3E0FDA392
:10129300E0FEA3E0FF1203BD9000391209937B0027
:1012A3007A0079C87842900039E0FCA3E0FDA3E01E
:1012B300FEA3E0FF1202A7C004C005C006C007904A
:1012C300FFF0E0FCA3E0FDE41203D3A804A905AA00
:1012D30006AB07D007D006D005D00412019E120436
:1012E3000C90FF60EEF0A3EFF0C2A390FF64748054
:1012F300F075BA0075FE8022900011E4F0A3E4F0CB
:10130300900013E4F0A3E4F090001D12099F4248FB
:1013130000007BFF7A24794CC003C002C0017B012B
:101323007A007921A801AC02AD03D001D002D00329
:101333007E007F1412075C12243F90003912099F2C
:10134300C24800007F007E007D487CC21210899055
:10135300013FE0FEA3E0FF1200269000151209935F
:10136300900141E0FEA3E0FF12002690001912094C
:1013730093900015E0FCA3E0FDA3E0FEA3E0FF9043
:1013830000371209937D027F00121FD1900019E0EC
:10139300FCA3E0FDA3E0FEA3E0FF90003712099356
:1013A3007D037F00121FD190013DE0FEA3E0FFEE1D
:1013B3003395E0FDFC90003712099390003B7405D0
:1013C300F07D047F00121B2990001DE0FCA3E0FDCB
:1013D300A3E0FEA3E0FF9000371209937D057F0091
:1013E300121FD190013FE0FEA3E0FFEE3395E0FD35
:1013F300FC90003712099390003B7405F07D007F49
:1014030000121B29900141E0FEA3E0FFEE3395E0BB
:10141300FDFC90003712099390003B7405F07D01A9
:101423007F00121B297F031220D7EFB4031890010A
:101433003EE004F0700690013DE004F0900013E4F8
:10144300F0A3E4F080337F041220D7EFB4041890A4
:10145300013EE024FFF090013DE034FFF0900013E3
:10146300E4F0A3E4F080127F021220D7EFB4020964
:10147300900013E4F0A37401F0900013E0FEA3E0E6
:10148300FFEF64014E6003021352900141E0FEA39B
:10149300E0FF90013FE0FCA3E0FDED2FFFEC3EFEFB
:1014A3007C007D021207DA90013DE0FCA3E0FDC35E
:1014B300ED9FFDEC9EFCEC1203D3C004C005C006F7
:1014C300C0077B017A017900C003C002C0017B0120
:1014D3007A007939A801AC02AD03D001D002D00360
:1014E3007E007F2812075CD007D006D005D00412F7
:1014F3001A1D90001D12099390001DE0FCA3E0FD4E
:10150300A3E0FEA3E0FFC004C005C006C00790002F
:101513001DE0FCA3E0FDA3E0FEA3E0FF9000391271
:101523000993D007D006D005D004121089021352B4
:1015330022252E326620202000000000000000003B
:1015430000002F000000000700070000147F147F35
:101553001400242A7F2A12006264081323003649E8
:1015630055225000000503000000001C224100002A
:101573000041221C000014083E08140008083E081D
:1015830008000000A06000000808080808000060C8
:10159300600000002010080402003E5149453E004F
:1015A30000427F4000004261514946002141454BC2
:1015B30031001814127F10002745454539003C4A75
:1015C300494930000171090503003649494936008C
:1015D300064949291E000036360000000056360031
:1015E30000000814224100001414141414000041D4
:1015F30022140800020151090600324959513E00E4
:101603007C1211127C007F49494936003E41414119
:1016130022007F4141221C007F49494941007F0943
:10162300090901003E4149497A007F0808087F0003
:1016330000417F4100002040413F01007F08142208
:1016430041007F40404040007F020C027F007F0446
:1016530008107F003E4141413E007F090909060011
:101663003E4151215E007F091929460046494949F7
:10167300310001017F0101003F4040403F001F2036
:1016830040201F003F4038403F00631408146300AC
:10169300070870080700615149454300007F414135
:1016A3000000552A552A55000041417F00000402DD
:1016B30001020400404040404000000102040000D9
:1016C3002054545478007F484444380038444444F8
:1016D3002000384444487F00385454541800087E8E
:1016E3000901020018A4A4A47C007F080404780064
:1016F30000447D4000004080847D00007F1028442A
:10170300000000417F4000007C04180478007C083E
:1017130004047800384444443800FC24242418008A
:1017230018242418FC007C0804040800485454546A
:101733002000043F444020003C4040207C001C200B
:1017430040201C003C4030403C004428102844000A
:101753001CA0A0A07C004464544C4414141414141E
:10176300147BFF7A247916C003C002C0017B017A7F
:10177300007906A801AC02AD03D001D002D0037EEC
:10178300007F0A12075C900003E4F0900003E0FF7F
:1017930074E22FF582E43400F583E0FFEF602990D3
:1017A3000003E0FF74E22FF582E43400F583E0FFE9
:1017B300EFB43A0C900003E0FF900004EFF08008D0
:1017C300900003E004F080C3900005E4F09000046F
:1017D300E0FF900005E0FEEEC39F502A900005E075
:1017E300FF74E22FF582E43400F583E0FF900005F7
:1017F300E0FE74D22EF582E43400F583EFF090001E
:1018030005E004F080C7900005E0FF74D22FF58255
:10181300E43400F583E4F0900004E0FFEF04FF906C
:101823000003EFF07B017A0079E212000E900003CF
:10183300E0FD7C00D3ED9FEC9E503E900003E0FF63
:1018430074E22FF582E43400F583E0FF900004E0B6
:10185300FEEEFD7C00900003E0FEEEFB7A00C3EB9E
:101863009DFDEA9CFC74F52DF58274003CF583EF35
:10187300F0900003E004F080AB900004E0FF7E00F2
:10188300900003E0FD7C00C3ED9FFFEC9EFE74F52A
:101893002FF58274003EF583E4F07B017A0079062C
:1018A300C003C002C0017B017A0079D2A801AC0257
:1018B300AD03D001D002D003120B94EF700A900154
:1018C3003DE4F0A37402F0227BFF7A24790EC00377
:1018D300C002C0017B017A0079D2A801AC02AD033A
:1018E300D001D002D003120B941223FC227D007C82
:1018F300007FAE7E001222937D007C007F007E007D
:101903001222937D007C007F107E001222937D00C3
:101913007C007F407E001222937D007C007FB07E9E
:10192300001222937D007C007F817E001222937D32
:10193300007C007FFF7E001222937D007C007FA14C
:101943007E001222937D007C007FA67E00122293EC
:101953007D007C007FA87E001222937D007C007FA7
:101963003F7E001222937D007C007FC87E001222FE
:10197300937D007C007FD37E001222937D007C0048
:101983007F007E001222937D007C007FD57E0012B3
:1019930022937D007C007F807E001222937D007C59
:1019A300007FD87E001222937D007C007F057E009D
:1019B3001222937D007C007FD97E001222937D004A
:1019C3007C007FF17E001222937D007C007FDA7E13
:1019D300001222937D007C007F127E001222937DF1
:1019E300007C007FDB7E001222937D007C007F3031
:1019F3007E001222937D007C007F8D7E0012229355
:101A03007D007C007F147E001222937D007C007F8A
:101A1300AF7E00122293121F6922900035120993A0
:101A2300900035E0FCA3E0FDA3E0FEA3E0FF9000FF
:101A330041120993900059E0FCA3E0FDA3E0FEA34B
:101A4300E0FF900041E0F8A3E0F9A3E0FAA3E0FB94
:101A53001200AD900059120993900059E0FCA3E0E5
:101A6300FDA3E0FEA3E0FF90004DE0F8A3E0F9A39F
:101A7300E0FAA3E0FB12019EC004C005C006C00744
:101A8300900041E0FCA3E0FDA3E0FEA3E0FF900093
:101A930049E0F8A3E0F9A3E0FAA3E0FB12019EA852
:101AA30004A905AA06AB07D007D006D005D00412B7
:101AB30000ADC004C005C006C007900045E0F8A310
:101AC300E0F9A3E0FAA3E0FB900041E0FCA3E0FD12
:101AD300A3E0FEA3E0FF1200A9900051E0F8A3E009
:101AE300F9A3E0FAA3E0FB12019EA804A905AA0644
:101AF300AB07D007D006D005D0041200AD90005D2F
:101B0300120993900041E0FCA3E0FDA3E0FEA3E0F3
:101B1300FF90004512099390005DE0FCA3E0FDA354
:101B2300E0FEA3E0FF22900035EFF0900036EDF0E9
:101B330090003EE4F090003CE4F090003BE0FF9026
:101B4300003CE0FEEEC39F4003021C0A90003CE011
:101B5300FF90003BE0FEC3EE9FFFEF14FD7F0A12F0
:101B6300217AA804A905AA06AB07900037E0FCA3D5
:101B7300E0FDA3E0FEA3E0FF1208C77B0A7A007929
:101B83000078001208C7AC00AD01AE02AF039000AD
:101B93003DEFF090003EE0FFEF703F90003BE0FF31
:101BA300EF14FF90003CE0FEEEC39F502D90003DEC
:101BB300E0FFEF701F90003CE0FFEF75F006A4FF1D
:101BC300900035E0FEEF2EFF900036E0FD7B201203
:101BD3001D55802A90003E7401F090003CE0FFEF19
:101BE30075F006A4FF900035E0FEEF2EFF9000365F
:101BF300E0FD90003DE0FEEE2430FB121D55900009
:101C03003CE004F0021B3D22C0E0C083C082C0D090
:101C130075D000C004C005C006C007900134E0FEC3
:101C2300A3E0FFC3EF9405EE64809480406E9001BF
:101C330034E4F0A3E4F0AFD47E00EF7F00FE900124
:101C43003FEEF0A3EFF0AFD57E0090013FE0FCA3A1
:101C5300E0FDEE4CFEEF4DFF90013FEEF0A3EFF001
:101C6300AFD27E00EF7F00FE900141EEF0A3EFF0D4
:101C7300AFD37E00900141E0FCA3E0FDEE4CFEEF0C
:101C83004DFF900141EEF0A3EFF075D14475D40000
:101C930075D50075D20075D30075D1CC900135E0B0
:101CA30004F07006900134E004F0D007D006D005AC
:101CB300D004D0D0D082D083D0E03242013D0001A5
:101CC3004400C6000000004400CE000000004400B1
:101CD300A93C23D70A4400CA3A83126F4400AD3D9E
:101CE3000F5C294400BA3CE560424100B90144005D
:101CF300B500000000500085000000000000000057
:101D030000000000000000005000993F8000000028
:101D1300000000000000003F800000602801000078
:101D230000000000000000000000000000000000B0
:101D33000000000000000040A000000000000000C0
:101D430000000000000000420136000042013400A0
:101D5300000090004BEFF090004CEDF090004DEB45
:101D6300F090004EE4F090004FE4F090004DE0FF5F
:101D7300EF24E0FF90004EEFF090004BE0FFEFD335
:101D8300947F400C90004BE4F090004CE02402F070
:101D930090004BE0FF90004CE0FD1221C990004FF2
:101DA300E4F090004FE0FFEFC39406503790004FEC
:101DB300E0FF90004EE0FE75F006EEA4243CF582B1
:101DC300E5F03415F583E5822FF582E43583F58359
:101DD300E493FF7E007D017C0012229390004FE08C
:101DE30004F080BE22787FE4F6D8FD758121021EBF
:101DF3002F0212FBE493A3F8E493A34003F68001BC
:101E0300F208DFF48029E493A3F85407240CC8C331
:101E130033C4540F4420C8834004F456800146F66B
:101E2300DFE4800B0102040810204080901CBEE414
:101E33007E019360BCA3FF543F30E509541FFEE4C9
:101E430093A360010ECF54C025E060A840B8E4938B
:101E5300A3FAE493A3F8E493A3C8C582C8CAC583CD
:101E6300CAF0A3C8C582C8CAC583CADFE9DEE78052
:101E7300BE900045EFF0900046EDF0900047EBF088
:101E8300A3EAF0A3E9F090004AE4F0900047E0FBF6
:101E9300A3E0FAA3E0F990004AE0FF8F8275830084
:101EA30012079BFFEF604C900045E0FF900046E077
:101EB300FD900047E0FBA3E0FAA3E0F990004AE0BD
:101EC300FE8E8275830012079BFB121D5590004501
:101ED300E02408F0900045E0FFEFD39478400C90A5
:101EE3000045E4F0900046E02402F090004AE0044C
:101EF300F0809822900002EFF0900002E0FFEFB430
:101F03002B127B017A0079E29000DFEBF0A3EAF079
:101F1300A3E9F022900002E0FFEFB42A2A9000DF49
:101F2300E0FBA3E0FAA3E0F9E41207C81217647B0D
:101F3300017A0079D212225C7F201223FC7B017A82
:101F43000079F612225C22900002E0FF9000DFE0AD
:101F5300FBA3E0FAA3E0F9EF1207C89000E0E475F1
:101F6300F00112081022900035E4F0900035E0FFF4
:101F7300EFC394085057900035E0FF7E00EF24B084
:101F8300FFEE3400FE7D007C001222937D007C0076
:101F93007F007E001222937D007C007F107E001262
:101FA3002293900036E4F0900036E0FFEFC3948074
:101FB30050137D017C007F007E0012229390003637
:101FC300E004F080E2900035E004F0809E2290006F
:101FD30035EFF0900036EDF07B017A00793BC003DA
:101FE300C002C0017BFF7A157934900048EBF0A35F
:101FF300EAF0A3E9F0900037E0FCA3E0FDA3E0FEE4
:10200300A3E0FF90004B120993D001D002D003123A
:102013000C6B900035E0FF900036E0FD7B017A0009
:10202300793B121E7422900036EEF0A3EFF090007D
:1020330038E4F0A3E4F0900036E0FEA3E0FF900064
:1020430038E0FCA3E0FDC3ED9FEC9E503090003AD6
:10205300741FF090003B7428F090003BE014FFF0F5
:10206300EF70F690003AE014FFF0EF70EC90003957
:10207300E004F07006900038E004F080B92290008C
:1020830057EFF0900058E4F0900058E0FFEFC3944E
:10209300085040900058E0FF900057E0FEEEA8077C
:1020A300088002C333D8FCFFEF30E704D2948002E8
:1020B300C2947F017E0012212AD2957F017E0012F5
:1020C300212AC2957F017E0012212A900058E00444
:1020D300F080B522900035EFF0900035E0FFEFB4CB
:1020E300021020A03F7F057E0012202920A0357F0B
:1020F3000222900035E0FFEFB4031020CB267F05CA
:102103007E0012202920CB1C7F0322900035E0FFA4
:10211300EFB4041020CA0D7F057E0012202920CAC7
:10212300037F04227F0022900059EEF0A3EFF0908A
:10213300005BE4F0A3E4F0900059E0FEA3E0FF901D
:10214300005BE0FCA3E0FDC3ED9FEC9E50289000F4
:102153005DE4F090005DE0FFEFC39405500890004C
:102163005DE004F080ED90005CE004F07006900008
:102173005BE004F080C12290003FEFF0900040ED5F
:10218300F090004112099F00000001900040E0FF21
:1021930014F0EF6022900041E0F8A3E0F9A3E0FA25
:1021A300A3E0FB90003FE0FFE4FCFDFE12083C903F
:1021B300004112099380D4900041E0FCA3E0FDA309
:1021C300E0FEA3E0FF22900050EFF0900051EDF00D
:1021D300900051E0FF7E00EF24B0FFEE3400FE7D5F
:1021E300007C00122293900050E0FFEF54F0FFEFC9
:1021F300C4540FFF7E00EF4410FF7D007C001222C9
:1022030093900050E0FFEF540FFF7E007D007C00B1
:1022130012229322900057E4F07F01122384D29478
:102223007F017E0012212AD2957F017E0012212A8E
:1022330030941C900057E004F0900057E0FFEFD378
:1022430094FA40EC1223D27F001223847F0122C22E
:10225300957F001223847F0022900003EBF0A3EA12
:10226300F0A3E9F0900003E0FBA3E0FAA3E0F91286
:102273000782FFEF6019900003E0FBA3E475F00110
:10228300120826A9F0FA120782FF1223FC80D52236
:10229300900052EEF0A3EFF0900054ECF0A3EDF0B9
:1022A300900054E0FEA3E0FFEF4E600C900052E07C
:1022B300FEA3E0FF12231622900052E0FEA3E0FFEC
:1022C3001222EF22C0E0C083C082E59830E10853B8
:1022D30098FD900139E4F0E59830E0095398FE90B9
:1022E3000000E599F0D082D083D0E032900056EF21
:1022F300F01223BB7F781220811222177F00122055
:1023030081122217900056E0FF1220811222171229
:1023130023D222900056EFF01223BB7F7812208144
:102323001222177F40122081122217900056E0FFDD
:102333001220811222171223D222EFB40A07740D3E
:10234300122348740A309811A899B8130CC2983014
:1023530098FDA899C298B811F63099FDC299F599DC
:1023630022C0E0C0F0C083C082C0D075D0083098CE
:1023730005122430C298D0D0D082D083D0F0D0E0E0
:1023830032900058EFF0900058E0FFEFB40107756A
:1023930091407592002275910075920022439850E6
:1023A300438900758E40758BCB758DFFD28ED2AC71
:1023B300D2AF900139E4F022D294D2957F027E000D
:1023C30012212AC2947F027E0012212AC29522C2C0
:1023D30095C2947F027E0012212AD295D2947F0265
:1023E3007E0012212A2275D50075D40075D300759D
:1023F300D20075AF6075D1CC22900010EFF0900041
:1024030010E0FF8F993099FDC299226461745F7364
:102413006574006461745F73657400000043890030
:10242300758A30758CF8D28CD2A9D2AF2290000174
:10243300E599F0900001E0FF121EF7221218F01246
:1024430023E91223A012242022616263000000000A
:0D245300000000000000000000000000007C
:00000001FF
