:10000000021E2B53EFFD3253EFFB32021C34E4FF90
:10001000FE120782600C0FEF70010E09E970F20A00
:1000200080EF22022390900040EEF0A3EFF09000CA
:1000300040E0FCA3E0FDEC1203D3900042120993D0
:100040007B007A0079807841900042E0FCA3E0FDDB
:10005000A3E0FEA3E0FF1202A77B7A7A8D791D78D8
:100060003E12019E900042120993900042E0FCA3D0
:10007000E0FDA3E0FEA3E0FF7B007A00794878432F
:1000800012019E900042120993900042E0FCA3E00E
:08009000FDA3E0FEA3E0FF2246
:03009B000200035D
:1000A300020007020478E86480F8E933E83360115A
:1000B3000460F0ED33EC337009E8FCE9FDEAFEEB94
:1000C300FF220460DED3EB9FEA9EE99DE8C2E78C42
:1000D300F0C2F795F0400CE8CCF8E9CDF9EACEFA96
:1000E300EBCFFB12044385D0F05804700320D5B343
:1000F300E80470075002B2D502048292D5EC046082
:10010300F7E4CCC0E0C398F8603B94186008400D56
:10011300D0E0FB02045AE4FBFAC9FC8028E830E48F
:1001230006E4C9FBE4CAFCE830E305E4C9CACBFC36
:10013300E854076010F8C3E913F9EA13FAEB13FB69
:10014300EC13FCD8F130F52FC3E49CFCEF9BFFEEDE
:100153009AFEED99FDD0E0FBEF4E4D4C701222DB81
:100163000302047FEC2CFCEF33FFEE33FEED33FD93
:10017300ED30E7EB02045AEF2BFFEE3AFEED39FDCB
:10018300D0E0FB50130BBB0003020482ED13FDEE22
:1001930013FEEF13FFEC13FC02045AEC4D6011E85D
:1001A300497017ED33EC3304600DE4FCFFFEFD22D0
:1001B300E933E8330470F802047812044358046006
:1001C30009E4CC2481500628500902048228400304
:1001D30002047FC0E0EB4A7044B98006D0E0FB0222
:1001E300046EEF4E701CBD8008EBFFEAFEE9FD8054
:1001F300EBE98DF0A4FEE5F0020287E9CDF9EAFE12
:10020300EBFFEF89F0A4FCE5F0CE89F0A42EFFE428
:1002130035F0CD89F0A42DFEE435F08067EF4E7004
:1002230005BD80D780C3EF8BF0A4ACF0EE8BF0A4B8
:100233002CFCE435F0F8EF8AF0A42CE5F038FCE46C
:1002430033CB8DF0A42CFCE5F03BF8EE8AF0A42C24
:10025300FCE5F038F8E433CF89F0A42CFCE5F03862
:10026300CF3400CE89F0A42FFFE5F03EFEE433C97E
:100273008DF0A42EFEE5F039CD8AF0A42FFFE5F032
:100283003EFEE43DFD33D0E0FB50070BBB000F0205
:100293000482EC2CFCEF33FFEE33FEED33FD02045E
:1002A3005A020482EC5D046005E8590470030204F9
:1002B30078120443580460F6EC4860F2EC7004FDD5
:1002C300FEFF22C860DB2481C85009C39860025036
:1002D3000602047F9850CAF582E9294B4A7005ABA0
:1002E3008202046E75F0007C1A7880C3EF9BEE9A4D
:1002F300ED99400DC3EF9BFFEE9AFEED99FDE842A9
:10030300F0DC23ACF0D0E0FFD0E0FED0E0FDAB8228
:1003130020E7101BEB60BAEC2CFCEF33FFEE33FE4F
:10032300ED33FD02045AE803F830E705C0F075F039
:1003330000EF2FFFEE33FEED33FD40B830E7C28010
:10034300AA74F8CC6480CCC86480C8F58204604F7A
:10035300C3EB9FF5F0EA9E42F0E99D42F0E89C452D
:10036300F0603C501DE5825FFFE582D313CB5BCB8E
:10037300F42B5582FB50280ABA002409B90020083F
:10038300801DE5825BFBE582D313CF5FCFF4C313FC
:100393002F5582FF50090EBE00050DBD00010CC391
:1003A300EB9FF5F0EA9E42F0E99D42F0E89C45F0B0
:1003B3006007CC4820E701B3EC22ED33EC33600A4D
:1003C300047003BD8004ECB2E7FC2275F020800EBC
:1003D30075F010800575F0087D007E007F00339274
:1003E300D530D503120959EC334010EF33FFEE3308
:1003F300FEED33FDEC33FCD5F0ED22E5F0247EA2D7
:10040300D513CC92E7CDCEFF22EDD2E7CD33EC333B
:1004130092D524814006E4FFFEFDFC22FCE4CFCE0E
:10042300CDCC24E0501174FF80EDC3CC13CCCD139D
:10043300CDCE13CECF13CF0470F030D5DE020959E1
:10044300E9D2E7C933E833F892D5EDD2E7CD33ECFF
:1004530033FC5002B2D522EC30E7100FBF000C0E74
:10046300BE00080DBD00040BEB6014A2D5EB13FC1A
:10047300ED92E7FD2274FFFCFDFEFF22E480F8A26B
:10048300D574FF13FC7D80E480EFF920E73624F96F
:1004930050037907E4F42402FBE582158270021508
:1004A30083DBF6E024FB501BE96014E4F0E58215DE
:1004B3008270021583E004F0B40A08E4F0D9EE7404
:1004C30001F00A22C2D522ED33EC3392D5FA602A29
:1004D300B4FF33EDC2E77BFF60067A0479EFE422D1
:1004E3007A0479F820D5047A0479F3224E614E0018
:1004F3002B494E46002D494E4600E47A08F0A3DA14
:10050300FC7B00740722C083C082ECC0E0EDC0E036
:10051300EEC0E0EFC0E0EA75F010A4CAABF075F0EE
:100523004DA42BFBE435F0FCEA2410FAEB34C5FBB5
:10053300EC34D9FCEDC2E7FF75F056A4F42411C5E1
:10054300F0F434C58FF0A42AE5F03BE43CF020E757
:10055300141205FFD0E0FFD0E0FED0E0FDD0E0FCB8
:100563001202A78014F4041205FFD0E0FFD0E0FECE
:10057300D0E0FDD0E0FC12019ED082D083E0FAED02
:10058300D2E7CD33EC332482FBE4C3CF33CFCE3376
:10059300CECD33CD33DBF37B0775F00A846004F0F3
:1005A300A31B0AE5F0F0A38FF0740AA4FFACF08E4E
:1005B300F0740AA42CFEACF050010C8DF0740AA464
:1005C3002CFDE435F0F0A3DBDE7407223F8000004E
:1005D3004120000042C80000447A0000461C40004D
:1005E30047C35000497424004B1896804CBEBC206E
:1005F3005A0E1BCA6753C21C749DC5AEFB600654DA
:1006030007601C232312062DEB54386009120619C8
:1006130012062812019EECF8EDF9EEFAEFCB22EB6D
:1006230012062880F1543803241C9005CFFE93FC56
:100633000EEE93FD0EEE930ECE93FF22C0E0EFFB82
:10064300EEFAEDF9ECF812019ED0E0F5F0EFFBEED7
:10065300FAEDF9ECF8120967A3A3A3A3E8C0E0E954
:10066300C0E0EAC0E0EBC0E0C0F012019E120983D3
:10067300A3A3A3A31200ADD0F0D0E0FBD0E0FAD047
:10068300E0F9D0E0F8D5F0D422E709F608DFFA80E4
:1006930046E709F208DFFA803E88828C83E709F097
:1006A300A3DFFA8032E309F608DFFA8078E309F280
:1006B30008DFFA807088828C83E309F0A3DFFA8075
:1006C3006489828A83E0A3F608DFFA805889828AE4
:1006D30083E0A3F208DFFA804C80D280FA80C680E0
:1006E300D4806980F28033801080A680EA809A806B
:1006F300A880DA80E280CA803389828A83ECFAE4B4
:1007030093A3C8C582C8CCC583CCF0A3C8C582C88F
:10071300CCC583CCDFE9DEE7800D89828A83E4934D
:10072300A3F608DFF9ECFAA9F0EDFB2289828A83AC
:10073300ECFAE0A3C8C582C8CCC583CCF0A3C8C576
:1007430082C8CCC583CCDFEADEE880DB89828A837A
:10075300E493A3F208DFF980CC88F0EF60010E4E3A
:1007630060C388F0ED2402B4040050B9F582EB2491
:1007730002B4040050AF23234582239006DC73BBED
:10078300010689828A83E0225002E722BBFE02E34C
:100793002289828A83E49322BB010CE58229F582B4
:1007A300E5833AF583E0225006E92582F8E622BB89
:1007B300FE06E92582F8E222E58229F582E5833AFD
:1007C300F583E49322BB010689828A83F0225002D7
:1007D300F722BBFE01F322C2D5EC30E709B2D5E420
:1007E300C39DFDE49CFCEE30E715B2D5E4C39FFF47
:1007F300E49EFE120A16C3E49DFDE49CFC800312F2
:100803000A1630D507C3E49FFFE49EFE22C5F0F825
:10081300A3E028F0C5F0F8E582158270021583E0A5
:1008230038F022A3F8E0C5F025F0F0E582158270D8
:10083300021583E0C838F0E822E88FF0A4CC8BF0EF
:10084300A42CFCE98EF0A42CFC8AF0EDA42CFCEA89
:100853008EF0A4CDA8F08BF0A42DCC3825F0FDE9C3
:100863008FF0A42CCD35F0FCEB8EF0A4FEA9F0EBB9
:100873008FF0A4CFC5F02ECD39FEE43CFCEAA42DC5
:10088300CE35F0FDE43CFC2275F008758200EF2FB5
:10089300FFEE33FECD33CDCC33CCC58233C5829B43
:1008A300ED9AEC99E58298400CF582EE9BFEED9A69
:1008B300FDEC99FC0FD5F0D6E4CEFBE4CDFAE4CC05
:1008C300F9A88222B800C1B90059BA002DEC8BF007
:1008D30084CFCECDFCE5F0CBF97818EF2FFFEE33C4
:1008E300FEED33FDEC33FCEB33FB10D703994004EF
:1008F300EB99FB0FD8E5E4F9FA227818EF2FFFEE16
:1009030033FEED33FDEC33FCC933C910D7059BE946
:100913009A4007EC9BFCE99AF90FD8E0E4C9FAE4A2
:10092300CCFB2275F010EF2FFFEE33FEED33FDCC41
:1009330033CCC833C810D7079BEC9AE899400AED2B
:100943009BFDEC9AFCE899F80FD5F0DAE4CDFBE4D3
:10095300CCFAE4C8F922C3E49FFFE49EFEE49DFDC4
:10096300E49CFC22E493FC740193FD740293FE74F3
:100973000393FF22E0F8A3E0F9A3E0FAA3E0FB224C
:10098300E493F8740193F9740293FA740393FB22CA
:10099300ECF0A3EDF0A3EEF0A3EFF022A8828583A1
:1009A300F0D083D0821209B61209B61209B6120921
:1009B300B6E473E493A3C583C5F0C583C8C582C8F1
:1009C300F0A3C583C5F0C583C8C582C822F8E0FB80
:1009D300A3A3E0F925F0F0E582158270021583E008
:1009E300FA38F022EBF0A3EAF0A3E9F022D083D0A7
:1009F30082F8E4937012740193700DA3A393F874B7
:100A03000193F5828883E4737402936860EFA3A370
:100A1300A380DFBC000BBE0029EF8DF084FFADF097
:100A230022E4CCF875F008EF2FFFEE33FEEC33FC35
:100A3300EE9DEC984005FCEE9DFE0FD5F0E9E4CE6B
:100A4300FD22EDF8F5F0EE8420D21CFEADF075F03A
:100A530008EF2FFFED33FD4007985006D5F0F22243
:100A6300C398FD0FD5F0EA22E5102453F582E43450
:100A730000F583E0051022900050300703900053E7
:100A8300E475F0011209D00207822000E97F2ED21B
:100A9300008018EF540F2490D43440D4FF30040B5B
:100AA300EF24BFB41A0050032461FFE5116002155F
:100AB300110514E5147002051330070E900050E47D
:100AC30075F0011209D0EF0207C80223697403D23B
:100AD300078003E4C207F5109000501209E7E4F51C
:100AE30011F513F514E51160077F20120AAE80F5A6
:100AF3007512FFC201C200C202C203C205C206C20E
:100B030008120A7AFF700D3007057F00120ABFAF83
:100B130014AE1322B4255FC2D5C204120A7AFF248D
:100B2300D0B40A00501A75F00A781130D50508B60A
:100B3300FF0106C6A426F620D5047002D20380D98D
:100B430024CFB41A00EF5004C2E5D204020DB1D28F
:100B53000180C6D20080C0D20280BCD2D580BAD276
:100B63000580B47F20120AAE2002077401B511007C
:100B730040F1120A6BFF120AAE020AE8D208D2064B
:100B83008095120A6BFB120A6BFA120A6BF94A4B35
:100B9300700679AF7A0E7BFF20022EE511602A7E64
:100BA300008E8275830012079B60060EEE6512703D
:100BB300F0C2D5EBC0E0EAC0E0E9C0E0EE120E12ED
:100BC300D0E0F9D0E0FAD0E0FB120782FF60AAEB95
:100BD300C0E0EAC0E0E9C0E0120AAED0E02401F9C7
:100BE300D0E03400FAD0E0FBE5120460DCD512D982
:100BF3008087D20280A2120DF460F7E5127001041F
:100C030012048DA912600DE512600914F512120E7B
:100C13009CEF60F3EA30E702F404C3995079EAF4F5
:100C230025120430E701E404F512800D120DF4607F
:100C3300C1EA0512251212048DEA90007FF030E715
:100C430001E4251204D5120420050114120E12E446
:100C5300C0E0120E9C90007FE0601320E70714F0C1
:100C6300120A96802204F0D0E014C0E07F00120A3A
:100C730096E5126007120A8D1512800B30050312D8
:100C83000A8DD0E0020AE8D0E00480C4120DF460BB
:100C93009EE5120412048D90007FEAF0E512200510
:100CA300026001042404120E1274FF04C0E0120E49
:100CB3009C120A96E5122005026003120A8DD0E009
:100CC300B512E87F45120AA090007FE07F2B30E742
:100CD300047F2DF404C0E0120AAED0E075F00A845C
:100CE300C0F0120A97D0E0120A97020AE87910803E
:100CF300027908C206C2088008D2D5790A8004792D
:100D03000AC2D5E512047002F512E4FAFDFEFF12E1
:100D13000A6BFC7B08200113120A6BFD7B10300069
:100D23000A120A6BFE120A6BFF7B20EC3382D59208
:100D3300D55013C3E43000069FFFE49EFEE4200178
:100D4300039DFDE49CFCE4CBF8C201EC700CCFCE18
:100D5300CDCCE824F8F870F38017C3EF33FFEE33FC
:100D6300FEED33FDEC33FCEB33FB994002FB0FD874
:100D7300E9EB300105F8D0E0C448B201C0E00AEC69
:100D83004D4E4F78207B0070C2EAB5120040BCC0C4
:100D9300E0120E14D0F0D0E0200104C4C0E0C4B2CD
:100DA30001C0F0120A97D0F0D5F0EB020AE812095D
:100DB300F00B85530CF0580B564C0B52420CF44F6E
:100DC3000CFC440CFC490B6B430D02550C2F460CD9
:100DD3008F450BF9470ECF500B5A2D0B5E2E0B810F
:100DE3002B0B62230B7F200EB82A0B1A4800000B33
:100DF30079E512B4FF03751206120A6BFC120A6B33
:100E0300FD120A6BFE120A6BFF9000780204CA7986
:100E13000AA2D5200314300509B910020404B90845
:100E23000104A2D52006025001042002689202B5F3
:100E330011005034C0E07F203003197F30A20272CA
:100E4300067205500F120E6BC202C206C205C2081B
:100E53007F30800F300503E9C0E0120AAE3005038E
:100E6300D0E0F9D0E0B511CC3005177F30B9100CC4
:100E7300120AAE7F583004077F788003B908031243
:100E83000AAE3002057F2D020AAE7F202008F87FCC
:100E93002B2006F322920280CF7F00B40700500B71
:100EA3002478F582E43400F583E0FF22286E756C24
:100EB3006C2900D201120A6B3001F8C2017811309B
:100EC300D50108F6020B1A2D50434958120A6B2418
:100ED30003B405004001E4900ECA93120A9F743ACA
:100EE300120A9FD203751104020CF09000401209FC
:100EF300937F007E007DC87C42900040E0F8A3E031
:100F0300F9A3E0FAA3E0FB120344400C9000401263
:100F1300099F42C8000080277F007E007DC87CC2F5
:100F2300900040E0F8A3E0F9A3E0FAA3E0FB12038A
:100F3300446002500A90004012099FC2C800007F1B
:100F4300007E007DC87C42900044E0F8A3E0F9A352
:100F5300E0FAA3E0FB120344400C90004412099F03
:100F630042C8000080277F007E007DC87CC29000BD
:100F730044E0F8A3E0F9A3E0FAA3E0FB1203446022
:100F830002500A90004412099FC2C8000075BA803B
:100F930090FFF2E4F090FFF07406F0A3E4F07F001A
:100FA3007E007D007C00900040E0F8A3E0F9A3E020
:100FB300FAA3E0FB120344605740557B007A0079A3
:100FC300C87842900040E0FCA3E0FDA3E0FEA3E06C
:100FD300FF1202A7C004C005C006C00790FFF0E0DF
:100FE300FCA3E0FDE41203D3A804A905AA06AB07FA
:100FF300D007D006D005D00412019E12040C90FF36
:1010030020EEF0A3EFF090FF247480F0C2A4806A76
:10101300900040E0FCA3E0FDA3E0FEA3E0FF120389
:10102300BD9000401209937B007A0079C878429002
:101033000040E0FCA3E0FDA3E0FEA3E0FF1202A753
:10104300C004C005C006C00790FFF0E0FCA3E0FDAC
:10105300E41203D3A804A905AA06AB07D007D00658
:10106300D005D00412019E12040C90FF40EEF0A3B1
:10107300EFF0C2A290FF447480F07F007E007D00F9
:101083007C00900044E0F8A3E0F9A3E0FAA3E0FBBE
:10109300120344605740557B007A0079C878429028
:1010A3000044E0FCA3E0FDA3E0FEA3E0FF1202A7DF
:1010B300C004C005C006C00790FFF0E0FCA3E0FD3C
:1010C300E41203D3A804A905AA06AB07D007D006E8
:1010D300D005D00412019E12040C90FF30EEF0A351
:1010E300EFF0C2A690FF347480F0806A900044E071
:1010F300FCA3E0FDA3E0FEA3E0FF1203BD900044C8
:101103001209937B007A0079C87842900044E0FC8E
:10111300A3E0FDA3E0FEA3E0FF1202A7C004C00505
:10112300C006C00790FFF0E0FCA3E0FDE41203D388
:10113300A804A905AA06AB07D007D006D005D0049A
:1011430012019E12040C90FF60EEF0A3EFF0C2A315
:1011530090FF647480F075BA0075FE802290001CC5
:10116300E4F0A3E4F090001EE4F0A3E4F090002880
:1011730012099F424800007BFF7A247973C003C0A1
:1011830002C0017B017A00792CA801AC02AD03D027
:1011930001D002D0037E007F1412075C1224599001
:1011A300004412099FC24800007F007E007D487CF6
:1011B300C2120EEE900154E0FEA3E0FF120026904F
:1011C3000020120993900156E0FEA3E0FF120026CF
:1011D300900024120993900020E0FCA3E0FDA3E01B
:1011E300FEA3E0FF9000421209937D027F00121FCD
:1011F300FD900024E0FCA3E0FDA3E0FEA3E0FF904C
:1012030000421209937D037F00121FFD900152E0FB
:10121300FEA3E0FFEE3395E0FDFC9000421209933C
:101223009000467405F07D047F00121B5290002845
:10123300E0FCA3E0FDA3E0FEA3E0FF90004212095F
:10124300937D057F00121FFD900154E0FEA3E0FF94
:10125300EE3395E0FDFC9000421209939000467432
:1012630005F07D007F00121B52900156E0FEA3E0C3
:10127300FFEE3395E0FDFC90004212099390004687
:101283007405F07D017F00121B527F03122103EFCF
:10129300B40318900153E004F07006900152E00487
:1012A300F090001EE4F0A3E4F080337F04122103E6
:1012B300EFB40418900153E024FFF0900152E0349E
:1012C300FFF090001EE4F0A3E4F080127F021221ED
:1012D30003EFB4020990001EE4F0A37401F0900040
:1012E3001EE0FEA3E0FFEF64014E60030211B7901E
:1012F3000156E0FEA3E0FF900154E0FCA3E0FDED06
:101303002FFFEC3EFE7C007D021207DA900152E0D3
:10131300FCA3E0FDC3ED9FFDEC9EFCEC1203D3C0E8
:1013230004C005C006C0077B017A017915C003C05C
:1013330002C0017B017A007944A801AC02AD03D05D
:1013430001D002D0037E007F2812075CD007D006AD
:10135300D005D004121A4690002812099390002851
:10136300E0FCA3E0FDA3E0FEA3E0FFC004C005C0D2
:1013730006C007900028E0FCA3E0FDA3E0FEA3E085
:10138300FF900044120993D007D006D005D0041271
:101393000EEE0211B722252E326620202000000017
:1013A300000000000000002F0000000007000700FD
:1013B30000147F147F1400242A7F2A120062640819
:1013C3001323003649552250000005030000000096
:1013D3001C224100000041221C000014083E081496
:1013E3000008083E0808000000A060000008080884
:1013F3000808000060600000002010080402003E9E
:101403005149453E0000427F400000426151494638
:10141300002141454B31001814127F100027454528
:101423004539003C4A49493000017109050300363A
:101433004949493600064949291E0000363600004D
:101443000000563600000008142241000014141452
:10145300141400004122140800020151090600324D
:101463004959513E007C1211127C007F494949368B
:10147300003E41414122007F4141221C007F4949F6
:101483004941007F09090901003E4149497A007F2A
:101493000808087F0000417F4100002040413F01D0
:1014A300007F08142241007F40404040007F020C2F
:1014B300027F007F0408107F003E4141413E007FD0
:1014C30009090906003E4151215E007F0919294699
:1014D3000046494949310001017F0101003F404075
:1014E300403F001F2040201F003F4038403F006323
:1014F3001408146300070870080700615149454345
:1015030000007F41410000552A552A550000414102
:101513007F000004020102040040404040400000FC
:1015230001020400002054545478007F4844443896
:1015330000384444442000384444487F003854541D
:10154300541800087E0901020018A4A4A47C007F9B
:10155300080404780000447D4000004080847D003E
:10156300007F102844000000417F4000007C0418E5
:101573000478007C0804047800384444443800FCB0
:10158300242424180018242418FC007C08040408CC
:1015930000485454542000043F444020003C404041
:1015A300207C001C2040201C003C4030403C004478
:1015B30028102844001CA0A0A07C004464544C4480
:1015C300141414141414900007EBF0A3EAF0A3E925
:1015D300F0900016E4F0A3E4F0900007E0FBA3E032
:1015E300FAA3E0F912000E900010EEF0A3EFF090D2
:1015F300000AE0FBA3E0FAA3E0F912000E90001248
:10160300EEF0A3EFF07BFF7A24797012228890002A
:1016130007E0FBA3E0FAA3E0F91222887BFF7A2418
:10162300797012228890000AE0FBA3E0FAA3E0F9A4
:101633001222887BFF7A24797012228890000DE0B1
:10164300FBA3E0FAA3E0F9122288900014E4F0A3CC
:10165300E4F0900007E0FBA3E0FAA3E0F9900014A4
:10166300E0FEA3E0FF8F828E8312079BFFEF7003E0
:1016730002174390000AE0FBA3E0FAA3E0F990000D
:1016830014E0FEA3E0FF8F828E8312079BFFEF70AF
:101693000302174390000AE0FBA3E0FAA3E0F990EA
:1016A3000014E0FEA3E0FF8F828E8312079BFF905E
:1016B3000007E0FBA3E0FAA3E0F9900014E0FCA329
:1016C300E0FD8D828C8312079BFEEED39F40129028
:1016D3000016E4F0A37401F0900016E0FEA3E0FF0F
:1016E3002290000AE0FBA3E0FAA3E0F9900014E0E3
:1016F300FEA3E0FF8F828E8312079BFF900007E01B
:10170300FBA3E0FAA3E0F9900014E0FCA3E0FD8D55
:10171300828C8312079BFEEEC39F501390001674B6
:10172300FFF0A374FFF0900016E0FEA3E0FF229009
:101733000015E004F07006900014E004F002165562
:10174300900016E0FEA3E0FFEF4E704D900012E014
:10175300FEA3E0FF900010E0FCA3E0FDD3ED9FEEBD
:101763006480F8EC6480984009900016E4F0A37458
:1017730001F0900012E0FEA3E0FF900010E0FCA354
:10178300E0FDC3ED9FEE6480F8EC648098500A900E
:10179300001674FFF0A374FFF0900016E0FEA3E0C0
:1017A300FF22900003E4F0900003E0FF74F72FF5AD
:1017B30082E43400F583E0FFEF6029900003E0FF4B
:1017C30074F72FF582E43400F583E0FFEFB43A0CAD
:1017D300900003E0FF900004EFF08008900003E026
:1017E30004F080C3900005E4F0900004E0FF900053
:1017F30005E0FEEEC39F502A900005E0FF74F72F2B
:10180300F582E43400F583E0FF900005E0FE74E721
:101813002EF582E43400F583EFF0900005E004F048
:1018230080C7900005E0FF74E72FF582E43400F5EC
:1018330083E4F0900004E0FFEF04FF900003EFF077
:101843007B017A0079F712000E900003E0FD7C0023
:10185300D3ED9FEC9E503E900003E0FF74F72FF50D
:1018630082E43400F583E0FF900004E0FEEEFD7CAB
:1018730000900003E0FEEEFB7A00C3EB9DFDEA9CC3
:10188300FC740A2DF58274013CF583EFF09000039C
:10189300E004F080AB900004E0FF7E00900003E0E2
:1018A300FD7C00C3ED9FFFEC9EFE740A2FF582744E
:1018B300013EF583E4F07BFF7A247966C003C0021E
:1018C300C0017BFF7A24796B90000AEBF0A3EAF066
:1018D300A3E9F07B017A0079E790000DEBF0A3EA2E
:1018E300F0A3E9F0D001D002D0031215C99000068D
:1018F300EFF07BFF7A247970122288900006E0FFD4
:10190300EF700A900152E4F0A37402F022900006F3
:10191300E0FF122428227D007C007FAE7E0012228D
:10192300BF7D007C007F007E001222BF7D007C0013
:101933007F107E001222BF7D007C007F407E00125C
:1019430022BF7D007C007FB07E001222BF7D007C21
:10195300007F817E001222BF7D007C007FFF7E001E
:101963001222BF7D007C007FA17E001222BF7D007A
:101973007C007FA67E001222BF7D007C007FA87EB4
:10198300001222BF7D007C007F3F7E001222BF7DBC
:10199300007C007FC87E001222BF7D007C007FD3C5
:1019A3007E001222BF7D007C007F007E001222BFDA
:1019B3007D007C007FD57E001222BF7D007C007FEE
:1019C300807E001222BF7D007C007FD87E00122221
:1019D300BF7D007C007F057E001222BF7D007C005E
:1019E3007FD97E001222BF7D007C007FF17E001232
:1019F30022BF7D007C007FDA7E001222BF7D007C47
:101A0300007F127E001222BF7D007C007FDB7E0000
:101A13001222BF7D007C007F307E001222BF7D003A
:101A23007C007F8D7E001222BF7D007C007F147EB0
:101A3300001222BF7D007C007FAF7E001222BF1206
:101A43001F3A22900040120993900040E0FCA3E06B
:101A5300FDA3E0FEA3E0FF90004C12099390006405
:101A6300E0FCA3E0FDA3E0FEA3E0FF90004CE0F860
:101A7300A3E0F9A3E0FAA3E0FB1200AD9000641227
:101A83000993900064E0FCA3E0FDA3E0FEA3E0FF64
:101A9300900058E0F8A3E0F9A3E0FAA3E0FB1201F9
:101AA3009EC004C005C006C00790004CE0FCA3E044
:101AB300FDA3E0FEA3E0FF900054E0F8A3E0F9A348
:101AC300E0FAA3E0FB12019EA804A905AA06AB074E
:101AD300D007D006D005D0041200ADC004C005C0A5
:101AE30006C007900050E0F8A3E0F9A3E0FAA3E0F2
:101AF300FB90004CE0FCA3E0FDA3E0FEA3E0FF129B
:101B030000A990005CE0F8A3E0F9A3E0FAA3E0FBEE
:101B130012019EA804A905AA06AB07D007D006D0D8
:101B230005D0041200AD90006812099390004CE0B8
:101B3300FCA3E0FDA3E0FEA3E0FF90005012099395
:101B4300900068E0FCA3E0FDA3E0FEA3E0FF229089
:101B53000040EFF0900041EDF0900049E4F0900078
:101B630047E4F0900046E0FF900047E0FEEEC39F9D
:101B73004003021C33900047E0FF900046E0FEC3A1
:101B8300EE9FFFEF14FD7F0A1221A6A804A905AA60
:101B930006AB07900042E0FCA3E0FDA3E0FEA3E058
:101BA300FF1208C77B0A7A00790078001208C7ACD5
:101BB30000AD01AE02AF03900048EFF0900049E0A2
:101BC300FFEF703F900046E0FFEF14FF900047E007
:101BD300FEEEC39F502D900048E0FFEF701F900072
:101BE30047E0FFEF75F006A4FF900040E0FEEF2E04
:101BF300FF900041E0FD7B20121D98802A90004950
:101C03007401F0900047E0FFEF75F006A4FF900029
:101C130040E0FEEF2EFF900041E0FD900048E0FE23
:101C2300EE2430FB121D98900047E004F0021B667F
:101C330022C0E0C083C082C0D075D000C004C005FC
:101C4300C006C007900149E0FEA3E0FFC3EF94057F
:101C5300EE64809480406E900149E4F0A3E4F0AF19
:101C6300D47E00EF7F00FE900154EEF0A3EFF0AFBF
:101C7300D57E00900154E0FCA3E0FDEE4CFEEF4D59
:101C8300FF900154EEF0A3EFF0AFD27E00EF7F00A0
:101C9300FE900156EEF0A3EFF0AFD37E0090015615
:101CA300E0FCA3E0FDEE4CFEEF4DFF900156EEF09D
:101CB300A3EFF075D14475D40075D50075D20075C6
:101CC300D30075D1CC90014AE004F070069001492D
:101CD300E004F0D007D006D005D004D0D0D082D015
:101CE30083D0E03242015200014400D100000000E1
:101CF3004400D9000000004400B43C23D70A440048
:101D0300D53A83126F4400B83D0F5C294400C53CAB
:101D1300E560424100C4014400C0000000005000DF
:101D23009000000000000000000000000000000020
:101D3300005000A43F8000000000000000000000ED
:101D43003F80000060280115000000000000000033
:101D53000000000000000000000000000000000080
:101D630040A0000000000000000000000000000090
:101D730042014B000042014900004A00E73132337F
:101D8300340000000000004A00DD616463000000CD
:101D93000000000000900056EFF0900057EDF09027
:101DA3000058EBF0900059E4F090005AE4F09000F2
:101DB30058E0FFEF24E0FF900059EFF0900056E069
:101DC300FFEFD3947F400C900056E4F0900057E06F
:101DD3002402F0900056E0FF900057E0FD1221F539
:101DE30090005AE4F090005AE0FFEFC39406503796
:101DF30090005AE0FF900059E0FE75F006EEA4242F
:101E0300A1F582E5F03413F583E5822FF582E435FD
:101E130083F583E493FF7E007D017C001222BF9053
:101E2300005AE004F080BE22787FE4F6D8FD758185
:101E330021021E72021160E493A3F8E493A340030A
:101E4300F68001F208DFF48029E493A3F854072411
:101E53000CC8C333C4540F4420C8834004F45680D1
:101E63000146F6DFE4800B01020408102040809055
:101E73001CE7E47E019360BCA3FF543F30E50954A3
:101E83001FFEE493A360010ECF54C025E060A84079
:101E9300B8E493A3FAE493A3F8E493A3C8C582C870
:101EA300CAC583CAF0A3C8C582C8CAC583CADFE945
:101EB300DEE780BE900050EFF0900051EDF090000F
:101EC30052EBF0A3EAF0A3E9F0900055E4F09000A0
:101ED30052E0FBA3E0FAA3E0F9900055E0FF8F8204
:101EE30075830012079BFFEF604C900050E0FF905A
:101EF3000051E0FD900052E0FBA3E0FAA3E0F9906B
:101F03000055E0FE8E8275830012079BFB121D981D
:101F1300900050E02408F0900050E0FFEFD3947855
:101F2300400C900050E4F0900051E02402F0900047
:101F330055E004F0809822900040E4F0900040E0E7
:101F4300FFEFC394085057900040E0FF7E00EF245A
:101F5300B0FFEE3400FE7D007C001222BF7D007CCA
:101F6300007F007E001222BF7D007C007F107E0078
:101F73001222BF900041E4F0900041E0FFEFC394D0
:101F83008050137D017C007F007E001222BF9000F1
:101F930041E004F080E2900040E004F0809E229053
:101FA3000002EFF0900002E0FFEFB42B127B017A06
:101FB3000079F79000F4EBF0A3EAF0A3E9F02290A4
:101FC3000002E0FFEFB42A139000F4E0FBA3E0FA71
:101FD300A3E0F9E41207C81217A522900002E0FF5C
:101FE3009000F4E0FBA3E0FAA3E0F9EF1207C89036
:101FF30000F5E475F00112081022900040EFF09014
:102003000041EDF07B017A007946C003C002C001B4
:102013007BFF7A137999900053EBF0A3EAF0A3E9DD
:10202300F0900042E0FCA3E0FDA3E0FEA3E0FF90FC
:102033000056120993D001D002D003120AD09000A7
:1020430040E0FF900041E0FD7B017A007946121EDB
:10205300B722900041EEF0A3EFF0900043E4F0A329
:10206300E4F0900041E0FEA3E0FF900043E0FCA316
:10207300E0FDC3ED9FEC9E5030900045741FF0903F
:1020830000467428F0900046E014FFF0EF70F690DD
:102093000045E014FFF0EF70EC900044E004F070B2
:1020A30006900043E004F080B922900062EFF090C4
:1020B3000063E4F0900063E0FFEFC39408504090A6
:1020C3000063E0FF900062E0FEEEA807088002C311
:1020D30033D8FCFFEF30E704D2948002C2947F012F
:1020E3007E00122156D2957F017E00122156C295A1
:1020F3007F017E00122156900063E004F080B52238
:10210300900040EFF0900040E0FFEFB4021020A0F9
:102113003F7F057E0012205520A0357F02229000CC
:1021230040E0FFEFB4031020CB267F057E00122092
:102133005520CB1C7F0322900040E0FFEFB4041036
:1021430020CA0D7F057E0012205520CA037F04227A
:102153007F0022900064EEF0A3EFF0900066E4F0BD
:10216300A3E4F0900064E0FEA3E0FF900066E0FCCF
:10217300A3E0FDC3ED9FEC9E5028900068E4F0902F
:102183000068E0FFEFC394055008900068E004F096
:1021930080ED900067E004F07006900066E004F0C4
:1021A30080C12290004AEFF090004BEDF090004C7C
:1021B30012099F0000000190004BE0FF14F0EF6054
:1021C3002290004CE0F8A3E0F9A3E0FAA3E0FB902F
:1021D300004AE0FFE4FCFDFE12083C90004C1209AB
:1021E3009380D490004CE0FCA3E0FDA3E0FEA3E0C9
:1021F300FF2290005BEFF090005CEDF090005CE05C
:10220300FF7E00EF24B0FFEE3400FE7D007C001261
:1022130022BF90005BE0FFEF54F0FFEFC4540FFFC9
:102223007E00EF4410FF7D007C001222BF90005B14
:10223300E0FFEF540FFF7E007D007C001222BF22DF
:10224300900062E4F07F011223B0D2947F017E00FC
:10225300122156D2957F017E0012215630941C9094
:102263000062E004F0900062E0FFEFD394FA40ECE8
:102273001223FE7F001223B07F0122C2957F00123A
:1022830023B07F0022900018EBF0A3EAF0A3E9F05B
:10229300900018E0FBA3E0FAA3E0F9120782FFEF36
:1022A3006019900018E0FBA3E475F001120826A959
:1022B300F0FA120782FF12242880D52290005DEEE7
:1022C300F0A3EFF090005FECF0A3EDF090005FE07F
:1022D300FEA3E0FFEF4E600C90005DE0FEA3E0FF85
:1022E3001223422290005DE0FEA3E0FF12231B2293
:1022F300C0E0C083C082E59830E1085398FD9001A7
:102303004EE4F0E59830E0095398FE900000E5991B
:10231300F0D082D083D0E032900061EFF01223E757
:102323007F781220AD1222437F001220AD12224388
:10233300900061E0FF1220AD1222431223FE22908F
:102343000061EFF01223E77F781220AD1222437F62
:10235300401220AD122243900061E0FF1220AD1223
:1023630022431223FE22EFB40A07740D122374745E
:102373000A309811A899B8130CC2983098FDA899FF
:10238300C298B811F63099FDC299F59922C0E0C000
:10239300F0C083C082C0D075D00830980512244A9B
:1023A300C298D0D0D082D083D0F0D0E032900063F6
:1023B300EFF0900063E0FFEFB40107759140759271
:1023C300002275910075920022439850438900754D
:1023D3008E40758BCB758DFFD28ED2ACD2AF900170
:1023E3004EE4F022D294D2957F027E00122156C28F
:1023F300947F027E00122156C29522C295C2947F19
:10240300027E00122156D295D2947F027E001221C1
:10241300562275D50075D40075D30075D20075AFFB
:102423006075D1CC2290001BEFF090001BE0FF8F72
:10243300993099FDC29922438900758A30758CF8C9
:10244300D28CD2A9D2AF22900001E599F09000017D
:10245300E0FF121FA2221219191224151223CC1203
:10246300243A22313233340035343632000D0A0037
:102473006162630000000000000000000000000033
:042483000000000055
:00000001FF
