:0A0000000223D8252E32660D0A00F7
:10000B0002192FE4FFFE120782600C0FEF70010E36
:10001B0009E970F20A80EF22022A18900069E4F0D5
:10002B00900069E0FFEFC394085057900069E0FF20
:10003B007E00EF24B0FFEE3400FE7D007C00122822
:10004B00EE7D007C007F007E001228EE7D007C00A0
:10005B007F107E001228EE90006AE4F090006AE0B8
:10006B00FFEFC3948050137D017C007F007E001254
:10007B0028EE90006AE004F080E2900069E004F062
:10008B00809E2243B10443B20443B10843B2082219
:07009B0002009E53EFFD324D
:1000A300022B8B020478E86480F8E933E8336011AB
:1000B3000460F0ED33EC337009E8FCE9FDEAFEEB94
:1000C300FF220460DED3EB9FEA9EE99DE8C2E78C42
:1000D300F0C2F795F0400CE8CCF8E9CDF9EACEFA96
:1000E300EBCFFB12044385D0F05804700320D5B343
:1000F300E80470075002B2D502048292D5EC046082
:10010300F7E4CCC0E0C398F8603B94186008400D56
:10011300D0E0FB02045AE4FBFAC9FC8028E830E48F
:1001230006E4C9FBE4CAFCE830E305E4C9CACBFC36
:10013300E854076010F8C3E913F9EA13FAEB13FB69
:10014300EC13FCD8F130F52FC3E49CFCEF9BFFEEDE
:100153009AFEED99FDD0E0FBEF4E4D4C701222DB81
:100163000302047FEC2CFCEF33FFEE33FEED33FD93
:10017300ED30E7EB02045AEF2BFFEE3AFEED39FDCB
:10018300D0E0FB50130BBB0003020482ED13FDEE22
:1001930013FEEF13FFEC13FC02045AEC4D6011E85D
:1001A300497017ED33EC3304600DE4FCFFFEFD22D0
:1001B300E933E8330470F802047812044358046006
:1001C30009E4CC2481500628500902048228400304
:1001D30002047FC0E0EB4A7044B98006D0E0FB0222
:1001E300046EEF4E701CBD8008EBFFEAFEE9FD8054
:1001F300EBE98DF0A4FEE5F0020287E9CDF9EAFE12
:10020300EBFFEF89F0A4FCE5F0CE89F0A42EFFE428
:1002130035F0CD89F0A42DFEE435F08067EF4E7004
:1002230005BD80D780C3EF8BF0A4ACF0EE8BF0A4B8
:100233002CFCE435F0F8EF8AF0A42CE5F038FCE46C
:1002430033CB8DF0A42CFCE5F03BF8EE8AF0A42C24
:10025300FCE5F038F8E433CF89F0A42CFCE5F03862
:10026300CF3400CE89F0A42FFFE5F03EFEE433C97E
:100273008DF0A42EFEE5F039CD8AF0A42FFFE5F032
:100283003EFEE43DFD33D0E0FB50070BBB000F0205
:100293000482EC2CFCEF33FFEE33FEED33FD02045E
:1002A3005A020482EC5D046005E8590470030204F9
:1002B30078120443580460F6EC4860F2EC7004FDD5
:1002C300FEFF22C860DB2481C85009C39860025036
:1002D3000602047F9850CAF582E9294B4A7005ABA0
:1002E3008202046E75F0007C1A7880C3EF9BEE9A4D
:1002F300ED99400DC3EF9BFFEE9AFEED99FDE842A9
:10030300F0DC23ACF0D0E0FFD0E0FED0E0FDAB8228
:1003130020E7101BEB60BAEC2CFCEF33FFEE33FE4F
:10032300ED33FD02045AE803F830E705C0F075F039
:1003330000EF2FFFEE33FEED33FD40B830E7C28010
:10034300AA74F8CC6480CCC86480C8F58204604F7A
:10035300C3EB9FF5F0EA9E42F0E99D42F0E89C452D
:10036300F0603C501DE5825FFFE582D313CB5BCB8E
:10037300F42B5582FB50280ABA002409B90020083F
:10038300801DE5825BFBE582D313CF5FCFF4C313FC
:100393002F5582FF50090EBE00050DBD00010CC391
:1003A300EB9FF5F0EA9E42F0E99D42F0E89C45F0B0
:1003B3006007CC4820E701B3EC22ED33EC33600A4D
:1003C300047003BD8004ECB2E7FC2275F020800EBC
:1003D30075F010800575F0087D007E007F00339274
:1003E300D530D503120923EC334010EF33FFEE333E
:1003F300FEED33FDEC33FCD5F0ED22E5F0247EA2D7
:10040300D513CC92E7CDCEFF22EDD2E7CD33EC333B
:1004130092D524814006E4FFFEFDFC22FCE4CFCE0E
:10042300CDCC24E0501174FF80EDC3CC13CCCD139D
:10043300CDCE13CECF13CF0470F030D5DE02092317
:10044300E9D2E7C933E833F892D5EDD2E7CD33ECFF
:1004530033FC5002B2D522EC30E7100FBF000C0E74
:10046300BE00080DBD00040BEB6014A2D5EB13FC1A
:10047300ED92E7FD2274FFFCFDFEFF22E480F8A26B
:10048300D574FF13FC7D80E480EFF920E73624F96F
:1004930050037907E4F42402FBE582158270021508
:1004A30083DBF6E024FB501BE96014E4F0E58215DE
:1004B3008270021583E004F0B40A08E4F0D9EE7404
:1004C30001F00A22C2D522ED33EC3392D5FA602A29
:1004D300B4FF33EDC2E77BFF60067A0479EFE422D1
:1004E3007A0479F820D5047A0479F3224E614E0018
:1004F3002B494E46002D494E4600E47A08F0A3DA14
:10050300FC7B00740722C083C082ECC0E0EDC0E036
:10051300EEC0E0EFC0E0EA75F010A4CAABF075F0EE
:100523004DA42BFBE435F0FCEA2410FAEB34C5FBB5
:10053300EC34D9FCEDC2E7FF75F056A4F42411C5E1
:10054300F0F434C58FF0A42AE5F03BE43CF020E757
:10055300141205FFD0E0FFD0E0FED0E0FDD0E0FCB8
:100563001202A78014F4041205FFD0E0FFD0E0FECE
:10057300D0E0FDD0E0FC12019ED082D083E0FAED02
:10058300D2E7CD33EC332482FBE4C3CF33CFCE3376
:10059300CECD33CD33DBF37B0775F00A846004F0F3
:1005A300A31B0AE5F0F0A38FF0740AA4FFACF08E4E
:1005B300F0740AA42CFEACF050010C8DF0740AA464
:1005C3002CFDE435F0F0A3DBDE7407223F8000004E
:1005D3004120000042C80000447A0000461C40004D
:1005E30047C35000497424004B1896804CBEBC206E
:1005F3005A0E1BCA6753C21C749DC5AEFB600654DA
:1006030007601C232312062DEB54386009120619C8
:1006130012062812019EECF8EDF9EEFAEFCB22EB6D
:1006230012062880F1543803241C9005CFFE93FC56
:100633000EEE93FD0EEE930ECE93FF22C0E0EFFB82
:10064300EEFAEDF9ECF812019ED0E0F5F0EFFBEED7
:10065300FAEDF9ECF81209BFA3A3A3A3E8C0E0E9FC
:10066300C0E0EAC0E0EBC0E0C0F012019E1209DB7B
:10067300A3A3A3A31200ADD0F0D0E0FBD0E0FAD047
:10068300E0F9D0E0F8D5F0D422E709F608DFFA80E4
:1006930046E709F208DFFA803E88828C83E709F097
:1006A300A3DFFA8032E309F608DFFA8078E309F280
:1006B30008DFFA807088828C83E309F0A3DFFA8075
:1006C3006489828A83E0A3F608DFFA805889828AE4
:1006D30083E0A3F208DFFA804C80D280FA80C680E0
:1006E300D4806980F28033801080A680EA809A806B
:1006F300A880DA80E280CA803389828A83ECFAE4B4
:1007030093A3C8C582C8CCC583CCF0A3C8C582C88F
:10071300CCC583CCDFE9DEE7800D89828A83E4934D
:10072300A3F608DFF9ECFAA9F0EDFB2289828A83AC
:10073300ECFAE0A3C8C582C8CCC583CCF0A3C8C576
:1007430082C8CCC583CCDFEADEE880DB89828A837A
:10075300E493A3F208DFF980CC88F0EF60010E4E3A
:1007630060C388F0ED2402B4040050B9F582EB2491
:1007730002B4040050AF23234582239006DC73BBED
:10078300010689828A83E0225002E722BBFE02E34C
:100793002289828A83E49322BB010CE58229F582B4
:1007A300E5833AF583E0225006E92582F8E622BB89
:1007B300FE06E92582F8E222E58229F582E5833AFD
:1007C300F583E49322BB010689828A83F0225002D7
:1007D300F722BBFE01F322C5F0F8A3E028F0C5F031
:1007E300F8E582158270021583E038F022A3F8E061
:1007F300C5F025F0F0E582158270021583E0C83854
:10080300F0E822E88FF0A4CC8BF0A42CFCE98EF066
:10081300A42CFC8AF0EDA42CFCEA8EF0A4CDA8F065
:100823008BF0A42DCC3825F0FDE98FF0A42CCD3529
:10083300F0FCEB8EF0A4FEA9F0EB8FF0A4CFC5F093
:100843002ECD39FEE43CFCEAA42DCE35F0FDE43C8C
:10085300FC2275F008758200EF2FFFEE33FECD33D7
:10086300CDCC33CCC58233C5829BED9AEC99E5821E
:1008730098400CF582EE9BFEED9AFDEC99FC0FD5AA
:10088300F0D6E4CEFBE4CDFAE4CCF9A88222B8009A
:10089300C1B90059BA002DEC8BF084CFCECDFCE565
:1008A300F0CBF97818EF2FFFEE33FEED33FDEC3389
:1008B300FCEB33FB10D703994004EB99FB0FD8E50E
:1008C300E4F9FA227818EF2FFFEE33FEED33FDEC57
:1008D30033FCC933C910D7059BE99A4007EC9BFC4D
:1008E300E99AF90FD8E0E4C9FAE4CCFB2275F010D9
:1008F300EF2FFFEE33FEED33FDCC33CCC833C810FE
:10090300D7079BEC9AE899400AED9BFDEC9AFCE82B
:1009130099F80FD5F0DAE4CDFBE4CCFAE4C8F92278
:10092300C3E49FFFE49EFEE49DFDE49CFC22BB0127
:100933000789828A83020ABC5005E9F8020AB0BB20
:10094300FE05E9F8020AC889828A830209BFBB014E
:100953000DE58229F582E5833AF583020ABC500747
:10096300E92582F8020AB0BBFE07E92582F8020AEC
:10097300C8E58229F582E5833AF5830209BFBB0105
:100983000789828A83020A1B5005E9F8020AEEBB33
:10099300FE05E9F8020AFA22BB010DE58229F58278
:1009A300E5833AF583020A1B5007E92582F8020A18
:1009B300EEBBFE07E92582F8020AFA22E493FC74EF
:1009C3000193FD740293FE740393FF22E0F8A3E006
:1009D300F9A3E0FAA3E0FB22E493F8740193F9741A
:1009E3000293FA740393FB22BB010DE58229F5827E
:1009F300E5833AF5830209CF5007E92582F8020A15
:100A0300D4BBFE07E92582F8020AE1E58229F582D3
:100A1300E5833AF5830209DBECF0A3EDF0A3EEF0F6
:100A2300A3EFF022A8828583F0D083D082120A3EFE
:100A3300120A3E120A3E120A3EE473E493A3C583EC
:100A4300C5F0C583C8C582C8F0A3C583C5F0C583F7
:100A5300C8C582C822F8E0FBA3A3E0F925F0F0E5BE
:100A630082158270021583E0FA38F022EBF0A3EAD4
:100A7300F0A3E9F022D083D082F8E49370127401DA
:100A830093700DA3A393F8740193F5828883E473A1
:100A93007402936860EFA3A3A380DFEF8DF0A4A893
:100AA300F0CF8CF0A428CE8DF0A42EFE22E6FC0815
:100AB300E6FD08E6FE08E6FF22E0FCA3E0FDA3E076
:100AC300FEA3E0FF22E2FC08E2FD08E2FE08E2FFEB
:100AD30022E6FB08E6F908E6FA08E6CBF822E2FB91
:100AE30008E2F908E2FA08E2CBF822ECF608EDF6A0
:100AF30008EEF608EFF622ECF208EDF208EEF20843
:100B0300EFF22290002B120A1B9000CBE0FCA3E033
:100B1300FDA3E0FEA3E0FFC004C005C006C007902C
:100B230000BAE0F8A3E0F9A3E0FAA3E0FB90002FFA
:100B3300E0FCA3E0FDA3E0FEA3E0FF1200A9900008
:100B4300BFE0F8A3E0F9A3E0FAA3E0FB12019EA83B
:100B530004A905AA06AB07D007D006D005D0041216
:100B630000AD9000CB120A1B9000A2E0F8A3E0F9BD
:100B7300A3E0FAA3E0FB9000AEE0FCA3E0FDA3E05A
:100B8300FEA3E0FF1200A99000A6E0F8A3E0F9A3FA
:100B9300E0FAA3E0FB1200A990008A120A1B90005E
:100BA300AAE0FCA3E0FDA3E0FEA3E0FF1203BD90D7
:100BB300008E120A1B9000AAE0FCA3E0FDA3E0FE56
:100BC300A3E0FF1203BD900092120A1B9000CFE036
:100BD300FCA3E0FDA3E0FEA3E0FF900096120A1B36
:100BE30090009EE0FCA3E0FDA3E0FEA3E0FFC004B1
:100BF300C005C006C0079000BFE0FCA3E0FDA3E072
:100C0300FEA3E0FF90008AE0F8A3E0F9A3E0FAA3D3
:100C1300E0FB12019EA804A905AA06AB07D007D0E2
:100C230006D005D0041200AD90009E120A1B90005E
:100C3300A2E0FCA3E0FDA3E0FEA3E0FFC004C00527
:100C4300C006C0079000BFE0FCA3E0FDA3E0FEA345
:100C5300E0FF90008EE0F8A3E0F9A3E0FAA3E0FB45
:100C630012019EA804A905AA06AB07D007D006D097
:100C730005D0041200AD9000A2120A1B9000A6E05A
:100C8300FCA3E0FDA3E0FEA3E0FFC004C005C00693
:100C9300C0079000BFE0FCA3E0FDA3E0FEA3E0FFDC
:100CA300900092E0F8A3E0F9A3E0FAA3E0FB1201BD
:100CB3009EA804A905AA06AB07D007D006D005D085
:100CC300041200AD9000A6120A1B9000AAE0FCA338
:100CD300E0FDA3E0FEA3E0FFC004C005C006C0071B
:100CE3009000BFE0FCA3E0FDA3E0FEA3E0FF9000C3
:100CF30096E0F8A3E0F9A3E0FAA3E0FB12019EA8B3
:100D030004A905AA06AB07D007D006D005D0041264
:100D130000AD9000AA120A1B9000CBE0F8A3E0F903
:100D2300A3E0FAA3E0FB90002BE0FCA3E0FDA3E02B
:100D3300FEA3E0FF1200A9900082120A1B9000BEDE
:100D4300E0FCEC1203D890009EE0F8A3E0F9A3E0E6
:100D5300FAA3E0FB12019E900086120A1B9000BECC
:100D6300E0FCEC1203D89000A6E0F8A3E0F9A3E0BE
:100D7300FAA3E0FB12019E90009A120A1B9000BE98
:100D8300E0FCEC1203D8900086E0F8A3E0F9A3E0BE
:100D9300FAA3E0FB12019E9000B2E0F8A3E0F9A3EE
:100DA300E0FAA3E0FB1200AD9000B6120A1B90001C
:100DB300B6E0F8A3E0F9A3E0FAA3E0FB900086E035
:100DC300FCA3E0FDA3E0FEA3E0FF1202A79000C393
:100DD300120A1B9000B6E0F8A3E0F9A3E0FAA3E03F
:100DE300FB90009AE0FCA3E0FDA3E0FEA3E0FF126A
:100DF30002A79000C7120A1B900086E0FCA3E0FD47
:100E0300A3E0FEA3E0FF90007A120A1B9000BEE06D
:100E1300FCEC1203D89000A2E0F8A3E0F9A3E0FAF7
:100E2300A3E0FB12019E90007E120A1B90009EE03D
:100E3300FCA3E0FDA3E0FEA3E0FFC004C005C006E1
:100E4300C00790007AE0FCA3E0FDA3E0FEA3E0FF6F
:100E53009000C3E0F8A3E0F9A3E0FAA3E0FB1201DA
:100E63009EA804A905AA06AB07D007D006D005D0D3
:100E7300041200A990009E120A1B9000A2E0FCA39A
:100E8300E0FDA3E0FEA3E0FFC004C005C006C00769
:100E930090007EE0FCA3E0FDA3E0FEA3E0FF900052
:100EA300C3E0F8A3E0F9A3E0FAA3E0FB12019EA8D4
:100EB30004A905AA06AB07D007D006D005D00412B3
:100EC30000A99000A2120A1B9000A6E0FCA3E0FD7B
:100ED300A3E0FEA3E0FFC004C005C006C007900066
:100EE3007AE0FCA3E0FDA3E0FEA3E0FF9000C7E0EF
:100EF300F8A3E0F9A3E0FAA3E0FB12019EA804A97A
:100F030005AA06AB07D007D006D005D0041200A966
:100F13009000A6120A1B9000AAE0FCA3E0FDA3E048
:100F2300FEA3E0FFC004C005C006C00790007EE03A
:100F3300FCA3E0FDA3E0FEA3E0FF9000C7E0F8A35D
:100F4300E0F9A3E0FAA3E0FB12019EA804A905AA15
:100F530006AB07D007D006D005D0041200A9900035
:100F6300AA120A1B9000CBE0FCA3E0FDA3E0FEA3C2
:100F7300E0FFC004C005C006C007900082E0FCA3E8
:100F8300E0FDA3E0FEA3E0FF9000C3E0F8A3E0F9D7
:100F9300A3E0FAA3E0FB12019EA804A905AA06ABED
:100FA30007D007D006D005D0041200AD9000CB12B5
:100FB3000A1B9000BAE0FCA3E0FDA3E0FEA3E0FF60
:100FC300C004C005C006C007900082E0FCA3E0FD9A
:100FD300A3E0FEA3E0FF9000C7E0F8A3E0F9A3E0DD
:100FE300FAA3E0FB12019EA804A905AA06AB07D049
:100FF30007D006D005D0041200AD9000BA120A1B28
:101003009000BAE0F8A3E0F9A3E0FAA3E0FB9000B4
:101013002FE0FCA3E0FDA3E0FEA3E0FF1200A990F4
:1010230000D3120A1B9000CBE0FCA3E0FDA3E0FE7B
:10103300A3E0FF22E5102412F582E43400F583E0F7
:1010430005102290000F300703900012E475F001A1
:10105300120A580207822000E97F2ED2008018EF7F
:10106300540F2490D43440D4FF30040BEF24BFB486
:101073001A0050032461FFE511600215110514E500
:10108300147002051330070E90000FE475F001127F
:101093000A58EF0207C80229F17403D2078003E458
:1010A300C207F51090000F120A6FE4F511F513F55E
:1010B30014E51160077F2012107A80F57512FFC2C4
:1010C30001C200C202C203C205C206C20812104610
:1010D300FF700D3007057F0012108BAF14AE132283
:1010E300B4255FC2D5C204121046FF24D0B40A004F
:1010F300501A75F00A781130D50508B6FF0106C6F7
:10110300A426F620D5047002D20380D924CFB41AC2
:1011130000EF5004C2E5D20402137DD20180C6D28F
:101123000080C0D20280BCD2D580BAD20580B47F01
:101133002012107A2002077401B5110040F1121039
:1011430037FF12107A0210B4D208D206809512101B
:1011530037FB121037FA121037F94A4B7006797BB6
:101163007A147BFF20022EE511602A7E008E8275A1
:10117300830012079B60060EEE651270F0C2D5EB7A
:10118300C0E0EAC0E0E9C0E0EE1213DED0E0F9D03F
:10119300E0FAD0E0FB120782FF60AAEBC0E0EAC0EE
:1011A300E0E9C0E012107AD0E02401F9D0E0340085
:1011B300FAD0E0FBE5120460DCD512D98087D202B5
:1011C30080A21213C060F7E51270010412048DA906
:1011D30012600DE512600914F512121468EF60F342
:1011E300EA30E702F404C3995079EAF42512043093
:1011F300E701E404F512800D1213C060C1EA051281
:10120300251212048DEA90003EF030E701E4251226
:1012130004D51204200501141213DEE4C0E01214F5
:101223006890003EE0601320E70714F0121062801C
:101233002204F0D0E014C0E07F00121062E51260D7
:10124300071210591512800B300503121059D0E004
:101253000210B4D0E00480C41213C0609EE51204EF
:1012630012048D90003EEAF0E512200502600104AD
:1012730024041213DE74FF04C0E012146812106217
:10128300E5122005026003121059D0E0B512E87F81
:101293004512106C90003EE07F2B30E7047F2DF465
:1012A30004C0E012107AD0E075F00A84C0F0121086
:1012B30063D0E01210630210B4791080027908C27F
:1012C30006C2088008D2D5790A8004790AC2D5E516
:1012D30012047002F512E4FAFDFEFF121037FC7BD4
:1012E30008200113121037FD7B1030000A1210374B
:1012F300FE121037FF7B20EC3382D592D55013C3F7
:10130300E43000069FFFE49EFEE42001039DFDE41C
:101313009CFCE4CBF8C201EC700CCFCECDCCE8241E
:10132300F8F870F38017C3EF33FFEE33FEED33FDB0
:10133300EC33FCEB33FB994002FB0FD8E9EB3001B4
:1013430005F8D0E0C448B201C0E00AEC4D4E4F7836
:10135300207B0070C2EAB5120040BCC0E01213E06B
:10136300D0F0D0E0200104C4C0E0C4B201C0F01248
:101373001063D0F0D5F0EB0210B4120A7811515378
:1013830012BC5811224C111E4212C04F12C84412F3
:10139300C84911374312CE5511FB46125B4511C59F
:1013A30047149B5011262D112A2E114D2B112E233C
:1013B300114B2014842A10E64800001145E512B4AD
:1013C300FF03751206121037FC121037FD12103787
:1013D300FE121037FF9000370204CA790AA2D52003
:1013E3000314300509B910020404B9080104A2D595
:1013F3002006025001042002689202B51100503405
:10140300C0E07F203003197F30A2027206720550BC
:101413000F121437C202C206C205C2087F30800F02
:10142300300503E9C0E012107A300503D0E0F9D0AB
:10143300E0B511CC3005177F30B9100C12107A7F4C
:10144300583004077F788003B9080312107A3002FA
:10145300057F2D02107A7F202008F87F2B2006F3CA
:1014630022920280CF7F00B40700500B2437F5820D
:10147300E43400F583E0FF22286E756C6C2900D2FA
:10148300011210373001F8C201781130D50108F686
:101493000210E62D504349581210372403B40500B7
:1014A3004001E49014969312106B743A12106BD2AD
:1014B300037511040212BC900069120A1B7F007E9F
:1014C300007D7A7C45900069E0F8A3E0F9A3E0FA97
:1014D300A3E0FB120344400C900069120A27457AEB
:1014E300000080277F007E007D7A7CC5900069E044
:1014F300F8A3E0F9A3E0FAA3E0FB1203446002506F
:101503000A900069120A27C57A00007F007E007DD9
:101513007A7C4590006DE0F8A3E0F9A3E0FAA3E03C
:10152300FB120344400C90006D120A27457A000019
:1015330080277F007E007D7A7CC590006DE0F8A354
:10154300E0F9A3E0FAA3E0FB1203446002500A901F
:10155300006D120A27C57A000075BA8090FFF2E485
:10156300F090FFF07406F0A3E4F07F007E007D00AE
:101573007C00900069E0F8A3E0F9A3E0FAA3E0FBA4
:10158300120344605D405B7B007A40799C78459010
:101593000069E0FCA3E0FDA3E0FEA3E0FF1202A7C5
:1015A300C004C005C006C00790FFF0E0FCA3E0FD47
:1015B300E41203D3A804A905AA06AB07D007D006F3
:1015C300D005D00412019E12040C90FF20EEF0A36C
:1015D300EFF090FF247480F090FF44E4F0C2A40283
:1015E300167F7F007E007D007C00900069E0F8A3F9
:1015F300E0F9A3E0FAA3E0FB120344701090FF2488
:10160300E4F090FF44E4F0C2A2C2A4806F900069AA
:10161300E0FCA3E0FDA3E0FEA3E0FF1203BD900006
:1016230069120A1B7B007A40799C7845900069E037
:10163300FCA3E0FDA3E0FEA3E0FF1202A7C004C0E9
:1016430005C006C00790FFF0E0FCA3E0FDE4120331
:10165300D3A804A905AA06AB07D007D006D005D0A6
:101663000412019E12040C90FF40EEF0A3EFF090E1
:10167300FF24E4F0C2A290FF447480F07F007E0058
:101683007D007C0090006DE0F8A3E0F9A3E0FAA3ED
:10169300E0FB120344605D405B7B007A40799C78F9
:1016A3004590006DE0FCA3E0FDA3E0FEA3E0FF1284
:1016B30002A7C004C005C006C00790FFF0E0FCA36A
:1016C300E0FDE41203D3A804A905AA06AB07D007DB
:1016D300D006D005D00412019E12040C90FF30EE08
:1016E300F0A3EFF090FF64E4F0C2A690FF3474809F
:1016F300F00217917F007E007D007C0090006DE07A
:10170300F8A3E0F9A3E0FAA3E0FB120344701090FE
:10171300FF34E4F090FF64E4F0C2A3C2A6806F90AC
:10172300006DE0FCA3E0FDA3E0FEA3E0FF1203BD18
:1017330090006D120A1B7B007A40799C78459000DB
:101743006DE0FCA3E0FDA3E0FEA3E0FF1202A7C04F
:1017530004C005C006C00790FFF0E0FCA3E0FDE471
:101763001203D3A804A905AA06AB07D007D006D055
:1017730005D00412019E12040C90FF60EEF0A3EF5B
:10178300F090FF34E4F0C2A390FF647480F075BA64
:101793000075FE802290006CEBF0A3EAF0A3E9F061
:1017A300900078E4F0A3E4F090006CE0FBA3E0FA8F
:1017B300A3E0F912000E900072EEF0A3EFF0900098
:1017C3006FE0FBA3E0FAA3E0F912000E900074EEC1
:1017D300F0A3EFF0900076E4F0A3E4F090006CE067
:1017E300FBA3E0FAA3E0F9900076E0FEA3E0FF8F0D
:1017F300828E8312079BFFEF70030218CD90006F58
:10180300E0FBA3E0FAA3E0F9900076E0FEA3E0FF9B
:101813008F828E8312079BFFEF70030218CD900017
:101823006FE0FBA3E0FAA3E0F9900076E0FEA3E00B
:10183300FF8F828E8312079BFF90006CE0FBA3E077
:10184300FAA3E0F9900076E0FCA3E0FD8D828C839F
:1018530012079BFEEED39F4012900078E4F0A3742E
:1018630001F0900078E0FEA3E0FF2290006FE0FB20
:10187300A3E0FAA3E0F9900076E0FEA3E0FF8F82F5
:101883008E8312079BFF90006CE0FBA3E0FAA3E0BA
:10189300F9900076E0FCA3E0FD8D828C8312079B18
:1018A300FEEEC39F501390007874FFF0A374FFF013
:1018B300900078E0FEA3E0FF22900077E004F07050
:1018C30006900076E004F00217DF900078E0FEA3B4
:1018D300E0FFEF4E704D900074E0FEA3E0FF900038
:1018E30072E0FCA3E0FDD3ED9FEE6480F8EC64802E
:1018F300984009900078E4F0A37401F0900074E03C
:10190300FEA3E0FF900072E0FCA3E0FDC3ED9FEEB9
:101913006480F8EC648098500A90007874FFF0A318
:1019230074FFF0900078E0FEA3E0FF22C0E0C0F077
:10193300C083C082C0D075D000C000C001C002C047
:1019430003C004C005C006C00790016BE0FEA3E01E
:10195300FFC3EF9405EE64809480406E90016BE4C6
:10196300F0A3E4F0AFD47E00EF7F00FE90017AEEA7
:10197300F0A3EFF0AFD57E0090017AE0FCA3E0FD89
:10198300EE4CFEEF4DFF90017AEEF0A3EFF0AFD2F5
:101993007E00EF7F00FE90017CEEF0A3EFF0AFD36B
:1019A3007E0090017CE0FCA3E0FDEE4CFEEF4DFFDA
:1019B30090017CEEF0A3EFF075D14475D40075D59A
:1019C3000075D20075D30075D1CC90016DE0FEA3F4
:1019D300E0FFC3EF940AEE648094805003021A6C14
:1019E30090016DE4F0A3E4F01220C8900001120A04
:1019F3001B900001E0FCA3E0FDA3E0FEA3E0FFC019
:101A030004C005C006C007900001E0FCA3E0FDA3ED
:101A1300E0FEA3E0FF90006D120A1BD007D006D0B2
:101A230005D0041214BA7B017A007905C003C00201
:101A3300C0017BFF7A007903900012EBF0A3EAF078
:101A4300A3E9F0900001E0FCA3E0FDA3E0FEA3E026
:101A5300FF900015120A1BD001D002D00312109C74
:101A63007B017A0079051228B790016EE004F070CB
:101A73000690016DE004F090016CE004F0700690B4
:101A8300016BE004F0D007D006D005D004D003D01A
:101A930002D001D000D0D0D082D083D0F0D0E032B9
:101AA300900069E4F0900069E0FF74412FF582E44F
:101AB3003401F583E0FFEF6029900069E0FF744192
:101AC3002FF582E43401F583E0FFEFB43A0C900084
:101AD30069E0FF90006AEFF08008900069E004F08D
:101AE30080C390006BE4F090006AE0FF90006BE02D
:101AF300FEEEC39F502A90006BE0FF74412FF582E6
:101B0300E43401F583E0FF90006BE0FE74312EF5C1
:101B130082E43401F583EFF090006BE004F080C7BA
:101B230090006BE0FF74312FF582E43401F583E418
:101B3300F090006AE0FFEF04FF900069EFF07B0193
:101B43007A01794112000E900069E0FD7C00D3ED2B
:101B53009FEC9E503E900069E0FF74412FF582E4B4
:101B63003401F583E0FF90006AE0FEEEFD7C009017
:101B73000069E0FEEEFB7A00C3EB9DFDEA9CFC747A
:101B8300542DF58274013CF583EFF0900069E00475
:101B9300F080AB90006AE0FF7E00900069E0FD7C7E
:101BA30000C3ED9FFFEC9EFE74542FF58274013E3B
:101BB300F583E4F07B017A017931C003C002C001EF
:101BC3007BFF7A2B798F90006FEBF0A3EAF0A3E908
:101BD300F0D001D002D003121798EF60117B017A85
:101BE300017955121F2C900178EEF0A3EFF0227DBE
:101BF300007C007FAE7E001228EE7D007C007F001B
:101C03007E001228EE7D007C007F107E001228EEFD
:101C13007D007C007F407E001228EE7D007C007FEB
:101C2300B07E001228EE7D007C007F817E001228AA
:101C3300EE7D007C007FFF7E001228EE7D007C009D
:101C43007FA17E001228EE7D007C007FA67E00121D
:101C530028EE7D007C007FA87E001228EE7D007CAC
:101C6300007F3F7E001228EE7D007C007FC87E004F
:101C73001228EE7D007C007FD37E001228EE7D00CB
:101C83007C007F007E001228EE7D007C007FD57EE5
:101C9300001228EE7D007C007F807E001228EE7DFE
:101CA300007C007FD87E001228EE7D007C007F053B
:101CB3007E001228EE7D007C007FD97E001228EE84
:101CC3007D007C007FF17E001228EE7D007C007F8A
:101CD300DA7E001228EE7D007C007F127E0012283F
:101CE300EE7D007C007FDB7E001228EE7D007C0011
:101CF3007F307E001228EE7D007C007F8D7E0012F7
:101D030028EE7D007C007F147E001228EE7D007C8F
:101D1300007FAF7E001228EE12002622BE12492554
:101D23003E4CCCCDBEAAAAAB3F8000003E7ADBB0CE
:101D33003EED63383F24BC7D3F490FDBED33ECC2FE
:101D4300E7CC339200B4FF13ED547F6003020478B1
:101D53007FDB7E0F7DC97C3F021E34C201C3947FAB
:101D6300401E7007EDD2E794904015EFFBEEFAEDBD
:101D7300F9ECF87F007E007D807C3F1202A7D20140
:101D8300ED33EC33248430E705E4C0E0806B04FAE0
:101D9300EDD2E754F0C333DAFD540734002323C0F4
:101DA300E0CCC0E0F8EDC0E0F9EEC0E0FAEFC0E04F
:101DB300FBE41203D8EC24FEFC900033120A1B123E
:101DC300019E7B007A007980783F1200AD9000334A
:101DD300E0B2E7CCF0A3E0CDF0A3E0CEF0A3E0CFF8
:101DE300F0D0E0FBD0E0FAD0E0F9D0E0F81200AD9B
:101DF3009000331209CF1202A7900033120A1B90EE
:101E03001D1F740312063F9000331209CF12019E67
:101E1300D0E0600F242BF582E4341DF5831209DB37
:101E23001200AD30010B7BDB7A0F79C978BF12004A
:101E3300ADED33EC336006ECA20092E7FC22900098
:101E43001F120A1B900023EBF0A3EAF0A3E9F09022
:101E5300001FE0FCA3E0FDA3E0FEA3E0FF9000234E
:101E6300E0FBA3E0FAA3E0F9758208758300120989
:101E73009B900023E0FBA3E0FAA3E0F9E92420F917
:101E8300EA3400FAC003C002C001120931900023F2
:101E9300E0FBA3E0FAA3E0F9758208758300120959
:101EA300EB1200ADD001D002D003120981900023C0
:101EB300E0FBA3E0FAA3E0F9758208758300120939
:101EC30051900023E0FBA3E0FAA3E0F975821075BB
:101ED30083001209EB12019E900023E0FBA3E0FABA
:101EE300A3E0F975822475830012099B900023E017
:101EF300FBA3E0FAA3E0F975820875830012095188
:101F0300900023E0FBA3E0FAA3E0F975820C75834C
:101F13000012099B900023E0FBA3E0FAA3E0F9750C
:101F230082247583001209512290006CEBF0A3EA1E
:101F3300F0A3E9F090006CE0FBA3E0FAA3E0F91250
:101F43000782FF122B16500C90006DE475F00112FE
:101F530007DA80E0D20990006CE0FBA3E0FAA3E08B
:101F6300F9120782FF642B6004EFB42D1D90006CFF
:101F7300E0FBA3E475F0011207F0A9F0FA1207825F
:101F8300642D6003D38001C39209E490006FF0A332
:101F9300F090006CE0FBA3E0FAA3E0F9120782FFE4
:101FA300122B7C504290006CE0FBA3E0FAA3E0F913
:101FB300120782FF3395E0FEEF24D0FBEE34FFFAE5
:101FC30090006FE0FEA3E0FF7C007D0A120A9EEF03
:101FD3002BFFEE3A90006FF0A3EFF090006DE475E5
:101FE300F0011207DA80AA30090A90006FE0FEA31D
:101FF300E0FF800F90006FE0FEA3E0FFC3E49FFFCC
:10200300E49EFE221224641224DD90015FE0FCA30F
:10201300E0FDEC1203D3C004C005C006C007900165
:1020230063E0FCA3E0FDEC1203D390002F120A1B24
:10203300D007D006D005D00412221F7B007A007986
:1020430034784312019E7BC37AF5794878401202B3
:10205300A790001F120A1B900167E0FEA3E0FFC3D5
:10206300E49FFDE49EFCEC1203D37B337A33798344
:1020730078411202A7900023120A1B90001FE0FC74
:10208300A3E0FDA3E0FEA3E0FFC004C005C006C0BB
:1020930007900023E0FCA3E0FDA3E0FEA3E0FF9094
:1020A300002F120A1BD007D006D005D004120B064E
:1020B300900027120A1B900027E0FCA3E0FDA3E099
:1020C300FEA3E0FF2290000F120A27C2CD000012E8
:1020D300200790001B120A1B90001BE0F8A3E0F9F5
:1020E300A3E0FAA3E0FB90000FE0FCA3E0FDA3E074
:1020F300FEA3E0FF1200A9900013120A1B7F007ECB
:10210300007DF07CC190001BE0F8A3E0F9A3E0FAA6
:10211300A3E0FB1203446002501B7F007E007D2A74
:102123007CC390001BE0F8A3E0F9A3E0FAA3E0FB73
:10213300120344501E90006D120A27000000007F16
:10214300007E007D007C001214BA7F007E007D00BB
:102153007C0022900013E0FCA3E0FDA3E0FEA3E0DB
:10216300FF7B017A0079D7121E41900017120A1BD8
:10217300900017E0FCA3E0FDA3E0FEA3E0FF2290A4
:102183000041E4F0A3E4F0900043E4F0A3E4F09012
:10219300004D120A2742480000900051120A2700FE
:1021A3000000007BFF7A2B7993C003C002C0017B40
:1021B300017A007955A801AC02AD03D001D002D059
:1021C300037E007F1412075C122AD1900051E0FCB9
:1021D300A3E0FDA3E0FEA3E0FFC004C005C006C06A
:1021E30007900051E0FCA3E0FDA3E0FEA3E0FF9015
:1021F300006D120A1BD007D006D005D0041214BA02
:10220300900176E0FEA3E0FFEF64014E70F2121A34
:10221300A3900176E4F0A3E4F080E52290002B1272
:102223000A1B90002FE0F8A3E0F9A3E0FAA3E0FB78
:1022330090002BE0FCA3E0FDA3E0FEA3E0FF12026D
:10224300A7121D3F90002B120A1B90002FE030E7CE
:102253005990002BE0FCA3E0FDA3E0FEA3E0FFEC1C
:10226300C0E0EDC0E0EEC0E0EFC0E0E4FFFEFDFC47
:1022730090002BE0F8A3E0F9A3E0FAA3E0FB12033C
:10228300447BDB600250087A0F7949784080067AF4
:102293000F794978C0D0E0FFD0E0FED0E0FDD0E078
:1022A300FC1200AD90002B120A1B90002BE0FCA344
:1022B300E0FDA3E0FEA3E0FF22420176000042011D
:1022C3007800014400CB000000004400D30000006C
:1022D300004400AE3C23D70A4400CF3A83126F4434
:1022E30000B23D0F5C294400BF3CE560424100BEA3
:1022F300014400BA0000000050008A000000000002
:10230300000000000000000000000050009E3F801D
:10231300000000000000000000003F8000004201B8
:102323006F000042016B000042016D00004A013161
:10233300313233340000000000004A012761646336
:102343000000000000000000900031EFF090003228
:10235300EDF0900033EBF0A3EAF0A3E9F0122B5E6B
:10236300900031E0FFEF25E0FF122875900032E086
:10237300FF122875900037E0FFEFB40103122B2AF8
:10238300122B5E900031E0FFEF25E0FFEF4401FFE9
:10239300122875900036E014FFF0EF60207F0112E1
:1023A3002630900033E0FBA3E0FAA3E0F9EF120735
:1023B300C8900034E475F0011207DA80D67F00126A
:1023C3002630900033E0FBA3E0FAA3E0F9EF120715
:1023D300C8122B2A22787FE4F6D8FD7581210224C6
:1023E3001F022182E493A3F8E493A34003F6800140
:1023F300F208DFF48029E493A3F85407240CC8C33C
:1024030033C4540F4420C8834004F456800146F675
:10241300DFE4800B01020408102040809022BCE41A
:102423007E019360BCA3FF543F30E509541FFEE4D3
:1024330093A360010ECF54C025E060A840B8E49395
:10244300A3FAE493A3F8E493A3C8C582C8CAC583D7
:10245300CAF0A3C8C582C8CAC583CADFE9DEE7805C
:10246300BE7B017A00792B9000367406F09000371A
:10247300E4F07D3B7F6812234B90002BE0FF7E004E
:10248300EF7F00FE90002CE0FD7C00EE4CFEEF4D54
:10249300FF90015FEEF0A3EFF090002DE0FF7E00D0
:1024A300EF7F00FE90002EE0FD7C00EE4CFEEF4D32
:1024B300FF900161EEF0A3EFF090002FE0FF7E00AC
:1024C300EF7F00FE900030E0FD7C00EE4CFEEF4D10
:1024D300FF900163EEF0A3EFF0227B017A00792BEA
:1024E3009000367406F0900037E4F07D437F681265
:1024F300234B90002BE0FF7E00EF7F00FE90002C2B
:10250300E0FD7C00EE4CFEEF4DFF900165EEF0A385
:10251300EFF090002DE0FF7E00EF7F00FE90002E95
:10252300E0FD7C00EE4CFEEF4DFF900167EEF0A363
:10253300EFF090002FE0FF7E00EF7F00FE90003071
:10254300E0FD7C00EE4CFEEF4DFF900169EEF0A341
:10255300EFF022900107120A270000000090010B00
:10256300120A270000000090010F120A27404000C2
:1025730000900113120A2700000000900117120AAD
:10258300270000000090011F120A2700000000909E
:1025930000DF120A27000000009000E3120A270060
:1025A3000000009000E7120A27423400009000EF79
:1025B300120A27000000009000EF120A2700000013
:1025C300009000F7120A270000000022900040EF5D
:1025D300F0900040E0FFEFB42B127B017A017941C8
:1025E30090013EEBF0A3EAF0A3E9F022900040E073
:1025F300FFEFB42A1990013EE0FBA3E0FAA3E0F950
:10260300E41207C8900176E4F0A37401F02290006D
:1026130040E0FF90013EE0FBA3E0FAA3E0F9EF12F4
:1026230007C890013FE475F0011207DA2290006DAC
:10263300EFF090006FE4F0C2B2122A9AD2B3900086
:102643006EE4F090006EE0FFEFC39408502C122A62
:102653009AC2B2122A9AD2B2122A9A90006FE0FF5B
:10266300EF25E0FF90006FEFF030B30690006FE0CE
:1026730004F090006EE004F080C9C2B2122A9A906E
:10268300006DE0FF122A3C90006FE0FF229000698A
:10269300EEF0A3EFF090006BE4F0A3E4F090006998
:1026A300E0FEA3E0FF90006BE0FCA3E0FDC3ED9F21
:1026B300EC9E503090006D741FF090006E7428F003
:1026C30090006EE014FFF0EF70F690006DE014FFE1
:1026D300F0EF70EC90006CE004F0700690006BE09B
:1026E30004F080B922900069EFF090006AEDF09059
:1026F300006BEBF0122B5E900069E0FFEF25E0FF2B
:1027030012287590006AE0FF12287590006BE0FFB5
:10271300EFB40103122B2A122B5E900069E0FFEF46
:1027230025E0FFEF4401FF1228757F001226309049
:10273300006CEFF0122B2A90006CE0FF22900070E7
:10274300EFF0900071E4F0900071E0FFEFC39408A4
:102753005040900071E0FF900070E0FEEEA8070883
:102763008002C333D8FCFFEF30E704D2948002C267
:10277300947F017E00122796D2957F017E00122757
:1027830096C2957F017E00122796900071E004F0B7
:1027930080B522900072EEF0A3EFF0900074E4F0A5
:1027A300A3E4F0900072E0FEA3E0FF900074E0FC6D
:1027B300A3E0FDC3ED9FEC9E5028900076E4F090DB
:1027C3000076E0FFEFC394055008900076E004F034
:1027D30080ED900075E004F07006900074E004F062
:1027E30080C1227F647E001226901229CA7B007D5D
:1027F3006B7F681229227B077D197F681229227B50
:10280300047D1A7F681229227B187D1B7F68122999
:10281300227B107D1C7F681229227B007D6A7F68E2
:102823001229227B027D377F6812292222900070B1
:10283300E4F07F01122A7ED2947F017E0012279654
:10284300D2957F017E0012279630941C900070E091
:1028530004F0900070E0FFEFD394FA40EC122AFFEB
:102863007F00122A7E7F0122C2957F00122A7E7F7B
:10287300002290006DEFF090006E7408F090006EEF
:10288300E0FF14F0EF602990006DE0FFEF30E70404
:10289300D2B38002C2B390006DE0FFEF25E0FF905A
:1028A300006DEFF0122A9AD2B2122A9AC2B280CDE8
:1028B300122A5F2290000FEBF0A3EAF0A3E9F09055
:1028C300000FE0FBA3E0FAA3E0F9120782FFEF6039
:1028D3001990000FE0FBA3E475F0011207F0A9F0D3
:1028E300FA120782FF122B3C80D52290006BEEF088
:1028F300A3EFF090006DECF0A3EDF090006DE0FE1F
:10290300A3E0FFEF4E600C90006BE0FEA3E0FF122C
:1029130029A32290006BE0FEA3E0FF12297C229002
:102923000069EFF090006AEDF090006BEBF0122B72
:102933005E900069E0FFEF25E0FF12287590006AC2
:10294300E0FF12287590006BE0FF122875122B2A06
:1029530022C0E0C083C082E59830E1085398FD901F
:102963000172E4F0E59830E0095398FE900000E529
:1029730099F0D082D083D0E03290006FEFF0122A2A
:10298300E87F781227401228307F00122740122850
:102993003090006FE0FF122740122830122AFF22E6
:1029A30090006FEFF0122AE87F7812274012283048
:1029B3007F4012274012283090006FE0FF1227401B
:1029C300122830122AFF227B007D6B7F6812292296
:1029D3007B077D197F681229227B007D197F68128E
:1029E30026E8EF64076004D2A180EED2A122EFB4FF
:1029F3000A07740D1229FC740A309811A899B813A8
:102A03000CC2983098FDA899C298B811F63099FD78
:102A1300C299F59922C0E0C0F0C083C082C0D075CE
:102A2300D008309809C2AF122B6DD2AFC298D0D064
:102A3300D082D083D0F0D0E032900070EFF0C2B2F9
:102A4300122A9A900070E0FFEF6004C2B38002D2B2
:102A5300B3D2B2122A9AC2B2122A9A22C2B2122A4A
:102A63009AD2B2122A9A30B308C2B2E47E007F002F
:102A730022C2B2122A9A7E007F0122900071EFF0E7
:102A8300900071E0FFEFB401077591407592002249
:102A930075910075920022900071E4F0A37414F014
:102AA30090007174FF75F0FF1207F0AFF0FEEF4E68
:102AB30070EE22439850438900758E40758B8E7556
:102AC3008DFDD28ED2ACD2AF900172E4F022C2AFB0
:102AD300121BF212008E1227E6122AB6122B4E1286
:102AE3002556D2AF22D294D2957F027E001227962A
:102AF300C2947F027E00122796C29522C295C29489
:102B03007F027E00122796D295D2947F027E001216
:102B1300279622EFC394094005EF940E4004EFB4C7
:102B23002003D38001C322C2B3C2B2122A9AD2B203
:102B3300122A9AD2B3122A9A22900012EFF090002E
:102B430012E0FF8F993099FDC29922438900758A5B
:102B530030758CF8D28CD2A9D2AF22D2B3D2B212B2
:102B63002A9AC2B3122A9AC2B22290003FE599F080
:102B730090003FE0FF1225CF22EFC394304007EFD0
:102B8300943A50028001C32253EFFB326164630025
:102B9300616263000000000000000000000000000C
:042BA300000000002E
:00000001FF
