:100000000232B253EFFD3253EFFB32022FA0E4FF76
:10001000FE1206A2600C0FEF70010E09E970F20AE1
:1000200080EF2202375090017BEFF090017DE4F0E9
:10003000C2B21238C7D2B390017CE4F090017CE0E8
:10004000FF7E00C3EF9408EE64809480502C123839
:10005000C7C2B21238C7D2B21238C790017DE0FFD2
:10006000EF25E0FF90017DEFF030B30690017DE0D9
:1000700004F090017CE004F080C2C2B21238C79054
:10008000017BE0FF12388590017DE0FF224389006B
:0E009000758A30758CF8D28CD2A9220200033A
:1000A30002000702048EE86480F8E933E833601144
:1000B3000460F0ED33EC337009E8FCE9FDEAFEEB94
:1000C300FF220460DED3EB9FEA9EE99DE8C2E78C42
:1000D300F0C2F795F0400CE8CCF8E9CDF9EACEFA96
:1000E300EBCFFB12045985D0F05804700320D5B32D
:1000F300E80470075002B2D502049892D5EC04606C
:10010300F7E4CCC0E0C398F8603B94186008400D56
:10011300D0E0FB020470E4FBFAC9FC8028E830E479
:1001230006E4C9FBE4CAFCE830E305E4C9CACBFC36
:10013300E854076010F8C3E913F9EA13FAEB13FB69
:10014300EC13FCD8F130F52FC3E49CFCEF9BFFEEDE
:100153009AFEED99FDD0E0FBEF4E4D4C701222DB81
:1001630003020495EC2CFCEF33FFEE33FEED33FD7D
:10017300ED30E7EB020470EF2BFFEE3AFEED39FDB5
:10018300D0E0FB50130BBB0003020498ED13FDEE0C
:1001930013FEEF13FFEC13FC020470EC4D6011E847
:1001A300497017ED33EC3304600DE4FCFFFEFD22D0
:1001B300E933E8330470F802048E120459580460DA
:1001C30009E4CC24815006285009020498284003EE
:1001D300020495C0E0EB4A7044B98006D0E0FB020C
:1001E3000484EF4E701CBD8008EBFFEAFEE9FD803E
:1001F300EBE98DF0A4FEE5F0020287E9CDF9EAFE12
:10020300EBFFEF89F0A4FCE5F0CE89F0A42EFFE428
:1002130035F0CD89F0A42DFEE435F08067EF4E7004
:1002230005BD80D780C3EF8BF0A4ACF0EE8BF0A4B8
:100233002CFCE435F0F8EF8AF0A42CE5F038FCE46C
:1002430033CB8DF0A42CFCE5F03BF8EE8AF0A42C24
:10025300FCE5F038F8E433CF89F0A42CFCE5F03862
:10026300CF3400CE89F0A42FFFE5F03EFEE433C97E
:100273008DF0A42EFEE5F039CD8AF0A42FFFE5F032
:100283003EFEE43DFD33D0E0FB50070BBB000F0205
:100293000498EC2CFCEF33FFEE33FEED33FD020448
:1002A30070020498EC5D046005E8590470030204CD
:1002B3008E120459580460F6EC4860F2EC7004FDA9
:1002C300FEFF22C860DB2481C85009C39860025036
:1002D300060204959850CAF582E9294B4A7005AB8A
:1002E3008202048475F0007C1A7880C3EF9BEE9A37
:1002F300ED99400DC3EF9BFFEE9AFEED99FDE842A9
:10030300F0DC23ACF0D0E0FFD0E0FED0E0FDAB8228
:1003130020E7101BEB60BAEC2CFCEF33FFEE33FE4F
:10032300ED33FD020470E803F830E705C0F075F023
:1003330000EF2FFFEE33FEED33FD40B830E7C28010
:10034300AA74F8CC6480CCC86480C8F58204604F7A
:10035300C3EB9FF5F0EA9E42F0E99D42F0E89C452D
:10036300F0603C501DE5825FFFE582D313CB5BCB8E
:10037300F42B5582FB50280ABA002409B90020083F
:10038300801DE5825BFBE582D313CF5FCFF4C313FC
:100393002F5582FF50090EBE00050DBD00010CC391
:1003A300EB9FF5F0EA9E42F0E99D42F0E89C45F0B0
:1003B3006007CC4820E701B3EC22ED33EC33600A4D
:1003C300047003BD8004ECB2E7FC2275F020800EBC
:1003D30075F010800575F0087D007E007F00339274
:1003E300D530D503120879EC334010EF33FFEE33E9
:1003F300FEED33FDEC33FCD5F0ED22E5F0247EA2D7
:10040300D513CC92E7CDCEFF22EDD2E7CD33EC333B
:1004130092D524814006E4FFFEFDFC22FCE4CFCE0E
:10042300CDCC24E0501174FF80EDC3CC13CCCD139D
:10043300CDCE13CECF13CF0470F030D5DE020879C2
:100443007D80E4FEFFC082C083120925D083D08261
:100453001200AD020991E9D2E7C933E833F892D526
:10046300EDD2E7CD33EC33FC5002B2D522EC30E7CA
:10047300100FBF000C0EBE00080DBD00040BEB6097
:1004830014A2D5EB13FCED92E7FD2274FFFCFDFEF5
:10049300FF22E480F8A2D574FF13FC7D80E480EF93
:1004A300F920E73624F950037907E4F42402FBE545
:1004B30082158270021583DBF6E024FB501BE96092
:1004C30014E4F0E582158270021583E004F0B40AA7
:1004D30008E4F0D9EE7401F00A22C2D522ED33EC20
:1004E3003392D5FA602AB4FF33EDC2E77BFF60068F
:1004F3007A057905E4227A05790E20D5047A0579FF
:1005030009224E614E002B494E46002D494E4600AE
:10051300E47A08F0A3DAFC7B00740722C083C0826C
:10052300ECC0E0EDC0E0EEC0E0EFC0E0EA75F01033
:10053300A4CAABF075F04DA42BFBE435F0FCEA2420
:1005430010FAEB34C5FBEC34D9FCEDC2E7FF75F0D0
:1005530056A4F42411C5F0F434C58FF0A42AE5F0B1
:100563003BE43CF020E714120615D0E0FFD0E0FE98
:10057300D0E0FDD0E0FC1202A78014F404120615AB
:10058300D0E0FFD0E0FED0E0FDD0E0FC12019ED031
:1005930082D083E0FAEDD2E7CD33EC332482FBE45F
:1005A300C3CF33CFCE33CECD33CD33DBF37B077520
:1005B300F00A846004F0A31B0AE5F0F0A38FF07443
:1005C3000AA4FFACF08EF0740AA42CFEACF0500128
:1005D3000C8DF0740AA42CFDE435F0F0A3DBDE747B
:1005E30007223F8000004120000042C80000447AF7
:1005F3000000461C400047C35000497424004B18B8
:1006030096804CBEBC205A0E1BCA6753C21C749DF5
:10061300C5AEFB60065407601C2323120643EB544C
:1006230038600912062F12063E12019EECF8EDF90E
:10063300EEFAEFCB22EB12063E80F1543803241C72
:100643009005E5FE93FC0EEE93FD0EEE930ECE9316
:10065300FF22C0E0EFFBEEFAEDF9ECF812019ED0B9
:10066300E0F5F0EFFBEEFAEDF9ECF8120915A3A3B0
:10067300A3A3E8C0E0E9C0E0EAC0E0EBC0E0C0F05B
:1006830012019E120931A3A3A3A31200ADD0F0D08F
:10069300E0FBD0E0FAD0E0F9D0E0F8D5F0D422BB0B
:1006A300010689828A83E0225002E722BBFE02E32D
:1006B3002289828A83E49322BB010CE58229F58295
:1006C300E5833AF583E0225006E92582F8E622BB6A
:1006D300FE06E92582F8E222E58229F582E5833ADE
:1006E300F583E49322BB010689828A83F0225002B8
:1006F300F722BBFE01F322C2D5EC30E709B2D5E401
:10070300C39DFDE49CFCEE30E715B2D5E4C39FFF27
:10071300E49EFE120A26C3E49DFDE49CFC800312C2
:100723000A2630D507C3E49FFFE49EFE22C5F0F8F6
:10073300A3E028F0C5F0F8E582158270021583E086
:1007430038F022A3F8E0C5F025F0F0E582158270B9
:10075300021583E0C838F0E822E88FF0A4CC8BF0D0
:10076300A42CFCE98EF0A42CFC8AF0EDA42CFCEA6A
:100773008EF0A4CDA8F08BF0A42DCC3825F0FDE9A4
:100783008FF0A42CCD35F0FCEB8EF0A4FEA9F0EB9A
:100793008FF0A4CFC5F02ECD39FEE43CFCEAA42DA6
:1007A300CE35F0FDE43CFC2275F008758200EF2F96
:1007B300FFEE33FECD33CDCC33CCC58233C5829B24
:1007C300ED9AEC99E58298400CF582EE9BFEED9A4A
:1007D300FDEC99FC0FD5F0D6E4CEFBE4CDFAE4CCE6
:1007E300F9A88222B800C1B90059BA002DEC8BF0E8
:1007F30084CFCECDFCE5F0CBF97818EF2FFFEE33A5
:10080300FEED33FDEC33FCEB33FB10D703994004CF
:10081300EB99FB0FD8E5E4F9FA227818EF2FFFEEF6
:1008230033FEED33FDEC33FCC933C910D7059BE927
:100833009A4007EC9BFCE99AF90FD8E0E4C9FAE483
:10084300CCFB2275F010EF2FFFEE33FEED33FDCC22
:1008530033CCC833C810D7079BEC9AE899400AED0C
:100863009BFDEC9AFCE899F80FD5F0DAE4CDFBE4B4
:10087300CCFAE4C8F922C3E49FFFE49EFEE49DFDA5
:10088300E49CFC22BB010789828A83020A87500504
:10089300E9F8020A7BBBFE05E9F8020A9389828A1A
:1008A30083020915BB010DE58229F582E5833AF53B
:1008B30083020A875007E92582F8020A7BBBFE07F9
:1008C300E92582F8020A93E58229F582E5833AF560
:1008D30083020915BB010789828A830209915005A6
:1008E300E9F8020AB9BBFE05E9F8020AC522BB0111
:1008F3000DE58229F582E5833AF5830209915007D4
:10090300E92582F8020AB9BBFE07E92582F8020A43
:10091300C522E493FC740193FD740293FE74039364
:10092300FF22E0F8A3E0F9A3E0FAA3E0FB22E493BB
:10093300F8740193F9740293FA740393FB22BB01D5
:100943000789828A830209255005E9F8020A9FBBB9
:10095300FE05E9F8020AAC89828A83020931BB01E8
:100963000DE58229F582E5833AF5830209255007CF
:10097300E92582F8020A9FBBFE07E92582F8020AED
:10098300ACE58229F582E5833AF583020931ECF07F
:10099300A3EDF0A3EEF0A3EFF022A8828583F0D0BD
:1009A30083D0821209B41209B41209B41209B4E44F
:1009B30073E493A3C583C5F0C583C8C582C8F0A3F8
:1009C300C583C5F0C583C8C582C822F8E0FBA3A3CD
:1009D300E0F925F0F0E582158270021583E0FA381C
:1009E300F022EBF0A3EAF0A3E9F022D083D082F85F
:1009F300E4937012740193700DA3A393F87401939D
:100A0300F5828883E4737402936860EFA3A3A380E1
:100A1300DFEF8DF0A4A8F0CF8CF0A428CE8DF0A446
:100A23002EFE22BC000BBE0029EF8DF084FFADF03B
:100A330022E4CCF875F008EF2FFFEE33FEEC33FC25
:100A4300EE9DEC984005FCEE9DFE0FD5F0E9E4CE5B
:100A5300FD22EDF8F5F0EE8420D21CFEADF075F02A
:100A630008EF2FFFED33FD4007985006D5F0F22233
:100A7300C398FD0FD5F0EA22E6FC08E6FD08E6FE82
:100A830008E6FF22E0FCA3E0FDA3E0FEA3E0FF22D3
:100A9300E2FC08E2FD08E2FE08E2FF22E6FB08E6CC
:100AA300F908E6FA08E6CBF822E2FB08E2F908E2E5
:100AB300FA08E2CBF822ECF608EDF608EEF608EFBA
:100AC300F622ECF208EDF208EEF208EFF2229001C2
:100AD30042E4F0900142E0FF74792FF582E434029E
:100AE300F583E0FFEF6029900142E0FF74792FF571
:100AF30082E43402F583E0FFEFB43A0C900142E064
:100B0300FF900143EFF08008900142E004F080C3BE
:100B1300900144E4F0900143E0FF900144E0FEEED5
:100B2300C39F502A900144E0FF74792FF582E43487
:100B330002F583E0FF900144E0FE745F2EF582E44A
:100B43003402F583EFF0900144E004F080C7900194
:100B530044E0FF745F2FF582E43402F583E4F09000
:100B63000143E0FFEF04FF900142EFF07B017A02C3
:100B7300797912000E900142E0FD7C00D3ED9FECE9
:100B83009E503E900142E0FF74792FF582E43402D7
:100B9300F583E0FF900143E0FEEEFD7C009001420F
:100BA300E0FEEEFB7A00C3EB9DFDEA9CFC748E2D08
:100BB300F58274023CF583EFF0900142E004F0808B
:100BC300AB900143E0FF7E00900142E0FD7C00C357
:100BD300ED9FFFEC9EFE748E2FF58274023EF5832B
:100BE300E4F07B017A02795FC003C002C0017BFF9E
:100BF3007A39796990015CEBF0A3EAF0A3E9F0D0CC
:100C030001D002D0031224D3EF3395E0FEEF4E70F0
:100C1300537B017A02798F1236C512040C90028D30
:100C2300EEF0A3EFF07B017A017945C003C002C067
:100C3300017BFF7A39796F90015CEBF0A3EAF0A3B3
:100C4300E9F090028DE0FEA3E0FF90015FEEF0A3D8
:100C5300EFF0D001D002D0031218AB7B017A0179F7
:100C6300451237CB7B017A02795FC003C002C00112
:100C73007BFF7A39797A90015CEBF0A3EAF0A3E980
:100C8300F0D001D002D0031224D3EF3395E0FEEF6E
:100C93004E70507B017A02798F122D459001D1EE6F
:100CA300F0A3EFF07B017A017945C003C002C001D4
:100CB3007BFF7A39798090015CEBF0A3EAF0A3E93A
:100CC300F09001D1E0FEA3E0FF90015FEEF0A3EF0F
:100CD300F0D001D002D0031218AB7B017A01794521
:100CE3001237CB7B017A02795FC003C002C0017B5C
:100CF300FF7A39798990015CEBF0A3EAF0A3E9F07C
:100D0300D001D002D0031224D3EF3395E0FEEF4E8F
:100D130070537B017A02798F1236C512040C90014D
:100D2300E4EEF0A3EFF07B017A017945C003C00242
:100D3300C0017BFF7A39798090015CEBF0A3EAF084
:100D4300A3E9F09001E4E0FEA3E0FF90015FEEF081
:100D5300A3EFF0D001D002D0031218AB7B017A01CC
:100D630079451237CB7B017A02795FC003C002C099
:100D7300017BFF7A39799390015CEBF0A3EAF0A34E
:100D8300E9F0D001D002D0031224D3EF3395E0FE73
:100D9300EF4E70537B017A02798F1236C512040C21
:100DA3009001DEEEF0A3EFF07B017A017945C003F9
:100DB300C002C0017BFF7A39798090015CEBF0A31C
:100DC300EAF0A3E9F09001DEE0FEA3E0FF90015F0B
:100DD300EEF0A3EFF0D001D002D0031218AB7B01E9
:100DE3007A0179451237CB7B017A02795FC003C060
:100DF30002C0017BFF7A39799E90015CEBF0A3EA94
:100E0300F0A3E9F0D001D002D0031224D3EF33953D
:100E1300E0FEEF4E70527B017A02798F1236C59055
:100E230000141209917B017A017945C003C002C005
:100E3300017BFF7A39796F90015CEBF0A3EAF0A3B1
:100E4300E9F0900014E0FCA3E0FDA3E0FEA3E0FFC3
:100E530090015F120991D001D002D0031218AB7B2D
:100E6300017A0179451237CB7B017A02795FC0039E
:100E7300C002C0017BFF7A3979A790015CEBF0A334
:100E8300EAF0A3E9F0D001D002D0031224D3EF3368
:100E930095E0FEEF4E70527B017A02798F1236C5D0
:100EA3009001C91209917B017A017945C003C002FF
:100EB300C0017BFF7A39796F90015CEBF0A3EAF014
:100EC300A3E9F09001C9E0FCA3E0FDA3E0FEA3E0E9
:100ED300FF90015F120991D001D002D0031218AB29
:100EE3007B017A0179451237CB7B017A02795FC0A6
:100EF30003C002C0017BFF7A3979B090015CEBF04B
:100F0300A3EAF0A3E9F0D001D002D0031224D3EF77
:100F13003395E0FEEF4E70527B017A02798F1236E1
:100F2300C59000181209917B017A017945C003C06D
:100F330002C0017BFF7A39796F90015CEBF0A3EA81
:100F4300F0A3E9F0900018E0FCA3E0FDA3E0FEA30A
:100F5300E0FF90015F120991D001D002D003121873
:100F6300AB7B017A0179451237CB7B017A02795F3A
:100F7300C003C002C0017BFF7A3979B990015CEBF1
:100F8300F0A3EAF0A3E9F0D001D002D0031224D3F6
:100F9300EF3395E0FEEF4E70527B017A02798F12A8
:100FA30036C590001C1209917B017A017945C00373
:100FB300C002C0017BFF7A39796F90015CEBF0A32B
:100FC300EAF0A3E9F090001CE0FCA3E0FDA3E0FE3F
:100FD300A3E0FF90015F120991D001D002D0031268
:100FE30018AB7B017A0179451237CB7B017A027901
:100FF3005FC003C002C0017BFF7A3979C290015CF4
:10100300EBF0A3EAF0A3E9F0D001D002D00312245D
:10101300D3EF3395E0FEEF4E70527B017A02798F66
:101023001236C59000941209917B017A017945C06B
:1010330003C002C0017BFF7A39796F90015CEBF04A
:10104300A3EAF0A3E9F0900094E0FCA3E0FDA3E0A1
:10105300FEA3E0FF90015F120991D001D002D003FB
:101063001218AB7B017A0179451237CB7B017A02E7
:10107300795FC003C002C0017BFF7A3979CB90014D
:101083005CEBF0A3EAF0A3E9F0D001D002D00312A5
:1010930024D3EF3395E0FEEF4E70527B017A027951
:1010A3008F1236C59000981209917B017A01794518
:1010B300C003C002C0017BFF7A39796F90015CEBFA
:1010C300F0A3EAF0A3E9F0900098E0FCA3E0FDA30D
:1010D300E0FEA3E0FF90015F120991D001D002D09E
:1010E300031218AB7B017A0179451237CB7B017A66
:1010F30002795FC003C002C0017BFF7A3979D490C3
:10110300015CEBF0A3EAF0A3E9F0D001D002D00335
:101113001224D3EF3395E0FEEF4E705A7B017A022F
:10112300798F122D45AC06AD07EC1203D390003036
:101133001209917B017A017945C003C002C0017B8A
:10114300FF7A39796F90015CEBF0A3EAF0A3E9F041
:10115300900030E0FCA3E0FDA3E0FEA3E0FF9001DC
:101163005F120991D001D002D0031218AB7B017A30
:101173000179451237CB7B017A02795FC003C00244
:10118300C0017BFF7A3979D990015CEBF0A3EAF0D7
:10119300A3E9F0D001D002D0031224D3EF3395E0BA
:1011A300FEEF4E705A7B017A02798F122D45AC0601
:1011B300AD07EC1203D39000341209917B017A013D
:1011C3007945C003C002C0017BFF7A39796F900172
:1011D3005CEBF0A3EAF0A3E9F0900034E0FCA3E0B9
:1011E300FDA3E0FEA3E0FF90015F120991D001D0BF
:1011F30002D0031218AB7B017A0179451237CB7BFE
:10120300017A02795FC003C002C0017BFF7A39799A
:10121300E190015CEBF0A3EAF0A3E9F0D001D00286
:10122300D0031224D3EF3395E0FEEF4E705A7B01C7
:101233007A02798F122D45AC06AD07EC1203D390D9
:1012430000401209917B017A017945C003C002C0B5
:10125300017BFF7A39796F90015CEBF0A3EAF0A38D
:10126300E9F0900040E0FCA3E0FDA3E0FEA3E0FF73
:1012730090015F120991D001D002D0031218AB7B09
:10128300017A0179451237CB7B017A02795FC0037A
:10129300C002C0017BFF7A3979E990015CEBF0A3CE
:1012A300EAF0A3E9F0D001D002D0031224D3EF3344
:1012B30095E0FEEF4E705A7B017A02798F122D452D
:1012C300AC06AD07EC1203D39000441209917B01E5
:1012D3007A017945C003C002C0017BFF7A39796F77
:1012E30090015CEBF0A3EAF0A3E9F0900044E0FC8A
:1012F300A3E0FDA3E0FEA3E0FF90015F120991D0FC
:1013030001D002D0031218AB7B017A017945123761
:10131300CB2290016E120991900245E0FCA3E0FDFF
:10132300A3E0FEA3E0FFC004C005C006C00790020F
:1013330034E0F8A3E0F9A3E0FAA3E0FB900172E044
:10134300FCA3E0FDA3E0FEA3E0FF1200A990023995
:10135300E0F8A3E0F9A3E0FAA3E0FB12019EA804DE
:10136300A905AA06AB07D007D006D005D004120002
:10137300AD90024512099190021CE0F8A3E0F9A395
:10138300E0FAA3E0FB900228E0FCA3E0FDA3E0FE6B
:10139300A3E0FF1200A9900220E0F8A3E0F9A3E084
:1013A300FAA3E0FB1200A99002041209919002240F
:1013B300E0FCA3E0FDA3E0FEA3E0FF1203BD900267
:1013C30008120991900224E0FCA3E0FDA3E0FEA330
:1013D300E0FF1203BD90020C120991900249E0FC58
:1013E300A3E0FDA3E0FEA3E0FF9002101209919099
:1013F3000218E0FCA3E0FDA3E0FEA3E0FFC004C0ED
:1014030005C006C007900239E0FCA3E0FDA3E0FE9F
:10141300A3E0FF900204E0F8A3E0F9A3E0FAA3E05D
:10142300FB12019EA804A905AA06AB07D007D006A4
:10143300D005D0041200AD90021812099190021C3D
:10144300E0FCA3E0FDA3E0FEA3E0FFC004C005C0F1
:1014530006C007900239E0FCA3E0FDA3E0FEA3E091
:10146300FF900208E0F8A3E0F9A3E0FAA3E0FB127F
:10147300019EA804A905AA06AB07D007D006D0058C
:10148300D0041200AD90021C120991900220E0FCDE
:10149300A3E0FDA3E0FEA3E0FFC004C005C006C0B7
:1014A30007900239E0FCA3E0FDA3E0FEA3E0FF9078
:1014B300020CE0F8A3E0F9A3E0FAA3E0FB12019E1B
:1014C300A804A905AA06AB07D007D006D005D00407
:1014D3001200AD900220120991900224E0FCA3E0D7
:1014E300FDA3E0FEA3E0FFC004C005C006C0079053
:1014F3000239E0FCA3E0FDA3E0FEA3E0FF900210AD
:10150300E0F8A3E0F9A3E0FAA3E0FB12019EA8042C
:10151300A905AA06AB07D007D006D005D004120050
:10152300AD900224120991900245E0F8A3E0F9A3DB
:10153300E0FAA3E0FB90016EE0FCA3E0FDA3E0FE74
:10154300A3E0FF1200A99001FC120991900238E078
:10155300FCEC1203D8900218E0F8A3E0F9A3E0FA38
:10156300A3E0FB12019E900200120991900238E061
:10157300FCEC1203D8900220E0F8A3E0F9A3E0FA10
:10158300A3E0FB12019E900214120991900238E02D
:10159300FCEC1203D8900200E0F8A3E0F9A3E0FA10
:1015A300A3E0FB12019E90022CE0F8A3E0F9A3E074
:1015B300FAA3E0FB1200AD900230120991900230C1
:1015C300E0F8A3E0F9A3E0FAA3E0FB900200E0FC5B
:1015D300A3E0FDA3E0FEA3E0FF1202A790023D12E9
:1015E3000991900230E0F8A3E0F9A3E0FAA3E0FB4D
:1015F300900214E0FCA3E0FDA3E0FEA3E0FF1202CF
:10160300A7900241120991900200E0FCA3E0FDA320
:10161300E0FEA3E0FF9001F4120991900238E0FC90
:10162300EC1203D890021CE0F8A3E0F9A3E0FAA3BC
:10163300E0FB12019E9001F8120991900218E0FC60
:10164300A3E0FDA3E0FEA3E0FFC004C005C006C005
:10165300079001F4E0FCA3E0FDA3E0FEA3E0FF900C
:10166300023DE0F8A3E0F9A3E0FAA3E0FB12019E38
:10167300A804A905AA06AB07D007D006D005D00455
:101683001200A990021812099190021CE0FCA3E039
:10169300FDA3E0FEA3E0FFC004C005C006C00790A1
:1016A30001F8E0FCA3E0FDA3E0FEA3E0FF90023D10
:1016B300E0F8A3E0F9A3E0FAA3E0FB12019EA8047B
:1016C300A905AA06AB07D007D006D005D00412009F
:1016D300A990021C120991900220E0FCA3E0FDA353
:1016E300E0FEA3E0FFC004C005C006C0079001F4FC
:1016F300E0FCA3E0FDA3E0FEA3E0FF900241E0F8DD
:10170300A3E0F9A3E0FAA3E0FB12019EA804A90554
:10171300AA06AB07D007D006D005D0041200A990C3
:101723000220120991900224E0FCA3E0FDA3E0FE55
:10173300A3E0FFC004C005C006C0079001F8E0FCA9
:10174300A3E0FDA3E0FEA3E0FF900241E0F8A3E0E5
:10175300F9A3E0FAA3E0FB12019EA804A905AA06D7
:10176300AB07D007D006D005D0041200A9900224FD
:10177300120991900245E0FCA3E0FDA3E0FEA3E083
:10178300FFC004C005C006C0079001FCE0FCA3E055
:10179300FDA3E0FEA3E0FF90023DE0F8A3E0F9A380
:1017A300E0FAA3E0FB12019EA804A905AA06AB0771
:1017B300D007D006D005D0041200AD90024512091F
:1017C30091900234E0FCA3E0FDA3E0FEA3E0FFC0A0
:1017D30004C005C006C0079001FCE0FCA3E0FDA324
:1017E300E0FEA3E0FF900241E0F8A3E0F9A3E0FAF2
:1017F300A3E0FB12019EA804A905AA06AB07D00724
:10180300D006D005D0041200AD9002341209919095
:101813000234E0F8A3E0F9A3E0FAA3E0FB9001723D
:10182300E0FCA3E0FDA3E0FEA3E0FF1200A9900209
:1018330051120991900245E0FCA3E0FDA3E0FEA351
:10184300E0FF22E508245CF582E43401F583E0053A
:10185300082290015930070390015CE475F00112EE
:1018630009CE0206A22000E97F2ED2008018EF5491
:101873000F2490D43440D4FF30040BEF24BFB41AA8
:101883000050032461FFE50960021509050CE50C0E
:101893007002050B30070E900159E475F00112092F
:1018A300CEEF0206E802385E7403D2078003E4C277
:1018B30007F5089001591209E5E4F509F50BF50C54
:1018C300E50960077F2012188980F5750AFFC201B8
:1018D300C200C202C203C205C206C208121855FFE3
:1018E300700D3007057F0012189AAF0CAE0B22B4AF
:1018F300255FC2D5C204121855FF24D0B40A005084
:101903001A75F00A780930D50508B6FF0106C6A492
:1019130026F620D5047002D20380D924CFB41A004E
:10192300EF5004C2E5D204021B8CD20180C6D20060
:1019330080C0D20280BCD2D580BAD20580B47F20C9
:101943001218892002077401B5090040F1121846E4
:10195300FF1218890218C3D208D2068095121846BE
:10196300FB121846FA121846F94A4B7006798A7A1E
:101973001C7BFF20022EE509602A7E008E82758380
:10198300001206BB60060EEE650A70F0C2D5EBC00E
:10199300E0EAC0E0E9C0E0EE121BEDD0E0F9D0E0F0
:1019A300FAD0E0FB1206A2FF60AAEBC0E0EAC0E0B7
:1019B300E9C0E0121889D0E02401F9D0E03400FA3C
:1019C300D0E0FBE50A0460DCD50AD98087D2028027
:1019D300A2121BCF60F7E50A7001041204A3A90A3F
:1019E300600DE50A600914F50A121C77EF60F3EA4B
:1019F30030E702F404C3995079EAF4250A0430E786
:101A030001E404F50A800D121BCF60C1EA050A2523
:101A13000A1204A3EA900188F030E701E4250A04DE
:101A2300D50A0420050114121BEDE4C0E0121C7753
:101A3300900188E0601320E70714F01218718022E8
:101A430004F0D0E014C0E07F00121871E50A6007CB
:101A5300121868150A800B300503121868D0E002CB
:101A630018C3D0E00480C4121BCF609EE50A0412A1
:101A730004A3900188EAF0E50A200502600104242A
:101A830004121BED74FF04C0E0121C77121871E5F9
:101A93000A2005026003121868D0E0B50AE87F4502
:101AA30012187B900188E07F2B30E7047F2DF4042C
:101AB300C0E0121889D0E075F00A84C0F0121872E1
:101AC300D0E01218720218C3791080027908C20696
:101AD300C2088008D2D5790A8004790AC2D5E50AFA
:101AE300047002F50AE4FAFDFEFF121846FC7B08B7
:101AF300200113121846FD7B1030000A121846FE0F
:101B0300121846FF7B20EC3382D592D55013C3E4E1
:101B13003000069FFFE49EFEE42001039DFDE49C4C
:101B2300FCE4CBF8C201EC700CCFCECDCCE824F8AA
:101B3300F870F38017C3EF33FFEE33FEED33FDECA4
:101B430033FCEB33FB994002FB0FD8E9EB30010583
:101B5300F8D0E0C448B201C0E00AEC4D4E4F782003
:101B63007B0070C2EAB50A0040BCC0E0121BEFD094
:101B7300F0D0E0200104C4C0E0C4B201C0F01218E8
:101B830072D0F0D5F0EB0218C31209EE1960531AA4
:101B9300CB5819314C192D421ACF4F1AD7441AD7A3
:101BA300491946431ADD551A0A461A6A4519D44794
:101BB3001CAA5019352D19392E195C2B193D2319DF
:101BC3005A201C932A18F54800001954E50AB4FF5B
:101BD30003750A06121846FC121846FD121846FE33
:101BE300121846FF9001810204E0790AA2D520036E
:101BF30014300509B910020404B9080104A2D52060
:101C030006025001042002689202B509005034C054
:101C1300E07F203003197F30A20272067205500F55
:101C2300121C46C202C206C205C2087F30800F30B2
:101C33000503E9C0E0121889300503D0E0F9D0E0CC
:101C4300B509CC3005177F30B9100C1218897F58AD
:101C53003004077F788003B908031218893002051E
:101C63007F2D0218897F202008F87F2B2006F3227E
:101C7300920280CF7F00B40700500B2481F582E4E9
:101C83003401F583E0FF22286E756C6C2900D201C4
:101C93001218463001F8C201780930D50108F6025E
:101CA30018F52D504349581218462403B405004033
:101CB30001E4901CA59312187A743A12187AD2038D
:101CC300750904021ACB900160E4F0A3E4F09001DB
:101CD3006212099D00000000122E209001B9120922
:101CE300917D007F0812333E90029DEEF0A3EFF04A
:101CF3007D007F0912333E90029FEEF0A3EFF07D4B
:101D0300007F0A12333E9002A1EEF0A3EFF07D00B4
:101D13007F0B12333E9002A3EEF0A3EFF07D007F22
:101D23000012333E9002A5EEF0A3EFF09002A5E07F
:101D3300FEA3E0FF90029DE0FCA3E0FDC3ED9FFD49
:101D4300EC9EFCEC1203D3C004C005C006C0079090
:101D530002A1E0FEA3E0FF90029DE0FCA3E0FDED05
:101D63002FFFEC3EFE9002A5E0FCA3E0FDEF2DFD6E
:101D7300EE3CFCEC1203D3A804A905AA06AB07D0DA
:101D830007D006D005D0041202A77B007A0079C8D9
:101D9300784212019E9002A91209911232269001F3
:101DA300B9E0FCA3E0FDA3E0FEA3E0FFC004C0058F
:101DB300C006C0079002BDE0FCA3E0FDEC1203D314
:101DC30090016A1209917B017A00790090016EEB10
:101DD300F0A3EAF0A3E9F0D007D006D005D00412AF
:101DE3002B659001CDEEF0A3EFF07F007E007DA088
:101DF3007C419002A9E0F8A3E0F9A3E0FAA3E0FB99
:101E03001203446002501B7F007E007DA07CC190C2
:101E130002A9E0F8A3E0F9A3E0FAA3E0FB1203446C
:101E230050649002BFE0FCA3E0FDEC1203D39000EA
:101E330034E0F8A3E0F9A3E0FAA3E0FB12019EC0AB
:101E430004C005C006C007900030E0FCA3E0FDA37A
:101E5300E0FEA3E0FF9002A9E0F8A3E0F9A3E0FA13
:101E6300A3E0FB12019EA804A905AA06AB07D007AD
:101E7300D006D005D0041200AD12040C9001CFEEB1
:101E8300F0A3EFF080629002BFE0FCA3E0FDEC1250
:101E930003D3900044E0F8A3E0F9A3E0FAA3E0FB46
:101EA30012019EC004C005C006C007900040E0FCBC
:101EB300A3E0FDA3E0FEA3E0FF9002A9E0F8A3E006
:101EC300F9A3E0FAA3E0FB12019EA804A905AA0660
:101ED300AB07D007D006D005D0041200AD12040C16
:101EE3009001CFEEF0A3EFF07F007E007DA07CC1D8
:101EF3009002A9E0F8A3E0F9A3E0FAA3E0FB120340
:101F030044401D7F007E007DA07C419002A9E0F843
:101F1300A3E0F9A3E0FAA3E0FB12034460384036E0
:101F230090018BE4F0A3E4F090018AE004F07006E2
:101F3300900189E004F0900189E0FEA3E0FFEF64E3
:101F43000A4E70129001D17407F0A37408F0900147
:101F530089E4F0A3E4F07F007E007DA07CC19002C1
:101F6300A9E0F8A3E0F9A3E0FAA3E0FB12034460BD
:101F730002501B7F007E007DA07C419002A9E0F807
:101F8300A3E0F9A3E0FAA3E0FB120344502E90016F
:101F93008BE0FEA3E0FFEF64144E70129001D17446
:101FA30006F0A37440F090018BE4F0A3E4F09001F9
:101FB3008CE004F0700690018BE004F09001CFE018
:101FC300FEA3E0FFC3EF943EEE6480947E500A903C
:101FD30001CF74FEF0A3743EF09001CFE0FEA3E0C6
:101FE300FFD3EF94C2EE64809481400A9001CF74D2
:101FF30001F0A374C2F09001CFE0FEA3E0FF9001D3
:10200300CDE0FCA3E0FDC3ED9FFFEC9EFE9001D667
:10201300EEF0A3EFF09001CFE0FEA3E0FF9001CD3F
:10202300E0FCA3E0FDED2FFFEC3EFE9001D8EEF0C7
:10203300A3EFF0229001421209917F007E807DBBC5
:102043007C44900146E0F8A3E0F9A3E0FAA3E0FBA7
:10205300120344400C90014612099D44BB8000804A
:10206300277F007E807DBB7CC4900146E0F8A3E01F
:10207300F9A3E0FAA3E0FB1203446002500A9001C3
:102083004612099DC4BB80007F007E807DBB7C44DB
:10209300900142E0F8A3E0F9A3E0FAA3E0FB120306
:1020A30044400C90014212099D44BB800080277F6D
:1020B300007E807DBB7CC4900142E0F8A3E0F9A3DD
:1020C300E0FAA3E0FB1203446002500A90014212BB
:1020D300099DC4BB800075BA8090FFF2E4F090FFC5
:1020E300F07406F0A3E4F07F007E007D007C009096
:1020F3000146E0F8A3E0F9A3E0FAA3E0FB120344EE
:102103005072900146E0FCA3E0FDA3E0FEA3E0FFD4
:102113001203BD9001461209917B007A40799C78A5
:1021230045900146E0FCA3E0FDA3E0FEA3E0FF121F
:1021330002A7C004C005C006C00790FFF0E0FCA3DF
:10214300E0FDE41203D3A804A905AA06AB07D00750
:10215300D006D005D00412019E12040C90FF20EE8D
:10216300F0A3EFF090FF247480F090FF34E4F0C20A
:10217300A30221FA7F007E007D007C00900146E0EF
:10218300F8A3E0F9A3E0FAA3E0FB12034470109074
:10219300FF24E4F090FF34E4F0C2A2C2A380587B92
:1021A300007A40799C7845900146E0FCA3E0FDA3CA
:1021B300E0FEA3E0FF1202A7C004C005C006C007EB
:1021C30090FFF0E0FCA3E0FDE41203D3A804A9050B
:1021D300AA06AB07D007D006D005D00412019E1281
:1021E300040C90FF30EEF0A3EFF090FF24E4F0C274
:1021F300A290FF347480F07F007E007D007C00900D
:102203000142E0F8A3E0F9A3E0FAA3E0FB120344E0
:102213005072900142E0FCA3E0FDA3E0FEA3E0FFC7
:102223001203BD9001421209917B007A40799C7898
:1022330045900142E0FCA3E0FDA3E0FEA3E0FF1212
:1022430002A7C004C005C006C00790FFF0E0FCA3CE
:10225300E0FDE41203D3A804A905AA06AB07D0073F
:10226300D006D005D00412019E12040C90FF50EE4C
:10227300F0A3EFF090FF44E4F0C2A490FF54748005
:10228300F002230A7F007E007D007C00900142E083
:10229300F8A3E0F9A3E0FAA3E0FB12034470109063
:1022A300FF44E4F090FF54E4F0C2A4C2A580587B3D
:1022B300007A40799C7845900142E0FCA3E0FDA3BD
:1022C300E0FEA3E0FF1202A7C004C005C006C007DA
:1022D30090FFF0E0FCA3E0FDE41203D3A804A905FA
:1022E300AA06AB07D007D006D005D00412019E1270
:1022F300040C90FF40EEF0A3EFF090FF54E4F0C223
:10230300A590FF447480F075BA0075FE8022900199
:102313005CEEF0A3EFF090015EECF0A3EDF0900122
:1023230060EBF0A3EAF0A3E9F090015EE0FEA3E026
:10233300FF90015CE0FCA3E0FDED2FFFEC3EFE907F
:102343000163E0FCA3E0FDC3EF9DFDEE9CFCEC12FA
:1023530003D3900191120991900195E0FCA3E0FD54
:10236300A3E0FEA3E0FF7B007A007940783F1201EF
:102373009E900195120991900195E0FCA3E0FDA3C5
:10238300E0FEA3E0FFC004C005C006C0077F007ED7
:10239300007D807C3E900191E0F8A3E0F9A3E0FA90
:1023A300A3E0FB12019EA804A905AA06AB07D00768
:1023B300D006D005D0041200AD900195120991907A
:1023C30001A1E0FCA3E0FDA3E0FEA3E0FF900195E3
:1023D300E0F8A3E0F9A3E0FAA3E0FB1200AD90015B
:1023E300A11209917F007E807D3B7C469001A1E094
:1023F300F8A3E0F9A3E0FAA3E0FB120344600C4066
:102403000A9001A112099D463B80007F007E807DDA
:102413003B7CC69001A1E0F8A3E0F9A3E0FAA3E0B6
:10242300FB120344500A9001A112099DC63B800090
:10243300900160E0FBA3E0FAA3E0F97582187583CD
:10244300001208A79001A1E0F8A3E0F9A3E0FAA322
:10245300E0FB12019EC004C005C006C007900160E6
:10246300E0FBA3E0FAA3E0F9758214758300120878
:10247300A7900195E0F8A3E0F9A3E0FAA3E0FB122B
:10248300019EA804A905AA06AB07D007D006D0056C
:10249300D0041200AD90018D1209919001B9E0FCB6
:1024A300A3E0FDA3E0FEA3E0FF12362A7E00EF6463
:1024B300014E700A9001A112099D000000009001D5
:1024C3008DE0FCA3E0FDA3E0FEA3E0FF12040C22D9
:1024D300900159EBF0A3EAF0A3E9F0900165E4F071
:1024E300A3E4F0900159E0FBA3E0FAA3E0F91200A2
:1024F3000E90015FEEF0A3EFF090015CE0FBA3E030
:10250300FAA3E0F912000E900161EEF0A3EFF09050
:102513000163E4F0A3E4F0900159E0FBA3E0FAA324
:10252300E0F9900163E0FEA3E0FF8F828E83120641
:10253300BBFFEF700302260890015CE0FBA3E0FA07
:10254300A3E0F9900163E0FEA3E0FF8F828E831284
:1025530006BBFFEF700302260890015CE0FBA3E0DB
:10256300FAA3E0F9900163E0FEA3E0FF8F828E837C
:102573001206BBFF900159E0FBA3E0FAA3E0F99038
:102583000163E0FCA3E0FD8D828C831206BBFEEEAB
:10259300D39F4012900165E4F0A37401F0900165AC
:1025A300E0FEA3E0FF2290015CE0FBA3E0FAA3E0DE
:1025B300F9900163E0FEA3E0FF8F828E831206BBD6
:1025C300FF900159E0FBA3E0FAA3E0F9900163E077
:1025D300FCA3E0FD8D828C831206BBFEEEC39F50ED
:1025E3001390016574FFF0A374FFF0900165E0FEA2
:1025F300A3E0FF22900164E004F07006900163E021
:1026030004F002251A900165E0FEA3E0FFEF4E708F
:102613004D900161E0FEA3E0FF90015FE0FCA3E0C9
:10262300FDD3ED9FEE6480F8EC648098400990013F
:1026330065E4F0A37401F0900161E0FEA3E0FF9074
:10264300015FE0FCA3E0FDC3ED9FEE6480F8EC6462
:102653008098500A90016574FFF0A374FFF0900115
:1026630065E0FEA3E0FF224102990041029A004186
:1026730002B0004202B100004202B30FFF42029BCC
:1026830000004102AD004402450000000044025135
:10269300000000004402283C23D70A4402493A833D
:1026A300126F44022C3D0F5C294402393CE5604221
:1026B30041023801440234000000005002040000CB
:1026C30000000000000000000000000000005002B5
:1026D300183F80000000000000000000003F800061
:1026E3000044024D3E99999A605000304220000008
:1026F30000000000000000000000000040C00000D7
:1027030000000000000000000000000000000000C6
:1027130000000000000000000000000000000000B6
:1027230000000000000000000000000000000000A6
:102733000000000000000000000000004202C7008B
:10274300004202C500004202C900004202C100006B
:102753004202C3000042028D000154025F31323352
:102763003400000000000000000000000000000032
:10277300004A025561646300000000000000440148
:10278300C9423400004401B9000000004201D400F2
:10279300004201D104B04201CD00004201E8000033
:1027A3004201BD00004201CF00004401E0000000EF
:1027B300004401DA000000004401EA000000004286
:1027C30001E600004101D3004401C10000000044C0
:1027D30001C500000000420189000042018B000096
:1027E30044019D000000004201BF00024401A90012
:1027F3000000004401B13F66666600900104E4F006
:10280300A3E4F0900106E4F0A3E4F0900108E4F0FF
:10281300A3E4F090010AE4F0A3E4F090010CE4F0E7
:10282300A3E4F090010EE4F0A3E4F0123790D2C2D7
:10283300C2C190029BE0FEA3E0FFEF64014E700B68
:10284300120AD190029BE4F0A3E4F07F0212351741
:102853007E00EF64024E7002B2C3900299E0FFEF74
:102863003395E0FEEF64014E60030228F490029971
:10287300E4F0121CC99001B9E0FCA3E0FDA3E0FE63
:10288300A3E0FF12362A7E00EF64014E600C900233
:102893008DE0FEA3E0FFEF4E701790014612099DF5
:1028A300000000007F007E007D007C001220378046
:1028B30040900108E0FEA3E0FF9001D6E0FCA3E016
:1028C300FDC3ED9FFDEC9EFCEC1203D3C004C005D9
:1028D300C006C0079001D8E0FCA3E0FDEC1203D3CF
:1028E300900146120991D007D006D005D0041220DA
:1028F3003790029AE0FFEF3395E0FEEF64014E60FC
:102903000302283590029AE4F09002AD7401F0902E
:1029130001D1E0FEA3E0FF12292102283522900114
:1029230042EEF0A3EFF0900144E4F0A3E4F0900151
:1029330046E4F0A3E4F0AFD47E00EF7F00FE900105
:1029430044EEF0A3EFF0AFD57E00900144E0FCA38A
:10295300E0FDEE4CFEEF4DFF900144EEF0A3EFF0EF
:10296300AFD27E00EF7F00FE900146EEF0A3EFF0C2
:10297300AFD37E00900146E0FCA3E0FDEE4CFEEFFA
:102983004DFF900146EEF0A3EFF075D14475D400EE
:1029930075D50075D20075D30075D1CC20C2233014
:1029A300C120900144E0FEA3E0FF9002A7EEF0A354
:1029B300EFF0900146E0FEA3E0FF9002AEEEF0A33D
:1029C300EFF030C23120C12E900144E0FEA3E0FFBE
:1029D300C3E49FFFE49EFE9002A7EEF0A3EFF09006
:1029E3000146E0FEA3E0FFC3E49FFFE49EFE9002E6
:1029F300AEEEF0A3EFF09001E8E0FEA3E0FF90015C
:102A0300BDEEF0A3EFF09002AEE0FEA3E0FFC00640
:102A1300C0079002A7E0FCA3E0FD7B017A00798068
:102A2300900142E0FEA3E0FF900163EEF0A3EFF01C
:102A3300D007D0061223119001E8EEF0A3EFF022A5
:102A4300BE1249253E4CCCCDBEAAAAAB3F800000A6
:102A53003E7ADBB03EED63383F24BC7D3F490FDB5C
:102A6300ED33ECC2E7CC339200B4FF13ED547F6037
:102A73000302048E7FDB7E0F7DC97C3F022B58C28D
:102A830001C3947F401E7007EDD2E794904015EF89
:102A9300FBEEFAEDF9ECF87F007E007D807C3F12BF
:102AA30002A7D201ED33EC33248430E705E4C0E020
:102AB300806B04FAEDD2E754F0C333DAFD540734E4
:102AC300002323C0E0CCC0E0F8EDC0E0F9EEC0E0A5
:102AD300FAEFC0E0FBE41203D8EC24FEFC9001768D
:102AE30012099112019E7B007A007980783F1200CF
:102AF300AD900176E0B2E7CCF0A3E0CDF0A3E0CE59
:102B0300F0A3E0CFF0D0E0FBD0E0FAD0E0F9D0E0E2
:102B1300F81200AD9001761209251202A7900176F2
:102B2300120991902A4374031206559001761209F3
:102B33002512019ED0E0600F244FF582E4342AF57C
:102B4300831209311200AD30010B7BDB7A0F79C997
:102B530078BF1200ADED33EC336006ECA20092E7D0
:102B6300FC229001661209919001C9E0F8A3E0F9F3
:102B7300A3E0FAA3E0FB900166E0FCA3E0FDA3E081
:102B8300FEA3E0FF1200A99001711209919001E6E2
:102B9300E0FEA3E0FF7C017DF41206FAAC06AD076C
:102BA300EC1203D3900171E0F8A3E0F9A3E0FAA3D8
:102BB300E0FB1200AD90016EE0FBA3E0FAA3E0F9A5
:102BC30075821475830012096112019EC004C00549
:102BD300C006C00790016EE0FBA3E0FAA3E0F9751D
:102BE300821C7583001208A790016AE0F8A3E0F93C
:102BF300A3E0FAA3E0FB12019EA804A905AA06AB71
:102C030007D007D006D005D0041200AD12040C90F3
:102C13000175EEF0A3EFF0900175E0FEA3E0FFD3A2
:102C2300EF9414EE64809485400C9001757405F064
:102C3300A37414F0801D900175E0FEA3E0FFC3EFC1
:102C430094ECEE6480947A500A90017574FAF0A3C0
:102C530074ECF0900175E0FEA3E0FF22C201C20212
:102C6300C203C204F9E4F508F509FCFDFEFFE9100F
:102C730000EA20030CB42D04D203D322B42B02D3D5
:102C83002224D0504794095041240A300415F88572
:102C930009F0740AA42872E74051C5F0704D85F01D
:102CA30009D322D202C0E0E4FBFA79207841120171
:102CB3009EECF8EDF9EEFAEFFBD0E0FCE41203D85A
:102CC3001200AD3001B41508D322240A200420B425
:102CD300FE0720011AD201D32224EB600424E07002
:102CE3000EA2039201D204C203D322C302048EE4D0
:102CF30030040BE509300302F404A201920330020D
:102D0300EA250820D2E5A2E792045002F404B4268F
:102D13000050D8CCC0E0EDC0E0EEC0E0EFC0E0EC86
:102D2300120615D0E0FFD0E0FED0E0FDD0E0FC209D
:102D3300040512019E80031202A73003031203BD90
:102D4300C322900159EBF0A3EAF0A3E9F0900159F3
:102D5300E0FBA3E0FAA3E0F91206A2FF1238F75052
:102D63000C90015AE475F00112073080E0D2009014
:102D73000159E0FBA3E0FAA3E0F91206A2FF642BDA
:102D83006004EFB42D1D900159E0FBA3E475F0013D
:102D9300120746A9F0FA1206A2642D6003D380013C
:102DA300C39200E490015CF0A3F0900159E0FBA30F
:102DB300E0FAA3E0F91206A2FF12394D5042900146
:102DC30059E0FBA3E0FAA3E0F91206A2FF3395E072
:102DD300FEEF24D0FBEE34FFFA90015CE0FEA3E0AB
:102DE300FF7C007D0A120A14EF2BFFEE3A90015C80
:102DF300F0A3EFF090015AE475F00112073080AAB6
:102E030030000A90015CE0FEA3E0FF800F90015CBC
:102E1300E0FEA3E0FFC3E49FFFE49EFE221233C45F
:102E230012343D9002B5E0FCA3E0FDEC1203D3C0E5
:102E330004C005C006C0079002B9E0FCA3E0FDECA6
:102E43001203D3900172120991D007D006D005D096
:102E5300041230F87B007A007934784312019E7BA8
:102E6300F97A0F794978401202A790016612099105
:102E73009002BDE0FEA3E0FFC3E49FFDE49EFCECF3
:102E83001203D37B337A33798378411202A79001FB
:102E93006A120991900166E0FCA3E0FDA3E0FEA3A2
:102EA300E0FFC004C005C006C00790016AE0FCA3B0
:102EB300E0FDA3E0FEA3E0FF900172120991D007A9
:102EC300D006D005D0041213159002451209919033
:102ED3000245E0FCA3E0FDA3E0FEA3E0FF22900097
:102EE3008812099D0000000090008C12099D0000CB
:102EF300000090009412099D3FCCCCCD9000981215
:102F0300099D3CA3D70A90009C12099D0000000074
:102F13009000A412099D0000000090000812099D72
:102F23000000000090000C12099D000000009000BA
:102F33001412099D43B4000090001812099D00006B
:102F4300000090001C12099D3FCCCCCD90002412B0
:102F5300099D0000000090001012099D0000000070
:102F63009000B812099D000000009000BC12099D5A
:102F7300000000009000C412099D000000009000B2
:102F8300CC12099D000000009000CC12099D0000A6
:102F930000009000D412099D0000000022C0E0C090
:102FA300F0C083C082C0D075D000C000C004C0058B
:102FB300C006C0079000E012099D000000009002C7
:102FC300C1E0FEA3E0FFEF64054E70239002997405
:102FD30001F09001D3E0FFEF3395E0FEEF64094E7B
:102FE30070059001D3E4F09002C1E4F0A3E4F09003
:102FF30002C9E0FEA3E0FFEF642D4E700E90029A2B
:103003007401F09002C9E4F0A3E4F09002CAE00472
:10301300F070069002C9E004F09002C4E004F0707E
:10302300069002C3E004F09002C2E004F070069040
:1030330002C1E004F0D007D006D005D004D000D000
:10304300D0D082D083D0F0D0E032900142EFF09024
:103053000143EDF043BC80900142E0FFEF131313F3
:10306300541FFF7E00EF64014E7035900142E0FF74
:10307300EF5407FFA8077401088002C333D8FCFF8D
:10308300EFF4FFEF5294900142E0FFEF5407FFA8E3
:10309300077401088002C333D8FCFFEF42938045D5
:1030A300900142E0FFEF131313541FFF7E00EF4E16
:1030B3007033900142E0FFEF5407FFA80774010843
:1030C3008002C333D8FCFFEFF4FFEF52929001422A
:1030D300E0FFEF5407FFA8077401088002C333D849
:1030E300FCFFEF4291900143E0FFEF540FFFEF42EB
:1030F300DE43DE202290016E120991900172E0F806
:10310300A3E0F9A3E0FAA3E0FB90016EE0FCA3E0E7
:10311300FDA3E0FEA3E0FF1202A7122A6390016E53
:10312300120991900172E030E75990016EE0FCA31F
:10313300E0FDA3E0FEA3E0FFECC0E0EDC0E0EEC0E5
:10314300E0EFC0E0E4FFFEFDFC90016EE0F8A3E0D9
:10315300F9A3E0FAA3E0FB1203447BDB600250080F
:103163007A0F7949784080067A0F794978C0D0E0A0
:10317300FFD0E0FED0E0FDD0E0FC1200AD90016E88
:1031830012099190016EE0FCA3E0FDA3E0FEA3E031
:10319300FF22900174EFF0900175EDF0900176EB52
:1031A300F0A3EAF0A3E9F012392F900174E0FFEFE6
:1031B30025E0FF12370E900175E0FF12370E9001E4
:1031C3007AE0FF7E00EF64014E700312390B12396F
:1031D3002F900174E0FFEF25E0FFEF4401FF12376A
:1031E3000E900179E014FFF0EF60207F01120026BA
:1031F300900176E0FBA3E0FAA3E0F9EF1206E89072
:103203000177E475F00112073080D67F00120026A3
:10321300900176E0FBA3E0FAA3E0F9EF1206E812CF
:10322300390B229001BDE0FEA3E0FF9001E8E0FC32
:10323300A3E0FDC3ED9FFDEC9EFCEC1203D39001D4
:10324300661209919001D3E0FFEF3395E0FEEF247E
:1032530001FDEE3400FCEC1203D3900166E0F8A309
:10326300E0F9A3E0FAA3E0FB12019E7B007A007968
:103273001078411202A7C004C005C006C007900120
:10328300BDE0FCA3E0FDEC1203D3A804A905AA0644
:10329300AB07D007D006D005D0041200AD12040C42
:1032A3009001E6EEF0A3EFF09001D3E004F0227872
:1032B3007FE4F6D8FD7581210232F90227FEE493FB
:1032C300A3F8E493A34003F68001F208DFF4802916
:1032D300E493A3F85407240CC8C333C4540F442005
:1032E300C8834004F456800146F6DFE4800B0102F4
:1032F30004081020408090266AE47E019360BCA3FA
:10330300FF543F30E509541FFEE493A360010ECF41
:1033130054C025E060A840B8E493A3FAE493A3F86B
:10332300E493A3C8C582C8CAC583CAF0A3C8C5822B
:10333300C8CAC583CADFE9DEE780BE900166EFF045
:10334300900167EDF053BCF0900166E0FFEF42BCE3
:1033530043BC40E5BC30E5FB53BCDFAFBD7E009012
:103363000168EEF0A3EFF0900168E0FEA3E0FFEF49
:103373007F00FE900168EEF0A3EFF0900168E0FE9D
:10338300A3E0FFADBE7C00EE4CFEEF4DFF90016865
:10339300EEF0A3EFF0900168E0FEA3E0FF90016779
:1033A300E0FDEFA805088005CEC313CE13D8F9FFBF
:1033B300900168EEF0A3EFF0900168E0FEA3E0FF58
:1033C300227B017A01796E9001797406F090017A7B
:1033D300E4F07D3B7F6812319590016EE0FF7E0043
:1033E300EF7F00FE90016FE0FD7C00EE4CFEEF4DA1
:1033F300FF9002B5EEF0A3EFF0900170E0FF7E00C6
:10340300EF7F00FE900171E0FD7C00EE4CFEEF4D7E
:10341300FF9002B7EEF0A3EFF0900172E0FF7E00A1
:10342300EF7F00FE900173E0FD7C00EE4CFEEF4D5C
:10343300FF9002B9EEF0A3EFF0227B017A01796EDF
:103443009001797406F090017AE4F07D437F68126D
:10345300319590016EE0FF7E00EF7F00FE90016FDB
:10346300E0FD7C00EE4CFEEF4DFF9002BBEEF0A3BF
:10347300EFF0900170E0FF7E00EF7F00FE9001719E
:10348300E0FD7C00EE4CFEEF4DFF9002BDEEF0A39D
:10349300EFF0900172E0FF7E00EF7F00FE9001737A
:1034A300E0FD7C00EE4CFEEF4DFF9002BFEEF0A37B
:1034B300EFF022900103EFF0900103E0FFEFB42B54
:1034C300127B017A027979900276EBF0A3EAF0A3FA
:1034D300E9F022900103E0FFEFB42A19900276E0AD
:1034E300FBA3E0FAA3E0F9E41206E890029BE4F000
:1034F300A37401F022900103E0FF900276E0FBA3A6
:10350300E0FAA3E0F9EF1206E8900277E475F00120
:1035130012073022900142EFF0900142E0FF7E005B
:10352300EF64024E701020A0477F057E001235D253
:1035330020A03D7F0222900142E0FF7E00EF640362
:103543004E701020CB2A7F057E001235D220CB206F
:103553007F0322900142E0FF7E00EF64044E70106F
:1035630020CA0D7F057E001235D220CA037F0422B4
:103573007F0022900142EFF0900143EDF09001446F
:10358300EBF012392F900142E0FFEF25E0FF1237F5
:103593000E900143E0FF12370E900144E0FF7E00DE
:1035A300EF64014E700312390B12392F900142E080
:1035B300FFEF25E0FFEF4401FF12370E7F001200FB
:1035C30026900145EFF012390B900145E0FF229060
:1035D3000143EEF0A3EFF0900145E4F0A3E4F09093
:1035E3000143E0FEA3E0FF900145E0FCA3E0FDC33F
:1035F300ED9FEC9E5030900147741FF0900148748A
:1036030028F0900148E014FFF0EF70F6900147E0D6
:1036130014FFF0EF70EC900146E004F070069001A7
:1036230045E004F080B9229001651209917F007E84
:10363300007DA07C41900165E0F8A3E0F9A3E0FAE6
:10364300A3E0FB120344401D7F007E007D9C7C426F
:10365300900165E0F8A3E0F9A3E0FAA3E0FB12030D
:1036630044600A40089001697401F0800590016983
:10367300E4F0900169E0FF227F647E001235D212EC
:1036830038347B007D6B7F681238027B077D197F9E
:10369300681238027B047D1A7F681238027B187D1A
:1036A3001B7F681238027B107D1C7F681238027BF7
:1036B300007D6A7F681238027B027D377F6812388B
:1036C3000222D2009001591209E5123701C0E0FF2E
:1036D3001238F7D0E040F3122C72400122ECC0E024
:1036E300EDC0E0EEC0E0EFC0E0123701D0F0AFF084
:1036F300D0F0AEF0D0F0ADF0D0F0ACF080D9E475FE
:10370300F0019001591209CE0206A290017BEFF05D
:1037130090017C7408F090017CE0FF14F0EF6029C5
:1037230090017BE0FFEF30E704D2B38002C2B39095
:10373300017BE0FFEF25E0FF90017BEFF01238C73C
:10374300D2B21238C7C2B280CD1238A822C0E0C0AC
:10375300F0C083C082C0D075D000C000C001C002D9
:10376300C003C004C005C006C00730980512393E27
:10377300C298D007D006D005D004D003D002D00120
:10378300D000D0D0D082D083D0F0D0E032C2C2C239
:10379300C1C2AF12395C12367B7D007F0012304DFF
:1037A3007D007F0B12304D7D007F0A12304D7D006E
:1037B3007F0912304D7D007F0812304D1238E3121D
:1037C300008D122EE1D2AF22900159EBF0A3EAF063
:1037D300A3E9F0900159E0FBA3E0FAA3E0F9120694
:1037E300A2FFEF6019900159E0FBA3E475F0011209
:1037F3000746A9F0FA1206A2FF12391D80D52290BE
:103803000142EFF0900143EDF0900144EBF01239E7
:103813002F900142E0FFEF25E0FF12370E900143A6
:10382300E0FF12370E900144E0FF12370E12390BFE
:10383300227B007D6B7F681238027B077D197F68CE
:103843001238027B007D197F681235767E00EF64A3
:10385300074E6004D2A180EBD2A122EFB40A077411
:103863000D123869740A309811A899B8130CC298CC
:103873003098FDA899C298B811F63099FDC299F510
:10388300992290017EEFF0C2B21238C790017EE018
:10389300FFEF6004C2B38002D2B3D2B21238C7C200
:1038A300B21238C722C2B21238C7D2B21238C730E6
:1038B300B308C2B2E47E007F0022C2B21238C77ED0
:1038C300007F012290017FE4F0A37402F090017F56
:1038D30074FF75F0FF120746AFF0FEEF4E70EE2255
:1038E300439850438900758E40758BCB758DFFD2FD
:1038F3008ED2AC22EFC394094005EF940E4004EF3F
:10390300B42003D38001C322C2B3C2B21238C7D2D8
:10391300B21238C7D2B31238C72290015CEFF090CD
:10392300015CE0FF8F993099FDC29922D2B3D2B2E4
:103933001238C7C2B31238C7C2B222900102E59946
:10394300F0900102E0FF1234B622EFC39430400737
:10395300EF943A50028001C32243B10443B20443BB
:10396300B10843B208226673746F7000252E326665
:10397300206F6B210D0A0073706565640025642058
:103983006F6B210D0A00466C61675F4C65667400BE
:10399300466C61675F526967687400616E676C6546
:1039A3002E4B70007A686F6E677A686900616E6784
:1039B3006C652E4B6900616E676C652E4B640073FA
:1039C300706565642E4B700073706565642E4B697A
:1039D300007475726E007475726E316B6400747569
:0E39E300726E326B70007475726E326B64001F
:00000001FF
