:100000000217E6F920E73624F950037907E4F424CF
:1000100002FBE582158270021583DBF6E024FB50BB
:100020001BE96014E4F0E582158270021583E00498
:10003000F0B40A08E4F0D9EE7401F00A22C2D52225
:10004000ED33EC3392D5FA602AB4FF33EDC2E77B8F
:10005000FF60067A007965E4227A00796E20D50483
:100060007A007969224E614E002B494E46002D4997
:100070004E4600E47A08F0A3DAFC7B00740722C045
:1000800083C082ECC0E0EDC0E0EEC0E0EFC0E0EA8B
:1000900075F010A4CAABF075F04DA42BFBE435F05D
:1000A000FCEA2410FAEB34C5FBEC34D9FCEDC2E7D2
:1000B000FF75F056A4F42411C5F0F434C58FF0A4F4
:1000C0002AE5F03BE43CF020E714120413D0E0FFF3
:1000D000D0E0FED0E0FDD0E0FC1203468014F40432
:1000E000120413D0E0FFD0E0FED0E0FDD0E0FC121F
:1000F000023DD082D083E0FAEDD2E7CD33EC332459
:1001000082FBE4C3CF33CFCE33CECD33CD33DBF35D
:100110007B0775F00A846004F0A31B0AE5F0F0A3E6
:100120008FF0740AA4FFACF08EF0740AA42CFEAC1D
:10013000F050010C8DF0740AA42CFDE435F0F0A30E
:10014000DBDE740722020488E86480F8E933E833D0
:1001500060110460F0ED33EC337009E8FCE9FDEA6E
:10016000FEEBFF220460DED3EB9FEA9EE99DE8C22E
:10017000E78CF0C2F795F0400CE8CCF8E9CDF9EA4D
:10018000CEFAEBCFFB12045385D0F0580470032055
:10019000D5B3E80470075002B2D502049292D5ECB0
:1001A0000460F7E4CCC0E0C398F8603B94186008A2
:1001B000400DD0E0FB02046AE4FBFAC9FC8028E8A9
:1001C00030E406E4C9FBE4CAFCE830E305E4C9CA4C
:1001D000CBFCE854076010F8C3E913F9EA13FAEB13
:1001E00013FBEC13FCD8F130F52FC3E49CFCEF9B20
:1001F000FFEE9AFEED99FDD0E0FBEF4E4D4C7012F4
:1002000022DB0302048FEC2CFCEF33FFEE33FEED18
:1002100033FDED30E7EB02046AEF2BFFEE3AFEED23
:1002200039FDD0E0FB50130BBB0003020492ED1329
:10023000FDEE13FEEF13FFEC13FC02046AEC4D60BD
:1002400011E8497017ED33EC3304600DE4FCFFFE58
:10025000FD22E933E8330470F8020488120453588D
:10026000046009E4CC248150062850090204922835
:10027000400302048FC0E0EB4A7044B98006D0E02E
:10028000FB02047EEF4E701CBD8008EBFFEAFEE926
:10029000FD80EBE98DF0A4FEE5F0020326E9CDF93F
:1002A000EAFEEBFFEF89F0A4FCE5F0CE89F0A42E86
:1002B000FFE435F0CD89F0A42DFEE435F08067EF42
:1002C0004E7005BD80D780C3EF8BF0A4ACF0EE8BF1
:1002D000F0A42CFCE435F0F8EF8AF0A42CE5F0381B
:1002E000FCE433CB8DF0A42CFCE5F03BF8EE8AF077
:1002F000A42CFCE5F038F8E433CF89F0A42CFCE51D
:10030000F038CF3400CE89F0A42FFFE5F03EFEE4B4
:1003100033C98DF0A42EFEE5F039CD8AF0A42FFF6D
:10032000E5F03EFEE43DFD33D0E0FB50070BBB00A3
:100330000F020492EC2CFCEF33FFEE33FEED33FDA5
:1003400002046A020492EC5D046005E8590470033B
:10035000020488120453580460F6EC4860F2EC7012
:1003600004FDFEFF22C860DB2481C85009C39860E9
:1003700002500602048F9850CAF582E9294B4A7050
:1003800005AB8202047E75F0007C1A7880C3EF9B77
:10039000EE9AED99400DC3EF9BFFEE9AFEED99FDAD
:1003A000E842F0DC23ACF0D0E0FFD0E0FED0E0FD8E
:1003B000AB8220E7101BEB60BAEC2CFCEF33FFEEB6
:1003C00033FEED33FD02046AE803F830E705C0F0C0
:1003D00075F000EF2FFFEE33FEED33FD40B830E750
:1003E000C280AA3F8000004120000042C8000044B3
:1003F0007A0000461C400047C35000497424004B5B
:100400001896804CBEBC205A0E1BCA6753C21C747F
:100410009DC5AEFB60065407601C2323120441EB0C
:100420005438600912042D12043C12023DECF8ED20
:10043000F9EEFAEFCB22EB12043C80F1543803249E
:100440001C9003E3FE93FC0EEE93FD0EEE930ECE96
:1004500093FF22E9D2E7C933E833F892D5EDD2E72A
:10046000CD33EC33FC5002B2D522EC30E7100FBF95
:10047000000C0EBE00080DBD00040BEB6014A2D5ED
:10048000EB13FCED92E7FD2274FFFCFDFEFF22E47E
:1004900080F8A2D574FF13FC7D80E480EFBB0106D9
:1004A00089828A83E0225002E722BBFE02E322898E
:1004B000828A83E49322BB010CE58229F582E583DD
:1004C0003AF583E0225006E92582F8E622BBFE06D3
:1004D000E92582F8E222E58229F582E5833AF5836F
:1004E000E49322BB010689828A83F0225002F7221C
:1004F000BBFE01F322C5F0F8A3E028F0C5F0F8E553
:1005000082158270021583E038F022A3F8E0C5F06E
:1005100025F0F0E582158270021583E0C838F0E816
:1005200022E88FF0A4CC8BF0A42CFCE98EF0A42C54
:10053000FC8AF0EDA42CFCEA8EF0A4CDA8F08BF0A0
:10054000A42DCC3825F0FDE98FF0A42CCD35F0FC9E
:10055000EB8EF0A4FEA9F0EB8FF0A4CFC5F02ECD6A
:1005600039FEE43CFCEAA42DCE35F0FDE43CFC224F
:1005700075F008758200EF2FFFEE33FECD33CDCC42
:1005800033CCC58233C5829BED9AEC99E5829840C5
:100590000CF582EE9BFEED9AFDEC99FC0FD5F0D6A2
:1005A000E4CEFBE4CDFAE4CCF9A88222B800C1B9CC
:1005B0000059BA002DEC8BF084CFCECDFCE5F0CB0A
:1005C000F97818EF2FFFEE33FEED33FDEC33FCEB43
:1005D00033FB10D703994004EB99FB0FD8E5E4F9FE
:1005E000FA227818EF2FFFEE33FEED33FDEC33FCEB
:1005F000C933C910D7059BE99A4007EC9BFCE99ADF
:10060000F90FD8E0E4C9FAE4CCFB2275F010EF2F23
:10061000FFEE33FEED33FDCC33CCC833C810D70723
:100620009BEC9AE899400AED9BFDEC9AFCE899F85E
:100630000FD5F0DAE4CDFBE4CCFAE4C8F922ECF013
:10064000A3EDF0A3EEF0A3EFF022A8828583F0D013
:1006500083D082120661120661120661120661E4FD
:1006600073E493A3C583C5F0C583C8C582C8F0A34E
:10067000C583C5F0C583C8C582C822F8E0FBA3A323
:10068000E0F925F0F0E582158270021583E0FA3872
:10069000F022EBF0A3EAF0A3E9F022D083D082F8B5
:1006A000E4937012740193700DA3A393F8740193F3
:1006B000F5828883E4737402936860EFA3A3A38038
:1006C000DFE5082411F582E43400F583E005082213
:1006D00090000E300703900011E475F00112067BC4
:1006E00002049D2000E97F2ED2008018EF540F24D1
:1006F00090D43440D4FF30040BEF24BFB41A005020
:10070000032461FFE50960021509050CE50C700280
:10071000050B30070E90000EE475F00112067BEF1A
:100720000204E30216E97403D2078003E4C207F56A
:100730000890000E120692E4F509F50BF50CE50998
:1007400060077F2012070480F5750AFFC201C2000E
:10075000C202C203C205C206C2081206D0FF700D53
:100760003007057F00120715AF0CAE0B22B4255FD2
:10077000C2D5C2041206D0FF24D0B40A00501A75A4
:10078000F00A780930D50508B6FF0106C6A426F69A
:1007900020D5047002D20380D924CFB41A00EF50C0
:1007A00004C2E5D204020A07D20180C6D20080C08A
:1007B000D20280BCD2D580BAD20580B47F20120785
:1007C000042002077401B5090040F11206C1FF12AE
:1007D000070402073ED208D20680951206C1FB121A
:1007E00006C1FA1206C1F94A4B700679057A0B7BED
:1007F000FF20022EE509602A7E008E82758300129A
:1008000004B660060EEE650A70F0C2D5EBC0E0EAF1
:10081000C0E0E9C0E0EE120A68D0E0F9D0E0FAD01A
:10082000E0FB12049DFF60AAEBC0E0EAC0E0E9C073
:10083000E0120704D0E02401F9D0E03400FAD0E05F
:10084000FBE50A0460DCD50AD98087D20280A212B7
:100850000A4A60F7E50A700104120003A90A600D54
:10086000E50A600914F50A120AF2EF60F3EA30E7CC
:1008700002F404C3995079EAF4250A0430E701E44C
:1008800004F50A800D120A4A60C1EA050A250A1217
:100890000003EA90003DF030E701E4250A04D50AA0
:1008A0000420050114120A68E4C0E0120AF2900064
:1008B0003DE0601320E70714F01206EC802204F0FC
:1008C000D0E014C0E07F001206ECE50A60071206D3
:1008D000E3150A800B3005031206E3D0E002073E61
:1008E000D0E00480C4120A4A609EE50A04120003A4
:1008F00090003DEAF0E50A2005026001042404129C
:100900000A6874FF04C0E0120AF21206ECE50A203D
:10091000050260031206E3D0E0B50AE87F4512063F
:10092000F690003DE07F2B30E7047F2DF404C0E01B
:10093000120704D0E075F00A84C0F01206EDD0E092
:100940001206ED02073E791080027908C206C2083D
:100950008008D2D5790A8004790AC2D5E50A0470E4
:1009600002F50AE4FAFDFEFF1206C1FC7B08200135
:10097000131206C1FD7B1030000A1206C1FE1206DA
:10098000C1FF7B20EC3382D592D55013C3E43000F5
:10099000069FFFE49EFEE42001039DFDE49CFCE431
:1009A000CBF8C201EC700CCFCECDCCE824F8F870B7
:1009B000F38017C3EF33FFEE33FEED33FDEC33FC72
:1009C000EB33FB994002FB0FD8E9EB300105F8D07F
:1009D000E0C448B201C0E00AEC4D4E4F78207B00E5
:1009E00070C2EAB50A0040BCC0E0120A6AD0F0D07A
:1009F000E0200104C4C0E0C4B201C0F01206EDD092
:100A0000F0D5F0EB02073E12069B07DB5309465870
:100A100007AC4C07A842094A4F09524409524907FA
:100A2000C14309585508854608E545084F470B2539
:100A30005007B02D07B42E07D72B07B82307D520B2
:100A40000B0E2A077048000007CFE50AB4FF0375B4
:100A50000A061206C1FC1206C1FD1206C1FE1206EC
:100A6000C1FF900036020040790AA2D5200314305D
:100A70000509B910020404B9080104A2D520060230
:100A80005001042002689202B509005034C0E07F92
:100A9000203003197F30A20272067205500F120A2D
:100AA000C1C202C206C205C2087F30800F300503F2
:100AB000E9C0E0120704300503D0E0F9D0E0B50941
:100AC000CC3005177F30B9100C1207047F58300462
:100AD000077F788003B908031207043002057F2DD1
:100AE0000207047F202008F87F2B2006F3229202C1
:100AF00080CF7F00B40700500B2436F582E4340029
:100B0000F583E0FF22286E756C6C2900D201120675
:100B1000C13001F8C201780930D50108F60207702A
:100B20002D504349581206C12403B405004001E486
:100B3000900B20931206F5743A1206F5D20375094C
:100B400004020946256700000000000000000000C4
:100B50002F000000000700070000147F147F14001E
:100B6000242A7F2A12006264081323003649552282
:100B70005000000503000000001C2241000000415D
:100B8000221C000014083E08140008083E08080053
:100B90000000A0600000080808080800006060006D
:100BA00000002010080402003E5149453E0000426A
:100BB0007F4000004261514946002141454B3100D0
:100BC0001814127F10002745454539003C4A494911
:100BD00030000171090503003649494936000649CC
:100BE00049291E000036360000000056360000007D
:100BF000081422410000141414141400004122149B
:100C00000800020151090600324959513E007C1288
:100C100011127C007F49494936003E414141220082
:100C20007F4141221C007F49494941007F09090950
:100C300001003E4149497A007F0808087F000041D1
:100C40007F4100002040413F01007F081422410005
:100C50007F40404040007F020C027F007F0408106C
:100C60007F003E4141413E007F09090906003E41A7
:100C700051215E007F091929460046494949310042
:100C800001017F0101003F4040403F001F20402004
:100C90001F003F4038403F006314081463000708FA
:100CA00070080700615149454300007F4141000041
:100CB000552A552A55000041417F000004020102D7
:100CC0000400404040404000000102040000205465
:100CD000545478007F484444380038444444200049
:100CE000384444487F00385454541800087E0901A1
:100CF000020018A4A4A47C007F0804047800004427
:100D00007D4000004080847D00007F10284400006A
:100D100000417F4000007C04180478007C08040433
:100D20007800384444443800FC2424241800182453
:100D30002418FC007C080404080048545454200083
:100D4000043F444020003C4040207C001C204020C8
:100D50001C003C4030403C004428102844001CA0AB
:100D6000A0A07C004464544C441414141414147D46
:100D7000007C007FAE7E0012160E7D007C007F009E
:100D80007E0012160E7D007C007F107E0012160E73
:100D90007D007C007F407E0012160E7D007C007F6F
:100DA000B07E0012160E7D007C007F817E00121640
:100DB0000E7D007C007FFF7E0012160E7D007C0001
:100DC0007FA17E0012160E7D007C007FA67E0012A1
:100DD000160E7D007C007FA87E0012160E7D007C22
:100DE000007F3F7E0012160E7D007C007FC87E00D3
:100DF00012160E7D007C007FD37E0012160E7D0041
:100E00007C007F007E0012160E7D007C007FD57E68
:100E10000012160E7D007C007F807E0012160E7D73
:100E2000007C007FD87E0012160E7D007C007F05BE
:100E30007E0012160E7D007C007FD97E0012160EF9
:100E40007D007C007FF17E0012160E7D007C007F0D
:100E5000DA7E0012160E7D007C007F127E001216D4
:100E60000E7D007C007FDB7E0012160E7D007C0074
:100E70007F307E0012160E7D007C007F8D7E00127A
:100E8000160E7D007C007F147E0012160E7D007C05
:100E9000007FAF7E0012160E12128222120D6F1208
:100EA00017D912153D121209900044E0FEA3E0FF8D
:100EB000EE3395E0FDFC90001012063E9000147495
:100EC00005F07D007F00120F84900046E0FEA3E055
:100ED000FFEE3395E0FDFC90001012063E900014EA
:100EE0007405F07D017F00120F84900048E0FEA39E
:100EF000E0FFEE3395E0FDFC90001012063E9000FE
:100F0000147405F07D027F00120F847B017A007952
:100F100004C003C002C0017BFF7A1779F290001170
:100F2000EBF0A3EAF0A3E9F0900044E0FEA3E0FFB9
:100F3000900014EEF0A3EFF0900044E0FEA3E0FF79
:100F4000900016EEF0A3EFF0900048E0FEA3E0FF63
:100F5000900018EEF0A3EFF0D001D002D0031207FA
:100F6000267B017A0079047D037F00121186C2A1DD
:100F70007F647E0012134AD2A17F647E0012134A5E
:100F8000020EA52290000EEFF090000FEDF0900001
:100F900017E4F0900015E4F0900014E0FF900015C5
:100FA000E0FEEEC39F4003021065900015E0FF9045
:100FB0000014E0FEC3EE9FFFEF14FD7F0A1214A0A1
:100FC000A804A905AA06AB07900010E0FCA3E0FD69
:100FD000A3E0FEA3E0FF1205AC7B0A7A007900785B
:100FE000001205ACAC00AD01AE02AF03900016EFED
:100FF000F0900017E0FFEF703F900014E0FFEF1457
:10100000FF900015E0FEEEC39F502D900016E0FF0C
:10101000EF701F900015E0FFEF75F006A4FF900041
:101020000EE0FEEF2EFF90000FE0FD7B2012106619
:10103000802A9000177401F0900015E0FFEF75F022
:1010400006A4FF90000EE0FEEF2EFF90000FE0FDE3
:10105000900016E0FEEE2430FB121066900015E0C2
:1010600004F0020F9822900018EFF0900019EDF0B4
:1010700090001AEBF090001BE4F090001CE4F0905C
:10108000001AE0FFEF24E0FF90001BEFF090001843
:10109000E0FFEFD3947F400C900018E4F09000192B
:1010A000E02402F0900018E0FF900019E0FD121417
:1010B000EF90001CE4F090001CE0FFEFC39406509A
:1010C0003790001CE0FF90001BE0FE75F006EEA4D8
:1010D0002447F582E5F0340BF583E5822FF582E4B1
:1010E0003583F583E493FF7E007D017C0012160EAC
:1010F00090001CE004F080BE22900014EFF09000FD
:1011000015EDF0900016EBF0A3EAF0A3E9F012174A
:10111000CA900014E0FFEF25E0FF1215CC900015F7
:10112000E0FF1215CC90001AE0FFEFB40103121794
:10113000B81217CA900014E0FFEF25E0FFEF44015A
:10114000FF1215CC900019E014FFF0EF60207F0132
:101150001212EA900016E0FBA3E0FAA3E0F9EF1206
:1011600004E3900017E475F0011204F580D67F00C7
:101170001212EA900016E0FBA3E0FAA3E0F9EF12E6
:1011800004E31217B82290000EEFF090000FEDF07C
:10119000900010EBF0A3EAF0A3E9F0900013E4F064
:1011A000900010E0FBA3E0FAA3E0F9900013E0FF49
:1011B0008F827583001204B6FFEF604C90000EE042
:1011C000FF90000FE0FD900010E0FBA3E0FAA3E029
:1011D000F9900013E0FE8E827583001204B6FB12B4
:1011E000106690000EE02408F090000EE0FFEFD3B0
:1011F0009478400C90000EE4F090000FE02402F090
:10120000900013E004F08098227B017A00790E9020
:1012100000197406F090001AE4F07D3B7F6812100C
:10122000F990000EE0FF7E00EF7F00FE90000FE0DF
:10123000FD7C00EE4CFEEF4DFF90003EEEF0A3EF84
:10124000F0900010E0FF7E00EF7F00FE900011E0C4
:10125000FD7C00EE4CFEEF4DFF900040EEF0A3EF62
:10126000F0900012E0FF7E00EF7F00FE900013E0A0
:10127000FD7C00EE4CFEEF4DFF900042EEF0A3EF40
:10128000F02290000EE4F090000EE0FFEFC394080F
:10129000505790000EE0FF7E00EF24B0FFEE3400C8
:1012A000FE7D007C0012160E7D007C007F007E001B
:1012B00012160E7D007C007F107E0012160E90002C
:1012C0000FE4F090000FE0FFEFC3948050137D0116
:1012D0007C007F007E0012160E90000FE004F0806C
:1012E000E290000EE004F0809E2290001BEFF09050
:1012F000001DE4F0C2B212176ED2B390001CE4F0ED
:1013000090001CE0FFEFC39408502C12176EC2B27D
:1013100012176ED2B212176E90001DE0FFEF25E09B
:10132000FF90001DEFF030B30690001DE004F09038
:10133000001CE004F080C9C2B212176E90001BE0DE
:10134000FF12171090001DE0FF2290000EEEF0A398
:10135000EFF0900010E4F0A3E4F090000EE0FEA3A4
:10136000E0FF900010E0FCA3E0FDC3ED9FEC9E5079
:1013700030900012741FF09000137428F090001346
:10138000E014FFF0EF70F6900012E014FFF0EF7041
:10139000EC900011E004F07006900010E004F08082
:1013A000B92290000EEFF090000FEDF0900010EBDE
:1013B000F01217CA90000EE0FFEF25E0FF1215CCE7
:1013C00090000FE0FF1215CC900010E0FFEFB40189
:1013D000031217B81217CA90000EE0FFEF25E0FFC6
:1013E000EF4401FF1215CC7F001212EA900011EFBA
:1013F000F01217B8900011E0FF22900024EFF09057
:101400000025E4F0900025E0FFEFC39408504090E1
:101410000025E0FF900024E0FEEEA807088002C34C
:1014200033D8FCFFEF30E704D2948002C2947F01EE
:101430007E00121450D2957F017E00121450C29586
:101440007F017E00121450900025E004F080B52248
:10145000900026EEF0A3EFF0900028E4F0A3E4F073
:10146000900026E0FEA3E0FF900028E0FCA3E0FD52
:10147000C3ED9FEC9E502890002AE4F090002AE0F3
:10148000FFEFC39405500890002AE004F080ED902F
:101490000029E004F07006900028E004F080C122EA
:1014A000900018EFF0900019EDF090001A12064A23
:1014B00000000001900019E0FF14F0EF602290009E
:1014C0001AE0F8A3E0F9A3E0FAA3E0FB900018E02B
:1014D000FFE4FCFDFE12052190001A12063E80D4A6
:1014E00090001AE0FCA3E0FDA3E0FEA3E0FF229041
:1014F000001DEFF090001EEDF090001EE0FF7E005A
:10150000EF24B0FFEE3400FE7D007C0012160E903A
:10151000001DE0FFEF54F0FFEFC4540FFF7E00EF1B
:101520004410FF7D007C0012160E90001DE0FFEFBE
:10153000540FFF7E007D007C0012160E227F647E19
:101540000012134A1216C27B007D6B7F681216428E
:101550007B077D197F681216427B047D1A7F681213
:1015600016427B187D1B7F681216427B107D1C7F04
:10157000681216427B007D6A7F681216427B027DEC
:10158000377F6812164222900024E4F07F01121780
:1015900052D2947F017E00121450D2957F017E00BA
:1015A00012145030941C900024E004F0900024E0C9
:1015B000FFEFD394FA40EC1217A17F001217527F6D
:1015C0000122C2957F001217527F002290001BEF6C
:1015D000F090001C7408F090001CE0FF14F0EF6025
:1015E0002990001BE0FFEF30E704D2B38002C2B3C2
:1015F00090001BE0FFEF25E0FF90001BEFF01217BB
:101600006ED2B212176EC2B280CD12173322900082
:101610001FEEF0A3EFF0900021ECF0A3EDF09000AE
:1016200021E0FEA3E0FFEF4E600C90001FE0FEA360
:10163000E0FF12169B2290001FE0FEA3E0FF1216AF
:10164000742290000EEFF090000FEDF0900010EB80
:10165000F01217CA90000EE0FFEF25E0FF1215CC44
:1016600090000FE0FF1215CC900010E0FF1215CC97
:101670001217B822900023EFF012178A7F78121306
:10168000FA1215877F001213FA121587900023E0D3
:10169000FF1213FA1215871217A122900023EFF000
:1016A00012178A7F781213FA1215877F401213FAE5
:1016B000121587900023E0FF1213FA1215871217F4
:1016C000A1227B007D6B7F681216427B077D197F0C
:1016D000681216427B007D197F681213A2EF64071F
:1016E0006004D2A180EED2A122EFB40A07740D12D9
:1016F00016F4740A309811A899B8130CC29830984F
:10170000FDA899C298B811F63099FDC299F59922B1
:1017100090001EEFF0C2B212176E90001EE0FFEFB5
:101720006004C2B38002D2B3D2B212176EC2B21238
:10173000176E22C2B212176ED2B212176E30B308F1
:10174000C2B2E47E007F0022C2B212176E7E007F1A
:101750000122900025EFF0900025E0FFEFB4010793
:10176000759140759200227591007592002290004B
:101770001FE4F0A37414F090001F74FF75F0FF12C3
:10178000050BAFF0FEEF4E70EE22D294D2957F02A1
:101790007E00121450C2947F027E00121450C29533
:1017A00022C295C2947F027E00121450D295D29428
:1017B0007F027E0012145022C2B3C2B212176ED240
:1017C000B212176ED2B312176E22D2B3D2B2121760
:1017D0006EC2B312176EC2B22243B10443B20443C5
:1017E000B10843B20822787FE4F6D8FD7581210262
:0B17F0000E9C25642025642025640069
:00000001FF
