:10000000020E4753EFFD3253EFFB320210319000E6
:10001000A4EFF012113B7F78120F3B12107F7F008C
:10002000120F3B12107F9000A4E0FF120F3B121042
:050030007F12115222B5
:10003B00020CE090009EEEF0A3EFF09000A0E4F035
:10004B00A3E4F090009EE0FEA3E0FF9000A0E0FC94
:10005B00A3E0FDC3ED9FEC9E50309000A2741FF007
:10006B009000A37428F09000A3E014FFF0EF70F65B
:10007B009000A2E014FFF0EF70EC9000A1E004F010
:0B008B0070069000A0E004F080B92295
:03009B000200035D
:1000A300020007020478E86480F8E933E83360115A
:1000B3000460F0ED33EC337009E8FCE9FDEAFEEB94
:1000C300FF220460DED3EB9FEA9EE99DE8C2E78C42
:1000D300F0C2F795F0400CE8CCF8E9CDF9EACEFA96
:1000E300EBCFFB12044385D0F05804700320D5B343
:1000F300E80470075002B2D502048292D5EC046082
:10010300F7E4CCC0E0C398F8603B94186008400D56
:10011300D0E0FB02045AE4FBFAC9FC8028E830E48F
:1001230006E4C9FBE4CAFCE830E305E4C9CACBFC36
:10013300E854076010F8C3E913F9EA13FAEB13FB69
:10014300EC13FCD8F130F52FC3E49CFCEF9BFFEEDE
:100153009AFEED99FDD0E0FBEF4E4D4C701222DB81
:100163000302047FEC2CFCEF33FFEE33FEED33FD93
:10017300ED30E7EB02045AEF2BFFEE3AFEED39FDCB
:10018300D0E0FB50130BBB0003020482ED13FDEE22
:1001930013FEEF13FFEC13FC02045AEC4D6011E85D
:1001A300497017ED33EC3304600DE4FCFFFEFD22D0
:1001B300E933E8330470F802047812044358046006
:1001C30009E4CC2481500628500902048228400304
:1001D30002047FC0E0EB4A7044B98006D0E0FB0222
:1001E300046EEF4E701CBD8008EBFFEAFEE9FD8054
:1001F300EBE98DF0A4FEE5F0020287E9CDF9EAFE12
:10020300EBFFEF89F0A4FCE5F0CE89F0A42EFFE428
:1002130035F0CD89F0A42DFEE435F08067EF4E7004
:1002230005BD80D780C3EF8BF0A4ACF0EE8BF0A4B8
:100233002CFCE435F0F8EF8AF0A42CE5F038FCE46C
:1002430033CB8DF0A42CFCE5F03BF8EE8AF0A42C24
:10025300FCE5F038F8E433CF89F0A42CFCE5F03862
:10026300CF3400CE89F0A42FFFE5F03EFEE433C97E
:100273008DF0A42EFEE5F039CD8AF0A42FFFE5F032
:100283003EFEE43DFD33D0E0FB50070BBB000F0205
:100293000482EC2CFCEF33FFEE33FEED33FD02045E
:1002A3005A020482EC5D046005E8590470030204F9
:1002B30078120443580460F6EC4860F2EC7004FDD5
:1002C300FEFF22C860DB2481C85009C39860025036
:1002D3000602047F9850CAF582E9294B4A7005ABA0
:1002E3008202046E75F0007C1A7880C3EF9BEE9A4D
:1002F300ED99400DC3EF9BFFEE9AFEED99FDE842A9
:10030300F0DC23ACF0D0E0FFD0E0FED0E0FDAB8228
:1003130020E7101BEB60BAEC2CFCEF33FFEE33FE4F
:10032300ED33FD02045AE803F830E705C0F075F039
:1003330000EF2FFFEE33FEED33FD40B830E7C28010
:10034300AA74F8CC6480CCC86480C8F58204604F7A
:10035300C3EB9FF5F0EA9E42F0E99D42F0E89C452D
:10036300F0603C501DE5825FFFE582D313CB5BCB8E
:10037300F42B5582FB50280ABA002409B90020083F
:10038300801DE5825BFBE582D313CF5FCFF4C313FC
:100393002F5582FF50090EBE00050DBD00010CC391
:1003A300EB9FF5F0EA9E42F0E99D42F0E89C45F0B0
:1003B3006007CC4820E701B3EC22ED33EC33600A4D
:1003C300047003BD8004ECB2E7FC2275F020800EBC
:1003D30075F010800575F0087D007E007F00339274
:1003E300D530D5031208D6EC334010EF33FFEE338C
:1003F300FEED33FDEC33FCD5F0ED22E5F0247EA2D7
:10040300D513CC92E7CDCEFF22EDD2E7CD33EC333B
:1004130092D524814006E4FFFEFDFC22FCE4CFCE0E
:10042300CDCC24E0501174FF80EDC3CC13CCCD139D
:10043300CDCE13CECF13CF0470F030D5DE0208D665
:10044300E9D2E7C933E833F892D5EDD2E7CD33ECFF
:1004530033FC5002B2D522EC30E7100FBF000C0E74
:10046300BE00080DBD00040BEB6014A2D5EB13FC1A
:10047300ED92E7FD2274FFFCFDFEFF22E480F8A26B
:10048300D574FF13FC7D80E480EFF920E73624F96F
:1004930050037907E4F42402FBE582158270021508
:1004A30083DBF6E024FB501BE96014E4F0E58215DE
:1004B3008270021583E004F0B40A08E4F0D9EE7404
:1004C30001F00A22C2D522ED33EC3392D5FA602A29
:1004D300B4FF33EDC2E77BFF60067A0479EFE422D1
:1004E3007A0479F820D5047A0479F3224E614E0018
:1004F3002B494E46002D494E4600E47A08F0A3DA14
:10050300FC7B00740722C083C082ECC0E0EDC0E036
:10051300EEC0E0EFC0E0EA75F010A4CAABF075F0EE
:100523004DA42BFBE435F0FCEA2410FAEB34C5FBB5
:10053300EC34D9FCEDC2E7FF75F056A4F42411C5E1
:10054300F0F434C58FF0A42AE5F03BE43CF020E757
:10055300141205FFD0E0FFD0E0FED0E0FDD0E0FCB8
:100563001202A78014F4041205FFD0E0FFD0E0FECE
:10057300D0E0FDD0E0FC12019ED082D083E0FAED02
:10058300D2E7CD33EC332482FBE4C3CF33CFCE3376
:10059300CECD33CD33DBF37B0775F00A846004F0F3
:1005A300A31B0AE5F0F0A38FF0740AA4FFACF08E4E
:1005B300F0740AA42CFEACF050010C8DF0740AA464
:1005C3002CFDE435F0F0A3DBDE7407223F8000004E
:1005D3004120000042C80000447A0000461C40004D
:1005E30047C35000497424004B1896804CBEBC206E
:1005F3005A0E1BCA6753C21C749DC5AEFB600654DA
:1006030007601C232312062DEB54386009120619C8
:1006130012062812019EECF8EDF9EEFAEFCB22EB6D
:1006230012062880F1543803241C9005CFFE93FC56
:100633000EEE93FD0EEE930ECE93FF22E709F6081E
:10064300DFFA8046E709F208DFFA803E88828C836E
:10065300E709F0A3DFFA8032E309F608DFFA8078CE
:10066300E309F208DFFA807088828C83E309F0A340
:10067300DFFA806489828A83E0A3F608DFFA805870
:1006830089828A83E0A3F208DFFA804C80D280FA61
:1006930080C680D4806980F28033801080A680EA8F
:1006A300809A80A880DA80E280CA803389828A8334
:1006B300ECFAE493A3C8C582C8CCC583CCF0A3C825
:1006C300C582C8CCC583CCDFE9DEE7800D89828A89
:1006D30083E493A3F608DFF9ECFAA9F0EDFB228992
:1006E300828A83ECFAE0A3C8C582C8CCC583CCF068
:1006F300A3C8C582C8CCC583CCDFEADEE880DB892A
:10070300828A83E493A3F208DFF980CC88F0EF6058
:10071300010E4E60C388F0ED2402B4040050B9F515
:1007230082EB2402B4040050AF23234582239006B6
:100733008F73BB010689828A83E0225002E722BBC2
:10074300FE02E32289828A83E49322BB010CE582C1
:1007530029F582E5833AF583E0225006E92582F8FC
:10076300E622BBFE06E92582F8E222E58229F5822C
:10077300E5833AF583E49322BB010689828A83F0F9
:10078300225002F722BBFE01F322C5F0F8A3E028B2
:10079300F0C5F0F8E582158270021583E038F02287
:1007A300A3F8E0C5F025F0F0E58215827002158309
:1007B300E0C838F0E822E88FF0A4CC8BF0A42CFC3E
:1007C300E98EF0A42CFC8AF0EDA42CFCEA8EF0A4B4
:1007D300CDA8F08BF0A42DCC3825F0FDE98FF0A443
:1007E3002CCD35F0FCEB8EF0A4FEA9F0EB8FF0A43A
:1007F300CFC5F02ECD39FEE43CFCEAA42DCE35F076
:10080300FDE43CFC2275F008758200EF2FFFEE3308
:10081300FECD33CDCC33CCC58233C5829BED9AEC70
:1008230099E58298400CF582EE9BFEED9AFDEC99DA
:10083300FC0FD5F0D6E4CEFBE4CDFAE4CCF9A882E4
:1008430022B800C1B90059BA002DEC8BF084CFCE89
:10085300CDFCE5F0CBF97818EF2FFFEE33FEED3347
:10086300FDEC33FCEB33FB10D703994004EB99FB0E
:100873000FD8E5E4F9FA227818EF2FFFEE33FEEDF7
:1008830033FDEC33FCC933C910D7059BE99A400704
:10089300EC9BFCE99AF90FD8E0E4C9FAE4CCFB221B
:1008A30075F010EF2FFFEE33FEED33FDCC33CCC8E4
:1008B30033C810D7079BEC9AE899400AED9BFDECEF
:1008C3009AFCE899F80FD5F0DAE4CDFBE4CCFAE42E
:1008D300C8F922C3E49FFFE49EFEE49DFDE49CFC73
:1008E30022ECF0A3EDF0A3EEF0A3EFF022A88285B3
:1008F30083F0D083D0821209071209071209071265
:100903000907E473E493A3C583C5F0C583C8C5820F
:10091300C8F0A3C583C5F0C583C8C582C822F8E063
:10092300FBA3A3E0F925F0F0E5821582700215839D
:10093300E0FA38F022EBF0A3EAF0A3E9F022D08347
:10094300D082F8E4937012740193700DA3A393F80B
:10095300740193F5828883E4737402936860EFA350
:10096300A3A380DF90009E1208E475BA8090FFF283
:10097300E4F090FFF07406F0A3E4F07F007E007DC6
:10098300007C0090009EE0F8A3E0F9A3E0FAA3E066
:10099300FB120344606F406D7B007A0079C8784294
:1009A30090009EE0FCA3E0FDA3E0FEA3E0FF1202A3
:1009B300A7C004C005C006C00790FFF0E0FCA3E099
:1009C300FDE41203D3A804A905AA06AB07D007D0F8
:1009D30006D005D00412019E12040C90FF20EEF005
:1009E300A3EFF090FF20E0FEA3E0FF90FFF0E0FC18
:1009F300A3E0FDC3ED9FFFEC9EFE90FF40EEF0A34E
:100A0300EFF0020A8990009EE0FCA3E0FDA3E0FE64
:100A1300A3E0FF1203BD90009E1208E47B007A005E
:100A230079C8784290009EE0FCA3E0FDA3E0FEA31A
:100A3300E0FF1202A7C004C005C006C00790FFF084
:100A4300E0FCA3E0FDE41203D3A804A905AA06ABC6
:100A530007D007D006D005D00412019E12040C90D3
:100A6300FF40EEF0A3EFF090FF40E0FEA3E0FF9025
:100A7300FFF0E0FCA3E0FDC3ED9FFFEC9EFE90FFC3
:100A830020EEF0A3EFF07F007E007D007C0090005D
:100A9300A2E0F8A3E0F9A3E0FAA3E0FB12034460A9
:100AA3006F406D7B007A0079C878429000A2E0FC29
:100AB300A3E0FDA3E0FEA3E0FF1202A7C004C0056C
:100AC300C006C00790FFF0E0FCA3E0FDE41203D3EF
:100AD300A804A905AA06AB07D007D006D005D00401
:100AE30012019E12040C90FF30EEF0A3EFF090FF82
:100AF30030E0FEA3E0FF90FFF0E0FCA3E0FDC3EDD8
:100B03009FFFEC9EFE90FF60EEF0A3EFF0020B94CC
:100B13009000A2E0FCA3E0FDA3E0FEA3E0FF12032C
:100B2300BD9000A21208E47B007A0079C878429055
:100B330000A2E0FCA3E0FDA3E0FEA3E0FF1202A7F6
:100B4300C004C005C006C00790FFF0E0FCA3E0FDB1
:100B5300E41203D3A804A905AA06AB07D007D0065D
:100B6300D005D00412019E12040C90FF60EEF0A396
:100B7300EFF090FF60E0FEA3E0FF90FFF0E0FCA346
:100B8300E0FDC3ED9FFFEC9EFE90FF30EEF0A3EF80
:100B9300F090FF247480F090FF347480F090FF4451
:100BA3007480F090FF647480F075BA0075FE802243
:100BB3007D007C007FAE7E001210C47D007C007F30
:100BC300007E001210C47D007C007F107E00121096
:100BD300C47D007C007F407E001210C47D007C0039
:100BE3007FB07E001210C47D007C007F817E0012E6
:100BF30010C47D007C007FFF7E001210C47D007C4A
:100C0300007FA17E001210C47D007C007FA67E00C1
:100C13001210C47D007C007FA87E001210C47D00EA
:100C23007C007F3F7E001210C47D007C007FC87E65
:100C3300001210C47D007C007FD37E001210C47D9F
:100C4300007C007F007E001210C47D007C007FD5F5
:100C53007E001210C47D007C007F807E001210C4D1
:100C63007D007C007FD87E001210C47D007C007F55
:100C7300057E001210C47D007C007FD97E00121017
:100C8300C47D007C007FF17E001210C47D007C00D7
:100C93007FDA7E001210C47D007C007F127E00127A
:100CA30010C47D007C007FDB7E001210C47D007CBD
:100CB300007F307E001210C47D007C007F8D7E009B
:100CC3001210C47D007C007F147E001210C47D00CE
:100CD3007C007FAF7E001210C4120ED322C0E0C08E
:100CE300F0C083C082C0D075D000C000C001C00274
:100CF300C003C004C005C006C00730DF08C2DF90D0
:100D030000B8E004F030D87AC2D89000BBE0FEA36C
:100D1300E0FF9000B9EEF0A3EFF0AFFA7E00EF7FB3
:100D230000FEADEA7C00EE4CFEEF4DFF9000BBEE03
:100D3300F0A3EFF09000BD1208F000000000900057
:100D4300B8E0FFE4FCFDFE7B007A00790178001235
:100D530007B9A804A905AA06AB079000BBE0FEA348
:100D6300E0FFE4FCFDEB2FFFEA3EFEE93DFDE83C3E
:100D7300FC9000BD1208E475E90075F9009000B815
:100D8300E4F0D007D006D005D004D003D002D001C0
:100D9300D000D0D0D082D083D0F0D0E03244005104
:100DA30000000000440059000000004400343C23CC
:100DB300D70A4400553A83126F4400383F000000BD
:100DC3004400453E99999A41004401440040000083
:100DD30000005000100000000000000000000000B0
:100DE30000000000005000243F80000000000000CD
:100DF300000000003F8000006028005D000000004C
:100E030000000000000000000000000000000000DF
:100E13000000000041F0000040A0000040A00000DE
:100E2300000000004400BD000000004100B8004283
:100E330000B900004200BB00004200C900004200AC
:100E4300C7000000787FE4F6D8FD758107020E8E97
:100E5300020F91E493A3F8E493A34003F68001F215
:100E630008DFF48029E493A3F85407240CC8C333A0
:100E7300C4540F4420C8834004F456800146F6DF6F
:100E8300E4800B0102040810204080900DA0E47E52
:100E9300019360BCA3FF543F30E509541FFEE49364
:100EA300A360010ECF54C025E060A840B8E493A32B
:100EB300FAE493A3F8E493A3C8C582C8CAC583CA56
:100EC300F0A3C8C582C8CAC583CADFE9DEE780BE0E
:100ED30090009EE4F090009EE0FFEFC3940850570B
:100EE30090009EE0FF7E00EF24B0FFEE3400FE7D15
:100EF300007C001210C47D007C007F007E00121075
:100F0300C47D007C007F107E001210C490009FE41B
:100F1300F090009FE0FFEFC3948050137D017C00AD
:100F23007F007E001210C490009FE004F080E290E6
:100F3300009EE004F0809E229000A5EFF09000A6B2
:100F4300E4F09000A6E0FFEFC3940850409000A6A1
:100F5300E0FF9000A5E0FEEEA807088002C333D8A7
:100F6300FCFFEF30E704D2948002C2947F017E003D
:100F7300120FE1D2957F017E00120FE1C2957F012E
:100F83007E00120FE19000A6E004F080B5229000ED
:100F930088E4F0A37402F07BFF7A117969C003C07F
:100FA30002C0017B017A00798AA801AC02AD03D0AB
:100FB30001D002D0037E007F1412070F120BB390EF
:100FC30000A21208F0424800007F007E007D487CAA
:100FD300421209677F0A7E0012003E80E2229000DF
:100FE300A7EEF0A3EFF09000A9E4F0A3E4F09000E3
:100FF300A7E0FEA3E0FF9000A9E0FCA3E0FDC3EDA2
:101003009FEC9E50289000ABE4F09000ABE0FFEF24
:10101300C3940550089000ABE004F080ED9000AA63
:10102300E004F070069000A9E004F080C122C0E063
:10103300C083C082C0D075D000C006C0079000C76F
:10104300E0FEA3E0FFC3EF9432EE6480948040118E
:101053009000C9E4F0A37401F09000C7E4F0A3E4A6
:10106300F09000C8E004F070069000C7E004F0D0F0
:1010730007D006D0D0D082D083D0E0329000A5E450
:10108300F07F0112111FD2947F017E00120FE1D273
:10109300957F017E00120FE130941C9000A5E004BF
:1010A300F09000A5E0FFEFD394FA40EC1211527FC9
:1010B3000012111F7F0122C2957F0012111F7F00B2
:1010C300229000A0EEF0A3EFF09000A2ECF0A3EDCD
:1010D300F09000A2E0FEA3E0FFEF4E600C9000A0B2
:1010E300E0FEA3E0FF1210F8229000A0E0FEA3E0D0
:1010F300FF12000E229000A4EFF012113B7F781232
:101103000F3B12107F7F40120F3B12107F9000A401
:10111300E0FF120F3B12107F121152229000A6EF34
:10112300F09000A6E0FFEFB40107759140759200BF
:101133002275910075920022D294D2957F027E008F
:10114300120FE1C2947F027E00120FE1C29522C208
:1011530095C2947F027E00120FE1D295D2947F0252
:101163007E00120FE12261626300000000000000B4
:0A1173000000000000000000000072
:00000001FF
