:10000000021255F920E73624F950037907E4F42465
:1000100002FBE582158270021583DBF6E024FB50BB
:100020001BE96014E4F0E582158270021583E00498
:10003000F0B40A08E4F0D9EE7401F00A22C2D52225
:10004000ED33EC3392D5FA602AB4FF33EDC2E77B8F
:10005000FF60067A007965E4227A00796E20D50483
:100060007A007969224E614E002B494E46002D4997
:100070004E4600E47A08F0A3DAFC7B00740722C045
:1000800083C082ECC0E0EDC0E0EEC0E0EFC0E0EA8B
:1000900075F010A4CAABF075F04DA42BFBE435F05D
:1000A000FCEA2410FAEB34C5FBEC34D9FCEDC2E7D2
:1000B000FF75F056A4F42411C5F0F434C58FF0A4F4
:1000C0002AE5F03BE43CF020E714120413D0E0FFF3
:1000D000D0E0FED0E0FDD0E0FC1203468014F40432
:1000E000120413D0E0FFD0E0FED0E0FDD0E0FC121F
:1000F000023DD082D083E0FAEDD2E7CD33EC332459
:1001000082FBE4C3CF33CFCE33CECD33CD33DBF35D
:100110007B0775F00A846004F0A31B0AE5F0F0A3E6
:100120008FF0740AA4FFACF08EF0740AA42CFEAC1D
:10013000F050010C8DF0740AA42CFDE435F0F0A30E
:10014000DBDE740722020488E86480F8E933E833D0
:1001500060110460F0ED33EC337009E8FCE9FDEA6E
:10016000FEEBFF220460DED3EB9FEA9EE99DE8C22E
:10017000E78CF0C2F795F0400CE8CCF8E9CDF9EA4D
:10018000CEFAEBCFFB12045385D0F0580470032055
:10019000D5B3E80470075002B2D502049292D5ECB0
:1001A0000460F7E4CCC0E0C398F8603B94186008A2
:1001B000400DD0E0FB02046AE4FBFAC9FC8028E8A9
:1001C00030E406E4C9FBE4CAFCE830E305E4C9CA4C
:1001D000CBFCE854076010F8C3E913F9EA13FAEB13
:1001E00013FBEC13FCD8F130F52FC3E49CFCEF9B20
:1001F000FFEE9AFEED99FDD0E0FBEF4E4D4C7012F4
:1002000022DB0302048FEC2CFCEF33FFEE33FEED18
:1002100033FDED30E7EB02046AEF2BFFEE3AFEED23
:1002200039FDD0E0FB50130BBB0003020492ED1329
:10023000FDEE13FEEF13FFEC13FC02046AEC4D60BD
:1002400011E8497017ED33EC3304600DE4FCFFFE58
:10025000FD22E933E8330470F8020488120453588D
:10026000046009E4CC248150062850090204922835
:10027000400302048FC0E0EB4A7044B98006D0E02E
:10028000FB02047EEF4E701CBD8008EBFFEAFEE926
:10029000FD80EBE98DF0A4FEE5F0020326E9CDF93F
:1002A000EAFEEBFFEF89F0A4FCE5F0CE89F0A42E86
:1002B000FFE435F0CD89F0A42DFEE435F08067EF42
:1002C0004E7005BD80D780C3EF8BF0A4ACF0EE8BF1
:1002D000F0A42CFCE435F0F8EF8AF0A42CE5F0381B
:1002E000FCE433CB8DF0A42CFCE5F03BF8EE8AF077
:1002F000A42CFCE5F038F8E433CF89F0A42CFCE51D
:10030000F038CF3400CE89F0A42FFFE5F03EFEE4B4
:1003100033C98DF0A42EFEE5F039CD8AF0A42FFF6D
:10032000E5F03EFEE43DFD33D0E0FB50070BBB00A3
:100330000F020492EC2CFCEF33FFEE33FEED33FDA5
:1003400002046A020492EC5D046005E8590470033B
:10035000020488120453580460F6EC4860F2EC7012
:1003600004FDFEFF22C860DB2481C85009C39860E9
:1003700002500602048F9850CAF582E9294B4A7050
:1003800005AB8202047E75F0007C1A7880C3EF9B77
:10039000EE9AED99400DC3EF9BFFEE9AFEED99FDAD
:1003A000E842F0DC23ACF0D0E0FFD0E0FED0E0FD8E
:1003B000AB8220E7101BEB60BAEC2CFCEF33FFEEB6
:1003C00033FEED33FD02046AE803F830E705C0F0C0
:1003D00075F000EF2FFFEE33FEED33FD40B830E750
:1003E000C280AA3F8000004120000042C8000044B3
:1003F0007A0000461C400047C35000497424004B5B
:100400001896804CBEBC205A0E1BCA6753C21C747F
:100410009DC5AEFB60065407601C2323120441EB0C
:100420005438600912042D12043C12023DECF8ED20
:10043000F9EEFAEFCB22EB12043C80F1543803249E
:100440001C9003E3FE93FC0EEE93FD0EEE930ECE96
:1004500093FF22E9D2E7C933E833F892D5EDD2E72A
:10046000CD33EC33FC5002B2D522EC30E7100FBF95
:10047000000C0EBE00080DBD00040BEB6014A2D5ED
:10048000EB13FCED92E7FD2274FFFCFDFEFF22E47E
:1004900080F8A2D574FF13FC7D80E480EFBB0106D9
:1004A00089828A83E0225002E722BBFE02E322898E
:1004B000828A83E49322BB010CE58229F582E583DD
:1004C0003AF583E0225006E92582F8E622BBFE06D3
:1004D000E92582F8E222E58229F582E5833AF5836F
:1004E000E49322BB010689828A83F0225002F7221C
:1004F000BBFE01F322C5F0F8A3E028F0C5F0F8E553
:1005000082158270021583E038F022A3F8E0C5F06E
:1005100025F0F0E582158270021583E0C838F0E816
:1005200022E88FF0A4CC8BF0A42CFCE98EF0A42C54
:10053000FC8AF0EDA42CFCEA8EF0A4CDA8F08BF0A0
:10054000A42DCC3825F0FDE98FF0A42CCD35F0FC9E
:10055000EB8EF0A4FEA9F0EB8FF0A4CFC5F02ECD6A
:1005600039FEE43CFCEAA42DCE35F0FDE43CFC224F
:1005700075F008758200EF2FFFEE33FECD33CDCC42
:1005800033CCC58233C5829BED9AEC99E5829840C5
:100590000CF582EE9BFEED9AFDEC99FC0FD5F0D6A2
:1005A000E4CEFBE4CDFAE4CCF9A88222B800C1B9CC
:1005B0000059BA002DEC8BF084CFCECDFCE5F0CB0A
:1005C000F97818EF2FFFEE33FEED33FDEC33FCEB43
:1005D00033FB10D703994004EB99FB0FD8E5E4F9FE
:1005E000FA227818EF2FFFEE33FEED33FDEC33FCEB
:1005F000C933C910D7059BE99A4007EC9BFCE99ADF
:10060000F90FD8E0E4C9FAE4CCFB2275F010EF2F23
:10061000FFEE33FEED33FDCC33CCC833C810D70723
:100620009BEC9AE899400AED9BFDEC9AFCE899F85E
:100630000FD5F0DAE4CDFBE4CCFAE4C8F922ECF013
:10064000A3EDF0A3EEF0A3EFF022A8828583F0D013
:1006500083D082120661120661120661120661E4FD
:1006600073E493A3C583C5F0C583C8C582C8F0A34E
:10067000C583C5F0C583C8C582C822F8E0FBA3A323
:10068000E0F925F0F0E582158270021583E0FA3872
:10069000F022EBF0A3EAF0A3E9F022D083D082F8B5
:1006A000E4937012740193700DA3A393F8740193F3
:1006B000F5828883E4737402936860EFA3A3A38038
:1006C000DF2567000000000000000000002F000090
:1006D00000000700070000147F147F1400242A7F05
:1006E0002A12006264081323003649552250000084
:1006F0000503000000001C224100000041221C00F4
:100700000014083E08140008083E0808000000A075
:100710006000000808080808000060600000002071
:1007200010080402003E5149453E0000427F40004F
:10073000004261514946002141454B3100181412D5
:100740007F10002745454539003C4A4949300001A2
:100750007109050300364949493600064949291EF1
:100760000000363600000000563600000008142253
:100770004100001414141414000041221408000253
:100780000151090600324959513E007C1211127C78
:10079000007F49494936003E41414122007F4141A5
:1007A000221C007F49494941007F09090901003E97
:1007B0004149497A007F0808087F0000417F4100D5
:1007C000002040413F01007F08142241007F40404B
:1007D0004040007F020C027F007F0408107F003E33
:1007E0004141413E007F09090906003E4151215E19
:1007F000007F091929460046494949310001017F16
:100800000101003F4040403F001F2040201F003FAB
:100810004038403F0063140814630007087008075D
:1008200000615149454300007F41410000552A5570
:100830002A55000041417F000004020102040040EB
:10084000404040400000010204000020545454780D
:10085000007F48444438003844444420003844442D
:10086000487F00385454541800087E0901020018CB
:10087000A4A4A47C007F080404780000447D400008
:10088000004080847D00007F102844000000417FEC
:100890004000007C04180478007C080404780038C8
:1008A0004444443800FC242424180018242418FC50
:1008B000007C0804040800485454542000043F44B9
:1008C0004020003C4040207C001C2040201C003C7C
:1008D0004030403C004428102844001CA0A0A07CCC
:1008E000004464544C441414141414147D007C000B
:1008F0007FAE7E001210A47D007C007F007E00127F
:1009000010A47D007C007F107E001210A47D007C6E
:10091000007F407E001210A47D007C007FB07E002E
:100920001210A47D007C007F817E001210A47D0047
:100930007C007FFF7E001210A47D007C007FA17EE2
:10094000001210A47D007C007FA67E001210A47D02
:10095000007C007FA87E001210A47D007C007F3FF9
:100960007E001210A47D007C007FC87E001210A4BF
:100970007D007C007FD37E001210A47D007C007F70
:10098000007E001210A47D007C007FD57E00121036
:10099000A47D007C007F807E001210A47D007C007E
:1009A0007FD87E001210A47D007C007F057E00129F
:1009B00010A47D007C007FD97E001210A47D007CF5
:1009C000007FF17E001210A47D007C007FDA7E00A3
:1009D0001210A47D007C007F127E001210A47D0006
:1009E0007C007FDB7E001210A47D007C007F307EC7
:1009F000001210A47D007C007F8D7E001210A47D6B
:100A0000007C007F147E001210A47D007C007FAF6C
:100A10007E001210A4120D182290000EEFF090002C
:100A20000FEDF0900017E4F0900015E4F090001442
:100A3000E0FF900015E0FEEEC39F4003020AFA902B
:100A40000015E0FF900014E0FEC3EE9FFFEF14FDE1
:100A50007F0A120F36A804A905AA06AB079000105A
:100A6000E0FCA3E0FDA3E0FEA3E0FF1205AC7B0ADF
:100A70007A00790078001205ACAC00AD01AE02AF8F
:100A800003900016EFF0900017E0FFEF703F90002A
:100A900014E0FFEF14FF900015E0FEEEC39F502D11
:100AA000900016E0FFEF701F900015E0FFEF75F06B
:100AB00006A4FF90000EE0FEEF2EFF90000FE0FD79
:100AC0007B20120AFB802A9000177401F090001519
:100AD000E0FFEF75F006A4FF90000EE0FEEF2EFFA2
:100AE00090000FE0FD900016E0FEEE2430FB120AAD
:100AF000FB900015E004F0020A2D22900018EFF0A0
:100B0000900019EDF090001AEBF090001BE4F090CB
:100B1000001CE4F090001AE0FFEF24E0FF90001BBF
:100B2000EFF0900018E0FFEFD3947F400C90001896
:100B3000E4F0900019E02402F0900018E0FF90002B
:100B400019E0FD120F8590001CE4F090001CE0FFFE
:100B5000EFC39406503790001CE0FF90001BE0FEAE
:100B600075F006EEA424C4F582E5F03406F583E5BD
:100B7000822FF582E43583F583E493FF7E007D01C7
:100B80007C001210A490001CE004F080BE229000B3
:100B900014EFF0900015EDF0900016EBF0A3EAF0E2
:100BA000A3E9F0121239900014E0FFEF25E0FF12E4
:100BB0001062900015E0FF12106290001AE0FFEF43
:100BC000B40103121227121239900014E0FFEF252E
:100BD000E0FFEF4401FF121062900019E014FFF0F3
:100BE000EF60207F01120D80900016E0FBA3E0FA79
:100BF000A3E0F9EF1204E3900017E475F00112048A
:100C0000F580D67F00120D80900016E0FBA3E0FA7D
:100C1000A3E0F9EF1204E3121227221208EC1212D9
:100C200048120FD3120C9F900031E0FEA3E0FFEEBC
:100C30003395E0FDFC90001012063E900014740500
:100C4000F07D007F00120A19900033E0FEA3E0FF60
:100C5000EE3395E0FDFC90001012063E90001474F7
:100C600005F07D017F00120A19900035E0FEA3E037
:100C7000FFEE3395E0FDFC90001012063E9000144C
:100C80007405F07D027F00120A19C2A17F647E0004
:100C9000120DE0D2A17F647E00120DE08086227BDF
:100CA000017A00790E9000197406F090001AE4F0B1
:100CB0007D3B7F68120B8E90000EE0FF7E00EF7F81
:100CC00000FE90000FE0FD7C00EE4CFEEF4DFF902B
:100CD000002BEEF0A3EFF0900010E0FF7E00EF7F1E
:100CE00000FE900011E0FD7C00EE4CFEEF4DFF9009
:100CF000002DEEF0A3EFF0900012E0FF7E00EF7FFA
:100D000000FE900013E0FD7C00EE4CFEEF4DFF90E6
:100D1000002FEEF0A3EFF02290000EE4F090000E12
:100D2000E0FFEFC39408505790000EE0FF7E00EF05
:100D300024B0FFEE3400FE7D007C001210A47D0084
:100D40007C007F007E001210A47D007C007F107E5E
:100D5000001210A490000FE4F090000FE0FFEFC32A
:100D6000948050137D017C007F007E001210A490BF
:100D7000000FE004F080E290000EE004F0809E227C
:100D800090001BEFF090001DE4F0C2B21211DDD212
:100D9000B390001CE4F090001CE0FFEFC3940850F7
:100DA0002C1211DDC2B21211DDD2B21211DD90008F
:100DB0001DE0FFEF25E0FF90001DEFF030B306903F
:100DC000001DE004F090001CE004F080C9C2B212E3
:100DD00011DD90001BE0FF12117F90001DE0FF224B
:100DE00090000EEEF0A3EFF0900010E4F0A3E4F01A
:100DF00090000EE0FEA3E0FF900010E0FCA3E0FDF9
:100E0000C3ED9FEC9E5030900012741FF0900013C1
:100E10007428F0900013E014FFF0EF70F6900012C9
:100E2000E014FFF0EF70EC900011E004F070069019
:100E30000010E004F080B92290000EEFF090000F57
:100E4000EDF0900010EBF012123990000EE0FFEF81
:100E500025E0FF12106290000FE0FF121062900078
:100E600010E0FFEFB4010312122712123990000EA6
:100E7000E0FFEF25E0FFEF4401FF1210627F001258
:100E80000D80900011EFF0121227900011E0FF2268
:100E9000900024EFF0900025E4F0900025E0FFEFB3
:100EA000C394085040900025E0FF900024E0FEEE3F
:100EB000A807088002C333D8FCFFEF30E704D294C0
:100EC0008002C2947F017E00120EE6D2957F017EE1
:100ED00000120EE6C2957F017E00120EE6900025FC
:100EE000E004F080B522900026EEF0A3EFF0900031
:100EF00028E4F0A3E4F0900026E0FEA3E0FF9000D9
:100F000028E0FCA3E0FDC3ED9FEC9E502890002A52
:100F1000E4F090002AE0FFEFC39405500890002A07
:100F2000E004F080ED900029E004F07006900028C5
:100F3000E004F080C122900018EFF0900019EDF06D
:100F400090001A12064A00000001900019E0FF14F8
:100F5000F0EF602290001AE0F8A3E0F9A3E0FAA312
:100F6000E0FB900018E0FFE4FCFDFE12052190007C
:100F70001A12063E80D490001AE0FCA3E0FDA3E024
:100F8000FEA3E0FF2290001DEFF090001EEDF09018
:100F9000001EE0FF7E00EF24B0FFEE3400FE7D0077
:100FA0007C001210A490001DE0FFEF54F0FFEFC48E
:100FB000540FFF7E00EF4410FF7D007C001210A450
:100FC00090001DE0FFEF540FFF7E007D007C0012BB
:100FD00010A4227F647E00120DE01211587B007D68
:100FE0006B7F681210D87B077D197F681210D87B41
:100FF000047D1A7F681210D87B187D1B7F68121041
:10100000D87B107D1C7F681210D87B007D6A7F68BA
:101010001210D87B027D377F681210D822900024EE
:10102000E4F07F011211C1D2947F017E00120EE61E
:10103000D2957F017E00120EE630941C900024E0D1
:1010400004F0900024E0FFEFD394FA40EC12121069
:101050007F001211C17F0122C2957F001211C17F52
:10106000002290001BEFF090001C7408F090001C10
:10107000E0FF14F0EF602990001BE0FFEF30E70481
:10108000D2B38002C2B390001BE0FFEF25E0FF90D7
:10109000001BEFF01211DDD2B21211DDC2B280CD11
:1010A0001211A22290001FEEF0A3EFF0900021ECAD
:1010B000F0A3EDF0900021E0FEA3E0FFEF4E600C06
:1010C00090001FE0FEA3E0FF1211312290001FE00C
:1010D000FEA3E0FF12110A2290000EEFF090000F25
:1010E000EDF0900010EBF012123990000EE0FFEFDF
:1010F00025E0FF12106290000FE0FF1210629000D6
:1011000010E0FF12106212122722900023EFF0125B
:1011100011F97F78120E9012101D7F00120E90129E
:10112000101D900023E0FF120E9012101D121210DD
:1011300022900023EFF01211F97F78120E90121016
:101140001D7F40120E9012101D900023E0FF120E22
:101150009012101D121210227B007D6B7F681210FE
:10116000D87B077D197F681210D87B007D197F68B6
:10117000120E38EF64076004D2A180EED2A1229053
:10118000001EEFF0C2B21211DD90001EE0FFEF6012
:1011900004C2B38002D2B3D2B21211DDC2B21211B4
:1011A000DD22C2B21211DDD2B21211DD30B308C29B
:1011B000B2E47E007F0022C2B21211DD7E007F0108
:1011C00022900025EFF0900025E0FFEFB4010775B5
:1011D0009140759200227591007592002290001F37
:1011E000E4F0A37414F090001F74FF75F0FF120573
:1011F0000BAFF0FEEF4E70EE22D294D2957F027EBE
:1012000000120EE6C2947F027E00120EE6C2952204
:10121000C295C2947F027E00120EE6D295D2947FD0
:10122000027E00120EE622C2B3C2B21211DDD2B2A9
:101230001211DDD2B31211DD22D2B3D2B21211DDFE
:10124000C2B31211DDC2B22243B10443B20443B1AE
:101250000843B20822787FE4F6D8FD758107020CB6
:011260001B72
:00000001FF
