:030000000212AB3E
:0C12AB00787FE4F6D8FD75815B02129D8F
:0E129D00120CD27B617D027F01120E8D80F556
:100AA7002567000000000000000000002F00000084
:100AB700000700070000147F147F1400242A7F2AF0
:100AC70012006264081323003649552250000005BE
:100AD70003000000001C224100000041221C00000E
:100AE70014083E08140008083E0808000000A0602B
:100AF70000000808080808000060600000002010D7
:100B0700080402003E5149453E0000427F40000074
:100B17004261514946002141454B31001814127F6B
:100B270010002745454539003C4A494930000171C5
:100B370009050300364949493600064949291E0077
:100B47000036360000000056360000000814224127
:100B570000001414141414000041221408000201A8
:100B670051090600324959513E007C1211127C008E
:100B77007F49494936003E41414122007F41412298
:100B87001C007F49494941007F09090901003E418D
:100B970049497A007F0808087F0000417F4100002B
:100BA7002040413F01007F08142241007F40404020
:100BB70040007F020C027F007F0408107F003E4147
:100BC70041413E007F09090906003E4151215E006F
:100BD7007F091929460046494949310001017F012A
:100BE70001003F4040403F001F2040201F003F4082
:100BF70038403F00631408146300070870080700B3
:100C0700615149454300007F41410000552A552A5B
:100C170055000041417F00000402010204004040EA
:100C27004040400000010204000020545454780062
:100C37007F484444380038444444200038444448FA
:100C47007F00385454541800087E0901020018A484
:100C5700A4A47C007F080404780000447D400000C1
:100C67004080847D00007F102844000000417F40C1
:100C770000007C04180478007C08040478003844D9
:100C870044443800FC242424180018242418FC00A9
:100C97007C0804040800485454542000043F44408E
:100CA70020003C4040207C001C2040201C003C4091
:100CB70030403C004428102844001CA0A0A07C0021
:0B0CC7004464544C441414141414141E
:101161008F1D12121F7F78120F17121044E4FF1205
:101171000F17121044AF1D120F1712104402124C18
:101181008F1D12121F7F78120F171210447F401209
:101191000F17121044AF1D120F1712104402124CF8
:0611F1007F10E4FDFCFE8E
:1011F7008E1B8F1CED4C6003021181AF1C12116115
:0112070022C4
:020ED8008F5435
:100EDA00E4F555E55524B0FFE433FEE4FDFC1211B8
:100EEA00F7E4FDFCFFFE1211F71211F1E4F556AF1B
:100EFA00547E007D017C001211F70556E556C39415
:0C0F0A008040EC0555E555C3940840C735
:010F160022B8
:1011A100D3EF9400EE940040147D657C18ED1D7022
:0D11B100011CED4C70F7EF1F70E61E80E38F
:0111BE00220E
:10123600EF1FAA0670011E4A600BE4FDEDC3947B06
:0512460050EE0D80F7E1
:01124B002280
:1010DF008F1AED24B0FFE433FEE4FDFC1211F7E5A7
:1010EF001A54F0C4540F7E004410FFE4FDFC12119B
:0E10FF00F7E51A540FFF7E00E4FDFC0211F726
:101208007F8D1211F3E4FDFC7F14FE1211F7E4FD4B
:07121800FC7FAFFE0211F79D
:10127800E4FDFC7F8DFE1211F71211F1E4FDFC7FF5
:05128800AEFE0211F7AB
:100FCF00E4F518E51824B0FFE433FEE4FDFC12113C
:100FDF00F7E4FDFCFFFE1211F71211F1E4F5197D94
:100FEF00017C00E4FFFE1211F70519E519C3948087
:0B0FFF0040ED0518E518C3940840C839
:01100A0022C3
:100F5500E4F55AE55A24B0FFE433FEE4FDFC121132
:100F6500F7E4FDFCFFFE1211F71211F1E4F55B7DCC
:100F7500017C007F017E001211F7055BE55BC394E0
:0C0F85008040EC055AE55AC3940840C7B0
:010F9100223D
:100E8D00E4F518F519EB24E0F518EFD3947F400441
:100E9D00E4FF0D0D1210DFE4F51975F006E518A449
:100EAD0024AAF582E5F0340AF583E5822519F58249
:100EBD00E43583F583E493FF7E007D017C00121100
:0A0ECD00F70519E519C3940640D09B
:010ED70022F8
:04100B008F488D4934
:10100F00E4754D01F54CF54BF54AAF491549EF60C5
:10101F001BAB4DAA4CA94BA84AAF48E4FCFDFE12EE
:10102F0004E58F4D8E4C8D4B8C4A80DEAF4DAE4C10
:04103F00AD4BAC4ABF
:01104300228A
:040DC0008F3E8D3F96
:100DC400E4F547F545E545C395445065C3E54495C9
:100DD4004514FD7F0A12100BA804A905AA06AB0747
:100DE400AF43AE42AD41AC40120570E47B0AFAF960
:100DF400F8120570AF038F46E547701EE54414FFF3
:100E0400E545C39F5014E546700DE54575F006A40D
:100E1400253EFF7B208011754701E54575F006A44A
:100E2400253EFFE5462430FBAD3F120E8D0545807F
:010E34009429
:010E3500229A
:0410B0008F088D090F
:1010B4007525FF75260A7527A7850D2B850C2A85AE
:1010C4000B29850A287B007A00790E1206947B008E
:0B10D4007A00790EAD09AF08020F9200
:0A0F92008F4E8D4F8B508A5189520B
:100F9C00E4F553AB50AA51A95285538275830012C4
:100FAC0004A6FB601DAD4FAF4E120E8D7408254E7E
:100FBC00F54ED394784007E4F54E054F054F055395
:020FCC0080D1D2
:010FCE002200
:100CD200E4FDFC7FAEFE1211F7E4FDFCFFFE1211F3
:100CE200F71211F1E4FDFC7F40FE1211F7E4FDFC66
:100CF2007FB0FE1211F7E4FDFC7F81FE1211F7E4D2
:100D0200FDFC7FFFFE1211F7E4FDFC7FA1FE121134
:100D1200F7E4FDFC7FA6FE1211F7E4FDFC7FA8FEBE
:100D22001211F7E4FDFC7F3FFE1211F7E4FDFC7F98
:100D3200C8FE1211F7E4FDFC7FD3FE1211F7E4FDA9
:100D4200FCFFFE1211F7E4FDFC7FD5FE1211F7E461
:100D5200FDFC7F80FE1211F7E4FDFC7FD8FE12112C
:100D6200F7E4FDFC7F05FE1211F7E4FDFC7FD9FEDE
:100D72001211F7E4FDFC7FF1FE1211F7E4FDFC7F96
:100D8200DAFE1211F7E4FDFC7F12FE1211F7E4FD08
:100D9200FC7FDBFE1211F7E4FDFC7F30FE1211F73F
:100DA200E4FDFC7F8DFE1211F7E4FDFC7F14FE12C0
:0E0DB20011F7E4FDFC7FAFFE1211F7020FCF28
:10128D00BF0107759140E4F59222E4F591F59222A4
:10121F00D294D2957F027E001211D9C2947F027EA2
:07122F00001211D9C2952243
:10124C00C295C2947F027E001211D9D295D2947F9E
:06125C00027E000211D920
:10104400E4F51E7F0112128DD2947E001211D9D2C2
:10105400957F017E001211D9309413051EE51ED32D
:1010640094FA40F412124CE4FF12128D0F22C2952E
:05107400E4FF12128DE3
:011079002254
:020F17008F1E2B
:100F1900E4F51FAF1FE51EA807088002C333D8FCFC
:100F290030E704D2948002C2947F017E001211D965
:100F3900D2957F017E001211D9C2957F017E0012E0
:0B0F490011D9051FE51FC3940840C824
:010F5400227A
:10107A00C2957F027E001211D9D2947F027E00129D
:10108A0011D9C2947F027E001211D9D2957F027EB5
:10109A00001211D9C2957F027E001211D9D2947F13
:0610AA00027E000211D9D4
:10110D00C2957F027E001211D9D2947F027E001209
:10111D0011D9D2957F027E001211D9C2957F027E20
:0D112D00001211D9C2947F027E000211D978
:020E36008F57D4
:100E3800E4F5587F0112128DD2947F0F7E001211B3
:100E4800D9E4F559C2957F027E001211D9D2957F57
:100E5800017E001211D9E55825E0F55830940205B5
:100E6800587F017E001211D90559E559C3940840ED
:100E7800D3E4FF12128DE557700512110D8003128D
:040E8800107AAF58D5
:010E8C002243
:1011BF00E4FDFCC3ED9FEC9E500F791F7B28DBFEF7
:0911CF00D9FC0DBD00010C80EA01
:0111D80022F4
:10126200E4FDFCC3ED9FEC9E500B7B06DBFE0DBD47
:0512720000010C80EEFC
:011277002254
:1011D900E4FDFCC3ED9FEC9E500DE4FB0BBB05FC4D
:0711E9000DBD00010C80ECBC
:0111F00022DC
:10063800E5392425F8E6053922782230070278259D
:10064800E475F00112060202048D2000EB7F2ED221
:10065800008018EF540F2490D43440D4FF30040B9A
:10066800EF24BFB41A0050032461FFE53A60021575
:100678003A053DE53D7002053C30070D7822E475EA
:10068800F001120602EF0204D302113A7403D207F2
:100698008003E4C207F5398B228A238924E4F53ADA
:1006A800F53CF53DE53A60077F2012067380F57545
:1006B8003BFFC201C200C202C203C205C206C20891
:1006C800120641FF700D3007057F00120684AF3D0A
:1006D800AE3C22B4255FC2D5C204120641FF24D025
:1006E800B40A00501A75F00A783A30D50508B6FFF2
:1006F8000106C6A426F620D5047002D20380D924A8
:10070800CFB41A00EF5004C2E5D204020971D20135
:1007180080C6D20080C0D20280BCD2D580BAD205B1
:1007280080B47F201206732002077401B53A004096
:10073800F1120638FF1206730206ACD208D2068000
:1007480095120638FB120638FA120638F94A4B7029
:100758000679687A0A7BFF20022EE53A602A7E0035
:100768008E827583001204A660060EEE653B70F05B
:10077800C2D5EBC0E0EAC0E0E9C0E0EE1209D1D092
:10078800E0F9D0E0FAD0E0FB12048DFF60AAEBC0DC
:10079800E0EAC0E0E9C0E0120673D0E02401F9D035
:1007A800E03400FAD0E0FBE53B0460DCD53BD980BF
:1007B80087D20280A21209B460F7E53B70010412E7
:1007C8000003A93B600DE53B600914F53B120A5B89
:1007D800EF60F3EA30E702F404C3995077EAF425AE
:1007E8003B0430E701E404F53B800D1209B460C115
:1007F800EA053B253B120003EA7838F630E701E4C6
:10080800253B04D53B04200501141209D1E4C0E0BE
:10081800120A5B7838E6601320E70714F612065BC5
:10082800802204F6D0E014C0E07F0012065BE53BAE
:100838006007120652153B800B300503120652D092
:10084800E00206ACD0E00480C51209B460A0E53B24
:10085800041200037838EAF6E53B2005026001043B
:0508680024041209D177
:10086D0074FF04C0E0120A5B12065BE53B20050233
:10087D006003120652D0E0B53BE87F45120665785D
:10088D0038E67F2B30E7047F2DF404C0E0120673A9
:10089D00D0E075F00A84C0F012065CD0E012065C60
:1008AD000206AC791080027908C206C2088008D20F
:1008BD00D5790A8004790AC2D5E53B047002F53B6F
:1008CD00E4FAFDFEFF120638FC7B08200113120628
:1008DD0038FD7B1030000A120638FE120638FF7BF9
:1008ED0020EC3382D592D55013C3E43000069FFF20
:1008FD00E49EFEE42001039DFDE49CFCE4CBF8C2E4
:10090D0001EC700CCFCECDCCE824F8F870F3801745
:10091D00C3EF33FFEE33FEED33FDEC33FCEB33FB76
:10092D00994002FB0FD8E9EB300105F8D0E0C4483F
:10093D00B201C0E00AEC4D4E4F78207B0070C2EA48
:10094D00B53B0040BCC0E01209D3D0F0D0E020018F
:10095D0004C4C0E0C4B201C0F012065CD0F0D5F002
:10096D00EB0206AC12061207495308B058071A4C91
:10097D0007164208B44F08BC4408BC49072F43086A
:10098D00C25507F34608514507BD470A8850071E53
:10099D002D07222E07452B0726230743200A712AF0
:1009AD0006DE480000073DE53BB4FF03753B06122C
:1009BD000638FC120638FD120638FE120638FF788E
:1009CD0031020032790AA2D5200314300509B9107D
:1009DD00020404B9080104A2D52006025001042026
:1009ED0002689202B53A005034C0E07F20300319FE
:1009FD007F30A20272067205500F120A2AC202C27D
:100A0D0006C205C2087F30800F300503E9C0E01231
:100A1D000673300503D0E0F9D0E0B53ACC300517B8
:100A2D007F30B9100C1206737F583004077F788021
:100A3D0003B908031206733002057F2D0206737F7A
:100A4D00202008F87F2B2006F322920280CF7F0012
:100A5D00B4070050052431F8E6FF22286E756C6C42
:100A6D002900D2011206383001F8C201783A30D58A
:100A7D000108F60206DE2D504349581206382403AC
:100A8D00B405004001E4900A8393120664743A128F
:0A0A9D000664D203753A040208B0A3
:10000300F920E72824F950037907E4F42402FB18C4
:10001300DBFDE624FB5014E9600DE4F618E604F674
:0F002300B40A08E4F6D9F57401F60A22C2D52210
:10003200ED33EC3392D5FA602AB4FF33EDC2E77B9D
:10004200FF60067A007957E4227A00796020D504AD
:100052007A00795B224E614E002B494E46002D49B3
:100062004E4600E47A08F608DAFC7B00740722E8C0
:10007200C0E0ECC0E0EDC0E0EEC0E0EFC0E0EA7549
:10008200F010A4CAABF075F04DA42BFBE435F0FCE4
:10009200EA2410FAEB34C5FBEC34D9FCEDC2E7FFDD
:1000A20075F056A4F42411C5F0F434C58FF0A42AD7
:1000B200E5F03BE43CF620E714120403D0E0FFD065
:1000C200E0FED0E0FDD0E0FC1203368014F404120E
:1000D2000403D0E0FFD0E0FED0E0FDD0E0FC12024D
:1000E2002DD0E0F8E6FAEDD2E7CD33EC332482FBF3
:1000F200E4C3CF33CFCE33CECD33CD33DBF37B0767
:1001020075F00A846004F6081B0AE5F0F6088FF021
:10011200740AA4FFACF08EF0740AA42CFEACF0506A
:10012200010C8DF0740AA42CFDE435F0F608DBDE38
:030132007407222D
:10013500020478E86480F8E933E83360110460F07C
:10014500ED33EC337009E8FCE9FDEAFEEBFF220430
:1001550060DED3EB9FEA9EE99DE8C2E78CF0C2F72B
:1001650095F0400CE8CCF8E9CDF9EACEFAEBCFFBF7
:1001750012044385D0F05804700320D5B3E8047009
:10018500075002B2D502048292D5EC0460F7E4CCA4
:10019500C0E0C398F8603B94186008400DD0E0FBC0
:1001A50002045AE4FBFAC9FC8028E830E406E4C9F5
:1001B500FBE4CAFCE830E305E4C9CACBFCE8540714
:1001C5006010F8C3E913F9EA13FAEB13FBEC13FC1F
:1001D500D8F130F52FC3E49CFCEF9BFFEE9AFEEDC2
:1001E50099FDD0E0FBEF4E4D4C701222DB0302046B
:1001F5007FEC2CFCEF33FFEE33FEED33FDED30E706
:10020500EB02045AEF2BFFEE3AFEED39FDD0E0FB91
:1002150050130BBB0003020482ED13FDEE13FEEF3A
:0802250013FFEC13FC02045A64
:10022D00EC4D6011E8497017ED33EC3304600DE4CB
:10023D00FCFFFEFD22E933E8330470F80204781266
:10024D00044358046009E4CC248150062850090267
:10025D00048228400302047FC0E0EB4A7044B98059
:10026D0006D0E0FB02046EEF4E701CBD8008EBFF64
:10027D00EAFEE9FD80EBE98DF0A4FEE5F002031640
:10028D00E9CDF9EAFEEBFFEF89F0A4FCE5F0CE89AC
:10029D00F0A42EFFE435F0CD89F0A42DFEE435F069
:1002AD008067EF4E7005BD80D780C3EF8BF0A4AC97
:1002BD00F0EE8BF0A42CFCE435F0F8EF8AF0A42CD2
:1002CD00E5F038FCE433CB8DF0A42CFCE5F03BF8E5
:1002DD00EE8AF0A42CFCE5F038F8E433CF89F0A4D5
:1002ED002CFCE5F038CF3400CE89F0A42FFFE5F0DB
:1002FD003EFEE433C98DF0A42EFEE5F039CD8AF033
:10030D00A42FFFE5F03EFEE43DFD33D0E0FB5007AA
:10031D000BBB000F020482EC2CFCEF33FFEE33FE1F
:06032D00ED33FD02045A4D
:10033300020482EC5D046005E8590470030204784A
:10034300120443580460F6EC4860F2EC7004FDFEBE
:10035300FF22C860DB2481C85009C398600250069D
:1003630002047F9850CAF582E9294B4A7005AB8293
:1003730002046E75F0007C1A7880C3EF9BEE9AED51
:1003830099400DC3EF9BFFEE9AFEED99FDE842F015
:10039300DC23ACF0D0E0FFD0E0FED0E0FDAB822068
:1003A300E7101BEB60BAEC2CFCEF33FFEE33FEEDF2
:1003B30033FD02045AE803F830E705C0F075F00096
:1003C300EF2FFFEE33FEED33FD40B830E7C280AAD6
:1003D3003F8000004120000042C80000447A000032
:1003E300461C400047C35000497424004B189680B4
:1003F3004CBEBC205A0E1BCA6753C21C749DC5AEAB
:10040300FB60065407601C2323120431EB5438604D
:100413000912041D12042C12022DECF8EDF9EEFA68
:10042300EFCB22EB12042C80F1543803241C9003ED
:10043300D3FE93FC0EEE93FD0EEE930ECE93FF22AE
:10044300E9D2E7C933E833F892D5EDD2E7CD33ECFF
:0704530033FC5002B2D52278
:10045A00EC30E7100FBF000C0EBE00080DBD000403
:10046A000BEB6014A2D5EB13FCED92E7FD2274FFAF
:10047A00FCFDFEFF22E480F8A2D574FF13FC7D8008
:03048A00E480EF1C
:10048D00BB010689828A83E0225002E722BBFE026D
:09049D00E32289828A83E49322A0
:1004A600BB010CE58229F582E5833AF583E022500B
:1004B60006E92582F8E622BBFE06E92582F8E22255
:0D04C600E58229F582E5833AF583E493226F
:1004D300BB010689828A83F0225002F722BBFE0108
:0204E300F32202
:1004E500E88FF0A4CC8BF0A42CFCE98EF0A42CFCB6
:1004F5008AF0EDA42CFCEA8EF0A4CDA8F08BF0A434
:100505002DCC3825F0FDE98FF0A42CCD35F0FCEB92
:100515008EF0A4FEA9F0EB8FF0A4CFC5F02ECD3957
:0F052500FEE43CFCEAA42DCE35F0FDE43CFC22C4
:1005340075F008758200EF2FFFEE33FECD33CDCC7E
:1005440033CCC58233C5829BED9AEC99E582984001
:100554000CF582EE9BFEED9AFDEC99FC0FD5F0D6DE
:10056400E4CEFBE4CDFAE4CCF9A88222B800C1B908
:100574000059BA002DEC8BF084CFCECDFCE5F0CB46
:10058400F97818EF2FFFEE33FEED33FDEC33FCEB7F
:1005940033FB10D703994004EB99FB0FD8E5E4F93A
:1005A400FA227818EF2FFFEE33FEED33FDEC33FC27
:1005B400C933C910D7059BE99A4007EC9BFCE99A1B
:1005C400F90FD8E0E4C9FAE4CCFB2275F010EF2F60
:1005D400FFEE33FEED33FDCC33CCC833C810D70760
:1005E4009BEC9AE899400AED9BFDEC9AFCE899F89B
:0E05F4000FD5F0DAE4CDFBE4CCFAE4C8F9222E
:10060200FAE6FB0808E6F925F0F618E6CA3AF622F9
:10061200D083D082F8E4937012740193700DA3A377
:1006220093F8740193F5828883E47374029368608B
:06063200EFA3A3A380DF8B
:10113A00EFB40A07740D121145740A309811A89970
:10114A00B8130CC2983098FDA899C298B811F63015
:07115A0099FDC299F59922ED
:00000001FF
