:1000000002153153EFFD3253EFFB3202173D9000E2
:1000100035EFF01218957F7812169712178D7F0022
:1000200012169712178D900035E0FF1216971217CF
:050030008D1218AC2246
:10003B000213CA90002FEEF0A3EFF0900031E4F022
:10004B00A3E4F090002FE0FEA3E0FF900031E0FC72
:10005B00A3E0FDC3ED9FEC9E5030900033741FF076
:10006B009000347428F0900034E014FFF0EF70F639
:10007B00900033E014FFF0EF70EC900032E004F0EE
:0B008B007006900031E004F080B92204
:03009B000200035D
:1000A300020007020478E86480F8E933E83360115A
:1000B3000460F0ED33EC337009E8FCE9FDEAFEEB94
:1000C300FF220460DED3EB9FEA9EE99DE8C2E78C42
:1000D300F0C2F795F0400CE8CCF8E9CDF9EACEFA96
:1000E300EBCFFB12044385D0F05804700320D5B343
:1000F300E80470075002B2D502048292D5EC046082
:10010300F7E4CCC0E0C398F8603B94186008400D56
:10011300D0E0FB02045AE4FBFAC9FC8028E830E48F
:1001230006E4C9FBE4CAFCE830E305E4C9CACBFC36
:10013300E854076010F8C3E913F9EA13FAEB13FB69
:10014300EC13FCD8F130F52FC3E49CFCEF9BFFEEDE
:100153009AFEED99FDD0E0FBEF4E4D4C701222DB81
:100163000302047FEC2CFCEF33FFEE33FEED33FD93
:10017300ED30E7EB02045AEF2BFFEE3AFEED39FDCB
:10018300D0E0FB50130BBB0003020482ED13FDEE22
:1001930013FEEF13FFEC13FC02045AEC4D6011E85D
:1001A300497017ED33EC3304600DE4FCFFFEFD22D0
:1001B300E933E8330470F802047812044358046006
:1001C30009E4CC2481500628500902048228400304
:1001D30002047FC0E0EB4A7044B98006D0E0FB0222
:1001E300046EEF4E701CBD8008EBFFEAFEE9FD8054
:1001F300EBE98DF0A4FEE5F0020287E9CDF9EAFE12
:10020300EBFFEF89F0A4FCE5F0CE89F0A42EFFE428
:1002130035F0CD89F0A42DFEE435F08067EF4E7004
:1002230005BD80D780C3EF8BF0A4ACF0EE8BF0A4B8
:100233002CFCE435F0F8EF8AF0A42CE5F038FCE46C
:1002430033CB8DF0A42CFCE5F03BF8EE8AF0A42C24
:10025300FCE5F038F8E433CF89F0A42CFCE5F03862
:10026300CF3400CE89F0A42FFFE5F03EFEE433C97E
:100273008DF0A42EFEE5F039CD8AF0A42FFFE5F032
:100283003EFEE43DFD33D0E0FB50070BBB000F0205
:100293000482EC2CFCEF33FFEE33FEED33FD02045E
:1002A3005A020482EC5D046005E8590470030204F9
:1002B30078120443580460F6EC4860F2EC7004FDD5
:1002C300FEFF22C860DB2481C85009C39860025036
:1002D3000602047F9850CAF582E9294B4A7005ABA0
:1002E3008202046E75F0007C1A7880C3EF9BEE9A4D
:1002F300ED99400DC3EF9BFFEE9AFEED99FDE842A9
:10030300F0DC23ACF0D0E0FFD0E0FED0E0FDAB8228
:1003130020E7101BEB60BAEC2CFCEF33FFEE33FE4F
:10032300ED33FD02045AE803F830E705C0F075F039
:1003330000EF2FFFEE33FEED33FD40B830E7C28010
:10034300AA74F8CC6480CCC86480C8F58204604F7A
:10035300C3EB9FF5F0EA9E42F0E99D42F0E89C452D
:10036300F0603C501DE5825FFFE582D313CB5BCB8E
:10037300F42B5582FB50280ABA002409B90020083F
:10038300801DE5825BFBE582D313CF5FCFF4C313FC
:100393002F5582FF50090EBE00050DBD00010CC391
:1003A300EB9FF5F0EA9E42F0E99D42F0E89C45F0B0
:1003B3006007CC4820E701B3EC22ED33EC33600A4D
:1003C300047003BD8004ECB2E7FC2275F020800EBC
:1003D30075F010800575F0087D007E007F00339274
:1003E300D530D503120923EC334010EF33FFEE333E
:1003F300FEED33FDEC33FCD5F0ED22E5F0247EA2D7
:10040300D513CC92E7CDCEFF22EDD2E7CD33EC333B
:1004130092D524814006E4FFFEFDFC22FCE4CFCE0E
:10042300CDCC24E0501174FF80EDC3CC13CCCD139D
:10043300CDCE13CECF13CF0470F030D5DE02092317
:10044300E9D2E7C933E833F892D5EDD2E7CD33ECFF
:1004530033FC5002B2D522EC30E7100FBF000C0E74
:10046300BE00080DBD00040BEB6014A2D5EB13FC1A
:10047300ED92E7FD2274FFFCFDFEFF22E480F8A26B
:10048300D574FF13FC7D80E480EFF920E73624F96F
:1004930050037907E4F42402FBE582158270021508
:1004A30083DBF6E024FB501BE96014E4F0E58215DE
:1004B3008270021583E004F0B40A08E4F0D9EE7404
:1004C30001F00A22C2D522ED33EC3392D5FA602A29
:1004D300B4FF33EDC2E77BFF60067A0479EFE422D1
:1004E3007A0479F820D5047A0479F3224E614E0018
:1004F3002B494E46002D494E4600E47A08F0A3DA14
:10050300FC7B00740722C083C082ECC0E0EDC0E036
:10051300EEC0E0EFC0E0EA75F010A4CAABF075F0EE
:100523004DA42BFBE435F0FCEA2410FAEB34C5FBB5
:10053300EC34D9FCEDC2E7FF75F056A4F42411C5E1
:10054300F0F434C58FF0A42AE5F03BE43CF020E757
:10055300141205FFD0E0FFD0E0FED0E0FDD0E0FCB8
:100563001202A78014F4041205FFD0E0FFD0E0FECE
:10057300D0E0FDD0E0FC12019ED082D083E0FAED02
:10058300D2E7CD33EC332482FBE4C3CF33CFCE3376
:10059300CECD33CD33DBF37B0775F00A846004F0F3
:1005A300A31B0AE5F0F0A38FF0740AA4FFACF08E4E
:1005B300F0740AA42CFEACF050010C8DF0740AA464
:1005C3002CFDE435F0F0A3DBDE7407223F8000004E
:1005D3004120000042C80000447A0000461C40004D
:1005E30047C35000497424004B1896804CBEBC206E
:1005F3005A0E1BCA6753C21C749DC5AEFB600654DA
:1006030007601C232312062DEB54386009120619C8
:1006130012062812019EECF8EDF9EEFAEFCB22EB6D
:1006230012062880F1543803241C9005CFFE93FC56
:100633000EEE93FD0EEE930ECE93FF22C0E0EFFB82
:10064300EEFAEDF9ECF812019ED0E0F5F0EFFBEED7
:10065300FAEDF9ECF8120931A3A3A3A3E8C0E0E98A
:10066300C0E0EAC0E0EBC0E0C0F012019E12094D09
:10067300A3A3A3A31200ADD0F0D0E0FBD0E0FAD047
:10068300E0F9D0E0F8D5F0D422E709F608DFFA80E4
:1006930046E709F208DFFA803E88828C83E709F097
:1006A300A3DFFA8032E309F608DFFA8078E309F280
:1006B30008DFFA807088828C83E309F0A3DFFA8075
:1006C3006489828A83E0A3F608DFFA805889828AE4
:1006D30083E0A3F208DFFA804C80D280FA80C680E0
:1006E300D4806980F28033801080A680EA809A806B
:1006F300A880DA80E280CA803389828A83ECFAE4B4
:1007030093A3C8C582C8CCC583CCF0A3C8C582C88F
:10071300CCC583CCDFE9DEE7800D89828A83E4934D
:10072300A3F608DFF9ECFAA9F0EDFB2289828A83AC
:10073300ECFAE0A3C8C582C8CCC583CCF0A3C8C576
:1007430082C8CCC583CCDFEADEE880DB89828A837A
:10075300E493A3F208DFF980CC88F0EF60010E4E3A
:1007630060C388F0ED2402B4040050B9F582EB2491
:1007730002B4040050AF23234582239006DC73BBED
:10078300010689828A83E0225002E722BBFE02E34C
:100793002289828A83E49322BB010CE58229F582B4
:1007A300E5833AF583E0225006E92582F8E622BB89
:1007B300FE06E92582F8E222E58229F582E5833AFD
:1007C300F583E49322BB010689828A83F0225002D7
:1007D300F722BBFE01F322C5F0F8A3E028F0C5F031
:1007E300F8E582158270021583E038F022A3F8E061
:1007F300C5F025F0F0E582158270021583E0C83854
:10080300F0E822E88FF0A4CC8BF0A42CFCE98EF066
:10081300A42CFC8AF0EDA42CFCEA8EF0A4CDA8F065
:100823008BF0A42DCC3825F0FDE98FF0A42CCD3529
:10083300F0FCEB8EF0A4FEA9F0EB8FF0A4CFC5F093
:100843002ECD39FEE43CFCEAA42DCE35F0FDE43C8C
:10085300FC2275F008758200EF2FFFEE33FECD33D7
:10086300CDCC33CCC58233C5829BED9AEC99E5821E
:1008730098400CF582EE9BFEED9AFDEC99FC0FD5AA
:10088300F0D6E4CEFBE4CDFAE4CCF9A88222B8009A
:10089300C1B90059BA002DEC8BF084CFCECDFCE565
:1008A300F0CBF97818EF2FFFEE33FEED33FDEC3389
:1008B300FCEB33FB10D703994004EB99FB0FD8E50E
:1008C300E4F9FA227818EF2FFFEE33FEED33FDEC57
:1008D30033FCC933C910D7059BE99A4007EC9BFC4D
:1008E300E99AF90FD8E0E4C9FAE4CCFB2275F010D9
:1008F300EF2FFFEE33FEED33FDCC33CCC833C810FE
:10090300D7079BEC9AE899400AED9BFDEC9AFCE82B
:1009130099F80FD5F0DAE4CDFBE4CCFAE4C8F92278
:10092300C3E49FFFE49EFEE49DFDE49CFC22E4936C
:10093300FC740193FD740293FE740393FF22E0F8A9
:10094300A3E0F9A3E0FAA3E0FB22E493F874019394
:10095300F9740293FA740393FB22ECF0A3EDF0A372
:10096300EEF0A3EFF022A8828583F0D083D0821229
:100973000980120980120980120980E473E493A3A9
:10098300C583C5F0C583C8C582C8F0A3C583C5F0B8
:10099300C583C8C582C822F8E0FBA3A3E0F925F00C
:1009A300F0E582158270021583E0FA38F022EBF04D
:1009B300A3EAF0A3E9F022D083D082F8E493701283
:1009C300740193700DA3A393F8740193F582888344
:1009D300E4737402936860EFA3A3A380DFE50824A4
:1009E30032F582E43400F583E005082290002F30CD
:1009F3000703900032E475F00112099A020782207E
:100A030000E97F2ED2008018EF540F2490D4344095
:100A1300D4FF30040BEF24BFB41A0050032461FF4A
:100A2300E50960021509050CE50C7002050B30079A
:100A33000E90002FE475F00112099AEF0207C80225
:100A4300182D7403D2078003E4C207F50890002F22
:100A53001209B1E4F509F50BF50CE50960077F20F0
:100A6300120A2380F5750AFFC201C200C202C20343
:100A7300C205C206C2081209EFFF700D3007057FD9
:100A830000120A34AF0CAE0B22B4255FC2D5C204E8
:100A93001209EFFF24D0B40A00501A75F00A78093E
:100AA30030D50508B6FF0106C6A426F620D5047086
:100AB30002D20380D924CFB41A00EF5004C2E5D286
:100AC30004020D26D20180C6D20080C0D20280BCAF
:100AD300D2D580BAD20580B47F20120A2320020720
:100AE3007401B5090040F11209E0FF120A23020A5A
:100AF3005DD208D20680951209E0FB1209E0FA12D2
:100B030009E0F94A4B700679247A0E7BFF20022E06
:100B1300E509602A7E008E8275830012079B6006BA
:100B23000EEE650A70F0C2D5EBC0E0EAC0E0E9C0A2
:100B3300E0EE120D87D0E0F9D0E0FAD0E0FB120727
:100B430082FF60AAEBC0E0EAC0E0E9C0E0120A233A
:100B5300D0E02401F9D0E03400FAD0E0FBE50A0448
:100B630060DCD50AD98087D20280A2120D6960F7B2
:100B7300E50A70010412048DA90A600DE50A6009F3
:100B830014F50A120E11EF60F3EA30E702F404C31E
:100B9300995079EAF4250A0430E701E404F50A8060
:100BA3000D120D6960C1EA050A250A12048DEA9047
:100BB300005EF030E701E4250A04D50A04200501AC
:100BC30014120D87E4C0E0120E1190005EE0601372
:100BD30020E70714F0120A0B802204F0D0E014C0BF
:100BE300E07F00120A0BE50A6007120A02150A8069
:100BF3000B300503120A02D0E0020A5DD0E0048044
:100C0300C4120D69609EE50A0412048D90005EEA29
:100C1300F0E50A2005026001042404120D8774FF25
:100C230004C0E0120E11120A0BE50A20050260034C
:100C3300120A02D0E0B50AE87F45120A1590005E59
:100C4300E07F2B30E7047F2DF404C0E0120A23D0A9
:100C5300E075F00A84C0F0120A0CD0E0120A0C020C
:100C63000A5D791080027908C206C2088008D2D5CD
:100C7300790A8004790AC2D5E50A047002F50AE408
:100C8300FAFDFEFF1209E0FC7B082001131209E0C4
:100C9300FD7B1030000A1209E0FE1209E0FF7B2001
:100CA300EC3382D592D55013C3E43000069FFFE4A2
:100CB3009EFEE42001039DFDE49CFCE4CBF8C2010D
:100CC300EC700CCFCECDCCE824F8F870F38017C3CA
:100CD300EF33FFEE33FEED33FDEC33FCEB33FB99E7
:100CE3004002FB0FD8E9EB300105F8D0E0C448B26D
:100CF30001C0E00AEC4D4E4F78207B0070C2EAB58C
:100D03000A0040BCC0E0120D89D0F0D0E0200104FD
:100D1300C4C0E0C4B201C0F0120A0CD0F0D5F0EBAD
:100D2300020A5D1209BA0AFA530C65580ACB4C0A37
:100D3300C7420C694F0C71440C71490AE0430C77AC
:100D4300550BA4460C04450B6E470E44500ACF2D99
:100D53000AD32E0AF62B0AD7230AF4200E2D2A0AC9
:100D63008F4800000AEEE50AB4FF03750A0612096C
:100D7300E0FC1209E0FD1209E0FE1209E0FF900019
:100D8300570204CA790AA2D5200314300509B91001
:100D9300020404B9080104A2D5200602500104206C
:100DA30002689202B509005034C0E07F2030031975
:100DB3007F30A20272067205500F120DE0C202C20A
:100DC30006C205C2087F30800F300503E9C0E01278
:100DD3000A23300503D0E0F9D0E0B509CC3005177C
:100DE3007F30B9100C120A237F583004077F7880B4
:100DF30003B90803120A233002057F2D020A237F59
:100E0300202008F87F2B2006F322920280CF7F0058
:100E1300B40700500B2457F582E43400F583E0FF58
:100E230022286E756C6C2900D2011209E03001F89A
:100E3300C201780930D50108F6020A8F2D504349C3
:100E4300581209E02403B405004001E4900E3F93D7
:100E5300120A14743A120A14D203750904020C65B7
:100E630090002F12095D7F007E007DC87C429000B8
:100E73002FE0F8A3E0F9A3E0FAA3E0FB1203444058
:100E83000C90002F12096942C8000080277F007E62
:100E9300007DC87CC290002FE0F8A3E0F9A3E0FA3C
:100EA300A3E0FB1203446002500A90002F12096969
:100EB300C2C800007F007E007DC87C42900033E002
:100EC300F8A3E0F9A3E0FAA3E0FB120344400C907B
:100ED300003312096942C8000080277F007E007D2D
:100EE300C87CC2900033E0F8A3E0F9A3E0FAA3E0E2
:100EF300FB1203446002500A900033120969C2C80E
:100F0300000075BA8090FFF2E4F090FFF07415F0E2
:100F1300A3E4F07F007E007D007C0090002FE0F8CA
:100F2300A3E0F9A3E0FAA3E0FB12034460574055A2
:100F33007B007A0079C8784290002FE0FCA3E0FDA3
:100F4300A3E0FEA3E0FF1202A7C004C005C006C0D1
:100F53000790FFF0E0FCA3E0FDE41203D3A804A98B
:100F630005AA06AB07D007D006D005D00412019E10
:100F730012040C90FF20EEF0A3EFF090FF24748096
:100F8300F0C2A4806A90002FE0FCA3E0FDA3E0FE82
:100F9300A3E0FF1203BD90002F12095D7B007A00CE
:100FA30079C8784290002FE0FCA3E0FDA3E0FEA304
:100FB300E0FF1202A7C004C005C006C00790FFF0FF
:100FC300E0FCA3E0FDE41203D3A804A905AA06AB41
:100FD30007D007D006D005D00412019E12040C904E
:100FE300FF40EEF0A3EFF0C2A290FF447480F07FC5
:100FF300007E007D007C00900033E0F8A3E0F9A3BD
:10100300E0FAA3E0FB120344605740557B007A00EB
:1010130079C87842900033E0FCA3E0FDA3E0FEA38F
:10102300E0FF1202A7C004C005C006C00790FFF08E
:10103300E0FCA3E0FDE41203D3A804A905AA06ABD0
:1010430007D007D006D005D00412019E12040C90DD
:10105300FF30EEF0A3EFF0C2A690FF347480F0806F
:101063006A900033E0FCA3E0FDA3E0FEA3E0FF12DF
:1010730003BD90003312095D7B007A0079C8784282
:10108300900033E0FCA3E0FDA3E0FEA3E0FF120227
:10109300A7C004C005C006C00790FFF0E0FCA3E0B2
:1010A300FDE41203D3A804A905AA06AB07D007D011
:1010B30006D005D00412019E12040C90FF60EEF0DE
:1010C300A3EFF0C2A390FF647480F075BA0075FEBD
:1010D3008022900005E4F0A3E4F090000F12096968
:1010E3003F80000090001312096900000000900087
:1010F30017120969420C00007BFF7A187965C00357
:10110300C002C0017B017A00791BA801AC02AD03C8
:10111300D001D002D0037E007F1412075C12129D0F
:101123001218D91218C31218EE900017E0FCA3E0AE
:10113300FDA3E0FEA3E0FFC004C005C006C0079006
:101143000017E0FCA3E0FDA3E0FEA3E0FF90003363
:1011530012095DD007D006D005D004120E639001AA
:1011630001E0FEA3E0FFEF64014E6003021292C2AE
:10117300AF900101E4F0A3E4F0AFD47E00EF7F0071
:10118300FE900001EEF0A3EFF0AFD57E00900001DA
:10119300E0FCA3E0FDEE4CFEEF4DFF900001EEF00E
:1011A300A3EFF0AFD27E00EF7F00FE900003EEF0DE
:1011B300A3EFF0AFD37E00900003E0FCA3E0FDEECD
:1011C3004CFEEF4DFF900003EEF0A3EFF075D1441A
:1011D30075D40075D50075D20075D300900001E079
:1011E300FEA3E0FF1215BD90000712095D7B017A93
:1011F30000791BC003C002C0017BFF7A18795490A9
:101203000032EBF0A3EAF0A3E9F0900001E0FEA3C3
:10121300E0FF900035EEF0A3EFF0900003E0FEA3B3
:10122300E0FF900037EEF0A3EFF0900007E0FCA39F
:10123300E0FDA3E0FEA3E0FF90003912095DD001B9
:10124300D002D003120A45900000E4F0900000E0C1
:10125300FFEF3395E0FE741B2FF58274003EF58398
:10126300E0FFEF6025900000E0FFEF3395E0FE74B0
:101273001B2FF58274003EF583E0FF8F993099FDB3
:10128300C299900000E004F080C2D2AF75D1CC7F48
:101293000A7E0012003E021161227D007C007FAEB7
:1012A3007E001217D27D007C007F007E001217D2D1
:1012B3007D007C007F107E001217D27D007C007FB2
:1012C300407E001217D27D007C007FB07E00121793
:1012D300D27D007C007F817E001217D27D007C00CE
:1012E3007FFF7E001217D27D007C007FA17E00125B
:1012F30017D27D007C007FA67E001217D27D007C72
:10130300007FA87E001217D27D007C007F3F7E0005
:101313001217D27D007C007FC87E001217D27D0099
:101323007C007FD37E001217D27D007C007F007E7D
:10133300001217D27D007C007FD57E001217D27D6C
:10134300007C007F807E001217D27D007C007FD856
:101353007E001217D27D007C007F057E001217D21B
:101363007D007C007FD97E001217D27D007C007F38
:10137300F17E001217D27D007C007FDA7E00121707
:10138300D27D007C007F127E001217D27D007C008C
:101393007FDB7E001217D27D007C007F307E00123F
:1013A30017D27D007C007F8D7E001217D27D007CDA
:1013B300007F147E001217D27D007C007FAF7E0079
:1013C3001217D212162F22C0E0C0F0C083C082C011
:1013D300D075D000C000C001C002C003C004C00566
:1013E300C006C00730DF08C2DF9000F0E004F03031
:1013F300D87AC2D89000F3E0FEA3E0FF9000F1EEAC
:10140300F0A3EFF0AFFA7E00EF7F00FEADEA7C00C1
:10141300EE4CFEEF4DFF9000F3EEF0A3EFF09000E3
:10142300F5120969000000009000F0E0FFE4FCFD04
:10143300FE7B007A0079017800120806A804A9054A
:10144300AA06AB079000F3E0FEA3E0FFE4FCFDEB8C
:101453002FFFEA3EFEE93DFDE83CFC9000F5120952
:101463005D75E90075F9009000F0E4F0D007D0064F
:10147300D005D004D003D002D001D000D0D0D08288
:10148300D083D0F0D0E0324400B00000000044002C
:10149300B8000000004400933C23D70A4400B43A48
:1014A30083126F4400973F0000004400A43E9999C3
:1014B3009A4100A30144009F0000000050006F0008
:1014C30000000000000000000000000000000050C9
:1014D30000833F80000000000000000000003F8008
:1014E3000000602800BC00000000000000000000B5
:1014F300000000000000000000000000000040A009
:101503000000000000000000000000000000440094
:10151300F5000000004100F0004200F1000042002D
:10152300F3000042010100004200FF000000787F49
:10153300E4F6D8FD7581210215780210D5E493A352
:10154300F8E493A34003F68001F208DFF48029E472
:1015530093A3F85407240CC8C333C4540F4420C8BE
:10156300834004F456800146F6DFE4800B01020455
:10157300081020408090148AE47E019360BCA3FF8E
:10158300543F30E509541FFEE493A360010ECF548A
:10159300C025E060A840B8E493A3FAE493A3F8E479
:1015A30093A3C8C582C8CAC583CAF0A3C8C582C8E5
:1015B300CAC583CADFE9DEE780BE90002FEEF0A341
:1015C300EFF090002FE0FCA3E0FDEC1203D39000BA
:1015D3003112095D7B007A00798C7842900031E00A
:1015E300FCA3E0FDA3E0FEA3E0FF1202A77BF37AD6
:1015F300B07910783E12019E90003112095D90007F
:1016030031E0FCA3E0FDA3E0FEA3E0FF7B007A0052
:101613007948784212019E90003112095D900031A1
:10162300E0FCA3E0FDA3E0FEA3E0FF2290002FE493
:10163300F090002FE0FFEFC39408505790002FE085
:10164300FF7E00EF24B0FFEE3400FE7D007C00122D
:1016530017D27D007C007F007E001217D27D007CB4
:10166300007F107E001217D2900030E4F09000301B
:10167300E0FFEFC3948050137D017C007F007E0068
:101683001217D2900030E004F080E290002FE004C3
:10169300F0809E22900036EFF0900037E4F0900047
:1016A30037E0FFEFC394085040900037E0FF90000D
:1016B30036E0FEEEA807088002C333D8FCFFEF3004
:1016C300E704D2948002C2947F017E001216EDD209
:1016D300957F017E001216EDC2957F017E001216E2
:1016E300ED900037E004F080B522900038EEF0A3CF
:1016F300EFF090003AE4F0A3E4F0900038E0FEA3AA
:10170300E0FF90003AE0FCA3E0FDC3ED9FEC9E50A8
:101713002890003CE4F090003CE0FFEFC3940550B8
:101723000890003CE004F080ED90003BE004F07092
:101733000690003AE004F080C122C0E0C083C0827A
:10174300C0D075D000C006C0079000FFE0FEA3E044
:10175300FFC3EF9414EE648094804013900101E47E
:10176300F0A37401F09000FFE4F0A3E4F0B2A190C1
:101773000100E004F070069000FFE004F0D007D011
:1017830006D0D0D082D083D0E032900036E4F07F10
:1017930001121879D2947F017E001216EDD2957F43
:1017A300017E001216ED30941C900036E004F09098
:1017B3000036E0FFEFD394FA40EC1218AC7F00122E
:1017C30018797F0122C2957F001218797F00229039
:1017D3000031EEF0A3EFF0900033ECF0A3EDF090C6
:1017E3000033E0FEA3E0FFEF4E600C900031E0FE1B
:1017F300A3E0FF12180622900031E0FEA3E0FF12DF
:10180300000E22900035EFF01218957F781216978C
:1018130012178D7F4012169712178D900035E0FF37
:1018230012169712178D1218AC22EFB40A07740D13
:10183300121838740A309811A899B8130CC298304A
:1018430098FDA899C298B811F63099FDC299F599F7
:101853002225642020202564202020252E32660A9C
:101863000900616263000000000000000000000046
:10187300000000000000900037EFF0900037E0FF19
:10188300EFB401077591407592002275910075922E
:101893000022D294D2957F027E001216EDC2947F6D
:1018A300027E001216EDC29522C295C2947F027E7B
:1018B300001216EDD295D2947F027E001216ED220D
:1018C300439850438900758E40758B8E758DFDD27C
:1018D3008ED2ACD2AF2275D50075D40075D3007506
:1018E300D20075AF6075D1CCD2AF22438900758A1F
:0B18F30030758CF8D28CD2A9D2AF2245
:00000001FF
