:1000000002184F53EFFD3253EFFB32021B89900071
:1000100046EFF0121D597F78121A90121C767F005D
:10002000121A90121C76900046E0FF121A90121CD1
:0500300076121D702294
:10003B00021655900025EFF0900026EDF07B017A2B
:10004B0000792BC003C002C0017BFF7A0E7963904D
:10005B000038EBF0A3EAF0A3E9F0900027E0FCA353
:10006B00E0FDA3E0FEA3E0FF90003B12095DD00191
:10007B00D002D003120A45900025E0FF900026E045
:0B008B00FD7B017A00792B1218DB22AC
:03009B000200035D
:1000A300020007020478E86480F8E933E83360115A
:1000B3000460F0ED33EC337009E8FCE9FDEAFEEB94
:1000C300FF220460DED3EB9FEA9EE99DE8C2E78C42
:1000D300F0C2F795F0400CE8CCF8E9CDF9EACEFA96
:1000E300EBCFFB12044385D0F05804700320D5B343
:1000F300E80470075002B2D502048292D5EC046082
:10010300F7E4CCC0E0C398F8603B94186008400D56
:10011300D0E0FB02045AE4FBFAC9FC8028E830E48F
:1001230006E4C9FBE4CAFCE830E305E4C9CACBFC36
:10013300E854076010F8C3E913F9EA13FAEB13FB69
:10014300EC13FCD8F130F52FC3E49CFCEF9BFFEEDE
:100153009AFEED99FDD0E0FBEF4E4D4C701222DB81
:100163000302047FEC2CFCEF33FFEE33FEED33FD93
:10017300ED30E7EB02045AEF2BFFEE3AFEED39FDCB
:10018300D0E0FB50130BBB0003020482ED13FDEE22
:1001930013FEEF13FFEC13FC02045AEC4D6011E85D
:1001A300497017ED33EC3304600DE4FCFFFEFD22D0
:1001B300E933E8330470F802047812044358046006
:1001C30009E4CC2481500628500902048228400304
:1001D30002047FC0E0EB4A7044B98006D0E0FB0222
:1001E300046EEF4E701CBD8008EBFFEAFEE9FD8054
:1001F300EBE98DF0A4FEE5F0020287E9CDF9EAFE12
:10020300EBFFEF89F0A4FCE5F0CE89F0A42EFFE428
:1002130035F0CD89F0A42DFEE435F08067EF4E7004
:1002230005BD80D780C3EF8BF0A4ACF0EE8BF0A4B8
:100233002CFCE435F0F8EF8AF0A42CE5F038FCE46C
:1002430033CB8DF0A42CFCE5F03BF8EE8AF0A42C24
:10025300FCE5F038F8E433CF89F0A42CFCE5F03862
:10026300CF3400CE89F0A42FFFE5F03EFEE433C97E
:100273008DF0A42EFEE5F039CD8AF0A42FFFE5F032
:100283003EFEE43DFD33D0E0FB50070BBB000F0205
:100293000482EC2CFCEF33FFEE33FEED33FD02045E
:1002A3005A020482EC5D046005E8590470030204F9
:1002B30078120443580460F6EC4860F2EC7004FDD5
:1002C300FEFF22C860DB2481C85009C39860025036
:1002D3000602047F9850CAF582E9294B4A7005ABA0
:1002E3008202046E75F0007C1A7880C3EF9BEE9A4D
:1002F300ED99400DC3EF9BFFEE9AFEED99FDE842A9
:10030300F0DC23ACF0D0E0FFD0E0FED0E0FDAB8228
:1003130020E7101BEB60BAEC2CFCEF33FFEE33FE4F
:10032300ED33FD02045AE803F830E705C0F075F039
:1003330000EF2FFFEE33FEED33FD40B830E7C28010
:10034300AA74F8CC6480CCC86480C8F58204604F7A
:10035300C3EB9FF5F0EA9E42F0E99D42F0E89C452D
:10036300F0603C501DE5825FFFE582D313CB5BCB8E
:10037300F42B5582FB50280ABA002409B90020083F
:10038300801DE5825BFBE582D313CF5FCFF4C313FC
:100393002F5582FF50090EBE00050DBD00010CC391
:1003A300EB9FF5F0EA9E42F0E99D42F0E89C45F0B0
:1003B3006007CC4820E701B3EC22ED33EC33600A4D
:1003C300047003BD8004ECB2E7FC2275F020800EBC
:1003D30075F010800575F0087D007E007F00339274
:1003E300D530D503120923EC334010EF33FFEE333E
:1003F300FEED33FDEC33FCD5F0ED22E5F0247EA2D7
:10040300D513CC92E7CDCEFF22EDD2E7CD33EC333B
:1004130092D524814006E4FFFEFDFC22FCE4CFCE0E
:10042300CDCC24E0501174FF80EDC3CC13CCCD139D
:10043300CDCE13CECF13CF0470F030D5DE02092317
:10044300E9D2E7C933E833F892D5EDD2E7CD33ECFF
:1004530033FC5002B2D522EC30E7100FBF000C0E74
:10046300BE00080DBD00040BEB6014A2D5EB13FC1A
:10047300ED92E7FD2274FFFCFDFEFF22E480F8A26B
:10048300D574FF13FC7D80E480EFF920E73624F96F
:1004930050037907E4F42402FBE582158270021508
:1004A30083DBF6E024FB501BE96014E4F0E58215DE
:1004B3008270021583E004F0B40A08E4F0D9EE7404
:1004C30001F00A22C2D522ED33EC3392D5FA602A29
:1004D300B4FF33EDC2E77BFF60067A0479EFE422D1
:1004E3007A0479F820D5047A0479F3224E614E0018
:1004F3002B494E46002D494E4600E47A08F0A3DA14
:10050300FC7B00740722C083C082ECC0E0EDC0E036
:10051300EEC0E0EFC0E0EA75F010A4CAABF075F0EE
:100523004DA42BFBE435F0FCEA2410FAEB34C5FBB5
:10053300EC34D9FCEDC2E7FF75F056A4F42411C5E1
:10054300F0F434C58FF0A42AE5F03BE43CF020E757
:10055300141205FFD0E0FFD0E0FED0E0FDD0E0FCB8
:100563001202A78014F4041205FFD0E0FFD0E0FECE
:10057300D0E0FDD0E0FC12019ED082D083E0FAED02
:10058300D2E7CD33EC332482FBE4C3CF33CFCE3376
:10059300CECD33CD33DBF37B0775F00A846004F0F3
:1005A300A31B0AE5F0F0A38FF0740AA4FFACF08E4E
:1005B300F0740AA42CFEACF050010C8DF0740AA464
:1005C3002CFDE435F0F0A3DBDE7407223F8000004E
:1005D3004120000042C80000447A0000461C40004D
:1005E30047C35000497424004B1896804CBEBC206E
:1005F3005A0E1BCA6753C21C749DC5AEFB600654DA
:1006030007601C232312062DEB54386009120619C8
:1006130012062812019EECF8EDF9EEFAEFCB22EB6D
:1006230012062880F1543803241C9005CFFE93FC56
:100633000EEE93FD0EEE930ECE93FF22C0E0EFFB82
:10064300EEFAEDF9ECF812019ED0E0F5F0EFFBEED7
:10065300FAEDF9ECF8120931A3A3A3A3E8C0E0E98A
:10066300C0E0EAC0E0EBC0E0C0F012019E12094D09
:10067300A3A3A3A31200ADD0F0D0E0FBD0E0FAD047
:10068300E0F9D0E0F8D5F0D422E709F608DFFA80E4
:1006930046E709F208DFFA803E88828C83E709F097
:1006A300A3DFFA8032E309F608DFFA8078E309F280
:1006B30008DFFA807088828C83E309F0A3DFFA8075
:1006C3006489828A83E0A3F608DFFA805889828AE4
:1006D30083E0A3F208DFFA804C80D280FA80C680E0
:1006E300D4806980F28033801080A680EA809A806B
:1006F300A880DA80E280CA803389828A83ECFAE4B4
:1007030093A3C8C582C8CCC583CCF0A3C8C582C88F
:10071300CCC583CCDFE9DEE7800D89828A83E4934D
:10072300A3F608DFF9ECFAA9F0EDFB2289828A83AC
:10073300ECFAE0A3C8C582C8CCC583CCF0A3C8C576
:1007430082C8CCC583CCDFEADEE880DB89828A837A
:10075300E493A3F208DFF980CC88F0EF60010E4E3A
:1007630060C388F0ED2402B4040050B9F582EB2491
:1007730002B4040050AF23234582239006DC73BBED
:10078300010689828A83E0225002E722BBFE02E34C
:100793002289828A83E49322BB010CE58229F582B4
:1007A300E5833AF583E0225006E92582F8E622BB89
:1007B300FE06E92582F8E222E58229F582E5833AFD
:1007C300F583E49322BB010689828A83F0225002D7
:1007D300F722BBFE01F322C5F0F8A3E028F0C5F031
:1007E300F8E582158270021583E038F022A3F8E061
:1007F300C5F025F0F0E582158270021583E0C83854
:10080300F0E822E88FF0A4CC8BF0A42CFCE98EF066
:10081300A42CFC8AF0EDA42CFCEA8EF0A4CDA8F065
:100823008BF0A42DCC3825F0FDE98FF0A42CCD3529
:10083300F0FCEB8EF0A4FEA9F0EB8FF0A4CFC5F093
:100843002ECD39FEE43CFCEAA42DCE35F0FDE43C8C
:10085300FC2275F008758200EF2FFFEE33FECD33D7
:10086300CDCC33CCC58233C5829BED9AEC99E5821E
:1008730098400CF582EE9BFEED9AFDEC99FC0FD5AA
:10088300F0D6E4CEFBE4CDFAE4CCF9A88222B8009A
:10089300C1B90059BA002DEC8BF084CFCECDFCE565
:1008A300F0CBF97818EF2FFFEE33FEED33FDEC3389
:1008B300FCEB33FB10D703994004EB99FB0FD8E50E
:1008C300E4F9FA227818EF2FFFEE33FEED33FDEC57
:1008D30033FCC933C910D7059BE99A4007EC9BFC4D
:1008E300E99AF90FD8E0E4C9FAE4CCFB2275F010D9
:1008F300EF2FFFEE33FEED33FDCC33CCC833C810FE
:10090300D7079BEC9AE899400AED9BFDEC9AFCE82B
:1009130099F80FD5F0DAE4CDFBE4CCFAE4C8F92278
:10092300C3E49FFFE49EFEE49DFDE49CFC22E4936C
:10093300FC740193FD740293FE740393FF22E0F8A9
:10094300A3E0F9A3E0FAA3E0FB22E493F874019394
:10095300F9740293FA740393FB22ECF0A3EDF0A372
:10096300EEF0A3EFF022A8828583F0D083D0821229
:100973000980120980120980120980E473E493A3A9
:10098300C583C5F0C583C8C582C8F0A3C583C5F0B8
:10099300C583C8C582C822F8E0FBA3A3E0F925F00C
:1009A300F0E582158270021583E0FA38F022EBF04D
:1009B300A3EAF0A3E9F022D083D082F8E493701283
:1009C300740193700DA3A393F8740193F582888344
:1009D300E4737402936860EFA3A3A380DFE50824A4
:1009E30038F582E43400F583E005082290003530C1
:1009F3000703900038E475F00112099A0207822078
:100A030000E97F2ED2008018EF540F2490D4344095
:100A1300D4FF30040BEF24BFB41A0050032461FF4A
:100A2300E50960021509050CE50C7002050B30079A
:100A33000E900035E475F00112099AEF0207C8021F
:100A43001D167403D2078003E4C207F5089000352E
:100A53001209B1E4F509F50BF50CE50960077F20F0
:100A6300120A2380F5750AFFC201C200C202C20343
:100A7300C205C206C2081209EFFF700D3007057FD9
:100A830000120A34AF0CAE0B22B4255FC2D5C204E8
:100A93001209EFFF24D0B40A00501A75F00A78093E
:100AA30030D50508B6FF0106C6A426F620D5047086
:100AB30002D20380D924CFB41A00EF5004C2E5D286
:100AC30004020D26D20180C6D20080C0D20280BCAF
:100AD300D2D580BAD20580B47F20120A2320020720
:100AE3007401B5090040F11209E0FF120A23020A5A
:100AF3005DD208D20680951209E0FB1209E0FA12D2
:100B030009E0F94A4B700679247A0E7BFF20022E06
:100B1300E509602A7E008E8275830012079B6006BA
:100B23000EEE650A70F0C2D5EBC0E0EAC0E0E9C0A2
:100B3300E0EE120D87D0E0F9D0E0FAD0E0FB120727
:100B430082FF60AAEBC0E0EAC0E0E9C0E0120A233A
:100B5300D0E02401F9D0E03400FAD0E0FBE50A0448
:100B630060DCD50AD98087D20280A2120D6960F7B2
:100B7300E50A70010412048DA90A600DE50A6009F3
:100B830014F50A120E11EF60F3EA30E702F404C31E
:100B9300995079EAF4250A0430E701E404F50A8060
:100BA3000D120D6960C1EA050A250A12048DEA9047
:100BB3000064F030E701E4250A04D50A04200501A6
:100BC30014120D87E4C0E0120E11900064E060136C
:100BD30020E70714F0120A0B802204F0D0E014C0BF
:100BE300E07F00120A0BE50A6007120A02150A8069
:100BF3000B300503120A02D0E0020A5DD0E0048044
:100C0300C4120D69609EE50A0412048D900064EA23
:100C1300F0E50A2005026001042404120D8774FF25
:100C230004C0E0120E11120A0BE50A20050260034C
:100C3300120A02D0E0B50AE87F45120A1590006453
:100C4300E07F2B30E7047F2DF404C0E0120A23D0A9
:100C5300E075F00A84C0F0120A0CD0E0120A0C020C
:100C63000A5D791080027908C206C2088008D2D5CD
:100C7300790A8004790AC2D5E50A047002F50AE408
:100C8300FAFDFEFF1209E0FC7B082001131209E0C4
:100C9300FD7B1030000A1209E0FE1209E0FF7B2001
:100CA300EC3382D592D55013C3E43000069FFFE4A2
:100CB3009EFEE42001039DFDE49CFCE4CBF8C2010D
:100CC300EC700CCFCECDCCE824F8F870F38017C3CA
:100CD300EF33FFEE33FEED33FDEC33FCEB33FB99E7
:100CE3004002FB0FD8E9EB300105F8D0E0C448B26D
:100CF30001C0E00AEC4D4E4F78207B0070C2EAB58C
:100D03000A0040BCC0E0120D89D0F0D0E0200104FD
:100D1300C4C0E0C4B201C0F0120A0CD0F0D5F0EBAD
:100D2300020A5D1209BA0AFA530C65580ACB4C0A37
:100D3300C7420C694F0C71440C71490AE0430C77AC
:100D4300550BA4460C04450B6E470E44500ACF2D99
:100D53000AD32E0AF62B0AD7230AF4200E2D2A0AC9
:100D63008F4800000AEEE50AB4FF03750A0612096C
:100D7300E0FC1209E0FD1209E0FE1209E0FF900019
:100D83005D0204CA790AA2D5200314300509B910FB
:100D9300020404B9080104A2D5200602500104206C
:100DA30002689202B509005034C0E07F2030031975
:100DB3007F30A20272067205500F120DE0C202C20A
:100DC30006C205C2087F30800F300503E9C0E01278
:100DD3000A23300503D0E0F9D0E0B509CC3005177C
:100DE3007F30B9100C120A237F583004077F7880B4
:100DF30003B90803120A233002057F2D020A237F59
:100E0300202008F87F2B2006F322920280CF7F0058
:100E1300B40700500B245DF582E43400F583E0FF52
:100E230022286E756C6C2900D2011209E03001F89A
:100E3300C201780930D50108F6020A8F2D504349C3
:100E4300581209E02403B405004001E4900E3F93D7
:100E5300120A14743A120A14D203750904020C65B7
:100E6300252E326620202000000000000000000034
:100E7300002F000000000700070000147F147F14F8
:100E830000242A7F2A12006264081323003649557E
:100E9300225000000503000000001C224100000056
:100EA30041221C000014083E08140008083E0808EC
:100EB300000000A060000008080808080000606047
:100EC3000000002010080402003E5149453E000086
:100ED300427F4000004261514946002141454B3168
:100EE300001814127F10002745454539003C4A4934
:100EF30049300001710905030036494949360006A6
:100F03004949291E0000363600000000563600000D
:100F13000008142241000014141414140000412288
:100F2300140800020151090600324959513E007C60
:100F33001211127C007F49494936003E414141224A
:100F4300007F4141221C007F49494941007F090933
:100F53000901003E4149497A007F0808087F0000E3
:100F6300417F4100002040413F01007F081422419E
:100F7300007F40404040007F020C027F007F040856
:100F8300107F003E4141413E007F09090906003EB2
:100F93004151215E007F09192946004649494931DB
:100FA3000001017F0101003F4040403F001F2040FE
:100FB300201F003F4038403F0063140814630007BC
:100FC3000870080700615149454300007F41410013
:100FD30000552A552A55000041417F0000040201B3
:100FE3000204004040404040000001020400002091
:100FF30054545478007F48444438003844444420CF
:1010030000384444487F00385454541800087E097B
:1010130001020018A4A4A47C007F08040478000043
:10102300447D4000004080847D00007F1028440000
:101033000000417F4000007C04180478007C080411
:10104300047800384444443800FC2424241800184D
:10105300242418FC007C0804040800485454542039
:1010630000043F444020003C4040207C001C2040C2
:10107300201C003C4030403C004428102844001C05
:10108300A0A0A07C004464544C44141414141414FD
:1010930090000D1209693F8000007BFF7A1D79AC37
:1010A300C003C002C0017B017A007911A801AC0220
:1010B300AD03D001D002D0037E007F1412075C126F
:1010C3001446121D87121D9C900029120969C270D3
:1010D30000007F007E007D707CC2121270900107B9
:1010E300E0FEA3E0FFEF64014E7072C2AF90010710
:1010F300E4F0A3E4F0AFD47E00EF7F00FE900001A4
:10110300EEF0A3EFF0AFD57E00900001E0FCA3E08A
:10111300FDEE4CFEEF4DFF900001EEF0A3EFF0AFBC
:10112300D27E00EF7F00FE900003EEF0A3EFF0AF5E
:10113300D37E00900003E0FCA3E0FDEE4CFEEF4DF8
:10114300FF900003EEF0A3EFF075D14475D4007562
:10115300D50075D20075D300D2AF75D1CC90000104
:10116300E0FEA3E0FF12195E90000512095D9000F6
:1011730003E0FEA3E0FF12195E90000912095D90DF
:101183000005E0FCA3E0FDA3E0FEA3E0FF90002741
:1011930012095D7D027F0012003E900009E0FCA36E
:1011A300E0FDA3E0FEA3E0FF90002712095D7D03AD
:1011B3007F0012003E90000DE0FCA3E0FDA3E0FEE3
:1011C300A3E0FF90002712095D7D047F0012003E1B
:1011D300900001E0FEA3E0FFEE3395E0FDFC9000FC
:1011E3002712095D90002B7405F07D007F00121516
:1011F30073900003E0FEA3E0FFEE3395E0FDFC9067
:10120300002712095D90002B7405F07D017F001209
:1012130015737F03121AE6EFB4032290000DE0FC6E
:10122300A3E0FDA3E0FEA3E0FF7BCD7ACC79CC78ED
:101233003D1200AD90000D12095D0210CB7F041228
:101243001AE6EF640460030210CB90000DE0FCA3E8
:10125300E0FDA3E0FEA3E0FF7BCD7ACC79CC783D23
:101263001200A990000D12095D0210CB22900025F7
:1012730012095D75BA8090FFF2E4F090FFF07406F6
:10128300F0A3E4F07F007E007D007C00900025E069
:10129300F8A3E0F9A3E0FAA3E0FB1203446057408C
:1012A300557B007A0079C87842900025E0FCA3E0E2
:1012B300FDA3E0FEA3E0FF1202A7C004C005C00621
:1012C300C00790FFF0E0FCA3E0FDE41203D3A80401
:1012D300A905AA06AB07D007D006D005D004120192
:1012E3009E12040C90FF20EEF0A3EFF0C2A490FF37
:1012F300247480F0806A900025E0FCA3E0FDA3E065
:10130300FEA3E0FF1203BD90002512095D7B007A66
:101313000079C87842900025E0FCA3E0FDA3E0FE3D
:10132300A3E0FF1202A7C004C005C006C00790FFD8
:10133300F0E0FCA3E0FDE41203D3A804A905AA0688
:10134300AB07D007D006D005D00412019E12040CBF
:1013530090FF40EEF0A3EFF0C2A290FF447480F040
:101363007F007E007D007C00900029E0F8A3E0F977
:10137300A3E0FAA3E0FB120344605740557B007AD5
:101383000079C87842900029E0FCA3E0FDA3E0FEC9
:10139300A3E0FF1202A7C004C005C006C00790FF68
:1013A300F0E0FCA3E0FDE41203D3A804A905AA0618
:1013B300AB07D007D006D005D00412019E12040C4F
:1013C30090FF30EEF0A3EFF0C2A690FF347480F0EC
:1013D300806A900029E0FCA3E0FDA3E0FEA3E0FF08
:1013E3001203BD90002912095D7B007A0079C87849
:1013F30042900029E0FCA3E0FDA3E0FEA3E0FF127E
:1014030002A7C004C005C006C00790FFF0E0FCA31C
:10141300E0FDE41203D3A804A905AA06AB07D0078D
:10142300D006D005D00412019E12040C90FF60EE8A
:10143300F0A3EFF0C2A390FF647480F075BA007557
:10144300FE80227D007C007FAE7E00121CBB7D00EF
:101453007C007F007E00121CBB7D007C007F107E21
:1014630000121CBB7D007C007F407E00121CBB7DF4
:10147300007C007FB07E00121CBB7D007C007F815E
:101483007E00121CBB7D007C007FFF7E00121CBB14
:101493007D007C007FA17E00121CBB7D007C007F51
:1014A300A67E00121CBB7D007C007FA87E00121C60
:1014B300BB7D007C007F3F7E00121CBB7D007C0057
:1014C3007FC87E00121CBB7D007C007FD37E001290
:1014D3001CBB7D007C007F007E00121CBB7D007C5A
:1014E300007FD57E00121CBB7D007C007F807E00C8
:1014F300121CBB7D007C007FD87E00121CBB7D00CC
:101503007C007F057E00121CBB7D007C007FD97EA2
:1015130000121CBB7D007C007FF17E00121CBB7D92
:10152300007C007FDA7E00121CBB7D007C007F12F2
:101533007E00121CBB7D007C007FDB7E00121CBB87
:101543007D007C007F307E00121CBB7D007C007F11
:101553008D7E00121CBB7D007C007F147E00121C5C
:10156300BB7D007C007FAF7E00121CBB1219D02212
:10157300900025EFF0900026EDF090002EE4F0901F
:10158300002CE4F090002BE0FF90002CE0FEEEC373
:101593009F400302165490002CE0FF90002BE0FEC6
:1015A300C3EE9FFFEF14FD7F0A121BD9A804A90500
:1015B300AA06AB07900027E0FCA3E0FDA3E0FEA38F
:1015C300E0FF1208917B0A7A0079007800120891F3
:1015D300AC00AD01AE02AF0390002DEFF090002EF2
:1015E300E0FFEF703F90002BE0FFEF14FF90002C23
:1015F300E0FEEEC39F502D90002DE0FFEF701F9093
:10160300002CE0FFEF75F006A4FF900025E0FEEF4D
:101613002EFF900026E0FD7B201217BC802A90004D
:101623002E7401F090002CE0FFEF75F006A4FF90FC
:101633000025E0FEEF2EFF900026E0FD90002DE058
:10164300FEEE2430FB1217BC90002CE004F00215D0
:101653008722C0E0C0F0C083C082C0D075D000C074
:1016630000C001C002C003C004C005C006C00730EB
:10167300DF08C2DF9000F6E004F030D87AC2D890D9
:1016830000F9E0FEA3E0FF9000F7EEF0A3EFF0AF68
:10169300FA7E00EF7F00FEADEA7C00EE4CFEEF4DDC
:1016A300FF9000F9EEF0A3EFF09000FB1209690040
:1016B3000000009000F6E0FFE4FCFDFE7B007A00F2
:1016C30079017800120806A804A905AA06AB0790B9
:1016D30000F9E0FEA3E0FFE4FCFDEB2FFFEA3EFE92
:1016E300E93DFDE83CFC9000FB12095D75E90075DE
:1016F300F9009000F6E4F0D007D006D005D004D06E
:1017030003D002D001D000D0D0D082D083D0F0D08B
:10171300E0324400B6000000004400BE00000000B8
:101723004400993C23D70A4400BA3A83126F440019
:101733009D3F0000004400AA3E99999A4100A901E7
:101743004400A500000000500075000000000000E8
:10175300000000000000000000005000893F8000EE
:101763000000000000000000003F8000006028002F
:10177300C2000000000000000000000000000000A4
:1017830000000000000000000041F0000040A00045
:101793000040A00000000000004400FB0000000027
:1017A3004100F6004200F700004200F90000420148
:1017B30007000042010500000090003BEFF090009D
:1017C3003CEDF090003DEBF090003EE4F090003FE4
:1017D300E4F090003DE0FFEF24E0FF90003EEFF0E7
:1017E30090003BE0FFEFD3947F400C90003BE4F08C
:1017F30090003CE02402F090003BE0FF90003CE0CE
:10180300FD121C2890003FE4F090003FE0FFEFC37F
:101813009406503790003FE0FF90003EE0FE75F0E5
:1018230006EEA4246BF582E5F0340EF583E5822FF2
:10183300F582E43583F583E493FF7E007D017C002C
:10184300121CBB90003FE004F080BE22787FE4F6D8
:10185300D8FD758121021896021093E493A3F8E44E
:1018630093A34003F68001F208DFF48029E493A3F5
:10187300F85407240CC8C333C4540F4420C883400E
:1018830004F456800146F6DFE4800B0102040810DD
:10189300204080901715E47E019360BCA3FF543F62
:1018A30030E509541FFEE493A360010ECF54C02515
:1018B300E060A840B8E493A3FAE493A3F8E493A305
:1018C300C8C582C8CAC583CAF0A3C8C582C8CAC569
:1018D30083CADFE9DEE780BE900035EFF090003683
:1018E300EDF0900037EBF0A3EAF0A3E9F090003AB3
:1018F300E4F0900037E0FBA3E0FAA3E0F990003AAC
:10190300E0FF8F8275830012079BFFEF604C90000E
:1019130035E0FF900036E0FD900037E0FBA3E0FAEE
:10192300A3E0F990003AE0FE8E8275830012079BD4
:10193300FB1217BC900035E02408F0900035E0FF5F
:10194300EFD39478400C900035E4F0900036E02417
:1019530002F090003AE004F0809822900025EEF027
:10196300A3EFF0900025E0FCA3E0FDEC1203D3907D
:10197300002712095D7B007A00798C78429000275A
:10198300E0FCA3E0FDA3E0FEA3E0FF1202A77BF3CC
:101993007AB07910783E12019E90002712095D906B
:1019A3000027E0FCA3E0FDA3E0FEA3E0FF7B007AB9
:1019B3000079A0784112019E90002712095D9000E2
:1019C30027E0FCA3E0FDA3E0FEA3E0FF22900025B7
:1019D300E4F0900025E0FFEFC394085057900025F2
:1019E300E0FF7E00EF24B0FFEE3400FE7D007C00BC
:1019F300121CBB7D007C007F007E00121CBB7D009F
:101A03007C007F107E00121CBB900026E4F0900047
:101A130026E0FFEFC3948050137D017C007F007E9E
:101A230000121CBB900026E004F080E2900025E049
:101A330004F0809E22900026EEF0A3EFF0900028A1
:101A4300E4F0A3E4F0900026E0FEA3E0FF9000287A
:101A5300E0FCA3E0FDC3ED9FEC9E503090002A74A0
:101A63001FF090002B7428F090002BE014FFF0EF90
:101A730070F690002AE014FFF0EF70EC900029E07C
:101A830004F07006900028E004F080B9229000472B
:101A9300EFF0900048E4F0900048E0FFEFC39408B3
:101AA3005040900048E0FF900047E0FEEEA8070892
:101AB3008002C333D8FCFFEF30E704D2948002C224
:101AC300947F017E00121B39D2957F017E00121B89
:101AD30039C2957F017E00121B39900048E004F063
:101AE30080B522900025EFF0900025E0FFEFB402CF
:101AF3001020A03F7F057E00121A3820A0357F02F8
:101B030022900025E0FFEFB4031020CB267F057E53
:101B130000121A3820CB1C7F0322900025E0FFEF30
:101B2300B4041020CA0D7F057E00121A3820CA03A0
:101B33007F04227F0022900049EEF0A3EFF0900093
:101B43004BE4F0A3E4F0900049E0FEA3E0FF900033
:101B53004BE0FCA3E0FDC3ED9FEC9E502890004DAD
:101B6300E4F090004DE0FFEFC39405500890004D62
:101B7300E004F080ED90004CE004F0700690004B20
:101B8300E004F080C122C0E0C083C082C0D075D021
:101B930000C006C007900105E0FEA3E0FFC3EF9479
:101BA30032EE648094804013900107E4F0A3740143
:101BB300F0900105E4F0A3E4F0B2A1900106E00483
:101BC300F07006900105E004F0D007D006D0D0D025
:101BD30082D083D0E03290002FEFF0900030EDF010
:101BE30090003112096900000001900030E0FF14F9
:101BF300F0EF6022900031E0F8A3E0F9A3E0FAA34C
:101C0300E0FB90002FE0FFE4FCFDFE1208069000CD
:101C13003112095D80D4900031E0FCA3E0FDA3E024
:101C2300FEA3E0FF22900040EFF0900041EDF09022
:101C33000041E0FF7E00EF24B0FFEE3400FE7D00A4
:101C43007C00121CBB900040E0FFEF54F0FFEFC498
:101C5300540FFF7E00EF4410FF7D007C00121CBB7D
:101C6300900040E0FFEF540FFF7E007D007C0012E8
:101C73001CBB22900047E4F07F01121D3DD2947FEC
:101C8300017E00121B39D2957F017E00121B393071
:101C9300941C900047E004F0900047E0FFEFD394DA
:101CA300FA40EC121D707F00121D3D7F0122C29588
:101CB3007F00121D3D7F0022900042EEF0A3EFF063
:101CC300900044ECF0A3EDF0900044E0FEA3E0FFAD
:101CD300EF4E600C900042E0FEA3E0FF121CEF22E7
:101CE300900042E0FEA3E0FF12000E22900046EFB8
:101CF300F0121D597F78121A90121C767F40121A27
:101D030090121C76900046E0FF121A90121C761275
:101D13001D7022EFB40A07740D121D21740A309846
:101D230011A899B8130CC2983098FDA899C298B815
:101D330011F63099FDC299F59922900048EFF09081
:101D43000048E0FFEFB401077591407592002275DA
:101D5300910075920022D294D2957F027E00121BCD
:101D630039C2947F027E00121B39C29522C295C2EA
:101D7300947F027E00121B39D295D2947F027E009B
:101D8300121B392275D50075D40075D30075D200A6
:101D930075AF6075D1CCD2AF22438900758A307597
:101DA3008CF8D28CD2A9D2AF22616263000000000A
:0D1DB3000000000000000000000000000023
:00000001FF
