:10000000021C4253EFFD3253EFFB32021AEEE4FFC3
:10001000FE120782600C0FEF70010E09E970F20A00
:1000200080EF220221E3900027EEF0A3EFF0900092
:1000300027E0FCA3E0FDEC1203D390002912099302
:100040007B007A0079807841900029E0FCA3E0FDF4
:10005000A3E0FEA3E0FF1202A77B7A7A8D791D78D8
:100060003E12019E900029120993900029E0FCA302
:10007000E0FDA3E0FEA3E0FF7B007A00794878432F
:1000800012019E900029120993900029E0FCA3E040
:08009000FDA3E0FEA3E0FF2246
:03009B000200035D
:1000A300020007020478E86480F8E933E83360115A
:1000B3000460F0ED33EC337009E8FCE9FDEAFEEB94
:1000C300FF220460DED3EB9FEA9EE99DE8C2E78C42
:1000D300F0C2F795F0400CE8CCF8E9CDF9EACEFA96
:1000E300EBCFFB12044385D0F05804700320D5B343
:1000F300E80470075002B2D502048292D5EC046082
:10010300F7E4CCC0E0C398F8603B94186008400D56
:10011300D0E0FB02045AE4FBFAC9FC8028E830E48F
:1001230006E4C9FBE4CAFCE830E305E4C9CACBFC36
:10013300E854076010F8C3E913F9EA13FAEB13FB69
:10014300EC13FCD8F130F52FC3E49CFCEF9BFFEEDE
:100153009AFEED99FDD0E0FBEF4E4D4C701222DB81
:100163000302047FEC2CFCEF33FFEE33FEED33FD93
:10017300ED30E7EB02045AEF2BFFEE3AFEED39FDCB
:10018300D0E0FB50130BBB0003020482ED13FDEE22
:1001930013FEEF13FFEC13FC02045AEC4D6011E85D
:1001A300497017ED33EC3304600DE4FCFFFEFD22D0
:1001B300E933E8330470F802047812044358046006
:1001C30009E4CC2481500628500902048228400304
:1001D30002047FC0E0EB4A7044B98006D0E0FB0222
:1001E300046EEF4E701CBD8008EBFFEAFEE9FD8054
:1001F300EBE98DF0A4FEE5F0020287E9CDF9EAFE12
:10020300EBFFEF89F0A4FCE5F0CE89F0A42EFFE428
:1002130035F0CD89F0A42DFEE435F08067EF4E7004
:1002230005BD80D780C3EF8BF0A4ACF0EE8BF0A4B8
:100233002CFCE435F0F8EF8AF0A42CE5F038FCE46C
:1002430033CB8DF0A42CFCE5F03BF8EE8AF0A42C24
:10025300FCE5F038F8E433CF89F0A42CFCE5F03862
:10026300CF3400CE89F0A42FFFE5F03EFEE433C97E
:100273008DF0A42EFEE5F039CD8AF0A42FFFE5F032
:100283003EFEE43DFD33D0E0FB50070BBB000F0205
:100293000482EC2CFCEF33FFEE33FEED33FD02045E
:1002A3005A020482EC5D046005E8590470030204F9
:1002B30078120443580460F6EC4860F2EC7004FDD5
:1002C300FEFF22C860DB2481C85009C39860025036
:1002D3000602047F9850CAF582E9294B4A7005ABA0
:1002E3008202046E75F0007C1A7880C3EF9BEE9A4D
:1002F300ED99400DC3EF9BFFEE9AFEED99FDE842A9
:10030300F0DC23ACF0D0E0FFD0E0FED0E0FDAB8228
:1003130020E7101BEB60BAEC2CFCEF33FFEE33FE4F
:10032300ED33FD02045AE803F830E705C0F075F039
:1003330000EF2FFFEE33FEED33FD40B830E7C28010
:10034300AA74F8CC6480CCC86480C8F58204604F7A
:10035300C3EB9FF5F0EA9E42F0E99D42F0E89C452D
:10036300F0603C501DE5825FFFE582D313CB5BCB8E
:10037300F42B5582FB50280ABA002409B90020083F
:10038300801DE5825BFBE582D313CF5FCFF4C313FC
:100393002F5582FF50090EBE00050DBD00010CC391
:1003A300EB9FF5F0EA9E42F0E99D42F0E89C45F0B0
:1003B3006007CC4820E701B3EC22ED33EC33600A4D
:1003C300047003BD8004ECB2E7FC2275F020800EBC
:1003D30075F010800575F0087D007E007F00339274
:1003E300D530D503120959EC334010EF33FFEE3308
:1003F300FEED33FDEC33FCD5F0ED22E5F0247EA2D7
:10040300D513CC92E7CDCEFF22EDD2E7CD33EC333B
:1004130092D524814006E4FFFEFDFC22FCE4CFCE0E
:10042300CDCC24E0501174FF80EDC3CC13CCCD139D
:10043300CDCE13CECF13CF0470F030D5DE020959E1
:10044300E9D2E7C933E833F892D5EDD2E7CD33ECFF
:1004530033FC5002B2D522EC30E7100FBF000C0E74
:10046300BE00080DBD00040BEB6014A2D5EB13FC1A
:10047300ED92E7FD2274FFFCFDFEFF22E480F8A26B
:10048300D574FF13FC7D80E480EFF920E73624F96F
:1004930050037907E4F42402FBE582158270021508
:1004A30083DBF6E024FB501BE96014E4F0E58215DE
:1004B3008270021583E004F0B40A08E4F0D9EE7404
:1004C30001F00A22C2D522ED33EC3392D5FA602A29
:1004D300B4FF33EDC2E77BFF60067A0479EFE422D1
:1004E3007A0479F820D5047A0479F3224E614E0018
:1004F3002B494E46002D494E4600E47A08F0A3DA14
:10050300FC7B00740722C083C082ECC0E0EDC0E036
:10051300EEC0E0EFC0E0EA75F010A4CAABF075F0EE
:100523004DA42BFBE435F0FCEA2410FAEB34C5FBB5
:10053300EC34D9FCEDC2E7FF75F056A4F42411C5E1
:10054300F0F434C58FF0A42AE5F03BE43CF020E757
:10055300141205FFD0E0FFD0E0FED0E0FDD0E0FCB8
:100563001202A78014F4041205FFD0E0FFD0E0FECE
:10057300D0E0FDD0E0FC12019ED082D083E0FAED02
:10058300D2E7CD33EC332482FBE4C3CF33CFCE3376
:10059300CECD33CD33DBF37B0775F00A846004F0F3
:1005A300A31B0AE5F0F0A38FF0740AA4FFACF08E4E
:1005B300F0740AA42CFEACF050010C8DF0740AA464
:1005C3002CFDE435F0F0A3DBDE7407223F8000004E
:1005D3004120000042C80000447A0000461C40004D
:1005E30047C35000497424004B1896804CBEBC206E
:1005F3005A0E1BCA6753C21C749DC5AEFB600654DA
:1006030007601C232312062DEB54386009120619C8
:1006130012062812019EECF8EDF9EEFAEFCB22EB6D
:1006230012062880F1543803241C9005CFFE93FC56
:100633000EEE93FD0EEE930ECE93FF22C0E0EFFB82
:10064300EEFAEDF9ECF812019ED0E0F5F0EFFBEED7
:10065300FAEDF9ECF8120967A3A3A3A3E8C0E0E954
:10066300C0E0EAC0E0EBC0E0C0F012019E120983D3
:10067300A3A3A3A31200ADD0F0D0E0FBD0E0FAD047
:10068300E0F9D0E0F8D5F0D422E709F608DFFA80E4
:1006930046E709F208DFFA803E88828C83E709F097
:1006A300A3DFFA8032E309F608DFFA8078E309F280
:1006B30008DFFA807088828C83E309F0A3DFFA8075
:1006C3006489828A83E0A3F608DFFA805889828AE4
:1006D30083E0A3F208DFFA804C80D280FA80C680E0
:1006E300D4806980F28033801080A680EA809A806B
:1006F300A880DA80E280CA803389828A83ECFAE4B4
:1007030093A3C8C582C8CCC583CCF0A3C8C582C88F
:10071300CCC583CCDFE9DEE7800D89828A83E4934D
:10072300A3F608DFF9ECFAA9F0EDFB2289828A83AC
:10073300ECFAE0A3C8C582C8CCC583CCF0A3C8C576
:1007430082C8CCC583CCDFEADEE880DB89828A837A
:10075300E493A3F208DFF980CC88F0EF60010E4E3A
:1007630060C388F0ED2402B4040050B9F582EB2491
:1007730002B4040050AF23234582239006DC73BBED
:10078300010689828A83E0225002E722BBFE02E34C
:100793002289828A83E49322BB010CE58229F582B4
:1007A300E5833AF583E0225006E92582F8E622BB89
:1007B300FE06E92582F8E222E58229F582E5833AFD
:1007C300F583E49322BB010689828A83F0225002D7
:1007D300F722BBFE01F322C2D5EC30E709B2D5E420
:1007E300C39DFDE49CFCEE30E715B2D5E4C39FFF47
:1007F300E49EFE120A16C3E49DFDE49CFC800312F2
:100803000A1630D507C3E49FFFE49EFE22C5F0F825
:10081300A3E028F0C5F0F8E582158270021583E0A5
:1008230038F022A3F8E0C5F025F0F0E582158270D8
:10083300021583E0C838F0E822E88FF0A4CC8BF0EF
:10084300A42CFCE98EF0A42CFC8AF0EDA42CFCEA89
:100853008EF0A4CDA8F08BF0A42DCC3825F0FDE9C3
:100863008FF0A42CCD35F0FCEB8EF0A4FEA9F0EBB9
:100873008FF0A4CFC5F02ECD39FEE43CFCEAA42DC5
:10088300CE35F0FDE43CFC2275F008758200EF2FB5
:10089300FFEE33FECD33CDCC33CCC58233C5829B43
:1008A300ED9AEC99E58298400CF582EE9BFEED9A69
:1008B300FDEC99FC0FD5F0D6E4CEFBE4CDFAE4CC05
:1008C300F9A88222B800C1B90059BA002DEC8BF007
:1008D30084CFCECDFCE5F0CBF97818EF2FFFEE33C4
:1008E300FEED33FDEC33FCEB33FB10D703994004EF
:1008F300EB99FB0FD8E5E4F9FA227818EF2FFFEE16
:1009030033FEED33FDEC33FCC933C910D7059BE946
:100913009A4007EC9BFCE99AF90FD8E0E4C9FAE4A2
:10092300CCFB2275F010EF2FFFEE33FEED33FDCC41
:1009330033CCC833C810D7079BEC9AE899400AED2B
:100943009BFDEC9AFCE899F80FD5F0DAE4CDFBE4D3
:10095300CCFAE4C8F922C3E49FFFE49EFEE49DFDC4
:10096300E49CFC22E493FC740193FD740293FE74F3
:100973000393FF22E0F8A3E0F9A3E0FAA3E0FB224C
:10098300E493F8740193F9740293FA740393FB22CA
:10099300ECF0A3EDF0A3EEF0A3EFF022A8828583A1
:1009A300F0D083D0821209B61209B61209B6120921
:1009B300B6E473E493A3C583C5F0C583C8C582C8F1
:1009C300F0A3C583C5F0C583C8C582C822F8E0FB80
:1009D300A3A3E0F925F0F0E582158270021583E008
:1009E300FA38F022EBF0A3EAF0A3E9F022D083D0A7
:1009F30082F8E4937012740193700DA3A393F874B7
:100A03000193F5828883E4737402936860EFA3A370
:100A1300A380DFBC000BBE0029EF8DF084FFADF097
:100A230022E4CCF875F008EF2FFFEE33FEEC33FC35
:100A3300EE9DEC984005FCEE9DFE0FD5F0E9E4CE6B
:100A4300FD22EDF8F5F0EE8420D21CFEADF075F03A
:100A530008EF2FFFED33FD4007985006D5F0F22243
:100A6300C398FD0FD5F0EA22E510243AF582E43469
:100A730000F583E005102290003730070390003A19
:100A8300E475F0011209D00207822000E97F2ED21B
:100A9300008018EF540F2490D43440D4FF30040B5B
:100AA300EF24BFB41A0050032461FFE5116002155F
:100AB300110514E5147002051330070E900037E496
:100AC30075F0011209D0EF0207C80221BC7403D2EA
:100AD300078003E4C207F5109000371209E7E4F535
:100AE30011F513F514E51160077F20120AAE80F5A6
:100AF3007512FFC201C200C202C203C205C206C20E
:100B030008120A7AFF700D3007057F00120ABFAF83
:100B130014AE1322B4255FC2D5C204120A7AFF248D
:100B2300D0B40A00501A75F00A781130D50508B60A
:100B3300FF0106C6A426F620D5047002D20380D98D
:100B430024CFB41A00EF5004C2E5D204020DB1D28F
:100B53000180C6D20080C0D20280BCD2D580BAD276
:100B63000580B47F20120AAE2002077401B511007C
:100B730040F1120A6BFF120AAE020AE8D208D2064B
:100B83008095120A6BFB120A6BFA120A6BF94A4B35
:100B9300700679AF7A0E7BFF20022EE511602A7E64
:100BA300008E8275830012079B60060EEE6512703D
:100BB300F0C2D5EBC0E0EAC0E0E9C0E0EE120E12ED
:100BC300D0E0F9D0E0FAD0E0FB120782FF60AAEB95
:100BD300C0E0EAC0E0E9C0E0120AAED0E02401F9C7
:100BE300D0E03400FAD0E0FBE5120460DCD512D982
:100BF3008087D20280A2120DF460F7E5127001041F
:100C030012048DA912600DE512600914F512120E7B
:100C13009CEF60F3EA30E702F404C3995079EAF4F5
:100C230025120430E701E404F512800D120DF4607F
:100C3300C1EA0512251212048DEA900066F030E72E
:100C430001E4251204D5120420050114120E12E446
:100C5300C0E0120E9C900066E0601320E70714F0DA
:100C6300120A96802204F0D0E014C0E07F00120A3A
:100C730096E5126007120A8D1512800B30050312D8
:100C83000A8DD0E0020AE8D0E00480C4120DF460BB
:100C93009EE5120412048D900066EAF0E512200529
:100CA300026001042404120E1274FF04C0E0120E49
:100CB3009C120A96E5122005026003120A8DD0E009
:100CC300B512E87F45120AA0900066E07F2B30E75B
:100CD300047F2DF404C0E0120AAED0E075F00A845C
:100CE300C0F0120A97D0E0120A97020AE87910803E
:100CF300027908C206C2088008D2D5790A8004792D
:100D03000AC2D5E512047002F512E4FAFDFEFF12E1
:100D13000A6BFC7B08200113120A6BFD7B10300069
:100D23000A120A6BFE120A6BFF7B20EC3382D59208
:100D3300D55013C3E43000069FFFE49EFEE4200178
:100D4300039DFDE49CFCE4CBF8C201EC700CCFCE18
:100D5300CDCCE824F8F870F38017C3EF33FFEE33FC
:100D6300FEED33FDEC33FCEB33FB994002FB0FD874
:100D7300E9EB300105F8D0E0C448B201C0E00AEC69
:100D83004D4E4F78207B0070C2EAB5120040BCC0C4
:100D9300E0120E14D0F0D0E0200104C4C0E0C4B2CD
:100DA30001C0F0120A97D0F0D5F0EB020AE812095D
:100DB300F00B85530CF0580B564C0B52420CF44F6E
:100DC3000CFC440CFC490B6B430D02550C2F460CD9
:100DD3008F450BF9470ECF500B5A2D0B5E2E0B810F
:100DE3002B0B62230B7F200EB82A0B1A4800000B33
:100DF30079E512B4FF03751206120A6BFC120A6B33
:100E0300FD120A6BFE120A6BFF90005F0204CA799F
:100E13000AA2D5200314300509B910020404B90845
:100E23000104A2D52006025001042002689202B5F3
:100E330011005034C0E07F203003197F30A20272CA
:100E4300067205500F120E6BC202C206C205C2081B
:100E53007F30800F300503E9C0E0120AAE3005038E
:100E6300D0E0F9D0E0B511CC3005177F30B9100CC4
:100E7300120AAE7F583004077F788003B908031243
:100E83000AAE3002057F2D020AAE7F202008F87FCC
:100E93002B2006F322920280CF7F00B40700500B71
:100EA300245FF582E43400F583E0FF22286E756C3D
:100EB3006C2900D201120A6B3001F8C2017811309B
:100EC300D50108F6020B1A2D50434958120A6B2418
:100ED30003B405004001E4900ECA93120A9F743ACA
:100EE300120A9FD203751104020CF0900027120915
:100EF300937F007E007DC87C42900027E0F8A3E04A
:100F0300F9A3E0FAA3E0FB120344400C900027127C
:100F1300099F42C8000080277F007E007DC87CC2F5
:100F2300900027E0F8A3E0F9A3E0FAA3E0FB1203A3
:100F3300446002500A90002712099FC2C800007F34
:100F4300007E007DC87C4290002BE0F8A3E0F9A36B
:100F5300E0FAA3E0FB120344400C90002B12099F1C
:100F630042C8000080277F007E007DC87CC29000BD
:100F73002BE0F8A3E0F9A3E0FAA3E0FB120344603B
:100F830002500A90002B12099FC2C8000075BA8054
:100F930090FFF2E4F090FFF07406F0A3E4F07F001A
:100FA3007E007D007C00900027E0F8A3E0F9A3E039
:100FB300FAA3E0FB120344605740557B007A0079A3
:100FC300C87842900027E0FCA3E0FDA3E0FEA3E085
:100FD300FF1202A7C004C005C006C00790FFF0E0DF
:100FE300FCA3E0FDE41203D3A804A905AA06AB07FA
:100FF300D007D006D005D00412019E12040C90FF36
:1010030020EEF0A3EFF090FF247480F0C2A4806A76
:10101300900027E0FCA3E0FDA3E0FEA3E0FF1203A2
:10102300BD9000271209937B007A0079C87842901B
:101033000027E0FCA3E0FDA3E0FEA3E0FF1202A76C
:10104300C004C005C006C00790FFF0E0FCA3E0FDAC
:10105300E41203D3A804A905AA06AB07D007D00658
:10106300D005D00412019E12040C90FF40EEF0A3B1
:10107300EFF0C2A290FF447480F07F007E007D00F9
:101083007C0090002BE0F8A3E0F9A3E0FAA3E0FBD7
:10109300120344605740557B007A0079C878429028
:1010A300002BE0FCA3E0FDA3E0FEA3E0FF1202A7F8
:1010B300C004C005C006C00790FFF0E0FCA3E0FD3C
:1010C300E41203D3A804A905AA06AB07D007D006E8
:1010D300D005D00412019E12040C90FF30EEF0A351
:1010E300EFF0C2A690FF347480F0806A90002BE08A
:1010F300FCA3E0FDA3E0FEA3E0FF1203BD90002BE1
:101103001209937B007A0079C8784290002BE0FCA7
:10111300A3E0FDA3E0FEA3E0FF1202A7C004C00505
:10112300C006C00790FFF0E0FCA3E0FDE41203D388
:10113300A804A905AA06AB07D007D006D005D0049A
:1011430012019E12040C90FF60EEF0A3EFF0C2A315
:1011530090FF647480F075BA0075FE8022900003DE
:10116300E4F0A3E4F0900005E4F0A3E4F090000FB2
:1011730012099F424800007BFF7A2479F1C003C023
:1011830002C0017B017A007913A801AC02AD03D040
:1011930001D002D0037E007F1412075C1222B490A8
:1011A300002B12099FC24800007F007E007D487C0F
:1011B300C2120EEE900139E0FEA3E0FFEF64014E90
:1011C300700B12158C900139E4F0A3E4F090013D0B
:1011D300E0FEA3E0FF12002690000712099390019E
:1011E3003FE0FEA3E0FF12002690000B120993904C
:1011F3000007E0FCA3E0FDA3E0FEA3E0FF900029CD
:101203001209937D027F00121EEB90000BE0FCA3FA
:10121300E0FDA3E0FEA3E0FF9000291209937D0304
:101223007F00121EEB90013BE0FEA3E0FFEE33953F
:10123300E0FDFC90002912099390002D7405F07DC8
:10124300047F0012195090000FE0FCA3E0FDA3E01F
:10125300FEA3E0FF9000291209937D057F00121E73
:10126300EB90013DE0FEA3E0FFEE3395E0FDFC9043
:10127300002912099390002D7405F07D007F001260
:10128300195090013FE0FEA3E0FFEE3395E0FDFC33
:1012930090002912099390002D7405F07D017F00C1
:1012A3001219507F03121E2F7E00EF64034E701835
:1012B30090013CE004F0700690013BE004F09000E4
:1012C30005E4F0A3E4F0803B7F04121E2F7E00EFC1
:1012D30064044E701890013CE024FFF090013BE061
:1012E30034FFF0900005E4F0A3E4F080167F0212CF
:1012F3001E2F7E00EF64024E7009900005E4F0A3F8
:101303007401F0900005E0FEA3E0FFEF64014E607E
:10131300030211B790013FE0FEA3E0FF90013DE01F
:10132300FCA3E0FDED2FFFEC3EFE7C007D021207E7
:10133300DA90013BE0FCA3E0FDC3ED9FFDEC9EFCD6
:10134300EC1203D3C004C005C006C0077B017A00BA
:1013530079FCC003C002C0017B017A00792BA8018C
:10136300AC02AD03D001D002D0037E007F28120768
:101373005CD007D006D005D00412184490000F1299
:10138300099390000FE0FCA3E0FDA3E0FEA3E0FFC0
:10139300C004C005C006C00790000FE0FCA3E0FD39
:1013A300A3E0FEA3E0FF90002B120993D007D00621
:1013B300D005D004120EEE0211B722900035EBF0E7
:1013C300A3EAF0A3E9F0900041E4F0A3E4F0900075
:1013D30035E0FBA3E0FAA3E0F912000E90003BEE28
:1013E300F0A3EFF0900038E0FBA3E0FAA3E0F912DA
:1013F300000E90003DEEF0A3EFF07BFF7A25790914
:101403001220DB900035E0FBA3E0FAA3E0F9122001
:10141300DB7BFF7A2579091220DB900038E0FBA300
:10142300E0FAA3E0F91220DB7BFF7A257909122089
:10143300DB90003FE4F0A3E4F0900035E0FBA3E091
:10144300FAA3E0F990003FE0FEA3E0FF8F828E83D2
:1014530012079BFFEF700302152A900038E0FBA3ED
:10146300E0FAA3E0F990003FE0FEA3E0FF8F828E55
:101473008312079BFFEF700302152A900038E0FBED
:10148300A3E0FAA3E0F990003FE0FEA3E0FF8F8220
:101493008E8312079BFF900035E0FBA3E0FAA3E0E5
:1014A300F990003FE0FCA3E0FD8D828C8312079B43
:1014B300FEEED39F4012900041E4F0A37401F0903C
:1014C3000041E0FEA3E0FF22900038E0FBA3E0FA36
:1014D300A3E0F990003FE0FEA3E0FF8F828E83122A
:1014E300079BFF900035E0FBA3E0FAA3E0F990002F
:1014F3003FE0FCA3E0FD8D828C8312079BFEEEC3CD
:101503009F501390004174FFF0A374FFF0900041CB
:10151300E0FEA3E0FF22900040E004F0700690009C
:101523003FE004F002143C900041E0FEA3E0FFEF33
:101533004E704D90003DE0FEA3E0FF90003BE0FCC9
:10154300A3E0FDD3ED9FEE6480F8EC64809840093E
:10155300900041E4F0A37401F090003DE0FEA3E0AD
:10156300FF90003BE0FCA3E0FDC3ED9FEE6480F839
:10157300EC648098500A90004174FFF0A374FFF06C
:10158300900041E0FEA3E0FF227BFF7A25790CC0A7
:1015930003C002C0017B017A00792BA801AC02AD24
:1015A30003D001D002D0037E007F0A12075C9000B3
:1015B30027E4F0900027E0FF74DE2FF582E4340087
:1015C300F583E0FFEF6029900027E0FF74DE2FF53D
:1015D30082E43400F583E0FFEFB43A0C900027E097
:1015E300FF900028EFF08008900027E004F080C30C
:1015F300900029E4F0900028E0FF900029E0FEEE3F
:10160300C39F502A900029E0FF74DE2FF582E43453
:1016130000F583E0FF900029E0FE74CE2EF582E40E
:101623003400F583EFF0900029E004F080C79000C8
:1016330029E0FF74CE2FF582E43400F583E4F090C3
:101643000028E0FFEF04FF900027EFF07B017A0012
:1016530079DE12000E900027E0FD7C00D3ED9FECB5
:101663009E503E900027E0FF74DE2FF582E43400A5
:10167300F583E0FF900028E0FEEEFD7C009000275C
:10168300E0FEEEFB7A00C3EB9DFDEA9CFC74F12DBA
:10169300F58274003CF583EFF0900027E004F080BE
:1016A300AB900028E0FF7E00900027E0FD7C00C3A4
:1016B300ED9FFFEC9EFE74F12FF58274003EF583DF
:1016C300E4F07B017A0079CEC003C002C0017BFF46
:1016D3007A257905900038EBF0A3EAF0A3E9F0D07E
:1016E30001D002D0031213BE90002AEFF07B017ADF
:1016F30000792B1220DB90002AE0FF7E00EF4E7072
:101703000A90013BE4F0A37402F02290002AE0FF68
:10171300122283227D007C007FAE7E001221127D87
:10172300007C007F007E001221127D007C007F1070
:101733007E001221127D007C007F407E0012211268
:101743007D007C007FB07E001221127D007C007F33
:10175300817E001221127D007C007FFF7E0012211A
:10176300127D007C007FA17E001221127D007C008F
:101773007FA67E001221127D007C007FA87E0012CE
:1017830021127D007C007F3F7E001221127D007CB0
:10179300007FC87E001221127D007C007FD37E0073
:1017A3001221127D007C007F007E001221127D0039
:1017B3007C007FD57E001221127D007C007F807E1D
:1017C300001221127D007C007FD87E001221127D41
:1017D300007C007F057E001221127D007C007FD9F2
:1017E3007E001221127D007C007FF17E0012211207
:1017F3007D007C007FDA7E001221127D007C007F59
:10180300127E001221127D007C007FDB7E001221FC
:10181300127D007C007F307E001221127D007C004F
:101823007F8D7E001221127D007C007F147E0012CA
:1018330021127D007C007FAF7E00122112121D5801
:1018430022900027120993900027E0FCA3E0FDA358
:10185300E0FEA3E0FF90003312099390004BE0FCFD
:10186300A3E0FDA3E0FEA3E0FF900033E0F8A3E0D4
:10187300F9A3E0FAA3E0FB1200AD90004B12099329
:1018830090004BE0FCA3E0FDA3E0FEA3E0FF90008B
:101893003FE0F8A3E0F9A3E0FAA3E0FB12019EC046
:1018A30004C005C006C007900033E0FCA3E0FDA31D
:1018B300E0FEA3E0FF90003BE0F8A3E0F9A3E0FA29
:1018C300A3E0FB12019EA804A905AA06AB07D00753
:1018D300D006D005D0041200ADC004C005C006C0B8
:1018E30007900037E0F8A3E0F9A3E0FAA3E0FB9048
:1018F3000033E0FCA3E0FDA3E0FEA3E0FF1200A998
:10190300900043E0F8A3E0F9A3E0FAA3E0FB12019F
:101913009EA804A905AA06AB07D007D006D005D018
:10192300041200AD90004F120993900033E0FCA322
:10193300E0FDA3E0FEA3E0FF9000371209939000BF
:101943004FE0FCA3E0FDA3E0FEA3E0FF229000270D
:10195300EFF0900028EDF0900030E4F090002EE4DA
:10196300F090002DE0FF90002EE0FEEEC39F4003B9
:10197300021A3790002EE0FF90002DE0FEC3EE9F89
:10198300FFEF14FD7F0A121FF2A804A905AA06ABF4
:1019930007900029E0FCA3E0FDA3E0FEA3E0FF1213
:1019A30008C77B0A7A00790078001208C7AC00AD3B
:1019B30001AE02AF0390002FEFF0900030E0FF7E06
:1019C30000EF4E704290002DE0FFEF14FF90002EC9
:1019D300E0FEEEC39F503090002FE0FF7E00EF4EFD
:1019E300701F90002EE0FFEF75F006A4FF90002714
:1019F300E0FEEF2EFF900028E0FD7B20121BA1806C
:101A03002A9000307401F090002EE0FFEF75F0068D
:101A1300A4FF900027E0FEEF2EFF900028E0FD904A
:101A2300002FE0FEEE2430FB121BA190002EE004F9
:101A3300F002196422420139000042013B000144D3
:101A430000B8000000004400C00000000044009BF8
:101A53003C23D70A4400BC3A83126F44009F3D0FD6
:101A63005C294400AC3CE560424100AB014400A763
:101A7300000000005000770000000000000000009C
:101A83000000000000000050008B3F8000000000B9
:101A93000000000000003F800000602800FC000000
:101AA3000000000000000000000000000000000033
:101AB30000000000000040A0000000000000000043
:101AC300000000000000420132000042013000002B
:101AD3004A00CE313233340000000000004A00C413
:101AE3006164630000000000000000C0E0C083C028
:101AF30082C0D075D000C004C005C006C0079001E5
:101B030030E0FEA3E0FFC3EF9405EE6480948040D1
:101B13006E900130E4F0A3E4F0AFD47E00EF7F00D9
:101B2300FE90013DEEF0A3EFF0AFD57E0090013DB6
:101B3300E0FCA3E0FDEE4CFEEF4DFF90013DEEF027
:101B4300A3EFF0AFD27E00EF7F00FE90013FEEF0F7
:101B5300A3EFF0AFD37E0090013FE0FCA3E0FDEEE6
:101B63004CFEEF4DFF90013FEEF0A3EFF075D14433
:101B730075D40075D50075D20075D30075D1CC909E
:101B83000131E004F07006900130E004F0D007D09A
:101B930006D005D004D0D0D082D083D0E0329000DC
:101BA3003DEFF090003EEDF090003FEBF0900040F1
:101BB300E4F0900041E4F090003FE0FFEF24E0FF09
:101BC300900040EFF090003DE0FF7E00D3EF947F64
:101BD300EE64809480400C90003DE4F090003EE081
:101BE3002402F090003DE0FF90003EE0FD12204112
:101BF300900041E4F0900041E0FF7E00C3EF9406C3
:101C0300EE648094805037900041E0FF900040E004
:101C1300FE75F006EEA424C9F582E5F03422F583BF
:101C2300E5822FF582E43583F583E493FF7E007D1F
:101C3300017C00122112900041E004F080B7227869
:101C43007FE4F6D8FD758121021C89021160E493BB
:101C5300A3F8E493A34003F68001F208DFF480299C
:101C6300E493A3F85407240CC8C333C4540F44208B
:101C7300C8834004F456800146F6DFE4800B01027A
:101C8300040810204080901A38E47E019360BCA3BE
:101C9300FF543F30E509541FFEE493A360010ECFC8
:101CA30054C025E060A840B8E493A3FAE493A3F8F2
:101CB300E493A3C8C582C8CAC583CAF0A3C8C582B2
:101CC300C8CAC583CADFE9DEE780BE900037EFF0FC
:101CD300900038EDF0900039EBF0A3EAF0A3E9F0BF
:101CE30090003CE4F0900039E0FBA3E0FAA3E0F9B4
:101CF30090003CE0FF8F8275830012079BFFEF602B
:101D030053900037E0FF900038E0FD900039E0FB8E
:101D1300A3E0FAA3E0F990003CE0FE8E8275830015
:101D230012079BFB121BA1900037E02408F09000E0
:101D330037E0FF7E00D3EF9478EE64809480400C0C
:101D4300900037E4F0900038E02402F090003CE08B
:101D530004F0809122900027E4F0900027E0FF7EBA
:101D630000C3EF9408EE64809480505E900027E0F7
:101D7300FF7E00EF24B0FFEE3400FE7D007C0012F6
:101D830021127D007C007F007E001221127D007CE9
:101D9300007F107E00122112900028E4F0900028AA
:101DA300E0FF7E00C3EF9480EE6480948050137D47
:101DB300017C007F007E00122112900028E004F0D5
:101DC30080DB900027E004F0809022900002EFF087
:101DD300900002E0FFEFB42B127B017A0079DE90D2
:101DE30000DBEBF0A3EAF0A3E9F022900002E0FFAE
:101DF300EFB42A199000DBE0FBA3E0FAA3E0F9E4D7
:101E03001207C8900139E4F0A37401F02290000294
:101E1300E0FF9000DBE0FBA3E0FAA3E0F9EF120799
:101E2300C89000DCE475F00112081022900027EF3F
:101E3300F0900027E0FF7E00EF64024E701020A0B8
:101E4300477F057E00121F4320A03D7F02229000A2
:101E530027E0FF7E00EF64034E701020CB2A7F053E
:101E63007E00121F4320CB207F0322900027E0FF38
:101E73007E00EF64044E701020CA0D7F057E0012B1
:101E83001F4320CA037F04227F0022900049EFF002
:101E930090004AE4F090004AE0FF7E00C3EF94080C
:101EA300EE64809480504090004AE0FF900049E047
:101EB300FEA807EE088002C333D8FCFFEF30E70427
:101EC300D2948002C2947F017E00121F9BD2957F21
:101ED300017E00121F9BC2957F017E00121F9B9003
:101EE300004AE004F080AE22900027EFF090002833
:101EF300EDF07B017A00792DC003C002C0017BFFA6
:101F03007A2279C190003AEBF0A3EAF0A3E9F090CA
:101F13000029E0FCA3E0FDA3E0FEA3E0FF90003D69
:101F2300120993D001D002D003120AD0900027E007
:101F3300FF900028E0FD7B017A00792D121CCE2250
:101F4300900028EEF0A3EFF090002AE4F0A3E4F071
:101F5300900028E0FEA3E0FF90002AE0FCA3E0FD50
:101F6300C3ED9FEC9E503090002C741FF090002D19
:101F73007428F090002DE014FFF0EF70F690002C21
:101F8300E014FFF0EF70EC90002BE004F07006908B
:101F9300002AE004F080B92290004BEEF0A3EFF0AA
:101FA30090004DE4F0A3E4F090004BE0FEA3E0FFCB
:101FB30090004DE0FCA3E0FDC3ED9FEC9E502F90FD
:101FC300004FE4F090004FE0FF7E00C3EF9405EE76
:101FD30064809480500890004FE004F080E6900005
:101FE3004EE004F0700690004DE004F080BA2290B9
:101FF3000031EFF0900032EDF090003312099F00B2
:10200300000001900032E0FF14F0EF6022900033F3
:10201300E0F8A3E0F9A3E0FAA3E0FB900031E0FFCE
:10202300E4FCFDFE12083C90003312099380D49027
:102033000033E0FCA3E0FDA3E0FEA3E0FF22900059
:1020430042EFF0900043EDF0900043E0FF7E00EF9D
:1020530024B0FFEE3400FE7D007C001221129000BC
:1020630042E0FFEF54F0FFEFC4540FFF7E00EF4454
:1020730010FF7D007C00122112900042E0FFEF541C
:102083000FFF7E007D007C0012211222900049E4A4
:10209300F07F01122207D2947F017E00121F9BD290
:1020A300957F017E00121F9B309423900049E0042A
:1020B300F0900049E0FF7E00D3EF94FAEE64809441
:1020C3008040E51222597F001222077F0122C29528
:1020D3007F001222077F0022900043EBF0A3EAF077
:1020E300A3E9F0900043E0FBA3E0FAA3E0F91207B1
:1020F30082FFEF6019900043E0FBA3E475F0011247
:102103000826A9F0FA120782FF12228380D52290B3
:102113000044EEF0A3EFF0900046ECF0A3EDF09056
:102123000046E0FEA3E0FFEF4E600C900044E0FEAB
:10213300A3E0FF12219522900044E0FEA3E0FF12EA
:10214300216E22C0E0C083C082E59830E108539835
:10215300FD900135E4F0E59830E0095398FE9000D6
:1021630000E599F0D082D083D0E032900048EFF0C0
:102173001222427F78121E8E12208F7F00121E8E33
:1021830012208F900048E0FF121E8E12208F122221
:102193005922900048EFF01222427F78121E8E12CD
:1021A300208F7F40121E8E12208F900048E0FF1276
:1021B3001E8E12208F12225922EFB40A07740D12B9
:1021C30021C7740A309811A899B8130CC298309893
:1021D300FDA899C298B811F63099FDC299F59922D4
:1021E300C0E0C0F0C083C082C0D075D00830980969
:1021F300C2AF1222A5D2AFC298D0D0D082D083D0A2
:10220300F0D0E03290004AEFF090004AE0FF7E0009
:10221300EF64014E7007759140759200227591002D
:1022230075920022439850438900758E40758BCB7D
:10223300758DFFD28ED2ACD2AF900135E4F022D2AD
:1022430094D2957F027E00121F9BC2947F027E0070
:10225300121F9BC29522C295C2947F027E00121F59
:102263009BD295D2947F027E00121F9B2275D500CC
:1022730075D40075D30075D20075AF6075D1CC22CB
:10228300900046EFF0900046E0FF8F993099FDC231
:102293009922438900758A30758CF8D28CD2A9D2E1
:1022A300AF22900001E599F0900001E0FF121DCEEE
:1022B3002212171712227012222712229522252E7C
:1022C3003266202020000000000000000000002FE4
:1022D300000000000700070000147F147F1400248F
:1022E3002A7F2A12006264081323003649552250BC
:1022F30000000503000000001C22410000004122F1
:102303001C000014083E08140008083E08080000DA
:1023130000A06000000808080808000060600000D2
:10232300002010080402003E5149453E0000427F50
:102333004000004261514946002141454B3100189C
:1023430014127F10002745454539003C4A4949305E
:102353000001710905030036494949360006494918
:10236300291E000036360000000056360000000823
:102373001422410000141414141400004122140800
:1023830000020151090600324959513E007C1211E5
:10239300127C007F49494936003E41414122007F7A
:1023A3004141221C007F49494941007F0909090134
:1023B300003E4149497A007F0808087F0000417FB9
:1023C3004100002040413F01007F08142241007F6B
:1023D30040404040007F020C027F007F0408107FD2
:1023E300003E4141413E007F09090906003E41513B
:1023F300215E007F091929460046494949310001F8
:10240300017F0101003F4040403F001F2040201F4B
:10241300003F4038403F006314081463000708700E
:10242300080700615149454300007F4141000055C1
:102433002A552A55000041417F000004020102048D
:10244300004040404040000001020400002054547A
:102453005478007F484444380038444444200038CA
:102463004444487F00385454541800087E0901023C
:102473000018A4A4A47C007F080404780000447D11
:102483004000004080847D00007F1028440000004D
:10249300417F4000007C04180478007C0804047821
:1024A30000384444443800FC24242418001824240D
:1024B30018FC007C08040408004854545420000409
:1024C3003F444020003C4040207C001C2040201C16
:1024D300003C4030403C004428102844001CA0A08D
:1024E300A07C004464544C44141414141414616206
:1024F3006300000000000000000000000000000076
:102503000000616463000D0A006161616100000005
:03251300000000C5
:00000001FF
